:020000040800F2
:100000000047002001010008AD190008AD190008E3
:10001000AD190008AD190008AD1900080000000076
:10002000000000000000000000000000AD19000802
:10003000AD19000800000000AD190008B543000824
:100040001B0100081B0100081B0100081B01000820
:100050001B0100081B0100081B0100081B01000810
:100060001B0100081B0100081B01000831110008DA
:100070004D11000869110008CD110008F1110008A8
:1000800015120008791200081B0100081B01000866
:10009000557300081B0100081B0100081B01000824
:1000A0001B0100081B0100081B0100081B010008C0
:1000B0001B0100081B0100081B0100081B010008B0
:1000C0001B0100081B0100081B0100081B010008A0
:1000D0001B010008E5480008D94B00081B01000877
:1000E0001B0100081B0100081B010008DFF80CD0F1
:1000F00000F02AF800480047557500080047002026
:100100000648804706480047FEE7FEE7FEE7FEE7B1
:10011000FEE7FEE7FEE7FEE7FEE7FEE781440008B4
:10012000ED00000840EA01039B0703D009E008C97D
:10013000121F08C0042AFAD203E011F8013B00F8AC
:10014000013B521EF9D27047064C074D06E0E068AD
:1001500040F0010394E8070098471034AC42F6D30E
:10016000FFF7C8FFB47C0008D47C000870B5174EB8
:10017000F06A804710F0020F08BF70BD144C25686C
:10018000706A804761682844411AB1F5806FA4BF46
:100190006068084415DA0029D8BF70BD6068C0F3F4
:1001A0000900C0F5806081420DDC6068094AC0F337
:1001B0000900104405F062FD0028C6BF61680844CC
:1001C00070BD606070BD0146EFE70000A87A0008CE
:1001D00060000020FE3200202DE9F04F027883B04D
:1001E000A2F180031F2B04D800F072FC03B0BDE81D
:1001F000F08F0A704F1C10F8011B06461F2980F073
:100200005684DFE811F01F005E007A0093009D0223
:10021000AB02B102540407049C00A300540454042C
:10022000540454045404AA0054017F018F01F601C0
:100230001A027D022E04330438043D0442044B04A8
:100240009E0146043178781C0024062933D006DC50
:10025000052930D2DFE801F02F2F2F2F0E00FD29C6
:1002600018D002DCF02926D10AE0FE2920D0FF298F
:1002700018D020E006242246FD49FFF753FF1AE07C
:10028000FC490968002918BF202141F017010170BD
:10029000012410E000211022017042708170C170B1
:1002A000042408E04021017000214170022402E092
:1002B0004021017001243C7003B004F10210BDE83C
:1002C000F08F307830B101280BD0FF203870EA4829
:1002D00000F0E8BBE9497078096800F0010009689E
:1002E00005E0E6497078096800F001004968884730
:1002F00000203870E04800F0D5BB3478002C0CBFEB
:100300000124012C06D0022C18BF002408D03C7018
:1003100000F012BADA490120087002F097FDF6E702
:10032000D7490220087002F033FDF0E7D4480024DA
:10033000047002F063FD3C70012000F0B3BB308814
:1003400000EB4000C000401EFDD1D1E701207870D5
:1003500000203870022000F0A5BB357874787079E1
:10036000D6F8026014F0010F60F31F660CD0C54888
:1003700015F0010F416841F0806141604FF4804009
:100380000CBFC149C149086014F0020F0CD0BD4830
:1003900015F0020F416841F0806141604FF4005058
:1003A0000CBFB949B949086014F0040F08D0A80877
:1003B00010F0010F4FF020000CBFB549B54908609F
:1003C00014F0800F1CBFE80907F088FAF6B3012289
:1003D000DFF8C4C2DCF80410B04EDFF8C492A948BC
:1003E000A6F10408A9F1040A14F0010F08D043682B
:1003F00043F0806343603368C3F38033AB4229D159
:1004000014F0020F0AD0436843F080634360D8F8C9
:100410000030C3F34033B3EB550F1BD114F0040F7E
:1004200006D0D9F80030C3F34013B3EB950F11D1C8
:1004300014F0200F18BF5FEA55130BD114F0800F92
:100440000DD0DAF80030C3F3801300E007E0B3EB1F
:10045000D51F04D0DCF804305B1A9342C4D389481A
:10046000416841F0806141608C4909684268C1F38C
:10047000803142F0806242608A480068C0F34030B8
:1004800041EA40008649096801F0200140EAD101B3
:1004900085480268006802F0800241EA121100F00B
:1004A000400041EA40003870804800F0FBBAF27822
:1004B000306862F31F6088B17D4A824213D8704869
:1004C0000122427042606E480278022A08BF491C2D
:1004D000416000203870774800F0E4BAFF2038709F
:1004E000744800F0DFBA664A002151707249014435
:1004F000B1FBF0F0022891BF01217049A1FB00106F
:100500004108E0E73478711C002C08BF4FF4807478
:10051000204603F0A1FD00203870E01DC008012135
:10052000401CE9E0307800F003014A1C5449C0F354
:1005300080000A764876002038704FF0011000F0F5
:10054000B1BA002007F8010B012516F8010BA846E7
:10055000B0F1010928BFDFF82CA146D316F8014BF2
:1005600014F03F0008BF4020C01D4FEAD00BDAF85E
:10057000040014F0800F40F08060CAF80400504876
:10058000016821F4700114BF41F4000141F44011ED
:1005900001604FF4005014BF3C493B4908603A46A3
:1005A0003146204602F0DAFEB9F1000F0FD1DAF839
:1005B000040040F08060CAF804004148016821F45A
:1005C000700141F44011016041142F48016014F0A2
:1005D000800F03D05F44D8446D1C03E005EB0B0093
:1005E0005E44451CB9F10109B8D248EA054000F063
:1005F00059BA002007F8010B012516F8010BA8468F
:10060000B0F1010AF1D300BF16F8019B19F03F00C9
:1006100008BF4020C01DC4083A463146484601F094
:10062000FFFC2819451C264419F0800F1CBF2744E5
:10063000A044BAF1010AE7D2D7E7114D16F8014BF1
:100640000020AC769CB105F11C0205F12403214683
:1006500016F801CB02F801CB23F8020B6044491EC7
:10066000F6D124B105F11B0305F132022AE03FE087
:10067000BC7900080C0000200100020008000020E6
:10068000080100200000014014080140100801404A
:10069000140C0140100C0140001000E00C08014057
:1006A0000C0C014008080140080C01400100060044
:1006B00080A8120101000400FF502502ABAAAAAADB
:1006C0000408014014F0010F04D013F8011F401A70
:1006D00022F8020F5FEA540C0AD05978401A508071
:1006E00013F8021F401A22F8040FBCF1010CF4D1D8
:1006F00000203870601C012141EA004000F0D2B9AE
:10070000EF480178022915D13178C176807E814287
:1007100010D20E2001F094F901F0B6FB00213970DF
:100720007870010AB970010CF970000E3871E54853
:1007300000F0B8B9FF2038704FF0011000F0B2B9E6
:10074000DF4831780173B6F801100182B6F8031062
:10075000418200203870DC4800F0A4B939463046A8
:1007600000F0CEF900F09EB9D548007801280FD0EE
:10077000022877D0002038707870B8700320F178A4
:1007800011F0020F18BF40F4802040F08B8139E156
:10079000DFF838934FF0000A504607F1030889F854
:1007A00000A0741C34F8025B7DB314F801BB1BF08D
:1007B000020F04BF681E019043D01BF0010F1CBF45
:1007C000BF48048A0FD00021584602F057FE022885
:1007D00002D0012807D061E0641E5FD399F80010B1
:1007E0000029F0D05AE06C1E58D324B91BF0010F39
:1007F00018BF4FF00E0BB248058A6946584602F002
:100800003DFE022802D0012807D047E06D1E45D3E7
:1008100099F800100029F0D040E0009908F8011B79
:1008200000990AF1010A090A08F8011B0099090C4C
:1008300008F8011B0099090E08F8011B641ED4D2A8
:100840002CE0E17854F8040B61F31F6000909C48A1
:10085000058A6946584602F011FE022803D0012895
:1008600008D01BE023E06D1E18D399F80010002972
:10087000EFD013E001980AF1010A401E0190E0D286
:100880008F48048A00210E2002F0F8FD022805D1CD
:10089000641E03D399F800100029F3D087F800A054
:1008A0004FEA1A217970B870A8EB070067E7FD1CC2
:1008B0000197864F4FF00008404687F80080804936
:1008C0003278741CCA76897E8A4247D234F802BBD9
:1008D000BBF1000F42D014F8019B19F0010F0CBFBF
:1008E0004FF00A0A4FF00B0A504601F0A9F819F030
:1008F000020F19BF7248048AABF10100029043D085
:100900000021484601F0FAFB022802D0012806D057
:100910006CE0641E6AD339780029F1D066E0BBF13F
:10092000010B63D3BBF1000F0AD06548048A694606
:10093000484601F0E3FB02280BD001280FD055E018
:10094000BAF10A0F1CBF0A2001F07AF84FF00E0925
:10095000EBE7641E4AD339780029E8D046E00099D5
:1009600005F8011B009908F10108090A05F8011BA7
:100970000099090C05F8011B0099090E05F8011BE7
:10098000BBF1010BCED231E0E17854F8040B61F3F6
:100990001F6000904A48B0F810B06946484601F020
:1009A000ADFB022802D0012807D01FE0BBF1010BEC
:1009B0001CD339780029F0D018E0029808F101081A
:1009C000401E0290E0D2BAF10A0F1CBF0A2001F0CB
:1009D00037F83B48048A00210E2001F08FFB0228E3
:1009E00004D1641E02D339780029F4D001994FEA6A
:1009F000182281F8008001994A7001998870019845
:100A0000281ABCE6B6F801104FF4802202EB8141AF
:100A1000084347E02A480178012902D002290BD077
:100A20000FE03179D6F8010061F31F60009069464C
:100A3000002002F023FD10E03178C176807E8142F3
:100A400001D3FF200AE0082000F0FAFF3179D6F840
:100A5000010061F31F6002F003F8002038701A48AB
:100A600020E03946304603F085FC1BE0394630462D
:100A700003F028FC16E03946304603F031FB11E064
:100A80003946304603F04CFB0CE0384603F042FC9C
:100A900008E03946304603F0D7FB03E039463046DC
:100AA00003F066FB03B000F10110BDE8F08FFF20FA
:100AB00007F8010C03B04FF00110BDE8F08F000003
:100AC00008010020050001000100050020000020B1
:100AD000FF2008704FF00110704700000748002108
:100AE00001220170417042600173642303824182DC
:100AF000416102764176817602F080B908010020DA
:100B00002DE9F04FFF4E054600233078FE4F8FB0A1
:100B100001281CD0022800F08881AC466D1C15F815
:100B2000010B50B115F8012B12F0020F02D012F098
:100B3000100F00D02D1D401EF4D10B704B70A5EB93
:100B40000C0002210FB041EA0040BDE8F08FCDE972
:100B500004510020891C0B9000913B7007900A9073
:100B600095F80180AD1CB8F1000F00F0538100BF73
:100B700015F8019B19F0020F79D00799A1B3348AB7
:100B800009F0110001280BD101A9484602F076FCBA
:100B900002280DD1641E44D339780029F4D0A6E090
:100BA00001A90E2002F06AFC022804D0002107915E
:100BB000012836D107E0641E02D339780029EFD02E
:100BC0000021079193E0DDE900120A70019A009973
:100BD000120A01F8012F019A120C01F8012F019A53
:100BE000120E4A70891C009119F0100F40D0E8785D
:100BF00055F804ABB6F812B060F31F6A19F0010F94
:100C000018BF348A0ED00021484602F037FC022873
:100C100002D0012806D06AE0641E68D33978002922
:100C2000F1D064E0348A01A9484602F027FC02288A
:100C300002D0012806D010E0641E0ED339780029B6
:100C4000F1D00AE0726901991140514505D0BBF11C
:100C5000010B02D339780029E4D07169019A11405F
:100C6000514518BF40F01000012840D138E050E055
:100C7000348A19F0010F13D0079989BB0021484627
:100C800002F0FCFB022805D0012804BF01210791D6
:100C900026D02CE0641E2AD339780029EED026E035
:100CA00001A9484602F0EAFB022802D0012806D03A
:100CB0001DE0641E1BD339780029F1D017E0DDE96F
:100CC00000120A70019A0099120A01F8012F019A84
:100CD000120C01F8012F019A120E4A70891C009122
:100CE00000210A910B99491C0B913978F1B3B8F1A5
:100CF000000F0BD015F8011B11F0020F02D011F0FC
:100D0000100F00D02D1DB8F10108F3D101284BD0F0
:100D100080E00798002818BF348A1AD001A90E2055
:100D200002F0ACFB02282ED00128E0D1DDE9000161
:100D3000017001990098090A00F8011F0199090C36
:100D400000F8011F0199090E4170801C00900020DD
:100D50000790E97855F8040B19F0200F61F31F6034
:100D600001901ABF70610120348A00E017E0B9D108
:100D700001A9484602F082FB02280AD0012808BFD8
:100D80000121AED0B3E7641EB1D339780029C5D0B4
:100D9000ADE7641EABD339780029E9D0A7E7B8F1F5
:100DA00001087FF4E5AEB1E70799002918BF348A3E
:100DB00020D001A90E2002F061FB022802D00128F8
:100DC00006D027E0641E25D339780029F1D021E030
:100DD000DDE900120A70019A0099120A01F8012F48
:100DE000019A120C01F8012F019A120E4A70891C07
:100DF00000910FE00A99002918BF348A0AD0002117
:100E00000E2002F03BFB022804D1641E02D3397885
:100E10000029F4D0059A0B9911700599487005992D
:100E20000098411A0498281A8CE600200491891C25
:100E300006950C9000913B7003900A9015F8011BE9
:100E4000F176B27E914280F0628115F8018BB8F1A3
:100E5000000F00F05C8100BF15F8019B19F0010F35
:100E600014BF0B240A2419F0020F74D00A9981B31D
:100E70000398B6F810A0A04208BF19F0100F0FD0C9
:100E800003980A2803D00A20039000F0D9FD02A994
:100E90000E2001F033F9022812D000210A9105E05A
:100EA00002A9484601F02AF9022802D0012841D1BE
:100EB00010E0BAF1010A3DD339780029F0D0D9E029
:100EC000BAF1010A02D339780029E0D000210A9151
:100ED000D0E010E0009A02991170029A0099120A6B
:100EE00001F8012F029A120C01F8012F029A120E3A
:100EF0004A70891C009119F0100F48D0E87855F815
:100F000004AB03E0080100202000002060F31F6A0A
:100F10000398B6F812B0A04203D02046039400F024
:100F20008FFD348A0021484601F0E8F8022802D0FB
:100F3000012806D09EE0641E44D339780029F1D000
:100F400098E0348A02A9484601F0D8F8022803D074
:100F5000012807D011E036E0641E0ED3397800294D
:100F6000F0D00AE0726902991140514505D0BBF1F9
:100F7000010B02D339780029E3D07169029A11403C
:100F8000514518BF40F01000012873D16DE00A9957
:100F9000A1BB0398A04203D02046039400F050FD6B
:100FA000348A0021484601F0A9F8022805D001281A
:100FB00004BF01210A9158D05CE0641E5AD33978ED
:100FC0000029EED056E00A9860B303980A2803D0AF
:100FD0000A20039000F034FDB6F810A002A90E20FC
:100FE00001F08CF8022802D0012808D042E0BAF1C2
:100FF000010A3FD339780029F0D03BE035E0009971
:101000000298087002990098090A00F8011F0299D5
:10101000090C00F8011F0299090E4170801C009014
:1010200000200A90E97855F8040B19F0200F61F3BD
:101030001F6002901CBF7061012016D10398A0426E
:1010400003D02046039400F0FBFC348A02A94846F2
:1010500001F054F8022802D0012806D00AE0641EEC
:1010600008D339780029F1D004E00C99491C0C917F
:10107000397891B1B8F1000F0CD000BF15F8011B01
:1010800011F0020F02D011F0100F00D02D1DB8F199
:101090000108F3D1012805D039E0B8F101087FF447
:1010A000DBAEF7E703980A281CBF0A2000F0C8FC53
:1010B000348A0A9800B302A90E2001F01FF8022812
:1010C00002D0012806D022E0641E20D339780029FE
:1010D000F1D01CE0009A02991170029A0099120A4C
:1010E00001F8012F029A120C01F8012F029A120E38
:1010F0004A70891C00910AE000210E2000F0FEFFDA
:10110000022804D1641E02D339780029F4D0049A4D
:101110000C9911700499487004990098411A069826
:101120000FB0281A41EA0040BDE8F08F7047000078
:10113000044910B5086800F00F004860FFF7F6FF9B
:1011400010BD00000000024070470000044910B5C7
:101150000868C0F3031002014A60FFF7F5FF10BDF5
:101160000000024070470000044910B50868C0F351
:10117000032002024A60FFF7F5FF10BD00000240A5
:101180001148816A09684A680146002A496B496822
:101190001CBF00297047426B5161426B4FF0000148
:1011A00082F8211041688989426841F040019181AB
:1011B000016BC968022908BF7047006B01680029EC
:1011C00008BF704701200847C8790008044910B5D6
:1011D0000868C0F3033002034A60FFF7D1FF10BD77
:1011E00000000240014804F0CFBB0000C8790008AD
:1011F000044910B50868C0F3034002044A60FFF7D1
:10120000F1FF10BD00000240014804F0BDBB00002A
:10121000007A0008044910B50868C0F303500205BD
:101220004A60FFF7F1FF10BD000002401148816ADB
:1012300009684A680146002A496B49681CBF0029B1
:101240007047426B5161426B4FF0000182F82110F0
:1012500041688989426841F040019181016BC96808
:10126000022908BF7047006B0168002908BF70475A
:1012700001200847007A0008044910B50868C0F347
:10128000036002064A60FFF7D1FF10BD0000024074
:10129000012818BF704730B43248426942F0010259
:1012A0004261002330480F244FF0E0224FF0010C40
:1012B00008294FD2DFE801F04E040D17222D3843E4
:1012C000836044604FF40060C2F88002C2F80001FD
:1012D00040E0C361F02343604FF48050C2F88002C5
:1012E000C2F8000136E003634FF4706343604FF4CB
:1012F0000050C2F88002C2F800012BE043644FF4B2
:10130000704343604FF48040C2F88002C2F800018D
:1013100020E083654FF4702343604FF40040C2F82F
:101320008002C2F8000115E0C3664FF47003436009
:101330004FF48030C2F88002C2F800010AE0C0F821
:1013400080304FF0706343604FF40030C2F8800289
:10135000C2F8000105480CFA01F10278114301704E
:1013600030BC7047001002400000024038000020EE
:10137000012818BF704730B4DFF8D8C09CF80000CF
:10138000002804BF30BC7047002001244FF0E02249
:10139000314B08294BD2DFE801F04A040E18222C09
:1013A00036404FF40065C2F88051BFF34F8FBFF352
:1013B0006F8F98603BE04FF48055C2F88051BFF3C7
:1013C0004F8FBFF36F8FD86131E04FF40055C2F8F3
:1013D0008051BFF34F8FBFF36F8F186327E04FF437
:1013E0008045C2F88051BFF34F8FBFF36F8F5864B1
:1013F0001DE04FF40045C2F88051BFF34F8FBFF39B
:101400006F8F986513E04FF48035C2F88051BFF3B9
:101410004F8FBFF36F8FD86609E04FF40035C2F8E5
:101420008051BFF34F8FBFF36F8FC3F8800004FA72
:1014300001F09CF8001031EA00008CF800001CBF9D
:1014400030BC70470548416921F00101416130BC61
:1014500070470000380000200000024000100240E9
:1014600045F6C0514843401EFDD1704730B5054692
:101470004FF4302000F04AF8042818BF30BD0A4C61
:10148000206940F0020020616561206940F0400061
:1014900020614FF4302000F039F8216941F6FD72E7
:1014A0001140216130BD0000002002400248016966
:1014B00041F08001016170470020024070B506468E
:1014C0000D464FF4005000F021F8042818BF70BDFD
:1014D000074C206940F00100206135804FF4005036
:1014E00000F014F8216941F6FE721140216170BDCF
:1014F00000200240034802494160034941607047AF
:101500002301674500200240AB89EFCD1749024611
:101510000420CB6813F0010F25D1CB6813F0040F22
:1015200018BF02201AD1C96811F0100F18BF03208C
:1015300014E0CB68042013F0010F18BF01200AD17A
:10154000CB6813F0040F18BF022004D1CB6813F04E
:10155000100F18BF0320521E012804D0002A18BF04
:10156000704705207047002AE3D1FAE700200240C7
:1015700081B0002804BF01B0704714498A6912F095
:10158000010F03D18A6942F001028A6110F4805F81
:10159000C0F3421200F01F030D49C0F3032002FA0A
:1015A00003F200FA03F007D0CB6923EA02021043EA
:1015B0000090C86101B070474B6823EA02021043F3
:1015C00020F0E0600090486001B0704700100240D9
:1015D000000001402DE9F001CB78002203F00F0C50
:1015E00013F0100F1CBF8B7843EA0C0C0B784FF0F4
:1015F0000F0613F0FF0F4FF0010518BF046819D054
:101600000F8805FA02F31F409F420FD1970006FA98
:1016100007F824EA08040CFA07F73C43CF78282F90
:1016200008BF436102D0482F08BF0361521C082A3B
:10163000E6D304600A88FF2A87BF44680022BDE819
:10164000F001704702F108030F8805FA03F31F4009
:101650009F420FD1970006FA07F824EA08040CFA13
:1016600007F73C43CF78282F08BF4361CF78482F36
:1016700008BF0361521C082AE4D34460BDE8F001AE
:10168000704700000F2984BF00207047F0B5044662
:101690000D463448A4F180411F461646B1F5843109
:1016A00004BF8069C0F3800035D0A4F18042B2F558
:1016B000863204BF8069C0F3C0002CD0A4F1804200
:1016C000B2F5883204BF8069C0F3001023D0A4F1C2
:1016D0008042B2F58A3204BF8069C0F340101AD04C
:1016E000A4F18042B2F58C3204BF8069C0F380104F
:1016F00011D0A4F18042B2F58E3204BF8069C0F3EC
:10170000C01008D0A4F18042B2F5903204BF8069C5
:10171000C0F3002000D118B90121204600F024F8C0
:101720006FB90120A840022E04BFE16821EA000041
:1017300004D0032E03D1E16802260843E060082D9F
:1017400024BF241D083D2168A8000F228240914338
:10175000216047EA860101FA00F021680843206011
:101760000120F0BD001002402DE9F001344A354B54
:10177000DFF8D4C0354C364D364E374FDFF8DC80BD
:1017800000292FD0404504BF906940F0040025D0C7
:10179000984204BF906940F008001FD0604504BF24
:1017A000906940F0100019D0A04204BF906940F049
:1017B000200013D0A84204BF906940F040000DD033
:1017C000B04204BF906940F0800007D0B84207BF24
:1017D000906940F48070BDE8F00170479061BDE809
:1017E000F0017047404504BF906920F00400F5D037
:1017F000984204BF906920F00800EFD0604504BF14
:10180000906920F01000E9D0A04204BF906920F058
:101810002000E3D0A84204BF906920F04000DDD052
:10182000B04204BF906920F08000D7D0B84204BF16
:10183000906920F48070D1D0BDE8F00170470000BD
:1018400000100240000C0140001001400014014053
:1018500000180140001C0140002001400008014028
:101860002DE9F0410278FF27A2F1D003072B7AD8A7
:1018700001F8012B0C4610F8011BD03908296ED253
:10188000DFE801F0041215181C2A4A5E404800687F
:1018900004F8010B010A04F8011B010C04F8011BF8
:1018A000000E04F8010B5BE0FFF724FE58E0FFF7A1
:1018B000FDFD55E00068FFF7D9FD51E08288016821
:1018C000501E80B24CD300BF11F8012BFF2A1BD150
:1018D000401E80B2F8D243E08188D0F800803829D9
:1018E0003ED8851D481E86B23AD300BF15F8011BAD
:1018F0002EB115F8010B41EA0021701E86B2404658
:10190000FFF7DCFD042801D0FF2729E0711E8EB20D
:1019100008F10208EAD223E0828801683E2A1FD833
:10192000002004F8010B501E80B219D330B111F819
:10193000012B401E04F8012B80B2F7E70F780FE06F
:10194000BFF34F8F13480168134A01F4E06111435C
:101950000160BFF34F8F00BFFDE704E0FFE7641EA7
:101960002770BDE8F0810D480268002A02BFFF2001
:101970000870BDE8F0810A490A48C368806801EB35
:101980008311094B5268BDE8F04103EB801010470A
:10199000002004E00CED00E00400FA050400002043
:1019A000FE2200204C000020FE12002072B61D48CE
:1019B000006880F308881C4EB06940F01000B061E8
:1019C0001A4C4FF40055656119492046FFF702FE95
:1019D000B06940F01000B061656116492046FFF71C
:1019E000F9FD2561002665616420FFF739FD256159
:1019F00065616420FFF734FD25614FF47A70FFF7CD
:101A00002FFD761C052EEEDBBFF34F8F0A480168D1
:101A10000A4A01F4E06111430160BFF34F8F00BF38
:101A2000FDE7000000000008001002400010014027
:101A3000687900086C7900080CED00E00400FA05F4
:101A40002DE9F04FFE49DFF8FCB30A4691F801900A
:101A5000D77E02F11C0A02EB47054FF400584FF005
:101A6000200CF94BF94C1A1F4FF48046B9F1000FC6
:101A700000F0C880616841F080616160C146C2F8D1
:101A80000080616841F0806161601E60616841F0C2
:101A9000806161601660616841F0806161601E6014
:101AA000616841F0806161601660616841F0806149
:101AB0006160C3F80080616841F0806161601E6010
:101AC000616841F0806161601660616841F0806129
:101AD00061601E60616841F0806161601660CBF8F2
:101AE00000C0A98C81B100BFD4F8048048F08068A0
:101AF000C4F804801E60D4F8048048F08068C4F8FC
:101B000004801660491EEFD117F80A10491E18BF4D
:101B1000DFF83C8314D000BF10F0010F14BFCBF8E6
:101B200000C0C8F800C0676847F0806767601E6043
:101B3000676847F08067676016604008491EEBD110
:101B4000A98E00294FD010F0010F06BFC048C0F881
:101B500000C0CBF800C0606840F0806060601E602C
:101B6000606840F0806060601660CBF800C0481E7E
:101B70000BD0616841F0806161601E60616841F076
:101B8000806161601660401EF3D1606840F0806043
:101B90006060C2F80090606840F0806060601E6025
:101BA000606840F0806060601660606840F080604F
:101BB00060601E60606840F0806060601660606811
:101BC00040F080606060C3F80090606840F0806022
:101BD00060601E60606840F0806060601660CBF8F6
:101BE00000C0BDE8F08F616841F080616160C2F8BB
:101BF000009010F0010F12BFCBF800C09448C0F85D
:101C000000C0C8E7D4F8049049F08069C4F8049093
:101C10009146C2F80080626842F0806262601E6095
:101C200049680A46521EFDD1626842F080626260D5
:101C3000C9F800600A46521EFDD1626842F0806217
:101C400062601E600A46521EFDD1626842F08062E8
:101C50006260C9F800600A46521EFDD1626842F017
:101C6000806262604FF400521A60626842F08062E3
:101C700062601E600A46521EFDD1626842F08062B8
:101C80006260C9F800600A46521EFDD1626842F0E7
:101C9000806262609E461E600B465B1EFDD16268DC
:101CA00042F080626260C9F800600A46521EFDD1AF
:101CB000CBF800C0AB8C002B18BFF04613D0626885
:101CC00042F080626260C8F800600A46521EFDD190
:101CD000626842F080626260C9F800600A46521E83
:101CE000FDD15B1EEBD117F80A20531E1FD0DFF881
:101CF00060A177464FEA090810F0010F14BFCBF836
:101D000000C0CAF800C0626842F0806262603E6053
:101D10000A46521EFDD1626842F080626260C8F8D5
:101D200000600A46521EFDD140085B1EE4D1AA8E17
:101D3000F2B310F0010F06BF4548C0F800C0CBF861
:101D400000C0606840F080606060CEF800600846C7
:101D5000401EFDD1606840F080606060C9F800609E
:101D60000846401EFDD1CBF800C0521E13D060685B
:101D700040F080606060CEF800600846401EFDD1F3
:101D8000606840F080606060C9F800600846401EEE
:101D9000FDD1521EEBD1606840F0806060604FF46E
:101DA0000050C9F80000606840F08060606000E0AA
:101DB0000EE0CEF800600846401EFDD1606840F09D
:101DC00080606060C9F800600846401EFDD121E0D7
:101DD000626842F0806262604FF40052C9F80020ED
:101DE00010F0010F12BFCBF800C01948C0F800C0B6
:101DF000606840F080606060CEF800600846401E79
:101E0000FDD1606840F080606060C9F800600846FD
:101E1000401EFDD1606840F080606060CEF80060D8
:101E20000846401EFDD1606840F080606060C9F8DF
:101E300000600846401EFDD1606840F0806009E007
:101E400008010020100C014014080140000001406E
:101E5000140C014060604FF40050CEF80000606840
:101E600040F080606060CEF800600846401EFDD102
:101E7000606840F080606060C9F80060491EFDD174
:101E8000CBF800C0BDE8F08F2DE9F003604A506840
:101E900040F0806050605F4C55142560506840F001
:101EA0008060506004F1040C6B00CCF800305A4E96
:101EB00070680146401EFDD1506840F0806050605F
:101EC00023600846401EFDD1506840F0806050609D
:101ED000CCF80050506840F080605060CCF8003082
:101EE0000846401EFDD1506840F08060506023607D
:101EF0000846401EFDD1506840F080605060CCF82C
:101F000000300846401EFDD1506840F080605060AF
:101F100023600846401EFDD1F67E96B1506840F021
:101F200080605060CCF800300846401EFDD15068FB
:101F300040F08060506023600846401EFDD1761E50
:101F4000ECD1364F00264FF01F08506840F08060FB
:101F50005060CCF800300846401EFDD13868C0F310
:101F6000C019506840F08060506023600846401EF1
:101F7000FDD146EAC9704608B8F10108E5D15068BC
:101F800040F0806050602560506840F08060506094
:101F9000CCF800300846401EFDD13868C0F3C017A9
:101FA000506840F08060506023600846401EFDD1BC
:101FB00046EAC770566846F080665660CCF8003036
:101FC0000E46761EFDD1566846F080665660236048
:101FD0000E46761EFDD1566846F080665660CCF8F7
:101FE0000050556845F080655560CCF800308C464F
:101FF00065466D1EAC46FBD1D2F804C04CF0806C37
:10200000C2F804C02360491EFDD1BDE8F00370474B
:10201000000001401008014008010020080C0140A8
:102020002DE9F74F009810F03F0308BF402310F050
:10203000400F2D4E2B4F4FF400507268A7F104084B
:1020400042F08062726014BFC8F800003860002B54
:1020500004BF03B0BDE8F08F4FF02009DFF88CE03B
:102060004FF4804A2248002511F801CB0824426829
:1020700025E000BF1CF0010F14BF1E481E48C0F829
:102080000090706840F080607060C7F800A0104653
:10209000401EFDD1DEF80000C0F3C01B706840F0A8
:1020A00080607060C8F800A01046401EFDD168082E
:1020B0005B1E4FEA5C0C40EACB15641E01D0002B7E
:1020C000D8D1009A25FA04F012F0800F04D0029AB9
:1020D00010700298401C0290002BC3D103B0BDE8E1
:1020E000F08F00001408014000000140080C01407E
:1020F00008010020100C0140140C0140034A5278E2
:102100000AB100F005B800F00BBA00000801002089
:102110002DE9F84FFA4A536843F080635360DFF8C3
:10212000E4C34FF40058CCF80080536843F0806358
:1021300053600CF1040B4FF48043CBF8003054682B
:1021400044F080645460CCF80030546844F08064FB
:102150005460CBF80080546844F080645460CBF83D
:102160000030546844F080645460CCF80030546807
:1021700044F080645460CBF80030546844F08064CC
:102180005460CCF80030E04CE47E6CB1556845F00A
:1021900080655560CBF80030556845F08065556026
:1021A000CCF80030641EF1D14408DFF8609314F0DD
:1021B000010F4FF020051ABFD54C2560C9F800501B
:1021C000546844F080645460CBF80030D14F3C68D0
:1021D0005668C4F3C01446F080665660CCF80030F0
:1021E0006600840814F0010F1ABFC94C2560C9F8B5
:1021F0000050546844F080645460CBF800303C6870
:10220000D2F804A0C4F3C0144AF0806AC2F804A053
:10221000CCF800302643C40814F0010F1ABFBC4CA0
:102220002560C9F80050B64C626842F08062626076
:10223000B94B4FF480421A603B68D4F804A0C3F352
:10224000C0134AF0806AC4F804A0DFF8B8C2CCF822
:10225000002046EA830EBEF1010F1AD023465968CA
:1022600041F0806159606246C2F80080596841F0CF
:102270008061596002F1040C4FF48041CCF80010E9
:10228000D3F804C04CF0806CC3F804C0116000F0B7
:10229000E5B89D4A10F0020F937ED27EA3EB0202B6
:1022A00000927DD0974E0023DFF854C21F224FF4D6
:1022B000804406F1040900BFDCF804A04AF0806AFB
:1022C000CCF804A0C9F80040D7F800A04FEADA1B08
:1022D000DCF804A04AF0806ACCF804A0346043EA39
:1022E000CB735B08521EE7D1009A521E3DD0DCF83A
:1022F00004A04AF0806ACCF804A0C9F800403F6806
:10230000C7F3C01ADCF8047047F08067CCF804709B
:102310003460521E11D000BFDCF8047047F08067B3
:10232000CCF80470C9F80040DCF8047047F080670E
:10233000CCF804703460521EEED1DCF8042042F078
:102340008062CCF80420C6F80080DCF8042042F05B
:102350008062CCF80420C9F80040DCF8042042F088
:102360008062CCF80420346019E0DCF8042042F0EC
:102370008062CCF80420C6F80080DCF8042042F02B
:102380008062CCF80420C9F800403A68C2F3C01A51
:10239000DCF8042042F08062CCF80420346000E0D5
:1023A00005E043EACA72002918BF0A6056E00A68CD
:1023B000544C1F23DFF858A151494FF4804C261D7F
:1023C00012F0010F14BFCAF80050C9F800504F684E
:1023D00047F080674F60C6F800C04F6847F08067DD
:1023E0004F60C4F800C052085B1EE9D1009B5B1E21
:1023F00077D012F0010F0CBFC9F80050CAF8005096
:102400004A6842F080624A60C6F800C04A6842F0FA
:1024100080624A60C4F800C05A1E0DD04B6843F079
:1024200080634B60C6F800C04B6843F080634B602C
:10243000C4F800C0521EF1D14A6842F080624A607E
:10244000C4F800804A6842F080624A60C6F800C062
:102450004A6842F080624A60C4F800C0284A516865
:1024600041F0806151602C494FF480430B60D2F8F9
:1024700004C04CF0806CC2F804C0A1F1040CCCF88C
:102480000030546844F080645460C1F8008054689F
:1024900044F0806454600B60546844F0806454607D
:1024A000CCF800301A4C256010F0800F03D01B4888
:1024B0004068154CA0601448007B00280DDD54686E
:1024C00044F0806454600B60546844F0806454604D
:1024D000CCF80030401E0028F1DC7046BDE8F88FD3
:1024E000FFE74B6843F080634B60C4F8008012F054
:1024F000010F14BFCAF80050C9F80050A2E700004D
:10250000000001401008014008010020140C0140A7
:10251000100C0140080C014014080140001000E0BC
:102520002DE9F04FDFF808C482B0DCF8042042F057
:102530008062CCF80420FF4E4FF4005EC6F800E045
:10254000DCF8042042F08062CCF80420351D4FF402
:1025500080442C60DFF8E0A3DAF8042013465B1E09
:10256000FDD1DCF8043043F08063CCF804303460F3
:1025700013465B1EFDD1DCF8043043F08063CCF8D9
:102580000430C5F800E0DCF8043043F08063CCF898
:1025900004302C6013465B1EFDD1DCF8043043F0A0
:1025A0008063CCF80430346013465B1EFDD1DCF848
:1025B000043043F08063CCF804302C6013465B1E7B
:1025C000FDD1DCF8043043F08063CCF80430346093
:1025D00013465B1EFDD19AF81B70AFB1DCF80430D6
:1025E00043F08063CCF804302C6013465B1EFDD1B1
:1025F000DCF8043043F08063CCF8043034601346D8
:102600005B1EFDD17F1EE9D14308DFF8309313F044
:10261000010F4FF020071ABFC94B1F60C9F80070A7
:10262000DCF8043043F08063CCF804302C601346AF
:102630005B1EFDD1DFF80C83D8F80030C3F3C01B5C
:10264000DCF8043043F08063CCF804303460134687
:102650005B1EFDD183084FEA4B0B13F0010F1ABF2D
:10266000B74B1F60C9F80070DCF8043043F080639A
:10267000CCF804302C6013465B1EFDD1D8F8003036
:10268000C3F3C01ADCF8043043F08063CCF80430A4
:10269000346013465B1EFDD1C3084BEA0A0A13F0EF
:1026A000010F1ABFA64B1F60C9F80070DCF8043098
:1026B00043F08063CCF80430A34B1C6013465B1ED0
:1026C000FDD1D8F80030C3F3C015994BD3F804C03E
:1026D0004CF0806CC3F804C0DFF858C24FF480435C
:1026E000CCF8003013465B1EFDD14AEA8503019306
:1026F000012B1ED08E4B596841F080615960DFF884
:1027000034C2CCF800E0596841F0806159600CF1A6
:1027100004014FF480440C601146491EFDD15968F4
:1027200041F080615960CCF80040521EFDD100F0AC
:1027300037B9DFF804C210F0020F9CF81A309CF889
:102740001BC0A3EB0C03009370D0DFF8FCA1784D05
:1027500000244FF01F0CAAF104094FF480466B6867
:1027600043F080636B60CAF8006013465B1EFDD1C6
:10277000D8F80030C3F3C01B6B6843F080636B6014
:10278000C9F8006013465B1EFDD144EACB735C08B8
:10279000BCF1010CE3D1009BB3F1010C6B6843F079
:1027A00080636B601CBFCAF8006013463FD05B1E9D
:1027B000FDD1D8F80030C3F3C0186B6843F08063D4
:1027C0006B60C9F8006013465B1EFDD1BCF1010CC3
:1027D00014D06B6843F080636B60CAF800601346E6
:1027E0005B1EFDD16B6843F080636B60C9F80060CD
:1027F00013465B1EFDD1BCF1010CEAD16B6843F0BE
:1028000080636B60C9F800E06B6843F080636B60C5
:10281000CAF8006013465B1EFDD16B6843F080630D
:102820006B60C9F80060521EFDD117E01CE0C9F8CA
:1028300000E06B6843F080636B60CAF80060134689
:102840005B1EFDD1D8F80030C3F3C0186B6843F0AD
:1028500080636B60C9F80060521EFDD144EAC87203
:10286000002918BF0A609BE0DFF8DC80DFF8D0A009
:102870002F4C0B684FF01F0CA8F104064FF4804555
:1028800013F0010F14BFCAF80070C9F80070616836
:1028900041F080616160C8F800501146491EFDD1C9
:1028A000616841F08061616035601146491EFDD16B
:1028B0005B08BCF1010CE3D10099491E53D013F021
:1028C000010F0CBFC9F80070CAF80070636843F0CC
:1028D00080636360C8F8005013465B1EFDD16368D7
:1028E00043F080636360356013465B1EFDD14B1E71
:1028F00012D0616841F080616160C8F800501146F3
:10290000491EFDD1616841F080616160356011460A
:10291000491EFDD15B1EECD1616841F080616160B0
:10292000C6F800E0616841F0806161600EE000007F
:10293000000001401008014008010020140C014073
:10294000100C0140080C014014080140C8F8005068
:102950001146491EFDD1616841F0806161603560BA
:10296000521EFDD11CE0616841F080616160C6F8D3
:1029700000E013F0010F14BFCAF80070C9F800702E
:10298000616841F080616160C8F800501146491EDD
:10299000FDD1616841F0806161603560521EFDD1FA
:1029A000294B596841F080615960284C4FF4804CA4
:1029B000C4F800C0264D69680A46521EFDD15A6807
:1029C00042F080625A60234EC6F800C00A46521E8A
:1029D000FDD15A6842F080625A60C4F800E05A683B
:1029E00042F080625A60C4F800C00A46521EFDD10F
:1029F0005A6842F080625A60C6F800C00A46521E09
:102A0000FDD1154A176010F0800F02D013484068BE
:102A1000A860287B421E13D3586840F0806058603D
:102A2000C4F800C00846401EFDD1586840F08060E0
:102A30005860C6F800C00846401EFDD1521EEBD2B9
:102A4000019802B0BDE8F08F000001401408014079
:102A50000801002010080140100C0140001000E0A7
:102A60002DE9F04FAB4B596841F080615960AA4C99
:102A70004FF4005AC4F800A0596841F080615960D1
:102A8000251D4FF4804CC5F800C0DFF890E2DEF859
:102A900004100A46521EFDD15A6842F080625A6004
:102AA000C4F800C00A46521EFDD15A6842F0806246
:102AB0005A60C5F800A05A6842F080625A60C5F8B2
:102AC00000C00A46521EFDD15A6842F080625A6028
:102AD000C4F800C00A46521EFDD15A6842F0806216
:102AE0005A60C5F800C00A46521EFDD15A6842F02D
:102AF00080625A60C4F800C00A46521EFDD19EF89A
:102B00001B60B6F1000B13D05A6842F080625A6025
:102B1000C5F800C00A46521EFDD15A6842F08062D4
:102B20005A60C4F800C00A46521EFDD1761EEBD191
:102B30007B4E4FF02008C6F800805A6842F0806251
:102B40005A60C5F800C00A46521EFDD15A6842F0CC
:102B500080625A60C4F800C00A46521EFDD15A680D
:102B600042F080625A60C5F800C00A46521EFDD18C
:102B70005A6842F080625A60C4F800C00A46521E89
:102B8000FDD15A6842F080625A60C5F800C00A461A
:102B9000521EFDD15A6842F080625A60C4F800C0EB
:102BA0000A46521EFDD1DFF87C911F2710F0010F5D
:102BB00014BFC9F80080C6F800805A6842F08062ED
:102BC0005A60C5F800C00A46521EFDD15A6842F04C
:102BD00080625A60C4F800C00A46521EFDD1400807
:102BE0007F1EE3D19EF81A20A2EB0B02521E44D0A6
:102BF00010F0010F0CBFC6F80080C9F800805868BB
:102C000040F0806058606746C5F800C00846401E26
:102C1000FDD158681E4640F0806058602760084625
:102C2000401EFDD1521E11D0706840F0806070606F
:102C30002F600846401EFDD1706840F080607060D3
:102C400027600846401EFDD1521EEDD1706840F04D
:102C500080607060C4F800A0706840F080607060B0
:102C60002F600846401EFDD1706840F080607060A3
:102C700027600846401EFDD11FE05A6842F080627E
:102C80005A60C4F800A010F0010F14BFC9F800800A
:102C9000C6F800801A46586840F080605860C5F851
:102CA00000C00846401EFDD1506840F08060506072
:102CB000C4F800C00846401EFDD1586840F080604E
:102CC0005860C5F800C00846401EFDD1586840F065
:102CD00080605860C4F800C00846401EFDD15868A6
:102CE00040F080605860C5F800A0586840F08060EF
:102CF0005860C5F800C00846401EFDD1586840F035
:102D000080605860C4F800C0491EFDD1C9F8008039
:102D1000BDE8F08F000001401008014008010020CC
:102D2000140C0140100C014007494FF40050086199
:102D30000648417821F0010141704FF0E02001691F
:102D400041F00101016170470010014000000020C6
:102D50000D4A4FF4005151610C4B10F0010F4FF030
:102D6000E02093F801C04CF0010C83F801C0036926
:102D700004D023F0010303615161704743F0010364
:102D80000361116170470000001001400000002045
:102D9000124910B54FF4C040086011492020086066
:102DA000114C10492046FEF715FC10492046FEF74D
:102DB00011FC0F48416841F0806141600D490E48A7
:102DC000FEF708FC002004F089FD6420FEF748FBB4
:102DD000BDE81040012004F081BD00001008014052
:102DE000100C014080790008000C0140887900082F
:102DF0000000014084790008000801400C4810B52B
:102E0000416841F0806141600A490B48FEF7E2FBEE
:102E10000B4C0A492046FEF7DDFB0A492046FEF727
:102E2000D9FB2046BDE810400749FEF7D3BB0000A0
:102E30000000014090790008000801408C790008EA
:102E4000000C01409479000898790008104910B5E9
:102E50004FF4C0400860104C0E492046FEF7BAFB04
:102E60000E492046FEF7B6FB0D48416841F08061EF
:102E700041600C490C48FEF7ADFB002004F02EFD2C
:102E80006420FEF7EDFABDE81040012004F026BDF5
:102E90001008014074790008000C0140787900089E
:102EA000000001407C790008000801400548816964
:102EB00041F0040181610449801508600349044818
:102EC000FEF788BB0010024014080140707900082A
:102ED000000801402DE9F00FDFF804C40027DCF8FA
:102EE000042042F08062CCF80420FE4D4FF40059DB
:102EF000C5F80090DCF8042042F08062CCF8042091
:102F00002E1D4FF480443460DFF8DCA3DAF804208F
:102F100013465B1EFDD1DCF8043043F08063CCF82F
:102F200004302C6013465B1EFDD1DCF8043043F006
:102F30008063CCF8043010F0010F14BFC5F8009086
:102F4000C6F80090DCF8043043F08063CCF804301D
:102F5000346013465B1EFDD1DCF8043043F080631F
:102F6000CCF804302C6013465B1EFDD107EB000843
:102F7000DCF80430470843F08063CCF8043017F0E5
:102F8000010F14BFC5F80090C6F80090DCF80430BB
:102F900043F08063CCF80430346013465B1EFDD1EF
:102FA000DCF8043043F08063CCF804302C60134626
:102FB0005B1EFDD1B844DCF80430870843F0806321
:102FC000CCF8043017F0010F14BFC5F80090C6F814
:102FD0000090DCF8043043F08063CCF804303460B7
:102FE00013465B1EFDD1DCF8043043F08063CCF85F
:102FF00004302C6013465B1EFDD108EB0703C708A5
:10300000DCF8040040F08060CCF8040017F0010FF9
:1030100014BFC5F80090C6F80090DCF8040040F03A
:103020008060CCF8040034601046401EFDD1DCF80E
:10303000040040F08060CCF804002C601046401E74
:10304000FDD1D819DCF8043043F08063CCF80430AB
:1030500010F0010F14BFC5F80090C6F80090DCF81E
:10306000040040F08060CCF8040034601046401E3C
:10307000FDD1DCF8040040F08060CCF804002C6046
:103080001046401EFDD1DCF8040040F08060CCF812
:103090000400C6F80090DCF8040040F08060CCF832
:1030A000040034601046401EFDD1DCF8040040F0FE
:1030B0008060CCF804002C601046401EFDD1DCF886
:1030C000040040F08060CCF80400C5F80090DCF803
:1030D000040040F08060CCF8040034601046401ECC
:1030E000FDD1DCF8040040F08060CCF804002C60D6
:1030F0001046401EFDD1DCF8040040F08060CCF8A2
:103100000400DFF8E881D8F8000020F4700040F4F3
:103110000000C8F80000C5F800909AF818301F1E8B
:1031200016D000BFDCF8040040F08060CCF804004A
:1031300034601046401EFDD1DCF8040040F0806091
:10314000CCF804002C601046401EFDD15B1EE9D176
:10315000DCF8040040F08060CCF8040034601046D5
:10316000401EFDD1DCF8040040F08060CCF8040083
:10317000DFF87CA1DAF8000010F4005F14BF01232F
:103180000023DCF8040040F08060CCF804002C60E0
:103190001046401EFDD1DCF8040040F08060CCF801
:1031A000040034601046401EFDD1DCF8040040F0FD
:1031B0008060CCF80400DAF8000010F4005F14BF5F
:1031C0004FF0010B4FF0000BDCF8040040F0806082
:1031D000CCF804002C601046401EFDD1DCF8040041
:1031E00043EA4B0340F08060CCF8040034601046A2
:1031F000401EFDD1DCF8040040F08060CCF80400F3
:10320000DAF8000010F4005F14BF4FF0010A4FF02D
:10321000000ADCF8040040F08060CCF804002C6068
:103220001046401EFDD143EA8A00AFB1DCF80430FD
:1032300043F08063CCF80430346013465B1EFDD14C
:10324000DCF8043043F08063CCF804302C60134683
:103250005B1EFDD17F1EE9D1DCF8043043F08063B2
:10326000CCF80430D8F8003023F4700343F4401352
:10327000C8F80030C6F8009000274FF0200A00BFC1
:10328000DCF8043043F08063CCF8043011F0010F17
:1032900014BFC5F80090C6F80090DCF8043043F085
:1032A0008063CCF80430346013465B1EFDD1DCF83B
:1032B000043043F08063CCF804302C6013465B1E6E
:1032C000FDD10F444908BAF1010AD9D1DCF8041044
:1032D00041F08061CCF8041017F0010F0AE0000003
:1032E00000000140100801400801002004080140CE
:1032F0000808014014BFC5F80090C6F80090DCF83B
:10330000041041F08061CCF8041034601146491E6D
:10331000FDD1DCF8041041F08061CCF804102C6081
:10332000521EFDD1DCF8041041F08061CCF804108D
:10333000D8F8001021F4700141F44011C8F80010D1
:10334000C6F80090DCF8041041F08061CCF804105D
:10335000C5F80090BDE8F00F704700002DE9F00FB0
:1033600010F03F0308BF402310F0800F3F4F404C48
:10337000DFF800B14FF48045A7F104083DD0002BE1
:1033800012BFDFF8F490BDE8F00F70474FF0000C6B
:103390000821DBF8046025E0606840F08060606030
:1033A0003D603046401EFDD1606840F08060606046
:1033B000D9F8000010F4005F14BF4FF0010A4FF07D
:1033C000000A606840F080606060C8F800503046D5
:1033D000401EFDD14FEA5C0040EACA1C491EA3F121
:1033E000010301D0002BD7D12CFA01F002F8010B18
:1033F000002BCBD1BDE8F00F7047002B19BF4FF465
:103400000059DBF80420BDE8F00F704711F801CB3C
:10341000082620E0606840F0806060601CF0010FCA
:1034200014BFC8F80090C7F80090606840F0806052
:1034300060603D601046401EFDD1606840F08060D5
:103440006060C8F800501046401EFDD15B1E4FEA78
:103450005C0C761E04D0002BDCD1BDE8F00F704769
:10346000002BD3D1BDE8F00F7047000014080140D5
:10347000000001400801002008080140034A52787A
:103480000AB100F005B800F09FBA00000801002062
:103490002DE9F04FFD4B0746586840F080605860BA
:1034A000FB4C4FF4005EC4F800E0586840F08060C8
:1034B000586004F1040C4FF48049CCF8009058682F
:1034C00040F080605860C4F80090586840F0806018
:1034D000586017F0010F14BFC4F800E0CCF800E00A
:1034E000586840F080605860CCF80090586840F010
:1034F00080605860C4F800905D68780845F0806589
:103500005D6010F0010F14BFC4F800E0CCF800E0DB
:103510005D6845F080655D60CCF800905D6845F0C1
:1035200080655D60C4F800903A185D68B80845F0A1
:1035300080655D6010F0010F14BFC4F800E0CCF8A6
:1035400000E05D6845F080655D60CCF800905D68E6
:1035500045F080655D60C4F8009002445D68F8083D
:1035600045F080655D6010F0010F14BFC4F800E005
:10357000CCF800E05D6845F080655D60CCF80090B7
:103580005D6845F080655D60C4F8009010445A683D
:1035900042F080625A6010F0010F14BFC4F800E0DE
:1035A000CCF800E0586840F080605860CCF800909B
:1035B000586840F080605860C4F80090586840F047
:1035C00080605860CCF800E0586840F08060586037
:1035D000CCF80090586840F080605860C4F80090C3
:1035E000586840F080605860C4F800E0586840F0C7
:1035F00080605860CCF80090586840F08060586057
:10360000C4F80090586840F080605860A148026893
:1036100022F4700242F400020260C4F800E09E4806
:10362000007E021E0DD05D6845F080655D60CCF8BF
:1036300000905D6845F080655D60C4F80090401EB4
:10364000F1D1586840F080605860CCF8009058681C
:1036500040F080605860DFF844B2DBF8000010F4FE
:10366000005018BF01205D6845F080655D60C4F8BA
:1036700000905D6845F080655D60CCF800905D6805
:1036800045F080655D60DBF8005015F4005518BF0B
:1036900001255E6846F080665E60C4F8009040EAEE
:1036A00045005D6845F080655D60CCF800905D6820
:1036B00045F080655D60DBF8005015F4005518BFDB
:1036C00001255E6846F080665E60C4F8009040EABE
:1036D0008500012824D0022818BF042800F01C818E
:1036E00012F121010DD05A6842F080625A60CCF884
:1036F00000905A6842F080625A60C4F80090491EF7
:10370000F1D1596841F08061596062490A6822F438
:10371000700242F440120A60CCF800E000F047B9B1
:1037200017F0020F7ED0002635462022D3F8048001
:1037300048F08068C3F80480CCF80090D3F8048087
:1037400048F08068C3F80480DBF8008018F4005863
:1037500018BF4FF00108D3F804A04AF0806AC3F8FC
:1037600004A0C4F800907608454446EAC876521E84
:10377000DCD15A68984642F080625A604A46CCF8DA
:103780000090D3F804A04AF0806AC3F804A0DBF8E4
:1037900000A01AF4005A18BF4FF0010AD8F804B07C
:1037A0004BF0806BC8F804B0226085EA0A0515F07A
:1037B000010F18BF0820002918BF0E603649097E86
:1037C00089B100BFD8F8045045F08065C8F80450AE
:1037D000CCF80020D8F8045045F08065C8F80450B3
:1037E0002260491EEED1D8F8041041F08061C8F87B
:1037F000041028490A6822F4700242F440120A6058
:10380000CCF800E017F0800F03D025494968224A20
:1038100091602149097B00297DD05A6842F080627D
:103820005A6000E010E0CCF800E05A6842F0806294
:103830005A60CCF800905A6842F080625A60C4F82E
:103840000090491EF1D1B2E06AB15D6845F0806533
:103850005D60CCF800905D6845F080655D60C4F8FF
:103860000090521EF1D15A6842F080625A60094AB3
:10387000156825F4700545F440151560F046CCF840
:1038800000E00E68002120221D460BE000000140F0
:103890001008014004080140080100200808014008
:1038A000001000E0D5F804A04AF0806AC5F804A032
:1038B00016F0010F14BFC4F80080CCF80080D5F8D2
:1038C00004A04AF0806AC5F804A0CCF80090D5F8AE
:1038D00004A04AF0806AC5F804A0C4F800903144FE
:1038E0007608521ED1D16A6842F080626A6011F097
:1038F000010F14BFC4F80080CCF80080696841F063
:1039000080616960CCF80090696841F0806169600D
:10391000C4F8009076E74AE029494E7E002E1CBF8D
:1039200017F0020F21210DD05D6845F080655D60C4
:10393000CCF800905D6845F080655D60C4F800904B
:10394000491EF1D16AB1596841F080615960CCF8E3
:103950000090596841F080615960C4F80090521E8F
:10396000F1D1596841F08061596016490A6822F422
:10397000700242F440120A60CCF800E0BEB117F0C9
:10398000020F14D1596841F080615960CCF800E011
:1039900021215A6842F080625A60CCF800905A683F
:1039A00042F080625A60C4F80090491EF1D1596813
:1039B00041F080615960C4F800E0BDE8F08F00007C
:1039C00008010020040801402DE9F04FFE4F0024BB
:1039D0007A6842F080627A60FC4E4FF4005CC6F870
:1039E00000C07A6842F080627A6006F104084FF401
:1039F0008049C8F80090F64D6A6813465B1EFDD1F9
:103A00007B6843F080637B60C6F8009013465B1EC2
:103A1000FDD17B6843F080637B6010F0010F14BF21
:103A2000C6F800C0C8F800C07B6843F080637B60C4
:103A3000C8F8009013465B1EFDD17B6843F080639D
:103A40007B60C6F8009013465B1EFDD104EB000AB4
:103A50007B68440843F080637B6014F0010F14BF5F
:103A6000C6F800C0C8F800C07B6843F080637B6084
:103A7000C8F8009013465B1EFDD17B6843F080635D
:103A80007B60C6F8009013465B1EFDD1A2447B68A4
:103A9000840843F080637B6014F0010F14BFC6F804
:103AA00000C0C8F800C07B6843F080637B60C8F842
:103AB000009013465B1EFDD17B6843F080637B6002
:103AC000C6F8009013465B1EFDD1A2447B68C40873
:103AD00043F080637B6014F0010F14BFC6F800C090
:103AE000C8F800C07B6843F080637B60C8F8009032
:103AF00013465B1EFDD17B6843F080637B60C6F894
:103B0000009013465B1EFDD10AEB04037C6844F071
:103B100080647C6013F0010F14BFC6F800C0C8F8C1
:103B200000C07B6843F080637B60C8F80090134658
:103B30005B1EFDD17B6843F080637B60C6F800901C
:103B400013465B1EFDD17B6843F080637B60C8F841
:103B500000C07B6843F080637B60C8F80090134628
:103B60005B1EFDD17B6843F080637B60C6F80090EC
:103B700013465B1EFDD17B6843F080637B60C6F813
:103B800000C07B6843F080637B60C8F800901346F8
:103B90005B1EFDD17B6843F080637B60C6F80090BC
:103BA00013465B1EFDD17B6843F080637B60894BCD
:103BB0001C6824F4700444F400041C605B1433603B
:103BC00095F818C05FEA0C0414D07B6843F080635A
:103BD0007B60C8F8009013465B1EFDD17B6843F004
:103BE00080637B60C6F8009013465B1EFDD1BCF17C
:103BF000010CEAD17B6843F080637B60C8F80090D9
:103C000013465B1EFDD17B6843F080637B60DFF869
:103C1000C8E1DEF8003013F4005F14BF4FF0010C70
:103C20004FF0000C7B6843F080637B60C6F8009027
:103C300013465B1EFDD17B6843F080637B60C8F850
:103C4000009013465B1EFDD17B6843F080637B6070
:103C5000DEF8003013F4005F14BF4FF0010A4FF09C
:103C6000000A7B6843F080637B60C6F800901346CF
:103C70005B1EFDD17B684CEA4A0C43F080637B609D
:103C8000C8F8009013465B1EFDD17B6843F080634B
:103C90007B60DEF8003013F4005F14BF4FF0010AC0
:103CA0004FF0000A7B6843F080637B60C6F80090A9
:103CB00013465B1EFDD14CEA8A0CBCF1010F33D0D8
:103CC000BCF1020F18BFBCF1040F00F05A8114F1CF
:103CD000210113D0786840F080607860C8F80090C7
:103CE0001046401EFDD1786840F080607860C6F8CC
:103CF00000901046401EFDD1491EEBD1786840F07F
:103D0000806078603348016821F4700141F440110B
:103D100001604014C8F80000796841F08061796062
:103D200030606046BDE8F08F10F0020F7ED00025B5
:103D30002C464FF0200A7B6843F080637B60C8F814
:103D4000009013465B1EFDD17B6843F080637B606F
:103D5000DEF8003013F4005F14BF4FF0010B4FF09A
:103D6000000B7B6843F080637B60C6F800901346CD
:103D70005B1EFDD16B085C4443EACB75BAF1010AC6
:103D8000D9D17B68BA4643F080637B60CB46C8F8E4
:103D9000009013465B1EFDD1DAF8043043F08063D7
:103DA000CAF80430DEF8003013F4005318BF0123C2
:103DB000DAF804E04EF0806ECAF804E0C6F800B00D
:103DC000DFF80CE0521E09E000000140100801403D
:103DD000080100200408014008080140F2D184EAEB
:103DE000030212F0010F18BF4FF0080C002918BF92
:103DF0000D609EF81820002A18BFDEF8043019D094
:103E0000DAF8041041F08061CAF80410C8F800B074
:103E10001946491EFDD1DAF8041041F08061CAF854
:103E20000410C6F800B01946491E00E013E0FBD1AB
:103E3000521EE5D1DAF8041041F08061CAF804108E
:103E400082490A6822F4700242F440120A6049145E
:103E5000C8F8001064E09CB17B6843F080637B602D
:103E6000C8F8009013465B1EFDD17B6843F0806369
:103E70007B60C6F8009013465B1EFDD1641EEBD13B
:103E80007B6843F080637B60704B1C6824F4700493
:103E900044F440141C604FF4005AC8F800A00968AC
:103EA000002420257B6843F080637B6011F0010FC4
:103EB00014BFC6F800A0C8F800A07B6843F0806378
:103EC0007B60C8F8009013465B1EFDD17B6843F011
:103ED00080637B60C6F8009013465B1EFDD10C44E6
:103EE00049086D1EDED179683B4641F080617960FA
:103EF00014F0010F14BFC6F800A0C8F800A059685C
:103F000041F0806159604C46C8F800901146491E46
:103F1000FDD1596841F0806159603460521EFDD175
:103F200010F0800F03D04A4840684A4988604948E9
:103F3000027BE2B1796841F0806179604FF4005111
:103F4000C8F800104168786840F080607860C8F870
:103F500000900846401EFDD1786840F0806078608F
:103F6000C6F800900846401EFDD1521EEBD178687D
:103F700040F0806078604FF4005030606046BDE8EB
:103F8000F08F34494D7E002D1CBF10F0020F21230D
:103F900013D0796841F080617960C8F800901146CB
:103FA000491EFDD1796841F080617960C6F80090C2
:103FB0001146491EFDD15B1EEBD19CB1796841F0E1
:103FC00080617960C8F800901146491EFDD179687A
:103FD00041F080617960C6F800901146491EFDD11C
:103FE000641EEBD1796841F08061796017490B68F4
:103FF00023F4700343F440130B604B14C8F80030F3
:10400000EDB110F0020F1AD1786840F0806078604E
:10401000C8F800302121786840F080607860C8F8E6
:1040200000901046401EFDD1786840F080607860B6
:10403000C6F800901046401EFDD1491EEBD17868AD
:1040400040F08060786033606BE600000408014057
:10405000001000E0080100202DE9F003451E3CBFE0
:10406000BDE8F00370474FF400594FF480461B48F9
:10407000184F194AD0F80430A7F1040811F801CB01
:104080005FF0080450681CF0010F40F08060506041
:1040900014BFC8F80090C7F80090506840F08060E6
:1040A00050603E601846401EFDD1506840F0806070
:1040B0005060C8F800601846401EFDD1641E4FEAEB
:1040C0005C0C6D1E3CBFBDE8F0037047002CD9D1DD
:1040D000D4E700001408014000000140080100205E
:1040E00070B50C46C17800680C4D61F31F60A9786B
:1040F000012918BF00200BD00021E9702070010AAF
:104100006170010CA170000EE0704FF0041070BDE2
:1041100000F060FA0028F1D1EEE700002400002052
:104120002DE9F0410078114C00F001060025E078FF
:104130000F4600F00100B04210D02EB1A01D057056
:1041400045702571A560E560A078012808D130464A
:1041500000F094FA002818BFE67001D03D7001E02D
:10416000FF2038704FF00110BDE8F08124000020DE
:104170002DE9F047324C80460E462279A11D82F08F
:1041800001002071E0788B5C4FF0000943EA0007E2
:1041900001F80290012811D0A068E168451A617801
:1041A000012918BF002518D006F8017B280A06F857
:1041B000015B012906F8010B16D038E084F8059060
:1041C000A068E168451AA078012802D100F086FABB
:1041D000054460790028F1D1E1E7B8F800003C28F7
:1041E0002AD88542E0D929E0E368DFF858C01846AC
:1041F000290008D0C0F30B021CF8020006F8010BDE
:10420000501C491EF6D15819E060E07803280ED101
:10421000A068E168411AB1F5805F08D2A178C0F3C7
:104220000B00012903D1E170604400F01DFAE81C85
:1042300040F40030BDE8F0873C20D2E70546B3E704
:10424000240000204C0100202DE9F0411C4D0027E6
:1042500090F800C0EB780C461CF0010FB8460BD06C
:104260002879AA1D80F001012971115C02F80080F3
:10427000194304F8011B01271CF0020F0CD0012B7D
:104280000ED0A868E968461A2670300A6070300CB3
:10429000A070300EE0703F1D47F48030BDE8F08123
:1042A00085F80580A868E968461AA878012802D12F
:1042B00000F014FA064468790028F1D1E4E7000020
:1042C000240000202DE9F041114C07780E46A0781B
:1042D000012804BF002000F00FFA0025002F08BFBE
:1042E000012005D0012F0AD1012000F005FA30B1DC
:1042F000A770E570002818BF357004D101E0A570E3
:10430000E570FF2030704FF00110BDE8F081000033
:10431000240000202DE9F041154D0746002628799C
:1043200080F001012971A91DEA780B5C0E5443EA63
:104330000208012A0ED0A868E968441A87F80080AC
:104340007C70200AB870200CF870200E387105209F
:10435000BDE8F0816E71A868E968441AA878012860
:1043600002D100F0BBF9044468790028F2D1E5E7F6
:1043700024000020084AD37813F0010F04D0FF2056
:1043800008704FF0011070470078002812BF012814
:1043900050700020F3D1F3E7240000204FF0E0211B
:1043A000042808690CBF40F0040020F004000861F4
:1043B00070470000144A10B410781449401EC3B26C
:1043C000137092F801C04FF400501CF0020F07D098
:1043D0002CF0020C82F801C013F0010F03D010E0A2
:1043E00013F0070F0DD00861527812F0010F04BFCF
:1043F00010BC704713F0030F0CBF4861086110BC7C
:1044000070474861F0E70000000000200010014004
:1044100016494868164A10F00C03164818BF042BBA
:1044200001D0082B01D0026015E04A684B6802F405
:1044300070124FF0020C13F4803F0CEB924203D049
:104440004B6813F4003F03D00B4B5A43026002E069
:10445000074B5A4302604968084AC1F30311515C93
:10446000026822FA01F1016070470000001002406A
:1044700000127A000C00002000093D00100000200E
:10448000384881B0016841F0010101604168364A55
:1044900011404160016821F4102121F08071016018
:1044A000016821F480210160416821F4FE0141602E
:1044B0004FF41F01816000220092016841F48031B5
:1044C0000160016811F4003F03D10099B1F5A06FBC
:1044D000F7D1016811F4003F18BF00923BD0234987
:1044E0000A6842F010020A600A6822F003020A60B9
:1044F0000A6842F002020A60416841604168416016
:10450000416841F480614160416821F47C1141605F
:1045100000990029416814BF41F4D00141F4E81129
:104520004160016841F080710160016811F0007F15
:10453000FBD0416821F003014160416841F0020174
:104540004160416801F00C010829FAD108060849C8
:10455000086001B07047016821F4803101600121D9
:104560000091BCE7001002400000FFF8002002406C
:1045700008ED00E070B504461148124D14F0020F2A
:10458000017841F00201017009D00F48016801F57E
:1045900080610160AA694FF480610C48904714F073
:1045A000010F08BF70BD4FF48061094801F032FB74
:1045B000011ED8BF70BD06486A69BDE8704010474B
:1045C00001000020A87A000860000020FE320020D0
:1045D000FE36002070B506461F48864288BF064654
:1045E0001E4C1F4DE07810F0010F11D00021AA6A77
:1045F00016209047E86A804710F0020F08D0686ADA
:104600008047A1680844A0600021AA6A1920904749
:10461000AA6A31460120904710B10020207070BD79
:1046200001202070E07810F0010F12D010F0020F7E
:104630000BD1A0680B4AC0F30B0000F03F01C1F1A1
:10464000400110442161AA6990470121AA6A1620FD
:104650009047304670BD000040420F00240000200B
:10466000707A00084C010020024A1161024A9269E6
:104670001047000024000020707A000870B5144D27
:10468000144C88B12878002808BF70BD012028612B
:104690000146A2691048904720B90121A26A16205C
:1046A000904798B1002070BD0021A26A1620904763
:1046B000E06A804710F0020F08D0606A8047A9685E
:1046C0000844A8600021A26A19209047012070BD0B
:1046D00024000020707A00084C01002010B5054C21
:1046E000E06A804710F0020008BF10BD606ABDE8B4
:1046F00010400047707A000810B5114A0021114C93
:10470000117070B1A1681048884700281CBF0020B4
:1047100010BD02202169884780B1E06880470020F1
:1047200010BD0021A26A162090470021A26A19201C
:104730009047216900208847E0688047012010BD2C
:1047400024000020707A0008354D0008014A00F06E
:104750002DBB0000C87900080148006870470000C0
:10476000C879000881B0009820F0010000901E4830
:10477000016B0969002918BFB1F5803F0ED1C169ED
:1047800061B10968C0698968007921FA00F010F008
:10479000010F03D1009840F001000090009820F034
:1047A00002000090009820F008000090009820F08F
:1047B00004000090009961F3000000994FEA510154
:1047C00061F3410000994FEA910161F38200009981
:1047D0004FEAD10161F3C300009901B04FEA111112
:1047E00061F31F1070470000C87900080648C16ACD
:1047F000002902BF406B0069704709684968406B37
:104800000068401A70470000C87900082C4881B041
:10481000416B91F8211000291CBF009941F0010162
:1048200007D141680988012222EA9112009962F3B6
:1048300000010091016B4A79009962F341010091F6
:10484000016B8A79009962F382010091016BCA7948
:10485000009962F3C3010091016B0A7A009962F337
:1048600004110091016B4A7A009962F3451100919D
:10487000006B817A009861F386100090009961F3D3
:1048800000000099490861F341000099890861F32B
:1048900082000099C90861F3C3000099090961F316
:1048A00004100099490961F345100099890961F3E1
:1048B0008610009901B0C90961F3DF10704700004C
:1048C000C87900080648816A002902BF406B406928
:1048D000704709684968406B4068401A704700009B
:1048E000C8790008014800F091BD0000C8790008AF
:1048F000014900F0D0BE0000C8790008014900F06D
:1049000019BF0000C8790008014A01F077B800001B
:10491000C8790008014A01F00AB90000C879000806
:104920001649012228B1012813D000BF4FF0FF30F3
:104930007047086B0069002818BFB0F5003FF5D13B
:104940008869B8B189690068097902FA01F10161E1
:1049500010E0086B0069002818BFB0F5003FE5D1F2
:10496000886938B189690068097901F1100102FA92
:1049700001F101614FF0000070470000C8790008A4
:1049800070B5144E05000B46144619BF002B002CC1
:104990006FF0040070BD316BC87A10F0040F4FF057
:1049A000FF3008BF70BDC968022918BF70BD032061
:1049B000716B3246C8612146184601F01FF8002885
:1049C00018BF70BD324621462846BDE8704001F050
:1049D000AEB80000C879000810B5184CE06828B1DE
:1049E0008188002300681A46FCF74CFE206928B134
:1049F0008188002300681A46FCF744FE606928B1EC
:104A00008188002300681A46FCF73CFEA06928B1A3
:104A10008188002300681A46FCF734FEE06928B15B
:104A20008188002300681A46FCF72CFE208CFCF7D6
:104A30009FFD216B0020C87210BD0000C8790008DE
:104A4000014A00F0B3B90000007A0008014800688C
:104A500070470000007A000881B0009820F0010043
:104A600000901E48016B0969002918BFB1F5803F0D
:104A70000ED1C16961B10968C0698968007921FAFC
:104A800000F010F0010F03D1009840F001000090F9
:104A9000009820F002000090009820F0080000909C
:104AA000009820F004000090009961F30000009944
:104AB0004FEA510161F3410000994FEA910161F31E
:104AC000820000994FEAD10161F3C300009901B05F
:104AD0004FEA111161F31F1070470000007A0008BF
:104AE0000648C16A002902BF406B00697047096827
:104AF0004968406B0068401A70470000007A00085F
:104B00002C4881B0416B91F8211000291CBF0099FD
:104B100041F0010107D141680988012222EA91127E
:104B2000009962F300010091016B4A79009962F3E8
:104B300041010091016B8A79009962F38201009131
:104B4000016BCA79009962F3C3010091016B0A7A83
:104B5000009962F304110091016B4A7A009962F3A3
:104B600045110091006B817A009861F386100090E6
:104B7000009961F300000099490861F34100009930
:104B8000890861F382000099C90861F3C3000099A4
:104B9000090961F304100099490961F3451000996E
:104BA000890961F38610009901B0C90961F3DF102A
:104BB00070470000007A00080648816A002902BF99
:104BC000406B4069704709684968406B4068401A0B
:104BD00070470000007A0008014800F017BC000090
:104BE000007A0008014900F056BD0000007A000874
:104BF000014900F09FBD0000007A0008014A00F062
:104C0000FDBE0000007A0008014A00F090BF0000DD
:104C1000007A00081649012228B1012813D000BFEC
:104C20004FF0FF307047086B0069002818BFB0F5DF
:104C3000003FF5D18869B8B189690068097902FA3D
:104C400001F1016110E0086B0069002818BFB0F5A0
:104C5000003FE5D1886938B189690068097901F1B7
:104C6000100102FA01F101614FF0000070470000ED
:104C7000007A000870B5144E05000B46144619BFA3
:104C8000002B002C6FF0040070BD316BC87A10F05F
:104C9000040F4FF0FF3008BF70BDC968022918BF6C
:104CA00070BD0320716B3246C8612146184600F082
:104CB000A5FE002818BF70BD324621462846BDE833
:104CC000704000F034BF0000007A000810B5184CA6
:104CD000E06828B18188002300681A46FCF7D2FCFE
:104CE000206928B18188002300681A46FCF7CAFCB5
:104CF000606928B18188002300681A46FCF7C2FC6D
:104D0000A06928B18188002300681A46FCF7BAFC24
:104D1000E06928B18188002300681A46FCF7B2FCDC
:104D2000208CFCF725FC216B0020C87210BD000010
:104D3000007A000870B5194C054610F0020F1AD021
:104D4000E068A16822690A44A26002F03F01C1F153
:104D50004001101AC1F58053984284BF0320E070CF
:104D600007D8C2F30B000E4A216110440D4A926924
:104D70009047012060710C4815F0200F04D0217974
:104D8000425C42F08002425415F4607F08BF70BD5F
:104D90002179425C42F04002425470BD2400002060
:104DA0004C010020707A00082A0000202DE9F05FF5
:104DB000136B1446DA7A12F0020F00F0BB814FF049
:104DC000000800F0FF0CACF1150745464646424688
:104DD000062F80F00981DFE807F08ABC0325445CD8
:104DE000606B79B190F82110002940F01C810121FD
:104DF00080F82110606B80F820106068818941F094
:104E000081018BE090F8200000286DD060688189D6
:104E100021F080018181606B80F82020606B80F838
:104E2000212061E06068818921F0C0018181A06A50
:104E300070B1606B90F8210050B16068818A21F0F8
:104E400080018182A06A0068016821F0010101608F
:104E5000606B80F82020606B80F821200020BDE886
:104E6000F09F6068818921F020018181E06A68B14A
:104E7000206B407950B16068818A21F040018182C5
:104E8000E06A0068016821F001010160206B427155
:104E90002AE06068818921F0E0018181A06A70B117
:104EA000606B90F8210050B16068818A21F0800128
:104EB0008182A06A0068016821F001010160E06A56
:104EC00068B1206B407950B16068818A21F040015F
:104ED0008182E06A0068016821F001010160206BB5
:104EE0004271606B80F821200020BDE8F09FE068EF
:104EF000002800F01F8199B1D968062905D0818862
:104F0000006803230222FCF7BDFB206BC17A41F04D
:104F10000801C1726068818941F008018181E3E77D
:104F20006068818921F008018181206BC17A21F0BC
:104F30000801C172206BC06806281CBFE068002809
:104F4000D2D081884FF0000300681A46FCF79AFB24
:104F5000CAE72069002875D091B3D968062918BF1F
:104F6000042907D0818800684FF000034FF0010248
:104F7000FCF788FB206BC17A41F01001C1726068B8
:104F8000818A41F0010181826068018A41F040011B
:104F900001826068818941F010018181206B407934
:104FA00000281CBFE06A002804D16068818941F0B4
:104FB000200181816068818941F00401818193E74A
:104FC000FFE76068818921F004018181206BC17A4B
:104FD00021F01001C172206BC06806281EBF042892
:104FE00020690028ADD17FE75A79E2B9626B92F867
:104FF0002120C2B96268978917F0080F03D017887B
:1050000017F0400F0FD0BCF1150F7DD2DFE80CF088
:10501000A10F11351B202EA1A1A1A1A1A1A1A1A188
:10502000393C5E688F006FF00100BDE8F09F0123FE
:1050300012E0237813F0020F1CBF4FF41065022317
:105040000AD11AE076E04FF008064FF0040303E0BF
:105050004FF002064FF0050310F4E06C76D0BCF57B
:10506000807F74D0BCF5E06F77D0BDE0237813F07B
:10507000200F1CBF20260623EED16FF00600BDE8EE
:10508000F09F606B41832FE7D868052852D0002934
:105090003FF42AAF908A40F004009082D94AA06879
:1050A000B2FBF0F25FF0010002FB00F38B429CBF09
:1050B000401CB0F5807FF7D3B0F5807F3AD06168AF
:1050C0000A8B22F0FF02104308830DE7D8680628F8
:1050D00030D1FF292ED8108B20F47F40084324E0E4
:1050E000D868062826D1A068C64B01EB0114B3FB93
:1050F000F0FC01EB0113012003EB430304EB41142B
:105100000CFB00F5C82100E023E06943B1EB430F3D
:1051100002D2B1EB440F02D8401C4028F0D3402803
:1051200008D0118B21F0FF0108431083DCE6D8681A
:10513000062803D04FF0FF30BDE8F09F00293FF470
:10514000D3AE908A40F010009082CDE609E048E0AE
:1051500003E06FF00300BDE8F09F10F4405F07D15B
:1051600042E010F4405F03D045F020054FF4805832
:1051700010F4405C0ED0BCF5805F08BF48F4806836
:1051800008D0BCF5005F16BF6FF0090048F4C06896
:10519000BDE8F09F10F4404C14D0BCF5804F08BF20
:1051A00045F400550ED0BCF5004F08BF45F44055FE
:1051B00008D0BCF5404F16BF6FF00A0045F480558B
:1051C000BDE8F09F10F4403C08BF00271AD0BCF5A2
:1051D000803F0DD0BCF5003F17D0BCF5403F1FD03D
:1051E0002AE010F4405FBFD06FF00800BDE8F09FE8
:1051F00094F800C01CF0800F1CBF4FF4803746F4B9
:10520000807619D0022B1BD032E0B4F800C01CF419
:10521000807F1CBF4FF4003746F4C066F2D10BE02C
:10522000D4F800C01CF0800F1EBF1CF4807F4FF428
:10523000403746F4E066E5D16FF00B00BDE8F09F23
:1052400010F4802C08D0BCF5802F0EBF45F480658B
:105250006FF00C00BDE8F09F10F4002008D0B0F50E
:10526000002F0EBF45F400756FF00D00BDE8F09FF4
:10527000D4F808A0DFF890910AEBCA0000EB0A1CF2
:105280008800BCFBF0FBA9FB0BEBBCFBF0FEBCFBFE
:10529000F0F0A9FB00C040096FF0180C00FB0CF007
:1052A0000EEB80004FF0320C0CEB0010A9FB00C09D
:1052B0004FEA5B1B40096BF31F104FEA0A191FFAF4
:1052C00080FCB9FBFCF000094FF0640900FB09F019
:1052D00001EB011909EB4909B0EB490F06D201EBCB
:1052E000011909EB4111B0EB410F03D86FF0070032
:1052F000BDE8F09F908920F4005090816068A0F88C
:1053000008C0206BC360206B0761206BC168062951
:105310000AD0C07A10F0080FE0680ED0A0B18188E2
:105320000323006802220DE0E06868B1818800680C
:1053300003230222FCF7A6F906E028B181880023A6
:1053400000681A46FCF79EF9206BC168042918BF53
:1053500006290CD0C07A10F0100F206911D0B8B116
:10536000818800684FF000034FF001020EE02069D1
:1053700070B181884FF0000300681A46FCF782F98B
:1053800006E028B18188002300681A46FCF77AF904
:10539000606968B1216BC968022918BF0629818834
:1053A000006807BF0323022200231A46FCF76AF9AC
:1053B000A06968B1B7F5803F18BFB7F5403F818855
:1053C000006807BF0323022200231A46FCF75AF99C
:1053D000E06928B18188006800230122FCF752F9B6
:1053E0006068A0F80C8060680582606886826068EA
:1053F000818941F400518181206BC17A41F004011F
:10540000C17271E500CA9A3B1F85EB512DE9F0038B
:10541000D0F804C0BCF800200021BCF80C400B46BA
:1054200002F020052C420E464FF0010461D0056BBE
:105430006F791FB1ED68022D05D00BE0BCF80410A8
:10544000EC71202155E0456BED69012D08BFBCF8DA
:1054500004C001D0BCF80430D0F834C0DCF80850E7
:105460006F1CCCF808702B70D0F804C0BCF80CC0CE
:105470001CF4806F0CD11CF4805F09D0456B1F0AAF
:10548000D5F808C00CF10108C5F808808CF8007048
:10549000D0F834C0DCF810506D1CCCF81050D0F8A7
:1054A00034C0DCF800C0654523D1D0F804C0BCF896
:1054B0000C5025F01005ACF80C50D0F830C08CF82A
:1054C0000560D0F830C0DCF80CC0BCF1020F0FD181
:1054D000D0F834C0DCF81C50CCF81C60012D08BF9B
:1054E000012106D0022D03D0032D08BF042100E0C6
:1054F00002214568B5F80CC002F010071CEA070F3E
:105500001CBFB5F804C041F04001B5F80CC002F072
:1055100080071CEA070F5FD0D0F834C09CF82070D9
:1055200027B1AB8943F00103AB8155E0DCF814707F
:10553000DCF80450BD4224D0036BDB68022B02BFB1
:10554000DCF81C30022BBCF81A301AD0DCF80C3016
:1055500003F10105CCF80C50D0F804C01B78BCF85E
:105560000CC01CF4806F0CD11CF4805F09D0D0F803
:1055700034C005F10107CCF80C7095F800C043EA7F
:105580000C23D0F834C0DCF8145005F10105CCF838
:105590001450D0F804C0ACF80430436BD3F804C006
:1055A0005B699C4518D14368B3F80CC02CF0800CA3
:1055B000A3F80CC04368B3F80CC04CF0400CA3F83F
:1055C0000CC0436B83F82160036BD3F80CC0BCF1B3
:1055D000020F54D041F001014368B3F80CC002F04F
:1055E00040051CEA050F07D0B3F80CC02CF0400CA6
:1055F000A3F80CC041F0080112F0080F05D0436871
:105600009B88036B41F02001DC7112F0020F05D082
:1056100043689B88036B41F480715C7212F0010F48
:1056200005D043689B88036B41F400719C7212F4AF
:10563000807F0AD04368B3F800C02CF4807CA3F8C4
:1056400000C0036B41F080011C7212F4007F06D091
:105650004268138823F40073138041F480610029A9
:1056600004BFBDE8F0037047006B0268002A04BF66
:10567000BDE8F00370470846BDE8F0031047D0F8D6
:1056800034C0DCF81CC0BCF1010F04BFDB7A13F09E
:10569000100FA1D19EE710B50C46096BCA7A12F023
:1056A000010F1CBF002010BD0860216B0020087195
:1056B000216B4871216B8871216BC871216B087255
:1056C000216B4872216B8872216BC860616B81F815
:1056D0002100616B086048608860C86008614861AB
:1056E0008861C8610862608CFBF742FFE06818B10E
:1056F00000680121FCF738F8206918B10068012121
:10570000FCF732F8606918B100680121FCF72CF849
:10571000A06918B100680121FCF726F8E06918B10A
:1057200000680121FCF720F8216B0120C8720020DD
:1057300010BD00002DE9F0470C4600268E4FDFF823
:105740003C82DFF83C928F4D012138B1012801D015
:1057500002287AD06FF00300BDE8F0876068B84295
:1057600004D1EA6842F48042EA600CE0404504BF9C
:105770002A6942F4003205D0484504BF2A6942F440
:10578000802200D12A6100BF00BF00BF00BFB84225
:1057900004D1E86820F48040E8600CE0404504BF94
:1057A000286920F4003005D0484504BF286920F45A
:1057B000802000D1286194F9240000280CDB00F03F
:1057C0001F0291404009800000F1E020C0F88011E4
:1057D000BFF34F8FBFF36F8FE06A18B14179007943
:1057E000FBF7C6FDA06A18B141790079FBF7C0FD4F
:1057F0006068B84203D1A86920F48040A86160685D
:10580000404503D1E86920F40030E861606848450C
:1058100003D1E86920F48020E861206B0671206BD9
:105820004671206B8671206BC671206B0672206BEF
:105830004672206B8672606B80F82160206BC17AA3
:1058400021F00201C17293E0FFE7206BC27A12F0EF
:10585000010F04BF4FF0FF30BDE8F08712F0020FD8
:1058600078D10671206B4671206B8671206BC671F2
:10587000206B0672206B4672206B8672606B80F81C
:105880002160606B4683606BC661606B80F820604E
:10589000206BC660206B0661226B0320D0726068AB
:1058A000B84203D1A86940F48040A86160684045CF
:1058B00003D1E86940F40030E8616068484503D1ED
:1058C000E86940F48020E86194F92400002809DBAD
:1058D00000F01F0201FA02F24009800000F1E0200E
:1058E000C0F8802294F92400002808DB00F01F0291
:1058F00091404009800000F1E020C0F80011E06A0A
:1059000018B141790079FBF7C3FCA06A18B141795D
:105910000079FBF7BDFC6068B84204D1E96841F446
:105920008041E9600CE0404504BF296941F4003141
:1059300005D0484504BF296941F4802100D129617F
:1059400000BF00BF00BF00BFB84204D1E86820F428
:105950008040E8600CE0404504BF286920F4003036
:1059600005D0484504BF286920F4802000D1286173
:105970000020BDE8F08700000038014000440040EE
:105980000048004000100240C16A0968496821B11E
:10599000416B0968002918BF704741688A8922F065
:1059A00010028A81026B00210B46D268022A10D1B4
:1059B000426BD2F81CC0D361BCF1010F08BF0121BA
:1059C00008D0BCF1020F04D0BCF1030F08BF0421C2
:1059D00000E00221426BD2F800C0C2F810C0026B96
:1059E00053714268938943F020039381006B0268EE
:1059F000002A14BF002970470846104770B50028D8
:105A000012BF00296FF0040070BD136B93F80BC038
:105A10001CF0040F04BF4FF0FF3070BD5B79012B09
:105A200073D05368B3F80CC02CF0200CA3F80CC052
:105A3000536B1960D2F830C000238CF80830D2F8CC
:105A400030C08CF80930D2F830C08CF80730D2F86A
:105A500030C08CF80A30D2F834C0CCF80800D2F844
:105A600034C0CCF81030D2F830C001238CF80530A7
:105A7000D2F830C08023DCF80CC0BCF1020F07D193
:105A8000D2F834C0DCF81CC0BCF1010F08BF002301
:105A9000D2F82CC0BCF1000F32D09CF806404FF475
:105AA000405505EA04345568234343F00203AC89AA
:105AB00014F4805F04D014F4806F08BF43F4A06333
:105AC000DCF800C02C1DCCF80030CCF80840CCF835
:105AD0000C00CCF80410D06A0068036843F001039E
