:020000040800F2
:10000000004700200101000891190008911900081B
:1000100091190008911900089119000800000000CA
:10002000000000000000000000000000911900081E
:10003000911900080000000091190008C14A000849
:100040001B0100081B0100081B0100081B01000820
:100050001B0100081B0100081B0100081B01000810
:100060001B0100081B0100081B010008F11000081B
:100070000D110008291100088D110008B1110008A8
:10008000D5110008391200081B0100081B010008E7
:10009000597A00081B0100081B0100081B01000819
:1000A0001B0100081B0100081B0100081B010008C0
:1000B0001B0100081B0100081B0100081B010008B0
:1000C0001B0100081B0100081B0100081B010008A0
:1000D0001B010008F54F0008E95200081B01000849
:1000E0001B0100081B0100081B010008DFF80CD0F1
:1000F00000F02AF800480047597C0008004700201B
:100100000648804706480047FEE7FEE7FEE7FEE7B1
:10011000FEE7FEE7FEE7FEE7FEE7FEE7914B00089D
:10012000ED00000840EA01039B0703D009E008C97D
:10013000121F08C0042AFAD203E011F8013B00F8AC
:10014000013B521EF9D27047064C074D06E0E068AD
:1001500040F0010394E8070098471034AC42F6D30E
:10016000FFF7C8FFA8830008C883000870B5174EC2
:10017000F06A804710F0020F08BF70BD144C25686C
:10018000706A804761682844411AB1F5806FA4BF46
:100190006068084415DA0029D8BF70BD6068C0F3F4
:1001A0000900C0F5806081420DDC6068094AC0F337
:1001B0000900104406F0EAF80028C6BF6168084448
:1001C00070BD606070BD0146EFE700009C810008D3
:1001D00060000020FE3200202DE9F04F027883B04D
:1001E000A2F180031F2B04D800F052FC03B0BDE83D
:1001F000F08F01F8012B0F4610F8011B06461F294E
:1002000080F03184DFE811F01F005E007A00930077
:10021000780286028C022F04E2039C00AC002F04BB
:100220002F042F042F042F04B30039016001700143
:10023000D301FE01580209040E04130418041D041E
:1002400026047F0121043178781C0024062933D04C
:1002500006DC052930D2DFE801F02F2F2F2F0E000A
:10026000FD2918D002DCF02926D10AE0FE2920D091
:10027000FF2918D020E006242246FE49FFF752FF4E
:100280001AE0FD490968002918BF202141F0170133
:100290000170012410E00021102201704270817071
:1002A000C170042408E04021017000214170022443
:1002B00002E04021017001243C7003B004F10210FF
:1002C000BDE8F08F307830B101280BD0FF203870B6
:1002D000EA4800F0C3BBEA497078096800F0010001
:1002E000096805E0E6497078096800F0010049688E
:1002F000884700203870E14800F0B0BB3478002C0B
:100300000CBF0124012C06D0022C18BF002408D0F9
:100310003C7000F0EDB9DB490120087003F002F8F1
:10032000F6E7D8490220087002F0B0FFF0E7D548A0
:100330000024047002F0D6FF3C70012000F08EBB58
:10034000308800EB4000C0000128D2D04008009067
:10035000B0F1004F80F08F83401E0028FCDCC8E71E
:100360000120787000203870022000F077BB3578CB
:1003700074787079D6F8026014F0010F60F31F668C
:1003800007D015F0010F4FF400500CBFBE49BF4914
:10039000086014F0020F07D015F0020F4FF48040F0
:1003A0000CBFB949B949086014F0040F08D0A80877
:1003B00010F0010F4FF480700CBFB349B3490860CF
:1003C00014F0800F1CBFE80907F004FEBEB3012241
:1003D000AF494868AF4B1E1F14F0010F05D0D3F88A
:1003E00000C0CCF3403CAC4523D114F0020F06D042
:1003F000D6F800C0CCF3803CBCEB550F19D114F0FB
:10040000040F06D0D3F800C0CCF3002CBCEB950F42
:100410000FD114F0200F18BF5FEA551C09D114F05A
:10042000800F0CD0D6F800C0CCF3801CBCEBD51FDD
:1004300005D0D1F804C0ACEB000C9445CCD3954862
:10044000016801F40052011F0B68006803F4804347
:100450001A43520B00F4807042EA90108E4A1268E0
:10046000096802F4806240EAD21001F0400140EADB
:1004700041003870894800F0F1BAF178306861F3D2
:100480001F6038B18649814209D87E4901204870F1
:10049000486014E0FF203870824800F0DFBA7949E4
:1004A00000224A70804A0244B2FBF0F0022898BF52
:1004B000012003D97D4AA2FB0020400848600020AB
:1004C0003870784800F0CABA3478711C002C08BF24
:1004D0004FF48074204604F03BF900203870E01D92
:1004E000C0080121401CC2E0307800F003014A1C22
:1004F0006449C0F380000A764876002038704FF0D7
:10050000011000F0ABBA002007F8010B012516F826
:10051000010BA946B0F1010A28BFDFF894B142D31C
:1005200016F8014B14F03F0008BF4020C01D4FEAF1
:10053000D008DBF8000014F0800F20F0706008D0C5
:1005400040F00060CBF8000050484FF4804101605B
:1005500007E040F04070CBF800004B494FF480407A
:1005600008603A463146204603F024FABAF1000FFB
:100570000BD1DBF8000020F0706040F04070CBF849
:10058000000041494FF48040086014F0800F03D010
:100590004744C1446D1C03E005EB08004644451C7C
:1005A000BAF1010ABCD249EA054000F057BA00206E
:1005B00007F8010B16F8010B4FF00109B8464D463C
:1005C000B0F1010A1AD300BF16F8017B17F03F0003
:1005D00008BF4020C01DC40842463146384601F0DD
:1005E00001FE09EB0400264400F1010917F0800F19
:1005F0001CBFA0442544BAF1010AE5D245EA0940EE
:1006000000F02CBA1F4D16F8011B0020A97651B33B
:1006100005F11C0205F1240C4FEA010316F8014B09
:1006200002F8014B2CF8020B20445B1EF6D1D1B12D
:1006300005F11B0305F1320211F0010F05D013F88B
:1006400001CFA0EB0C0022F8020F5FEA510C0AD098
:100650005C78001B508013F8024F001B22F8040F37
:10066000BCF1010CF4D100203870481C012141EA92
:1006700000401FE0B08000080C00002001000200D4
:100680000800002008010020140C0140100C01405B
:10069000001000E00C0C01400808014001000600B9
:1006A00080A8120101000400FF502502ABAAAAAAEB
:1006B000040C014000F0D2B9F1480178022915D1AB
:1006C0003178C176807E814210D20E2001F0ACF9E3
:1006D00001F020FC002139707870010AB970010C1A
:1006E000F970000E3871E74800F0B8B9FF20387093
:1006F0004FF0011000F0B2B9E14831780173B6F85B
:1007000001100182B6F80310418200203870DE48E3
:1007100000F0A4B93946304600F0D2F900F09EB995
:10072000D748007801280FD0022877D000203870F1
:100730007870B8700320F17811F0020F18BF40F400
:10074000802040F08B8139E1DFF840934FF0000AC0
:10075000504607F1030889F800A0741C34F8025BC6
:100760007DB314F801BB1BF0020F04BF681E01909B
:1007700043D01BF0010F1CBFC148048A0FD00021D9
:10078000584603F0AFF9022802D0012807D061E0F3
:10079000641E5FD399F800100029F0D05AE06C1E57
:1007A00058D324B91BF0010F18BF4FF00E0BB448FB
:1007B000058A6946584603F095F9022802D00128B7
:1007C00007D047E06D1E45D399F800100029F0D0FE
:1007D00040E0009908F8011B00990AF1010A090A92
:1007E00008F8011B0099090C08F8011B0099090E73
:1007F00008F8011B641ED4D22CE0E17854F8040BF5
:1008000061F31F6000909E48058A6946584603F0D0
:1008100069F9022803D0012808D01BE023E06D1EEF
:1008200018D399F800100029EFD013E001980AF1CD
:10083000010A401E0190E0D29148048A00210E2056
:1008400003F050F9022805D1641E03D399F8001073
:100850000029F3D087F800A04FEA1A217970B87008
:10086000A8EB070067E7FD1C0197884F4FF00008D1
:10087000404687F8008082493278741CCA76897EA7
:100880008A4247D234F802BBBBF1000F42D014F8C1
:10089000019B19F0010F0CBF4FF00A0A4FF00B0A31
:1008A000504601F0C1F819F0020F19BF7448048ACC
:1008B000ABF10100029043D00021484601F000FD59
:1008C000022802D0012806D06CE0641E6AD3397871
:1008D0000029F1D066E0BBF1010B63D3BBF1000F3F
:1008E0000AD06748048A6946484601F0E9FC0228B4
:1008F0000BD001280FD055E0BAF10A0F1CBF0A2017
:1009000001F092F84FF00E09EBE7641E4AD33978F4
:100910000029E8D046E0009905F8011B009908F18C
:100920000108090A05F8011B0099090C05F8011BCB
:100930000099090E05F8011BBBF1010BCED231E085
:10094000E17854F8040B61F31F6000904C48B0F854
:1009500010B06946484601F0B3FC022802D00128D5
:1009600007D01FE0BBF1010B1CD339780029F0D070
:1009700018E0029808F10108401E0290E0D2BAF196
:100980000A0F1CBF0A2001F04FF83D48048A0021DD
:100990000E2001F095FC022804D1641E02D33978A0
:1009A0000029F4D001994FEA182281F800800199BA
:1009B0004A70019988700198281ABCE6B6F80110AF
:1009C0004FF4802202EB8141084347E02C48017834
:1009D000012902D002290BD00FE03179D6F80100AD
:1009E00061F31F6000906946002003F07BF810E07F
:1009F0003178C176807E814201D3FF200AE0082051
:100A000001F012F83179D6F8010061F31F6002F0AD
:100A10009FF9002038701C4820E03946304604F029
:100A20002FF81BE03946304603F0D2FF16E0394676
:100A3000304603F0DBFE11E03946304603F0F6FEA7
:100A40000CE0384603F0ECFF08E03946304603F08E
:100A500081FF03E03946304603F010FF03B000F198
:100A60000110BDE8F08FFF2007F8010C03B04FF034
:100A70000110BDE8F08F401E0090FCD139E4000069
:100A800008010020050001000100050020000020F1
:100A9000FF2008704FF00110704700000748002148
:100AA000012201704170426001736423038241821C
:100AB000416102764176817602F014BC0801002083
:100AC0002DE9F04FFF4E054600233078FE4F8FB0E2
:100AD00001281CD0022800F08881AC466D1C15F856
:100AE000010B50B115F8012B12F0020F02D012F0D9
:100AF000100F00D02D1D401EF4D10B704B70A5EBD4
:100B00000C0002210FB041EA0040BDE8F08FCDE9B2
:100B100004510020891C0B9000913B7007900A90B3
:100B200095F80180AD1CB8F1000F00F0538100BFB3
:100B300015F8019B19F0020F79D00799A1B3348AF7
:100B400009F0110001280BD101A9484602F0CAFFA3
:100B500002280DD1641E44D339780029F4D0A6E0D0
:100B600001A90E2002F0BEFF022804D00021079147
:100B7000012836D107E0641E02D339780029EFD06E
:100B80000021079193E0DDE900120A70019A0099B3
:100B9000120A01F8012F019A120C01F8012F019A93
:100BA000120E4A70891C009119F0100F40D0E8789D
:100BB00055F804ABB6F812B060F31F6A19F0010FD4
:100BC00018BF348A0ED00021484602F08BFF02285D
:100BD00002D0012806D06AE0641E68D33978002963
:100BE000F1D064E0348A01A9484602F07BFF022874
:100BF00002D0012806D010E0641E0ED339780029F7
:100C0000F1D00AE0726901991140514505D0BBF15C
:100C1000010B02D339780029E4D07169019A11409F
:100C2000514518BF40F01000012840D138E050E095
:100C3000348A19F0010F13D0079989BB0021484667
:100C400002F050FF022805D0012804BF01210791BE
:100C500026D02CE0641E2AD339780029EED026E075
:100C600001A9484602F03EFF022802D0012806D022
:100C70001DE0641E1BD339780029F1D017E0DDE9AF
:100C800000120A70019A0099120A01F8012F019AC4
:100C9000120C01F8012F019A120E4A70891C009162
:100CA00000210A910B99491C0B913978F1B3B8F1E5
:100CB000000F0BD015F8011B11F0020F02D011F03C
:100CC000100F00D02D1DB8F10108F3D101284BD031
:100CD00080E00798002818BF348A1AD001A90E2096
:100CE00002F000FF02282ED00128E0D1DDE900014A
:100CF000017001990098090A00F8011F0199090C77
:100D000000F8011F0199090E4170801C009000201D
:100D10000790E97855F8040B19F0200F61F31F6074
:100D200001901ABF70610120348A00E017E0B9D148
:100D300001A9484602F0D6FE02280AD0012808BFC1
:100D40000121AED0B3E7641EB1D339780029C5D0F4
:100D5000ADE7641EABD339780029E9D0A7E7B8F135
:100D600001087FF4E5AEB1E70799002918BF348A7E
:100D700020D001A90E2002F0B5FE022802D00128E1
:100D800006D027E0641E25D339780029F1D021E070
:100D9000DDE900120A70019A0099120A01F8012F88
:100DA000019A120C01F8012F019A120E4A70891C47
:100DB00000910FE00A99002918BF348A0AD0002157
:100DC0000E2002F08FFE022804D1641E02D339786F
:100DD0000029F4D0059A0B9911700599487005996E
:100DE0000098411A0498281A8CE600200491891C66
:100DF00006950C9000913B7003900A9015F8011B2A
:100E0000F176B27E914280F0628115F8018BB8F1E3
:100E1000000F00F05C8100BF15F8019B19F0010F75
:100E200014BF0B240A2419F0020F74D00A9981B35D
:100E30000398B6F810A0A04208BF19F0100F0FD009
:100E400003980A2803D00A20039000F0EDFD02A9C0
:100E50000E2001F035FA022812D000210A9105E097
:100E600002A9484601F02CFA022802D0012841D1FB
:100E700010E0BAF1010A3DD339780029F0D0D9E069
:100E8000BAF1010A02D339780029E0D000210A9191
:100E9000D0E010E0009A02991170029A0099120AAB
:100EA00001F8012F029A120C01F8012F029A120E7A
:100EB0004A70891C009119F0100F48D0E87855F855
:100EC00004AB03E0080100202000002060F31F6A4B
:100ED0000398B6F812B0A04203D02046039400F065
:100EE000A3FD348A0021484601F0EAF9022802D025
:100EF000012806D09EE0641E44D339780029F1D041
:100F000098E0348A02A9484601F0DAF9022803D0B1
:100F1000012807D011E036E0641E0ED3397800298D
:100F2000F0D00AE0726902991140514505D0BBF139
:100F3000010B02D339780029E3D07169029A11407C
:100F4000514518BF40F01000012873D16DE00A9997
:100F5000A1BB0398A04203D02046039400F064FD97
:100F6000348A0021484601F0ABF9022805D0012857
:100F700004BF01210A9158D05CE0641E5AD339782D
:100F80000029EED056E00A9860B303980A2803D0EF
:100F90000A20039000F048FDB6F810A002A90E2028
:100FA00001F08EF9022802D0012808D042E0BAF1FF
:100FB000010A3FD339780029F0D03BE035E00099B1
:100FC0000298087002990098090A00F8011F029916
:100FD000090C00F8011F0299090E4170801C009055
:100FE00000200A90E97855F8040B19F0200F61F3FE
:100FF0001F6002901CBF7061012016D10398A042AF
:1010000003D02046039400F00FFD348A02A948461D
:1010100001F056F9022802D0012806D00AE0641E29
:1010200008D339780029F1D004E00C99491C0C91BF
:10103000397891B1B8F1000F0CD000BF15F8011B41
:1010400011F0020F02D011F0100F00D02D1DB8F1D9
:101050000108F3D1012805D039E0B8F101087FF487
:10106000DBAEF7E703980A281CBF0A2000F0DCFC7F
:10107000348A0A9800B302A90E2001F021F902284F
:1010800002D0012806D022E0641E20D3397800293E
:10109000F1D01CE0009A02991170029A0099120A8C
:1010A00001F8012F029A120C01F8012F029A120E78
:1010B0004A70891C00910AE000210E2001F000F91D
:1010C000022804D1641E02D339780029F4D0049A8E
:1010D0000C9911700499487004990098411A069867
:1010E0000FB0281A41EA0040BDE8F08F70470000B9
:1010F000044910B5086800F00F004860FFF7F6FFDC
:1011000010BD00000000024070470000044910B507
:101110000868C0F3031002014A60FFF7F5FF10BD35
:101120000000024070470000044910B50868C0F391
:10113000032002024A60FFF7F5FF10BD00000240E5
:101140001148816A09684A680146002A496B496862
:101150001CBF00297047426B5161426B4FF0000188
:1011600082F8211041688989426841F040019181EB
:10117000016BC968022908BF7047006B016800292C
:1011800008BF704701200847BC800008044910B51B
:101190000868C0F3033002034A60FFF7D1FF10BDB7
:1011A00000000240014804F077BF0000BC80000846
:1011B000044910B50868C0F3034002044A60FFF711
:1011C000F1FF10BD00000240014804F065BF0000BF
:1011D000F4800008044910B50868C0F30350020504
:1011E0004A60FFF7F1FF10BD000002401148816A1C
:1011F00009684A680146002A496B49681CBF0029F2
:101200007047426B5161426B4FF0000182F8211030
:1012100041688989426841F040019181016BC96848
:10122000022908BF7047006B0168002908BF70479A
:1012300001200847F4800008044910B50868C0F38D
:10124000036002064A60FFF7D1FF10BD00000240B4
:10125000012818BF704730B43248426942F0010299
:101260004261002330480F244FF0E0224FF0010C80
:1012700008294FD2DFE801F04E040D17222D384324
:10128000836044604FF40060C2F88002C2F800013D
:1012900040E0C361F02343604FF48050C2F8800205
:1012A000C2F8000136E003634FF4706343604FF40B
:1012B0000050C2F88002C2F800012BE043644FF4F2
:1012C000704343604FF48040C2F88002C2F80001CE
:1012D00020E083654FF4702343604FF40040C2F870
:1012E0008002C2F8000115E0C3664FF4700343604A
:1012F0004FF48030C2F88002C2F800010AE0C0F862
:1013000080304FF0706343604FF40030C2F88002C9
:10131000C2F8000105480CFA01F10278114301708E
:1013200030BC70470010024000000240380000202E
:10133000012818BF704730B4DFF8D8C09CF800000F
:10134000002804BF30BC7047002001244FF0E02289
:10135000314B08294BD2DFE801F04A040E18222C49
:1013600036404FF40065C2F88051BFF34F8FBFF392
:101370006F8F98603BE04FF48055C2F88051BFF307
:101380004F8FBFF36F8FD86131E04FF40055C2F833
:101390008051BFF34F8FBFF36F8F186327E04FF477
:1013A0008045C2F88051BFF34F8FBFF36F8F5864F1
:1013B0001DE04FF40045C2F88051BFF34F8FBFF3DB
:1013C0006F8F986513E04FF48035C2F88051BFF3FA
:1013D0004F8FBFF36F8FD86609E04FF40035C2F826
:1013E0008051BFF34F8FBFF36F8FC3F8800004FAB3
:1013F00001F09CF8001031EA00008CF800001CBFDE
:1014000030BC70470548416921F00101416130BCA1
:101410007047000038000020000002400010024029
:1014200045F6C051484381B0012804BF01B0704760
:1014300040080090B0F1004F04D2401E0028FCDCB0
:1014400001B07047401E0090FCD101B07047000011
:1014500030B505464FF4302000F04AF8042818BF94
:1014600030BD0A4C206940F00200206165612069AE
:1014700040F0400020614FF4302000F039F821693D
:1014800041F6FD721140216130BD00000020024094
:101490000248016941F0800101617047002002406B
:1014A00070B506460D464FF4005000F021F80428B0
:1014B00018BF70BD074C206940F0010020613580E5
:1014C0004FF4005000F014F8216941F6FE7211400B
:1014D000216170BD00200240034802494160034978
:1014E000416070472301674500200240AB89EFCD82
:1014F000174902460420CB6813F0010F25D1CB68B1
:1015000013F0040F18BF02201AD1C96811F0100F90
:1015100018BF032014E0CB68042013F0010F18BF9C
:1015200001200AD1CB6813F0040F18BF022004D1A8
:10153000CB6813F0100F18BF0320521E012804D0EF
:10154000002A18BF704705207047002AE3D1FAE748
:101550000020024081B0002804BF01B07047144948
:101560008A6912F0010F03D18A6942F001028A618F
:1015700010F4805FC0F3421200F01F030D49C0F366
:10158000032002FA03F200FA03F007D0CB6923EA42
:10159000020210430090C86101B070474B6823EA13
:1015A0000202104320F0E0600090486001B07047F4
:1015B00000100240000001402DE9F001CB7800222C
:1015C00003F00F0C13F0100F1CBF8B7843EA0C0CC8
:1015D0000B784FF00F0613F0FF0F4FF0010518BF07
:1015E000046819D00F8805FA02F31F409F420FD1FB
:1015F000970006FA07F824EA08040CFA07F73C43B8
:10160000CF78282F08BF436102D0482F08BF03615D
:10161000521C082AE6D304600A88FF2A87BF446860
:101620000022BDE8F001704702F108030F8805FAB7
:1016300003F31F409F420FD1970006FA07F824EAF0
:1016400008040CFA07F73C43CF78282F08BF436102
:10165000CF78482F08BF0361521C082AE4D34460A6
:10166000BDE8F001704700000F2984BF00207047DB
:10167000F0B504460D463448A4F180411F46164695
:10168000B1F5843104BF8069C0F3800035D0A4F186
:101690008042B2F5863204BF8069C0F3C0002CD00E
:1016A000A4F18042B2F5883204BF8069C0F3001013
:1016B00023D0A4F18042B2F58A3204BF8069C0F31E
:1016C00040101AD0A4F18042B2F58C3204BF806978
:1016D000C0F3801011D0A4F18042B2F58E3204BF65
:1016E0008069C0F3C01008D0A4F18042B2F59032F6
:1016F00004BF8069C0F3002000D118B90121204641
:1017000000F024F86FB90120A840022E04BFE16860
:1017100021EA000004D0032E03D1E1680226084329
:10172000E060082D24BF241D083D2168A8000F2279
:1017300082409143216047EA860101FA00F0216866
:10174000084320600120F0BD001002402DE9F001A7
:10175000344A354BDFF8D4C0354C364D364E374F12
:10176000DFF8DC8000292FD0404504BF906940F0AD
:10177000040025D0984204BF906940F008001FD0B3
:10178000604504BF906940F0100019D0A04204BF2A
:10179000906940F0200013D0A84204BF906940F047
:1017A00040000DD0B04204BF906940F0800007D0E7
:1017B000B84207BF906940F48070BDE8F0017047FF
:1017C0009061BDE8F0017047404504BF906920F08A
:1017D0000400F5D0984204BF906920F00800EFD0D3
:1017E000604504BF906920F01000E9D0A04204BF1A
:1017F000906920F02000E3D0A84204BF906920F057
:101800004000DDD0B04204BF906920F08000D7D006
:10181000B84204BF906920F48070D1D0BDE8F001D7
:101820007047000000100240000C01400010014011
:101830000014014000180140001C0140002001403C
:10184000000801402DE9F0410278FF27A2F1D00302
:10185000072B7AD801F8012B0C4610F8011BD03960
:1018600008296ED2DFE801F0041215181C2A4A5E1E
:101870004048006804F8010B010A04F8011B010C40
:1018800004F8011B000E04F8010B5BE0FFF724FED7
:1018900058E0FFF7FDFD55E00068FFF7D9FD51E086
:1018A00082880168501E80B24CD300BF11F8012B12
:1018B000FF2A1BD1401E80B2F8D243E08188D0F8C5
:1018C000008038293ED8851D481E86B23AD300BF15
:1018D00015F8011B2EB115F8010B41EA0021701E0D
:1018E00086B24046FFF7DCFD042801D0FF2729E03F
:1018F000711E8EB208F10208EAD223E082880168E4
:101900003E2A1FD8002004F8010B501E80B219D3C4
:1019100030B111F8012B401E04F8012B80B2F7E71B
:101920000F780FE0BFF34F8F13480168134A01F49B
:10193000E06111430160BFF34F8F00BFFDE704E09A
:10194000FFE7641E2770BDE8F0810D480268002A99
:1019500002BFFF200870BDE8F0810A490A48C36849
:10196000806801EB8311094B5268BDE8F04103EB3D
:1019700080101047002004E00CED00E00400FA05A0
:1019800004000020FE2200204C000020FE12002057
:1019900072B61D48006880F308881C4DA86940F0A5
:1019A0000400A8611A4F6C153C601B4E1949304663
:1019B000FFF702FEA86940F00400A8613C601749E7
:1019C0003046FFF7F9FD3C6000253E1F346064207F
:1019D000FFF726FD3C6034606420FFF721FD3C608A
:1019E0004FF47A70FFF71CFD6D1C052DEEDBBFF385
:1019F0004F8F0B4801680B4A01F4E061114301600D
:101A0000BFF34F8F00BFFDE7000000080010024049
:101A1000140801406080000800080140648000084C
:101A20000CED00E00400FA05F0B4344B59780029BD
:101A300060D0334A4FF48045156002F1040C511414
:101A4000CCF800101160CCF800101160CCF80050F8
:101A5000CCF800101160CCF8001011604C1114602B
:101A6000DF7E03EB4706B38C2BB100BFCCF8001030
:101A700011605B1EFAD1234BFB5C5B1E0CD000BFD8
:101A800010F0010F14BF1460CCF80040CCF8001027
:101A9000116040085B1EF3D1B38E03B310F0010F49
:101AA0000CBFCCF800401460CCF80010116014603A
:101AB000581E04D0CCF800101160401EFAD11560F9
:101AC000CCF80010C2F80010CCF800101160CCF86F
:101AD0000050CCF8001011601460F0BC7047156025
:101AE00010F0010F14BF1460CCF80040CCF80010C7
:101AF0001160E9E7F0BC00F007B800000801002021
:101B0000100C0140240100202DE9F807F84D4FF496
:101B10008048C5F800806C142E1D3460DFF8D4C3F3
:101B2000DCF804104A0801290BD013460092B2F1E8
:101B3000004F38BF531E80F07081002BC8BF5B1E62
:101B4000FBDC2C6001290BD013460092B2F1004F50
:101B500038BF531E80F06681002BC8BF5B1EFBDCC4
:101B6000346001290BD013460092B2F1004F38BF08
:101B7000531E80F05B81002BC8BF5B1EFBDC2C601A
:101B800001290BD013460092B2F1004F38BF531E0B
:101B900080F05081002BC8BF5B1EFBDCC6F80080C4
:101BA000346001290BD013460092B2F1004F38BFC8
:101BB000531E80F04381002BC8BF5B1EFBDC2C60F2
:101BC00001290BD013460092B2F1004F38BF531ECB
:101BD00080F03881002BC8BF5B1EFBDC346001291C
:101BE0000BD013460092B2F1004F38BF531E80F065
:101BF0002E81002BC8BF5B1EFBDC2C6001290BD0A3
:101C000013460092B2F1004F38BF531E80F023817B
:101C1000002BC8BF5B1EFBDC4FF480772F609CF865
:101C20001B900CEB490ABAF824C0BCF1000F12D08B
:101C30003460012904D00092B2F1004F80F00F818E
:101C40002C60012904D00092B2F1004F80F0108185
:101C5000BCF1010CECD1A84B19F80330B3F1010C25
:101C600019D000BF10F0010F14BF2F60376034602F
:101C7000012904D00092B2F1004F80F001812C6064
:101C8000012904D00092B2F1004F80F00281400897
:101C9000BCF1010CE6D1BAF83430EBB310F0010F0F
:101CA0000CBF37602F60346001290AD010460092C3
:101CB000B2F1004F38BF501E7ED20028C8BF401E70
:101CC000FBDC2C6001290AD010460092B2F1004FD3
:101CD00038BF501E71D20028C8BF401EFBDC2F60E9
:101CE0005B1E11D03460012904D010460092B2F17D
:101CF000004F7DD22C60012904D010460092B2F131
:101D0000004F76D25B1EEDD1C5F80080346001290A
:101D10000CD01046009200E017E0B2F1004F38BF3F
:101D2000501E67D20028C8BF401EFBDC2C60012972
:101D30002ED010460092B2F1004F38BF501E70D224
:101D40000028C8BF401EFBDC22E0C5F8008010F070
:101D5000010F14BF2F603760346001290AD010468C
:101D60000092B2F1004F38BF501E6FD20028C8BF9A
:101D7000401EFBDC2C6001290AD010460092B2F113
:101D8000004F38BF501E72D20028C8BF401EFBDC77
:101D9000346001290AD010460092B2F1004F38BFDA
:101DA000501E75D20028C8BF401EFBDC2C600129E4
:101DB0000DD01046009201E073E077E0B2F1004FE1
:101DC00038BF501E71D20028C8BF401EFBDCC6F8C9
:101DD0000080346001290AD010460092B2F1004F11
:101DE00038BF501E72D20028C8BF401EFBDC02E084
:101DF00060E063E066E02C6001290AD010460092A2
:101E0000B2F1004F38BF501E71D20028C8BF401E2B
:101E1000FBDC2F60BDE8F80770475B1E0093FCD128
:101E20008FE654E05B1E0093FCD199E65B1E0093A5
:101E3000FCD1A4E65B1E0093FCD1AFE65B1E0093D1
:101E4000FCD1BCE65B1E0093FCD1C7E643E05B1E01
:101E50000093FCD1D1E65B1E0093FCD1DCE6531E5F
:101E600000933FF4EDAE5B1E0093FCD1E8E636E054
:101E7000531E00933FF4ECAE5B1E0093FCD1E7E6EB
:101E8000531E00933FF4FBAE5B1E0093FCD1F6E6BD
:101E900029E0531E00933FF4FAAE5B1E0093FCD181
:101EA000F5E6401E0090FCD10BE727E0401E0090B5
:101EB000FCD114E7401E0090FCD11BE7401E0090AF
:101EC000FCD11FE7401E0090FCD12FE71AE0401E16
:101ED0000090FCD15CE7401E0090FCD14AE7401E18
:101EE0000090FCD154E7401E0090FCD15EE70DE06D
:101EF000100C01400801002024010020401E009029
:101F0000FCD164E7401E0090FCD170E7401E0090B9
:101F1000FCD17EE72DE9F803AF4D4FF480462E60EB
:101F20002C1D4FF4005CC4F800C0AC4B59684A0843
:101F300001290BD010460092B2F1004F38BF501E5D
:101F400080F0F5800028C8BF401EFBDCC5F800C04B
:101F500001290BD010460092B2F1004F38BF501E3D
:101F600080F0E9800028C8BF401EFBDC2660C4F872
:101F700000C001290BD010460092B2F1004F38BFCB
:101F8000501E80F0DC800028C8BF401EFBDCC5F876
:101F900000C001290AD010460092B2F1004F38BFAC
:101FA000501E7DD20028C8BF401EFBDCC4F800C014
:101FB00001290AD010460092B2F1004F38BF501EDE
:101FC0006FD20028C8BF401EFBDCC5F800C0012945
:101FD0000AD010460092B2F1004F38BF501E7CD29A
:101FE0000028C8BF401EFBDCDB7E8BB1C4F800C0FC
:101FF000012903D00092B2F1004F6FD2C5F800C0A2
:10200000012903D00092B2F1004F68D25B1EEDD1DE
:102010000027DFF8CC811F23C4F800C0012903D0BA
:102020000092B2F1004F7DD2D8F80000C5F800C090
:10203000C0F38029012903D00092B2F1004F72D27F
:1020400047EAC97047085B1EE6D12E60C4F800C09D
:1020500001290AD010460092B2F1004F38BF501E3D
:1020600071D20028C8BF401EFBDCD8F80000C5F8BC
:1020700000C0C0F3802301290AD010460092B2F1BB
:10208000004F38BF501E73D20028C8BF401EFBDC73
:1020900047EAC370C4F800C001290DD0134601E01F
:1020A00052E055E00092B2F1004F38BF531E70D29B
:1020B000002BC8BF5B1EFBDCC5F800C001290AD09D
:1020C00013460092B2F1004F38BF531E77D2002B57
:1020D000C8BF5B1EFBDC266002E03DE040E048E05C
:1020E000C4F800C001290AD013460092B2F1004F93
:1020F00038BF531E67D2002BC8BF5B1EFBDCC5F880
:1021000000C0012904BFBDE8F803704711460092E2
:10211000B2F1004F38BF511E59D20029C8BF491E25
:10212000FBDC01E02DE035E0BDE8F8037047401E20
:102130000090FCD10AE7401E0090FCD116E7401E3B
:102140000090FCD123E72DE0401E0090FCD12DE74C
:10215000401E0090FCD138E7401E0090FCD143E7C0
:10216000501E00903FF44AAF401E0090FCD145E75E
:102170001CE0501E00903FF449AF401E0090FCD17F
:1021800044E7501E00903FF44FAF401E0090FCD13A
:102190004AE710E0501E00903FF452AF401E0090FE
:1021A000FCD14DE7401E0090FCD15EE7401E009040
:1021B000FCD16DE703E05B1E0093FCD17CE75B1E66
:1021C0000093FCD187E75B1E0093FCD197E7491E83
:1021D0000091FCD1A5E70000100C0140080100208F
:1021E000080801402DE9F74F81B0019810F03F0237
:1021F00008BF402210F0400F2E4E4FF48040A6F151
:10220000040714BF38603060002A04BF04B0BDE882
:10221000F08F4FF4807ADFF8A0B04FF4005900BF80
:102220002648082511F801CB43684FF000085C08E8
:1022300026E000BF1CF0010F14BFC7F800A0C6F8CD
:1022400000A0C6F80090012B04D020460094B4F101
:10225000004F27D2DBF80000C7F80090C0F3802EB3
:10226000012B04D020460094B4F1004F1ED24FEA57
:102270005800521E4FEA5C0C40EACE186D1E01D089
:10228000002AD7D1019B28FA05F013F0800F04D063
:10229000039B18700398401C0390002AC0D104B01F
:1022A000BDE8F08F401E0090FCD1D3E7401E0090A7
:1022B000FCD1DCE7140C01400808014008010020B3
:1022C0002DE9F05FDFF8C0E19EF80120002A00F060
:1022D000D780DFF8B8C14FF48049CCF800900CF1FA
:1022E00004074FF400533B60CCF80030C7F800906F
:1022F0003B60CCF800303B60CCF800309EF81B20EF
:1023000022B13B60CCF80030521EFAD1420812F0E4
:10231000010F4FF4807414BFCCF800403C603B6068
:102320005B4D2A68CCF80030C2F380225200860848
:1023300016F0010F14BFCCF800403C603B602E68E3
:10234000CCF80030C6F380263243C60816F0010FE1
:1023500014BFCCF800403C603B602E68CCF80030E5
:10236000C6F3802642EA860ABAF1010F59D1464ED9
:1023700010F0020FB27EF67EA2EB060B14BF002611
:1023800009684FF01F022DD03B60D5F80080CCF8D3
:1023900000304FEA982846EAC8767608521EF3D1F4
:1023A000BBF1010210D03B602D68CCF80030C5F3C2
:1023B0008025521E04D03B60CCF80030521EFAD16A
:1023C000CCF800903B6005E0CCF800903B602A68B8
:1023D000C2F38025CCF8003046EAC572002918BF48
:1023E0000A6023E011F0010F14BFCCF800403C60FC
:1023F0003B60CCF800304908521EF3D1BBF101021A
:1024000032D011F0010F0CBF3C60CCF800403B60B3
:10241000CCF80030511E04D03B60CCF80030491E8F
:10242000FAD1CCF800903B60CCF800303B60CCF89F
:102430000030C7F800903B60CCF80030CCF800408A
:1024400010F0800F03D013484068CEF808009EF8C3
:102450000C00002805DD3B60CCF80030401E002851
:10246000F9DC5046BDE8F09FCCF8009011F0010F68
:1024700014BFCCF800403C603B60CCF80030D5E79E
:10248000BDE8F05F00F008B808010020100C014022
:1024900008080140001000E02DE9F04FFF4E88B021
:1024A0004FF48049C6F8009006F1040A7514CAF882
:1024B0000050DFF8EC83D8F804205308012A0FD02D
:1024C0009C460193B3F1004F38BFA3F1010C80F09B
:1024D000318300BFBCF1000FC8BFACF1010CF9DCC7
:1024E0003560012A0ED09C460193B3F1004F38BFEE
:1024F000A3F1010C80F02683BCF1000FC8BFACF142
:10250000010CF9DCCAF80090CAF80050012A0FD07B
:102510009C460193B3F1004F38BFA3F1010C80F04A
:10252000178300BFBCF1000FC8BFACF1010CF9DC90
:102530003560012A0ED09C460193B3F1004F38BF9D
:10254000A3F1010C80F00A83BCF1000FC8BFACF10D
:10255000010CF9DCCAF80050012A0FD09C46019307
:10256000B3F1004F38BFA3F1010C80F0FF8200BF30
:10257000BCF1000FC8BFACF1010CF9DC3560012AD9
:102580000ED09C460193B3F1004F38BFA3F1010C6C
:1025900080F0F282BCF1000FC8BFACF1010CF9DC95
:1025A00098F81B409CB100BFCAF80050012A04D023
:1025B0000193B3F1004F80F0E7823560012A04D027
:1025C0000193B3F1004F80F0ED82641EECD14FEA2D
:1025D000500C1CF0010F4FF4807714BF3760CAF81D
:1025E0000070CAF80050012A0ED09C460193B3F146
:1025F000004F38BFA3F1010C80F0E082BCF1000F66
:10260000C8BFACF1010CF9DCA64CD4F800C03560B1
:10261000CCF3802C012A0FD09B460293B3F1004FDC
:1026200038BFA3F1010B80F0D18200BFBBF1000FD6
:10263000C8BFABF1010BF9DC4FEA900B4FEA4C0C31
:102640001BF0010F14BF3760CAF80070CAF80050C1
:10265000012A0FD09B460193B3F1004F38BFA3F17D
:10266000010B80F0B98200BFBBF1000FC8BFABF116
:10267000010BF9DCD4F800B03560CBF3802B012AD4
:102680000ED09E460293B3F1004F38BFA3F1010E66
:1026900080F0A882BEF1000FC8BFAEF1010EF9DCD8
:1026A0004CEA0B0C4FEAD00B1BF0010F14BF376044
:1026B000CAF80070CAF80050012A0FD09B46019357
:1026C000B3F1004F38BFA3F1010B80F0918200BF3E
:1026D000BBF1000FC8BFABF1010BF9DCD4F800B0BF
:1026E0006E4E4FF40055CBF3802B3560012A0BD092
:1026F0001D460293B3F1004F38BF5D1E80F080820B
:10270000002DC8BF6D1EFBDC4CEA8B0CCDF80CC055
:10271000BCF1010F28D0DFF884C1CCF800904FF451
:102720000054CAF80040012A0BD019460193B3F1B6
:10273000004F38BF591E80F067820029C8BF491E6C
:10274000FBDCCCF80040012A00F08D811946009393
:10275000B3F1004F38BF591E80F05A820029C8BF1C
:10276000491EFBDC00F07FB94D4D10F0020F95F8CB
:102770001AC0ED7EACEB050CCDF818C07BD0DFF8AD
:102780001C8100254FF01F0B4FF40056CAF8006063
:10279000012A04D00193B3F1004F80F03D82D4F8B8
:1027A00000C0C8F80060CCF3802C012A04D0079345
:1027B000B3F1004F80F03C8245EACC7C4FEA5C05E7
:1027C000BBF1010BE2D1DDF818C0BCF1010C70D0F7
:1027D000CAF80060012A0FD09B460193B3F1004F65
:1027E00038BFA3F1010B80F02F8200BFBBF1000FB7
:1027F000C8BFABF1010BF9DC2468C8F80060C4F372
:10280000802B012A0BD01C460693B3F1004F38BF32
:102810005C1E80F01F82002CC8BF641EFBDCBCF174
:10282000010415D0CAF80060012A05D09C46069321
:10283000B3F1004F80F01282C8F80060012A05D081
:102840009C460693B3F1004F80F00E82641EE9D1DE
:10285000C8F80090CAF80060012A11D09C46059380
:10286000B3F1004F38BFA3F1010C80F0038200BF29
:10287000BCF1000F00E04BE0C8BFACF1010CF7DC8D
:10288000C8F80060012A3DD01A460093B3F1004F0A
:1028900038BF5A1E80F0F481002A06E0100C014077
:1028A000080100200808014003E0C8BF521EF3DC05
:1028B00028E0C8F80090CAF80060012A0ED09C46B3
:1028C0000193B3F1004F38BFA3F1010C80F0DC811C
:1028D000BCF1000FC8BFACF1010CF9DCD4F800C0AA
:1028E000C8F80060CCF3802B012A0BD01A46009365
:1028F000B3F1004F38BF5A1E80F0CC81002AC8BF08
:10290000521EFBDC45EACB72002918BF0A60AAE020
:10291000F84D1F26D1F800C06C1400BF1CF0010F49
:1029200014BF2F60CAF80070CAF80040012A04D012
:102930000193B3F1004F80F0B1812C60012A04D0E3
:102940000193B3F1004F80F0B1814FEA5C0C761E29
:10295000E4D10699491E61D01CF0010F0CBFCAF8E2
:1029600000702F60CAF80040012A0DD09C460193E8
:10297000B3F1004F38BFA3F1010C7DD2BCF1000FC1
:10298000C8BFACF1010CF9DC2C60012A0ED09C46CA
:102990000193B3F1004F38BFA3F1010C6DD200BF1A
:1029A000BCF1000FC8BFACF1010CF9DCB1F1010CB6
:1029B00014D000BFCAF80040012A04D01946019380
:1029C000B3F1004F7CD22C60012A04D01946019348
:1029D000B3F1004F75D2BCF1010CEBD1C5F80090FA
:1029E000CAF80040012A0AD019460193B3F1004FFA
:1029F00038BF591E66D20029C8BF491EFBDC2C60B7
:102A0000012A30D019460093B3F1004F38BF591E48
:102A10007ED20029C8BF491EFBDC24E0C5F8009027
:102A20001CF0010F14BF2F60CAF80070CAF80040F4
:102A3000012A0AD019460193B3F1004F38BF591E3D
:102A400067D20029C8BF491EFBDC2C60012A0AD0CE
:102A500019460093B3F1004F38BF591E70D20029B8
:102A6000C8BF491EFBDC4FF40053CAF80030A24C2B
:102A7000616801290AD001E020E125E14A080192BC
:102A8000B2F1004F70D2521E002AFCDCDFF864C2A3
:102A9000CCF80030012907D04A080192B2F1004F6A
:102AA00070D2521E002AFCDCCAF80090CAF800302E
:102AB00001290BD04A080192B2F1004F70D202E016
:102AC00008E10BE10EE1521E002AF8DCCCF80030E0
:102AD000012907D04A080192B2F1004F74D2521E68
:102AE000002AFCDCCCF8007010F0800F02D0834884
:102AF0004068A060227B002AC8BF4C0816DD00BFDA
:102B0000CAF80030012906D00494B4F1004F01E066
:102B1000ECE0F5E072D2CCF80030012903D0049447
:102B2000B4F1004F6BD2521E002AE9DC039808B0C2
:102B3000BDE8F08FBCF1010CCDF804C0FAD1CFE4B0
:102B4000E2E000BFBCF1010CCDF804C0FAD1D9E439
:102B5000BCF1010CCDF804C0FAD1E9E4BCF1010CE0
:102B6000CDF804C0FAD1F5E4D2E000BFBCF1010C0D
:102B7000CDF804C0FAD101E5BCF1010CCDF804C0D8
:102B8000FAD10DE5C8E000BFB3F1010CCDF804C0E7
:102B90003FF413ADBCF1010CCDF804C0FAD10CE543
:102BA000BEE000BFB3F1010CCDF804C03FF40DADA1
:102BB000BCF1010CCDF804C0FAD106E5BCF1010C62
:102BC000CDF804C0FAD11FE5AEE000BFBBF1010BA8
:102BD000CDF808B0FAD12FE5BBF1010BCDF804B068
:102BE000FAD147E5BEF1010ECDF808E0FAD157E57C
:102BF000BBF1010BCDF804B0FAD16FE598E09FE08E
:102C00006D1E0295FCD17FE5491E0191FCD198E52E
:102C1000491E0091FCD126E7B3F1010CCDF804C0A8
:102C20003FF4BDADBCF1010CCDF804C0FAD1B6E55E
:102C3000B3F1010ECDF81CE03FF4BEADBEF1010EC4
:102C4000CDF81CE0FAD1B7E5BBF1010BCDF804B02B
:102C5000FAD1D1E5641E0694FCD1E0E5BCF1010C8B
:102C6000CDF818C0FAD1E7E5BCF1010CCDF818C0D9
:102C7000FAD1EBE5BCF1010CCDF814C0FAD1FFE5B7
:102C8000521E0092FCD13DE6BCF1010CCDF804C00F
:102C9000FAD123E6521E0092FCD133E6591E01916F
:102CA0003FF44BAE491E0191FCD146E6591E0191FD
:102CB0003FF44BAE491E0191FCD146E6BCF1010C3C
:102CC000CDF804C0FAD15FE6BCF1010CCDF804C028
:102CD000FAD16BE6491E0191FCD174E6491E0191BF
:102CE000FCD178E6491E0191FCD188E6491E00918D
:102CF000FCD1B8E6100C014008010020001000E0F3
:102D0000491E0191FCD1A0E6491E0091FCD1AAE622
:102D1000521E0192FCD1B9E6521E0192FCD1C3E6CB
:102D2000521E0192FCD1D1E6521E0192FCD1D9E68D
:102D3000601E04903FF4EFAE401E0490FCD1EAE622
:102D4000601E04903FF4EFAE401E0490FCD1EAE612
:102D50002DE9F807F84D4FF48048C5F800802C1D88
:102D60004FF4005CC4F800C0DFF8D093D9F8041029
:102D70004A0801290BD013460092B2F1004F38BF28
:102D8000531E80F0B781002BC8BF5B1EFBDCC5F86B
:102D900000C001290BD013460092B2F1004F38BF9A
:102DA000531E80F0AB81002BC8BF5B1EFBDCC4F858
:102DB0000080C4F800C001290BD013460092B2F184
:102DC000004F38BF531E80F09D81002BC8BF5B1E93
:102DD000FBDCC5F800C001290BD013460092B2F10C
:102DE000004F38BF531E80F09181002BC8BF5B1E7F
:102DF000FBDCC4F800C001290BD013460092B2F1ED
:102E0000004F38BF531E80F08581002BC8BF5B1E6A
:102E1000FBDCC5F800C001290BD013460092B2F1CB
:102E2000004F38BF531E80F07A81002BC8BF5B1E55
:102E3000FBDC99F81B703E0014D000BFC4F800C042
:102E4000012904D00092B2F1004F80F06C81C5F8E6
:102E500000C0012904D00092B2F1004F80F07081CF
:102E60007F1EEBD14FF480772760C4F800C00129A2
:102E70000BD013460092B2F1004F38BF531E80F0C2
:102E80006781002BC8BF5B1EFBDCC5F800C00129B1
:102E90000BD013460092B2F1004F38BF531E80F0A2
:102EA0005C81002BC8BF5B1EFBDCC4F800C001299D
:102EB0000BD013460092B2F1004F38BF531E80F082
:102EC0005081002BC8BF5B1EFBDCC5F800C0012988
:102ED0000BD013460092B2F1004F38BF531E80F062
:102EE0004481002BC8BF5B1EFBDCC4F800C0012975
:102EF0000BD013460092B2F1004F38BF531E80F042
:102F00003881002BC8BF5B1EFBDCC5F800C001295F
:102F10000BD013460092B2F1004F38BF531E80F021
:102F20002D81002BC8BF5B1EFBDC1F2310F0010F9F
:102F300014BF2F602760C4F800C0012904D000929C
:102F4000B2F1004F80F01E81C5F800C0012904D005
:102F50000092B2F1004F80F0238140085B1EE5D162
:102F600099F81A309B1B5B1E55D010F0010F0CBF57
:102F700027602F606646C4F800C001290AD01046B9
:102F80000092B2F1004F38BF501E7DD20028C8BF5A
:102F9000401EFBDC2E6001290AD010460092B2F1DF
:102FA000004F38BF501E70D20028C8BF401EFBDC47
:102FB0005B1E11D02660012904D010460092B2F1A8
:102FC000004F7DD22E60012904D010460092B2F14C
:102FD000004F76D25B1EEDD1C5F800802660012936
:102FE0000AD010460092B2F1004F38BF501E69D28D
:102FF0000028C8BF401EFBDC2E60012930D01046DF
:103000000092B2F1004F38BF501E72D20028C8BFE4
:10301000401EFBDC24E0C5F8008010F0010F14BF57
:103020002F602760C4F800C001290AD01046009222
:10303000B2F1004F38BF501E70D20028C8BF401EEA
:10304000FBDCC5F800C001290AD010460092B2F19D
:10305000004F38BF501E6ED20028C8BF401EFBDC98
:10306000C4F800C001290AD010460092B2F1004F06
:1030700038BF501E70D20028C8BF401EFBDCC5F808
:1030800000C001290DD001E096E099E010460092C1
:10309000B2F1004F38BF501E6FD20028C8BF401E8B
:1030A000FBDCC4F80080C4F800C001290ED0104633
:1030B0000092B2F1004F38BF501E6FD2002802E0DC
:1030C00083E086E089E0C8BF401EF7DCC5F800C099
:1030D00001290AD010460092B2F1004F38BF501EAD
:1030E00072D20028C8BF401EFBDC2F60BDE8F80785
:1030F000704776E05B1E0093FCD148E65B1E0093B0
:10310000FCD154E65B1E0093FCD162E65B1E00938B
:10311000FCD16EE65B1E0093FCD17AE665E05B1E97
:103120000093FCD185E6531E00933FF490AE5B1EE6
:103130000093FCD18BE65CE0100C014008010020FC
:10314000531E00933FF48CAE5B1E0093FCD187E6C8
:103150005B1E0093FCD198E64FE05B1E0093FCD110
:10316000A3E65B1E0093FCD1AFE65B1E0093FCD18F
:10317000BBE65B1E0093FCD1C7E642E05B1E0093FA
:10318000FCD1D2E6B2F1010ACDF800A03FF4DCAEEA
:10319000BAF1010ACDF800A0FAD1D5E635E000BFBA
:1031A000B2F1010ACDF800A03FF4D7AEBAF1010A9E
:1031B000CDF800A0FAD1D0E6401E0090FCD1E9E69F
:1031C000401E0090FCD1F3E623E0401E0090FCD1AD
:1031D000F8E6401E0090FCD1FCE6401E0090FCD1B9
:1031E0000AE7401E0090FCD13AE7401E0090FCD157
:1031F00027E7401E0090FCD132E7401E0090FCD132
:103200003DE7401E0090FCD14BE7401E0090FCD1F2
:103210005CE7401E0090FCD167E7000007494FF4CF
:10322000007008600648417821F0010141704FF0BC
:10323000E020016941F0010101617047140801407B
:10324000000000200E4A4FF4007111600D4B10F089
:10325000010F4FF0E02093F801C04CF0010C83F80F
:1032600001C005D0036923F00103036111607047B9
:10327000026942F0010202610348016070470000E8
:103280001008014000000020140801400F4810B54C
:103290004FF4C0410160811501600D490D48FEF7F2
:1032A0008BF90E4C0C492046FEF786F90C49204656
:1032B000FEF782F9002004F08DFE6420FEF7B0F8DE
:1032C000BDE81040012004F085BE0000100C014054
:1032D00074800008000801407C800008000C014058
:1032E0007880000810B50A4C08492046FEF764F9BA
:1032F00008492046FEF760F907490848FEF75CF9DF
:103300002046BDE810400649FEF756B98480000803
:10331000000C0140808000088880000800080140FF
:103320008C8000080E4910B54FF4C04008600E4C68
:103330000C492046FEF740F90C490D48FEF73CF9D0
:103340000C492046FEF738F9002004F043FE6420C3
:10335000FEF766F8BDE81040012004F03BBE000017
:10336000100C014068800008000C01406C800008CF
:103370000008014070800008704700002DE9F80F38
:10338000FE4D4FF480472F606C142E1D3460DFF823
:10339000F0C3DCF804205308012A0FD098460093AC
:1033A000B3F1004F38BFA3F1010880F0438200BFA2
:1033B000B8F1000FC8BFA8F10108F9DC2C60012AA0
:1033C0000ED098460093B3F1004F38BFA3F1010827
:1033D00080F03682B8F1000FC8BFA8F10108F9DC0F
:1033E00010F0010F14BF2F6037603460012A0FD036
:1033F00098460093B3F1004F38BFA3F1010880F065
:10340000278200BFB8F1000FC8BFA8F10108F9DC9E
:103410002C60012A0ED098460093B3F1004F38BFBC
:10342000A3F1010880F01A82B8F1000FC8BFA8F11B
:103430000108F9DC4FEA500A81461AF0010F14BF67
:103440002F6037603460012A0ED098460093B3F1A4
:10345000004F38BFA3F1010880F00682B8F1000FD9
:10346000C8BFA8F10108F9DC2C60012A0ED09846EB
:103470000093B3F1004F38BFA3F1010880F0FA8147
:10348000B8F1000FC8BFA8F10108F9DC4FEA9009B4
:10349000824419F0010F14BF2F6037603460012A95
:1034A0000ED098460093B3F1004F38BFA3F1010846
:1034B00080F0E681B8F1000FC8BFA8F10108F9DC7F
:1034C0002C60012A0ED098460093B3F1004F38BF0C
:1034D000A3F1010880F0DA81B8F1000FC8BFA8F1AC
:1034E0000108F9DC0AEB09084FEAD00919F0010FCD
:1034F00014BF2F6037603460012A0BD01846009348
:10350000B3F1004F38BF581E80F0C8810028C8BFF3
:10351000401EFBDC2C60012A0BD018460093B3F14F
:10352000004F38BF581E80F0BD810028C8BF401E24
:10353000FBDC08EB090010F0010F14BF2F603760AF
:103540003460012A0BD018460093B3F1004F38BF06
:10355000581E80F0AB810028C8BF401EFBDC2C60E9
:10356000012A0BD018460093B3F1004F38BF581E04
:1035700080F0A0810028C8BF401EFBDC37603460AB
:10358000012A0BD018460093B3F1004F38BF581EE4
:1035900080F094810028C8BF401EFBDC2C60012A0B
:1035A0000BD018460093B3F1004F38BF581E80F07F
:1035B00089810028C8BF401EFBDC2F603460012ACF
:1035C0000BD018460093B3F1004F38BF581E80F05F
:1035D0007D810028C8BF401EFBDC2C60012A0BD077
:1035E00018460093B3F1004F38BF581E80F0738126
:1035F0000028C8BF401EFBDCDFF88881D8F8000037
:1036000020F0706040F00060C8F800002F609CF867
:1036100018C0BCF1000912D03460012A04D0009314
:10362000B3F1004F80F05B812C60012A04D000933D
:10363000B3F1004F80F05C81BCF1010CECD134603F
:10364000012A0BD018460093B3F1004F38BF581E23
:1036500080F056810028C8BF401EFBDCDFF828C17F
:10366000DCF8000010F4804018BF01202C60012A13
:103670000ED09A460093B3F1004F38BFA3F1010A70
:103680007BD200BFBAF1000FC8BFAAF1010AF9DC72
:103690003460012A0ED09A460093B3F1004F38BF30
:1036A000A3F1010A72D200BFBAF1000FC8BFAAF19C
:1036B000010AF9DCDCF800A01AF4804A18BF4FF0C8
:1036C000010A2C60012A0DD09B460093B3F1004FF4
:1036D00038BFA3F1010B7CD2BBF1000FC8BFABF127
:1036E000010BF9DC40EA4A003460012A0ED09A4608
:1036F0000093B3F1004F38BFA3F1010A6AD200BFB3
:10370000BAF1000FC8BFAAF1010AF9DCDCF800C069
:103710001CF4804F14BF4FF0010A4FF0000A2C60D8
:10372000012A0DD09C460093B3F1004F38BFA3F19E
:10373000010C7CD2BCF1000FC8BFACF1010CF9DC6C
:1037400040EA8A00B9F1000F10D03460012A03D09A
:103750000093B3F1004F6BD22C60012A03D0009389
:10376000B3F1004F72D2B9F10109EED1D8F800C01F
:103770002CF0706C4CF0407C09E0C5E0100C01406E
:1037800008010020040C0140080C0140C2E0C8F808
:1037900000C037604FF000094FF0200A11F0010F10
:1037A00014BF2F6037603460012A03D00093B3F157
:1037B000004F71D22C60012A03D00093B3F1004F67
:1037C0006BD289444908BAF1010AE7D119F0010F17
:1037D00001E0A5E0AAE014BF2F6037603460012A41
:1037E0000AD019460093B3F1004F38BF591E71D269
:1037F0000029C8BF491EFBDC2C60012A0AD01946EB
:103800000093B3F1004F38BF591E70D20029C8BFD2
:10381000491EFBDCD8F8001021F0706141F04071C6
:10382000C8F8001037602F60BDE8F80F704783E0DC
:1038300088E000BFB8F10108CDF80080FAD1BDE5FD
:10384000B8F10108CDF80080FAD1C9E586E000BFE3
:10385000B8F10108CDF80080FAD1D9E5B8F1010836
:10386000CDF80080FAD1E5E5B8F10108CDF8008087
:10387000FAD1F9E5B8F10108CDF80080FAD105E6F2
:10388000B8F10108CDF80080FAD119E6B8F10108C5
:10389000CDF80080FAD125E66CE077E0401E00907C
:1038A000FCD137E6401E0090FCD142E6401E00905D
:1038B000FCD154E6401E0090FCD15FE6401E009013
:1038C000FCD16BE6401E0090FCD176E6401E0090D5
:1038D000FCD182E666E0401E0090FCD18CE6581ECA
:1038E00000903FF4A1AE401E0090FCD19CE65DE04C
:1038F000581E00903FF4A0AE401E0090FCD19BE605
:10390000401E0090FCD1A9E6BAF1010ACDF800A052
:10391000FAD1BDE6BAF1010ACDF800A0FAD1C9E6A4
:10392000BBF1010BCDF800B0FAD1DBE6BAF1010A28
:10393000CDF800A0FAD1E9E6BCF1010CCDF800C049
:10394000FAD1FDE6B3F1010CCDF800C03FF404AFAD
:10395000BCF1010CCDF800C0FAD1FDE6B3F1010CC9
:10396000CDF800C03FF4FFAEBCF1010CCDF800C0B3
:10397000FAD1F8E6B3F1010CCDF800C03FF41AAF6C
:10398000BCF1010CCDF800C0FAD113E7B3F1010C82
:10399000CDF800C03FF415AFBCF1010CCDF800C06C
:1039A000FAD10EE7491E0091FCD125E7491E00918E
:1039B000FCD12FE72DE9F80F10F03F0308BF40239B
:1039C00010F0800FDFF81091DFF810A14FF40057CE
:1039D000A9F1040839D0002B12BF414EBDE8F80F01
:1039E00070470025DAF8041008244FEA510C21E052
:1039F000C9F80070012905D06046CDF800C0BCF1BF
:103A0000004F59D2306810F4804F14BF4FF0010BB3
:103A10004FF0000BC8F80070012905D06046CDF8C2
:103A200000C0BCF1004F4BD268085B1E40EACB15CA
:103A3000641E01D0002BDBD125FA04F002F8010B43
:103A4000002BCED1BDE8F80F7047002B04BFBDE8B6
:103A5000F80F70474FF48046DAF804205FEA52040A
:103A600011F801CB08251DE01CF0010F14BFC8F8A8
:103A70000060C9F80060C9F80070012A04D020462F
:103A80000094B4F1004F1FD2C8F80070012A04D08E
:103A900020460094B4F1004F1AD25B1E4FEA5C0C32
:103AA0006D1E04D0002BDFD1BDE8F80F7047002B4E
:103AB000D6D1BDE8F80F7047401E0090FCD1A1E7B9
:103AC000401E0090FCD1AFE7401E0090FCD1DBE728
:103AD000401E0090FCD1E0E7140C014008010020DA
:103AE000080C0140034A52780AB100F005B800F012
:103AF0007BB90000080100202DE9F04FDFF8D4C2A7
:103B00004FF4804ACCF800A00CF104074FF40058A1
:103B1000C7F80080CCF8008010F0010F14BFCCF87B
:103B200000A0C7F800A0C7F80080CCF800804208C9
:103B300012F0010F14BFCCF800A0C7F800A0C7F81E
:103B40000080CCF800808318820812F0010F14BFA7
:103B5000CCF800A0C7F800A0C7F80080CCF800801F
:103B60001344C20812F0010F14BFCCF800A0C7F82C
:103B700000A0C7F80080CCF800801A4412F0010FB2
:103B800014BFCCF800A0C7F800A0C7F80080CCF89C
:103B90000080C7F800A0C7F80080CCF80080CCF8FF
:103BA00000A0C7F80080CCF80080DFF82CB2DBF86A
:103BB000002022F0706242F00062CBF80020CCF8C6
:103BC00000A0DFF818E29EF81820131E06D000BFF0
:103BD000C7F80080CCF80080521EF9D1C7F80080E9
:103BE000DFF8FC91D9F8002012F4804218BF0122BE
:103BF000CCF80080C7F80080D9F8004014F4804465
:103C000018BF0124CCF8008042EA4402C7F80080C3
:103C1000D9F8004014F4804418BF0124CCF8008087
:103C200042EA8402012A1CD0022A18BF042A7DD04D
:103C300013F1210006D000BFC7F80080CCF8008047
:103C4000401EF9D1DBF8000020F0706040F04070B9
:103C5000CBF80000C7F800A0CCF800A01046BDE8E3
:103C6000F08F10F0020F4ED000252C465FF020039D
:103C7000C7F80080D9F8006016F4804618BF012606
:103C8000CCF800806D08344445EAC6755B1EEFD160
:103C90004346C7F80080D9F8006016F4804618BF84
:103CA0000126CCF80030744014F0010F18BF082230
:103CB000002918BF0D609EF8181021B13B60CCF8A8
:103CC0000030491EFAD1DBF8001021F0706141F09C
:103CD0004071CBF80010C7F800A000BF10F0800FB3
:103CE00003D040484068CEF808009EF80C00002839
:103CF00018BFC7F800A067D0C7F80080CCF80080D4
:103D0000401EF9D160E02BB1C7F80080CCF80080EC
:103D10005B1EF9D1DBF8003023F0706343F0407391
:103D2000CBF80030C7F800A0096800E01DE00023D0
:103D30005FF0200411F0010F14BFCCF800A0C7F809
:103D400000A0C7F80080CCF800800B444908641E2E
:103D5000F0D113F0010F14BFCCF800A0C7F800A0F9
:103D6000C7F80080CCF80080B8E79EF81940002C16
:103D70001CBF10F0020F212106D000BFC7F8008041
:103D8000CCF80080491EF9D133B100BFC7F80080DC
:103D9000CCF800805B1EF9D1DBF8001021F07061D7
:103DA00041F04071CBF80010C7F800A064B110F0EA
:103DB000020F04BFC7F800A0212005D1C7F800807A
:103DC000CCF80080401EF9D1CCF800A01046BDE828
:103DD000F08F0000100C0140040C0140080100208D
:103DE000080C0140001000E02DE9F84FFC4E4FF4A4
:103DF000804CC6F800C07514341D2560DFF8E493CC
:103E0000D9F804205308012A0BD01F460093B3F1C0
:103E1000004F38BF5F1E80F06683002FC8BF7F1E33
:103E2000FBDC3560012A0BD01F460093B3F1004F35
:103E300038BF5F1E80F05B83002FC8BF7F1EFBDC96
:103E400010F0010F14BFC6F800C0C4F800C0256010
:103E5000012A0BD01F460093B3F1004F38BF5F1EFD
:103E600080F04A83002FC8BF7F1EFBDC3560012A2B
:103E70000BD01F460093B3F1004F38BF5F1E80F098
:103E80003F83002FC8BF7F1EFBDC4FEA500A8046ED
:103E90001AF0010F14BFC6F800C0C4F800C02560B6
:103EA000012A0BD01F460093B3F1004F38BF5F1EAD
:103EB00080F02A83002FC8BF7F1EFBDC3560012AFB
:103EC0000BD01F460093B3F1004F38BF5F1E80F048
:103ED0001F83002FC8BF7F1EFBDC4FEA900882447F
:103EE00018F0010F14BFC6F800C0C4F800C0256068
:103EF000012A0BD01F460093B3F1004F38BF5F1E5D
:103F000080F00A83002FC8BF7F1EFBDC3560012ACA
:103F10000BD01F460093B3F1004F38BF5F1E80F0F7
:103F2000FF82002FC8BF7F1EFBDCC2444FEAD008CF
:103F300018F0010F14BFC6F800C0C4F800C0256017
:103F4000012A0BD01F460093B3F1004F38BF5F1E0C
:103F500080F0EA82002FC8BF7F1EFBDC3560012A9B
:103F60000BD01F460093B3F1004F38BF5F1E80F0A7
:103F7000E182002FC8BF7F1EFBDC0AEB080717F0A9
:103F8000010F14BFC6F800C0C4F800C02560012AA4
:103F90000BD01F460093B3F1004F38BF5F1E80F077
:103FA000CD82002FC8BF7F1EFBDC3560012A0BD0FD
:103FB0001F460093B3F1004F38BF5F1E80F0C282EE
:103FC000002FC8BF7F1EFBDCC4F800C02560012A9B
:103FD0000BD01F460093B3F1004F38BF5F1E80F037
:103FE000B582002FC8BF7F1EFBDC3560012A0BD0D5
:103FF0001F460093B3F1004F38BF5F1E80F0AA82C6
:10400000002FC8BF7F1EFBDCC6F800C02560012A58
:104010000BD01F460093B3F1004F38BF5F1E80F0F6
:104020009F82002FC8BF7F1EFBDC3560012A0BD0AA
:104030001F460093B3F1004F38BF5F1E80F094829B
:10404000002FC8BF7F1EFBDC674FD7F8008028F029
:10405000706848F00068C7F800804FF4804CC6F8DC
:1040600000C099F81870B7F1000811D02560012A36
:1040700004D00093B3F1004F80F07A823560012ABA
:1040800004D00093B3F1004F80F07E827F1EEDD10B
:104090002560012A0ED09C460093B3F1004F38BF33
:1040A000A3F1010C80F07C82BCF1000FC8BFACF121
:1040B000010CF9DCDFF834B1DBF800C01CF4804CF3
:1040C00018BF4FF0010C3560012A0BD01F4600933A
:1040D000B3F1004F38BF5F1E80F06A82002FC8BF67
:1040E0007F1EFBDC2560012A0BD01F460093B3F135
:1040F000004F38BF5F1E80F05F82002FC8BF7F1E59
:10410000FBDCDBF8007017F4804718BF012735602F
:10411000012A0FD09A460093B3F1004F38BFA3F1A4
:10412000010A80F04D8200BFBAF1000FC8BFAAF1AA
:10413000010AF9DC4CEA470C2560012A0BD01F4626
:104140000093B3F1004F38BF5F1E80F03F82002F15
:10415000C8BF7F1EFBDCDBF8007017F4804718BF78
:1041600001273560012A0FD099460093B3F1004F23
:1041700038BFA3F1010980F02D8200BFB9F1000F13
:10418000C8BFA9F10109F9DC4CEA8707012F2FD03C
:10419000022F18BF042F7BD018F1210111D0256008
:1041A000012A04D00093B3F1004F80F0C182356042
:1041B000012A04D00093B3F1004F80F0C182491E60
:1041C000EDD10948016821F0706141F04071016052
:1041D0004FF48040206030603846BDE8F88F000022
:1041E000100C014008010020040C0140080C0140A3
:1041F00010F0020F7ED04FF0000AD1464FF0200899
:104200002560012A04D00093B3F1004F80F0E881CB
:10421000DBF800C01CF4804C18BF4FF0010C356077
:10422000012A04D00093B3F1004F80F0E5814FEAFA
:104230005A0AE1444AEACC7AB8F10108E0D1A8462A
:104240002560DFF880E4012A0ED09C460093B3F18C
:10425000004F38BFA3F1010C80F0DA81BCF1000FF0
:10426000C8BFACF1010CF9DCDBF800C01CF4804CD9
:1042700018BF4FF0010CC6F80080012A0DD01A4675
:104280000093B3F1004F38BF5A1E80F0C78100E0A1
:10429000C9E0002AC8BF521EF9DC89EA0C0212F0FC
:1042A000010F18BF0827002918BFC1F800A09EF809
:1042B00018C0BCF1000F1CBFDEF80420530812D058
:1042C000C4F80080012A03D00093B3F1004F7BD2E1
:1042D000C6F80080012A03D00093B3F1004F74D2D6
:1042E000BCF1010CECD1F8490A6822F0706242F08E
:1042F000407200E004E00A604FF48041216069E010
:10430000B8F1000F10D02560012A03D00093B3F15B
:10431000004F7CD23560012A03D00093B3F1004FE7
:1043200076D2B8F10108EED1DFF89CC3DCF800804A
:1043300028F0706848F04078CCF800804FF4804A4C
:10434000C4F800A009684FF000084FF0200900BF32
:1043500011F0010F14BFC6F800A0C4F800A025603A
:10436000012A03D00093B3F1004F7DD23560012ABA
:1043700003D00093B3F1004F77D288444908B9F1D4
:104380000109E5D118F0010F14BFC6F800A0C4F868
:1043900000A0AC462560012A0AD019460093B3F16B
:1043A000004F38BF591E7DD20029C8BF491EFBDC13
:1043B000C6F800C0012A0DD019460093B3F1004F92
:1043C00038BF591E6FD201E02CE133E10029C8BF8C
:1043D000491EF8DC10F0800F03D0BC484068B94992
:1043E0008860B848017BC9B14FF4804222604268BE
:1043F00053082560012A04D018460093B3F1004FFA
:1044000070D23560012A07D01846009301E019E107
:1044100024E1B3F1004F6ED2491EEAD14FF480403F
:1044200030603846D9E6A74991F81990B9F1000FE4
:104430001CBF10F0020F4FF0210C10D02560012A94
:1044400003D00093B3F1004F72D23560012A03D03C
:104450000093B3F1004F6CD2BCF1010CEED1B8F176
:10446000000F13D0256001E004E10FE1012A03D021
:104470000093B3F1004F71D23560012A03D000934D
:10448000B3F1004F6BD2B8F10108EBD18E49D1F8EE
:1044900000C02CF0706C4CF0407CC1F800C04FF4B0
:1044A000804101E0FEE001E12160B9F1000F17D089
:1044B00010F0020F04BF21604FF0210C10D12560D5
:1044C000012A03D00093B3F1004F6FD23560012A67
:1044D00003D00093B3F1004F69D2BCF1010CEED1CF
:1044E000316079E6E6E07F1E0097FCD199E47F1EFB
:1044F0000097FCD1A4E4E1E07F1E0097FCD1B5E475
:104500007F1E0097FCD1C0E47F1E0097FCD1D5E44C
:104510007F1E0097FCD1E0E47F1E0097FCD1F5E4FC
:104520007F1E0097FCD100E57F1E0097FCD115E5AA
:10453000CEE0D5E07F1E0097FCD11EE57F1E0097E0
:10454000FCD132E57F1E0097FCD13DE57F1E009730
:10455000FCD14AE57F1E0097FCD155E5C8E0CFE0CD
:104560007F1E0097FCD160E57F1E0097FCD16BE5B4
:10457000B3F1010CCDF800C03FF480ADBCF1010CEB
:10458000CDF800C0FAD179E5B3F1010CCDF800C047
:104590003FF47CADBCF1010CCDF800C0FAD175E55B
:1045A000BCF1010CCDF800C0FAD183E5B0E0B7E072
:1045B0007F1E0097FCD195E57F1E0097FCD1A0E5FA
:1045C000BAF1010ACDF800A0FAD1B3E57F1E009739
:1045D000FCD1C0E5B9F10109CDF80090FAD1D3E5DD
:1045E000B3F1010CCDF800C03FF412AEBCF1010CE8
:1045F000CDF800C0FAD10BE6B3F1010ECDF800E022
:104600003FF415AEBEF1010ECDF800E0FAD10EE692
:10461000BCF1010CCDF800C0FAD125E6521E009283
:10462000FCD13AE6591E00913FF452AE491E00916A
:10463000FCD14DE6591E00913FF452AE491E009147
:10464000FCD14DE6B3F1010CCDF800C03FF462AEF1
:10465000BCF1010CCDF800C0FAD15BE6B3F1010C5E
:10466000CDF800C03FF45DAEBCF1010CCDF800C048
:10467000FAD156E6B3F1010CCDF800C03FF476AEA6
:10468000BCF1010CCDF800C0FAD16FE6B3F1010C1A
:10469000CDF800C03FF471AEBCF1010CCDF800C004
:1046A000FAD16AE6491E0091FCD181E6491E0091CB
:1046B000FCD18FE6401E0090FCD1A2E6401E009087
:1046C000FCD1A9E608010020040C0140001000E024
:1046D000591E00913FF4B9AE491E0091FCD1B4E6D9
:1046E000591E00913FF4B8AE491E0091FCD1B3E6CB
:1046F000591E00913FF4C0AE491E0091FCD1BBE6AB
:10470000591E00913FF4BFAE491E0091FCD1BAE69C
:10471000581E00903FF4DAAE401E0090FCD1D5E662
:10472000581E00903FF4D9AE401E0090FCD1D4E654
:10473000581E00903FF43BAD401E0090FCD136E582
:10474000581E00903FF43BAD401E0090FCD136E572
:104750002DE9F8030028DCBFBDE8F80370474FF4EB
:1047600080484FF40059204A1E4E5368371F4FEAC5
:10477000530C00BF11F8014B5FF0080514F0010F56
:1047800014BFC7F80080C6F80080C6F80090012B5F
:1047900004D0CDF800C0BCF1004F13D2C7F8009090
:1047A000012B04D0CDF800C0BCF1004F12D2640838
:1047B000401E6D1E0028DCBFBDE8F8037047002DC9
:1047C000DCD1D7E7BCF101020092E7D0521E009283
:1047D000FCD1E3E7BCF101020092E8D0521E009246
:1047E000FCD1E4E7140C01400801002070B50C4630
:1047F000C17800680C4D61F31F60A978012918BFCA
:1048000000200BD00021E9702070010A6170010CBA
:10481000A170000EE0704FF0041070BD00F062FA5D
:104820000028F1D1EEE70000240000202DE9F0413E
:104830000078114C00F001060025E0780F4600F0EA
:104840000100B04210D02EB1A01D05704570257139
:10485000A560E560A078012808D1304600F096FAFE
:10486000002818BFE67001D03D7001E0FF203870CD
:104870004FF00110BDE8F081240000202DE9F04741
:10488000324C80460E462279A11D82F00100207133
:10489000E0788B5C4FF0000943EA000701F80290D2
:1048A000012811D0A068E168451A6178012918BF74
:1048B000002518D006F8017B280A06F8015B0129BB
:1048C00006F8010B16D038E084F80590A068E1687E
:1048D000451AA078012802D100F088FA05446079D1
:1048E0000028F1D1E1E7B8F800003C282AD8854239
:1048F000E0D929E0E368DFF858C01846290008D05D
:10490000C0F30B021CF8020006F8010B501C491EF4
:10491000F6D15819E060E07803280ED1A068E1686C
:10492000411AB1F5805F08D2A178C0F30B000129CC
:1049300003D1E170604400F01FFAE81C40F400303D
:10494000BDE8F0873C20D2E70546B3E7240000200D
:104950004C0100202DE9F0411C4D002790F800C0CB
:10496000EB780C461CF0010FB8460BD02879AA1D35
:1049700080F001012971115C02F80080194304F8EC
:10498000011B01271CF0020F0CD0012B0ED0A868D0
:10499000E968461A2670300A6070300CA070300E3C
:1049A000E0703F1D47F48030BDE8F08185F8058058
:1049B000A868E968461AA878012802D100F016FA1A
:1049C000064468790028F1D1E4E7000024000020C3
:1049D0002DE9F041114C07780E46A078012804BF5C
:1049E000002000F011FA0025002F08BF012005D09B
:1049F000012F0AD1012000F007FA30B1A770E5704D
:104A0000002818BF357004D101E0A570E570FF20C3
:104A100030704FF00110BDE8F0810000240000204C
:104A20002DE9F041154D07460026287980F0010157
:104A30002971A91DEA780B5C0E5443EA0208012A89
:104A40000ED0A868E968441A87F800807C70200AB4
:104A5000B870200CF870200E38710520BDE8F08188
:104A60006E71A868E968441AA878012802D100F09C
:104A7000BDF9044468790028F2D1E5E7240000205C
:104A8000084AD37813F0010F04D0FF2008704FF0CC
:104A9000011070470078002812BF012850700020D4
:104AA000F3D1F3E7240000204FF0E0210428086947
:104AB0000CBF40F0040020F00400086170470000C3
:104AC000154830B40178DFF854C0491ECBB20370EA
:104AD00044784FF4007114F0020F0CF1040206D078
:104AE00024F00204447013F0010F03D011E013F01E
:104AF000070F0ED01160407810F0010F04BF30BCDA
:104B0000704713F0030F0CBFCCF80010116030BCDD
:104B10007047CCF80010EEE70000002010080140BC
:104B200016494868164A10F00C03164818BF042BA3
:104B300001D0082B01D0026015E04A684B6802F4EE
:104B400070124FF0020C13F4803F0CEB924203D032
:104B50004B6813F4003F03D00B4B5A43026002E052
:104B6000074B5A4302604968084AC1F30311515C7C
:104B7000026822FA01F10160704700000010024053
:104B800000127A000C00002000093D0010000020F7
:104B9000384881B0016841F0010101604168364A3E
:104BA00011404160016821F4102121F08071016001
:104BB000016821F480210160416821F4FE01416017
:104BC0004FF41F01816000220092016841F480319E
:104BD0000160016811F4003F03D10099B1F5A06FA5
:104BE000F7D1016811F4003F18BF00923BD0234970
:104BF0000A6842F010020A600A6822F003020A60A2
:104C00000A6842F002020A604168416041684160FE
:104C1000416841F480614160416821F47C11416048
:104C200000990029416814BF41F4D00141F4E81112
:104C30004160016841F080710160016811F0007FFE
:104C4000FBD0416821F003014160416841F002015D
:104C50004160416801F00C010829FAD108060849B1
:104C6000086001B07047016821F4803101600121C2
:104C70000091BCE7001002400000FFF80020024055
:104C800008ED00E070B504461148124D14F0020F13
:104C9000017841F00201017009D00F48016801F567
:104CA00080610160AA694FF480610C48904714F05C
:104CB000010F08BF70BD4FF48061094801F032FB5D
:104CC000011ED8BF70BD06486A69BDE87040104734
:104CD000010000209C81000860000020FE320020BE
:104CE000FE36002070B506461F48864288BF06463D
:104CF0001E4C1F4DE07810F0010F11D00021AA6A60
:104D000016209047E86A804710F0020F08D0686AC2
:104D10008047A1680844A0600021AA6A1920904732
:104D2000AA6A31460120904710B10020207070BD62
:104D300001202070E07810F0010F12D010F0020F67
:104D40000BD1A0680B4AC0F30B0000F03F01C1F18A
:104D5000400110442161AA6990470121AA6A1620E6
:104D60009047304670BD000040420F0024000020F4
:104D7000648100084C010020024A1161024A9269D4
:104D800010470000240000206481000870B5144D15
:104D9000144C88B12878002808BF70BD0120286114
:104DA0000146A2691048904720B90121A26A162045
:104DB000904798B1002070BD0021A26A162090474C
:104DC000E06A804710F0020F08D0606A8047A96847
:104DD0000844A8600021A26A19209047012070BDF4
:104DE00024000020648100084C01002010B5054C0F
:104DF000E06A804710F0020008BF10BD606ABDE89D
:104E0000104000476481000810B5114A0021114C80
:104E1000117070B1A1681048884700281CBF00209D
:104E200010BD02202169884780B1E06880470020DA
:104E300010BD0021A26A162090470021A26A192005
:104E40009047216900208847E0688047012010BD15
:104E5000240000206481000845540008014A00F045
:104E60002DBB0000BC8000080148006870470000AE
:104E7000BC80000881B0009820F0010000901E481E
:104E8000016B0969002918BFB1F5803F0ED1C169D6
:104E900061B10968C0698968007921FA00F010F0F1
:104EA000010F03D1009840F001000090009820F01D
:104EB00002000090009820F008000090009820F078
:104EC00004000090009961F3000000994FEA51013D
:104ED00061F3410000994FEA910161F3820000996A
:104EE0004FEAD10161F3C300009901B04FEA1111FB
:104EF00061F31F1070470000BC8000080648C16ABB
:104F0000002902BF406B0069704709684968406B1F
:104F10000068401A70470000BC8000082C4881B02F
:104F2000416B91F8211000291CBF009941F001014B
:104F300007D141680988012222EA9112009962F39F
:104F400000010091016B4A79009962F341010091DF
:104F5000016B8A79009962F382010091016BCA7931
:104F6000009962F3C3010091016B0A7A009962F320
:104F700004110091016B4A7A009962F34511009186
:104F8000006B817A009861F386100090009961F3BC
:104F900000000099490861F341000099890861F314
:104FA00082000099C90861F3C3000099090961F3FF
:104FB00004100099490961F345100099890961F3CA
:104FC0008610009901B0C90961F3DF107047000035
:104FD000BC8000080648816A002902BF406B406916
:104FE000704709684968406B4068401A7047000084
:104FF000BC800008014800F091BD0000BC800008A2
:10500000014900F0D0BE0000BC800008014900F05A
:1050100019BF0000BC800008014A01F077B8000009
:10502000BC800008014A01F00AB90000BC800008F9
:105030001649012228B1012813D000BF4FF0FF30DC
:105040007047086B0069002818BFB0F5003FF5D124
:105050008869B8B189690068097902FA01F10161CA
:1050600010E0086B0069002818BFB0F5003FE5D1DB
:10507000886938B189690068097901F1100102FA7B
:1050800001F101614FF0000070470000BC80000892
:1050900070B5144E05000B46144619BF002B002CAA
:1050A0006FF0040070BD316BC87A10F0040F4FF040
:1050B000FF3008BF70BDC968022918BF70BD03204A
:1050C000716B3246C8612146184601F01FF800286E
:1050D00018BF70BD324621462846BDE8704001F039
:1050E000AEB80000BC80000810B5184CE06828B1CC
:1050F0008188002300681A46FCF7B6FA206928B1B7
:105100008188002300681A46FCF7AEFA606928B16E
:105110008188002300681A46FCF7A6FAA06928B126
:105120008188002300681A46FCF79EFAE06928B1DE
:105130008188002300681A46FCF796FA208CFCF759
:1051400009FA216B0020C87210BD0000BC80000865
:10515000014A00F0B3B90000F4800008014800687B
:1051600070470000F480000881B0009820F0010032
:1051700000901E48016B0969002918BFB1F5803FF6
:105180000ED1C16961B10968C0698968007921FAE5
:1051900000F010F0010F03D1009840F001000090E2
:1051A000009820F002000090009820F00800009085
:1051B000009820F004000090009961F3000000992D
:1051C0004FEA510161F3410000994FEA910161F307
:1051D000820000994FEAD10161F3C300009901B048
:1051E0004FEA111161F31F1070470000F4800008AE
:1051F0000648C16A002902BF406B00697047096810
:105200004968406B0068401A70470000F48000084D
:105210002C4881B0416B91F8211000291CBF0099E6
:1052200041F0010107D141680988012222EA911267
:10523000009962F300010091016B4A79009962F3D1
:1052400041010091016B8A79009962F3820100911A
:10525000016BCA79009962F3C3010091016B0A7A6C
:10526000009962F304110091016B4A7A009962F38C
:1052700045110091006B817A009861F386100090CF
:10528000009961F300000099490861F34100009919
:10529000890861F382000099C90861F3C30000998D
:1052A000090961F304100099490961F34510009957
:1052B000890961F38610009901B0C90961F3DF1013
:1052C00070470000F48000080648816A002902BF88
:1052D000406B4069704709684968406B4068401AF4
:1052E00070470000F4800008014800F017BC00007F
:1052F000F4800008014900F056BD0000F480000869
:10530000014900F09FBD0000F4800008014A00F050
:10531000FDBE0000F4800008014A00F090BF0000CC
:10532000F48000081649012228B1012813D000BFDB
:105330004FF0FF307047086B0069002818BFB0F5C8
:10534000003FF5D18869B8B189690068097902FA26
:1053500001F1016110E0086B0069002818BFB0F589
:10536000003FE5D1886938B189690068097901F1A0
:10537000100102FA01F101614FF0000070470000D6
:10538000F480000870B5144E05000B46144619BF92
:10539000002B002C6FF0040070BD316BC87A10F048
:1053A000040F4FF0FF3008BF70BDC968022918BF55
:1053B00070BD0320716B3246C8612146184600F06B
:1053C000A5FE002818BF70BD324621462846BDE81C
:1053D000704000F034BF0000F480000810B5184C95
:1053E000E06828B18188002300681A46FCF73CF980
:1053F000206928B18188002300681A46FCF734F937
:10540000606928B18188002300681A46FCF72CF9EE
:10541000A06928B18188002300681A46FCF724F9A6
:10542000E06928B18188002300681A46FCF71CF95E
:10543000208CFCF78FF8216B0020C87210BD000093
:10544000F480000870B5194C054610F0020F1AD010
:10545000E068A16822690A44A26002F03F01C1F13C
:105460004001101AC1F58053984284BF0320E070B8
:1054700007D8C2F30B000E4A216110440D4A92690D
:105480009047012060710C4815F0200F04D021795D
:10549000425C42F08002425415F4607F08BF70BD48
:1054A0002179425C42F04002425470BD2400002049
:1054B0004C010020648100082A0000202DE9F05FE3
:1054C000136B1446DA7A12F0020F00F0BB814FF032
:1054D000000800F0FF0CACF1150745464646424671
:1054E000062F80F00981DFE807F08ABC0325445CC1
:1054F000606B79B190F82110002940F01C810121E6
:1055000080F82110606B80F820106068818941F07C
:1055100081018BE090F8200000286DD060688189BF
:1055200021F080018181606B80F82020606B80F821
:10553000212061E06068818921F0C0018181A06A39
:1055400070B1606B90F8210050B16068818A21F0E1
:1055500080018182A06A0068016821F00101016078
:10556000606B80F82020606B80F821200020BDE86F
:10557000F09F6068818921F020018181E06A68B133
:10558000206B407950B16068818A21F040018182AE
:10559000E06A0068016821F001010160206B42713E
:1055A0002AE06068818921F0E0018181A06A70B100
:1055B000606B90F8210050B16068818A21F0800111
:1055C0008182A06A0068016821F001010160E06A3F
:1055D00068B1206B407950B16068818A21F0400148
:1055E0008182E06A0068016821F001010160206B9E
:1055F0004271606B80F821200020BDE8F09FE068D8
:10560000002800F01F8199B1D968062905D081884A
:10561000006803230222FCF727F8206BC17A41F0CF
:105620000801C1726068818941F008018181E3E766
:105630006068818921F008018181206BC17A21F0A5
:105640000801C172206BC06806281CBFE0680028F2
:10565000D2D081884FF0000300681A46FCF704F8A6
:10566000CAE72069002875D091B3D968062918BF08
:10567000042907D0818800684FF000034FF0010231
:10568000FBF7F2FF206BC17A41F01001C172606834
:10569000818A41F0010181826068018A41F0400104
:1056A00001826068818941F010018181206B40791D
:1056B00000281CBFE06A002804D16068818941F09D
:1056C000200181816068818941F00401818193E733
:1056D000FFE76068818921F004018181206BC17A34
:1056E00021F01001C172206BC06806281EBF04287B
:1056F00020690028ADD17FE75A79E2B9626B92F850
:105700002120C2B96268978917F0080F03D0178863
:1057100017F0400F0FD0BCF1150F7DD2DFE80CF071
:10572000A10F11351B202EA1A1A1A1A1A1A1A1A171
:10573000393C5E688F006FF00100BDE8F09F0123E7
:1057400012E0237813F0020F1CBF4FF41065022300
:105750000AD11AE076E04FF008064FF0040303E0A8
:105760004FF002064FF0050310F4E06C76D0BCF564
:10577000807F74D0BCF5E06F77D0BDE0237813F064
:10578000200F1CBF20260623EED16FF00600BDE8D7
:10579000F09F606B41832FE7D868052852D000291D
:1057A0003FF42AAF908A40F004009082D94AA06862
:1057B000B2FBF0F25FF0010002FB00F38B429CBFF2
:1057C000401CB0F5807FF7D3B0F5807F3AD0616898
:1057D0000A8B22F0FF02104308830DE7D8680628E1
:1057E00030D1FF292ED8108B20F47F40084324E0CD
:1057F000D868062826D1A068C64B01EB0114B3FB7C
:10580000F0FC01EB0113012003EB430304EB411413
:105810000CFB00F5C82100E023E06943B1EB430F26
:1058200002D2B1EB440F02D8401C4028F0D34028EC
:1058300008D0118B21F0FF0108431083DCE6D86803
:10584000062803D04FF0FF30BDE8F09F00293FF459
:10585000D3AE908A40F010009082CDE609E048E097
:1058600003E06FF00300BDE8F09F10F4405F07D144
:1058700042E010F4405F03D045F020054FF480581B
:1058800010F4405C0ED0BCF5805F08BF48F480681F
:1058900008D0BCF5005F16BF6FF0090048F4C0687F
:1058A000BDE8F09F10F4404C14D0BCF5804F08BF09
:1058B00045F400550ED0BCF5004F08BF45F44055E7
:1058C00008D0BCF5404F16BF6FF00A0045F4805574
:1058D000BDE8F09F10F4403C08BF00271AD0BCF58B
:1058E000803F0DD0BCF5003F17D0BCF5403F1FD026
:1058F0002AE010F4405FBFD06FF00800BDE8F09FD1
:1059000094F800C01CF0800F1CBF4FF4803746F4A1
:10591000807619D0022B1BD032E0B4F800C01CF402
:10592000807F1CBF4FF4003746F4C066F2D10BE015
:10593000D4F800C01CF0800F1EBF1CF4807F4FF411
:10594000403746F4E066E5D16FF00B00BDE8F09F0C
:1059500010F4802C08D0BCF5802F0EBF45F4806574
:105960006FF00C00BDE8F09F10F4002008D0B0F5F7
:10597000002F0EBF45F400756FF00D00BDE8F09FDD
:10598000D4F808A0DFF890910AEBCA0000EB0A1CDB
:105990008800BCFBF0FBA9FB0BEBBCFBF0FEBCFBE7
:1059A000F0F0A9FB00C040096FF0180C00FB0CF0F0
:1059B0000EEB80004FF0320C0CEB0010A9FB00C086
:1059C0004FEA5B1B40096BF31F104FEA0A191FFADD
:1059D00080FCB9FBFCF000094FF0640900FB09F002
:1059E00001EB011909EB4909B0EB490F06D201EBB4
:1059F000011909EB4111B0EB410F03D86FF007001B
:105A0000BDE8F09F908920F4005090816068A0F874
:105A100008C0206BC360206B0761206BC16806293A
:105A20000AD0C07A10F0080FE0680ED0A0B18188CB
:105A30000323006802220DE0E06868B181880068F5
:105A400003230222FBF710FE06E028B18188002321
:105A500000681A46FBF708FE206BC168042918BFCE
:105A600006290CD0C07A10F0100F206911D0B8B1FF
:105A7000818800684FF000034FF001020EE02069BA
:105A800070B181884FF0000300681A46FBF7ECFD07
:105A900006E028B18188002300681A46FBF7E4FD80
:105AA000606968B1216BC968022918BF062981881D
:105AB000006807BF0323022200231A46FBF7D4FD28
:105AC000A06968B1B7F5803F18BFB7F5403F81883E
:105AD000006807BF0323022200231A46FBF7C4FD18
