:020000040800F2
:10000000D846002001010008CD130008CD130008D8
:10001000CD130008CD130008CD1300080000000028
:10002000000000000000000000000000CD130008E8
:10003000CD13000800000000CD130008C9230008FC
:100040001B0100081B0100081B0100081B01000820
:100050001B0100081B0100081B0100081B01000810
:100060001B0100081B0100081B010008510B0008C0
:100070006D0B0008890B0008ED0B0008110C00083F
:10008000350C0008990C00081B0100081B01000832
:10009000615300081B0100081B0100081B01000838
:1000A0001B0100081B0100081B0100081B010008C0
:1000B0001B0100081B0100081B0100081B010008B0
:1000C0001B0100081B0100081B0100081B010008A0
:1000D0001B010008FD280008F12B00081B01000887
:1000E0001B0100081B0100081B010008DFF80CD0F1
:1000F00000F02AF80048004761550008D846002063
:100100000648804706480047FEE7FEE7FEE7FEE7B1
:10011000FEE7FEE7FEE7FEE7FEE7FEE799240008BC
:10012000ED00000840EA01039B0703D009E008C97D
:10013000121F08C0042AFAD203E011F8013B00F8AC
:10014000013B521EF9D27047064C074D06E0E068AD
:1001500040F0010394E8070098471034AC42F6D30E
:10016000FFF7C8FF985C0008B85C000870B5174E30
:10017000F06A804710F0020F08BF70BD144C25686C
:10018000706A804761682844411AB1F5806FA4BF46
:100190006068084415DA0029D8BF70BD6068C0F3F4
:1001A0000900C0F5806081420DDC6068094AC0F337
:1001B0000900104403F06EFD0028C6BF61680844C2
:1001C00070BD606070BD0146EFE700008C5A00080A
:1001D00060000020D63200202DE9F04F02788FB069
:1001E000A2F180031F2B04D800F098FC0FB0BDE8EB
:1001F000F08F01F8012B0F4610F8011B05461F294F
:1002000080F07D84DFE811F01F005E007A008E0030
:10021000CF01DD018F037B04400497009E007B0427
:100220007B047B047B047B04A5000D0138014B019A
:10023000A601C001C90155045A045F04640469049D
:10024000720457016D042978781C0024062933D0E4
:1002500006DC052930D2DFE801F02F2F2F2F0E000A
:10026000FD2918D002DCF02926D10AE0FE2920D091
:10027000FF2918D020E006242246FB49FFF752FF51
:100280001AE0FA490968002918BF202141F0150138
:100290000170012410E00021102201704270817071
:1002A000C170042408E04021017000214170022443
:1002B00002E04021017001243C700FB004F10210F3
:1002C000BDE8F08F287830B101280BD0FF203870BE
:1002D000E74800F00FBCE7496878096800F00100C2
:1002E000096805E0E3496878096800F00100496899
:1002F000884700203870DE4800F0FCBB2C78002CCA
:1003000008BF012408D0012C18BF002404D03C7081
:100310004FF0011000F0EEBBD7490120087001F04A
:10032000EBF8F4E7D4480024047001F0D3F83C70F3
:10033000012000F0DFBB288800EB4000C000401E19
:10034000FDD1D6E70120787000203870022000F03F
:10035000D1BB2E786C786879D5F8025014F0010F73
:1003600060F31F6507D016F0010F4FF400500CBF6B
:10037000C249C349086014F0020F07D016F0020FFB
:100380004FF480400CBFBD49BD49086014F0800F98
:100390001CBFF00905F0A2FA95B30123B94A5068D1
:1003A000B94DA5F1040C00BF14F0010F04D0296869
:1003B000C1F34031B1421FD114F0020F06D0DCF876
:1003C0000010C1F38031B1EB560F15D114F0040FBA
:1003D00018BF5FEA96010FD114F0200F18BF5FEA33
:1003E000561109D114F0800F0AD0DCF8001001F08A
:1003F0000101B1EBD61F03D05168091A8B42D3D843
:10040000A148006800F40051A0480268006802F4A6
:1004100080421143490B41EAC01038709C4800F0FB
:1004200069BBEA78286862F31F6088B1994A824202
:1004300013D8914A0120507050608F480278022AE8
:1004400008BF491C416000203870934800F052BB3F
:10045000FF203870904800F04DBB874A0021517052
:100460008E490144B1FBF0F0022891BF01218C4973
:10047000A1FB00104108E0E72C78691C002C08BFA4
:100480004FF48074204601F003FE00203870E01D18
:10049000C0080121401C41EA004000F02BBB287835
:1004A00000F003014A1C7449C0F380000A764876C4
:1004B000002038702CE7002007F8010B012615F802
:1004C000010BB146B0F1010A28BFDFF8D8B13DD326
:1004D00015F8014B14F03F0008BF4020C01D4FEA43
:1004E000D008DBF8000014F0800F20F0706014BF1B
:1004F00040F0006040F04070CBF800004FF48040C6
:1005000014BF5F495D4908603A462946204601F01C
:10051000ADF9BAF1000F0BD1DBF8000020F07060EC
:1005200040F04070CBF8000054494FF48040086020
:1005300014F0800F03D04744C144761C03E006EB5F
:1005400008004544461CBAF1010AC1D249EA0640F6
:1005500000F0D0BAFF203870012215F8010B1346C5
:1005600000280DDD15F8011B11F03F0108BF4021E7
:10057000C91DC9080D4411444A1C401E0028F1DC65
:1005800043EA024000F0B6BA2878FF213970012111
:10059000401C41EA004000F0ADBAFF2038704FF037
:1005A000011000F0A7BA344829780173B5F801109A
:1005B0000182B5F803104182002038703A4800F0FB
:1005C00099BA2D4E3078012818D02A466D1C15F89E
:1005D000010B50B115F8011B11F0020F02D011F000
:1005E000100F00D02D1D401EF4D1002038707870FF
:1005F000A81A022141EA004000F07CBACDE9047556
:100600000020B91C294F0B900091387008900A9077
:1006100095F80180AD1CB8F1000F00F0798100BFA2
:1006200015F8019B19F0020F73D00899D9B1348ADB
:1006300009F0110001280BD101A9484601F088F901
:1006400002280DD1641E63D339780029F4D0CBE0A1
:1006500001A90E2001F07CF9022829D0002108917F
:10066000012855D12CE03CE0A05900080C000020E6
:10067000010002000800002008010020140C0140C5
:10068000100C0140001000E00C0C0140080C01406F
:100690000100060080A8120101000400FF5025029D
:1006A000ABAAAAAA040C014001000500200000200A
:1006B000641E02D339780029CAD00021089193E042
:1006C000DDE900120A70019A0099120A01F8012F5F
:1006D000019A120C01F8012F019A120E4A70891C1E
:1006E000009119F0100F40D0E87855F804ABB6F837
:1006F00012B060F31F6A19F0010F18BF348A0FD0CF
:100700000021484601F024F9022803D0012807D02F
:100710006AE07CE0641E67D339780029F0D063E09A
:10072000348A01A9484601F013F9022802D00128B1
:1007300006D010E0641E0ED339780029F1D00AE00B
:100740007169019A1140514505D0BBF1010B02D3EB
:1007500039780029E4D07169019A1140514518BFD8
:1007600040F0100001283FD137E0348A19F0010F22
:1007700013D0089989BB0021484601F0E9F8022806
:1007800005D0012804BF0121089126D02CE0641E69
:100790002AD339780029EED026E001A9484601F095
:1007A000D7F8022802D0012806D01DE0641E1BD312
:1007B00039780029F1D017E0DDE900120A70019ABA
:1007C0000099120A01F8012F019A120C01F8012F69
:1007D000019A120E4A70891C009100210A910B990E
:1007E000491C0B913978D9B3B8F1000F0CD000BF78
:1007F00015F8011B11F0020F02D011F0100F00D0FC
:100800002D1DB8F10108F3D101284BD080E00898E4
:10081000002818BF348A1AD001A90E2001F098F8D8
:1008200002282ED00128DFD1DDE9000101700199F5
:100830000098090A00F8011F0199090C00F8011F2E
:100840000199090E4170801C009000200890E97801
:1008500055F8040B19F0200F61F31F60019000E0C0
:100860001BE01ABF70610120348AB8D101A9484643
:1008700001F06EF802280AD0012808BF0121ADD08E
:10088000B2E7641EB0D339780029C5D0ACE7641E46
:10089000AAD339780029E9D0A6E7B8F101087FF496
:1008A000BFAEB1E70899002918BF348A20D001A94A
:1008B0000E2001F04DF8022802D0012806D027E0D2
:1008C000641E25D339780029F1D021E0DDE900123A
:1008D0000A70019A0099120A01F8012F019A120C6C
:1008E00001F8012F019A120E4A70891C00910FE045
:1008F0000A99002918BF348A0AD000210E2001F07D
:1009000027F8022804D1641E02D339780029F4D0D4
:10091000049A0B9911700499487004990098411A2F
:100920000598281A66E6DFF8E8A109959AF800000C
:1009300001280DD0002038707870B8700320099914
:10094000C97811F0020F18BF40F4802070D192E0F6
:1009500070494FF000084046FE1C81F800806C1C76
:1009600034F8025B05B314F8019B19F0020F04BFC1
:10097000A5F1010BDFF89CA149D019F0010F1CBFB4
:10098000BAF81040DFF88CB10FD00021484600F0D3
:10099000DFFF022802D0012807D064E0641E62D382
:1009A0009BF800100029F0D05DE06D1E24BFD346F7
:1009B000DFF860A157D325B919F0010F18BF4FF028
:1009C0000E09BBF8104007A9484600F0C1FF0228F5
:1009D00002D0012807D046E0641E44D39AF80010E4
:1009E0000029F0D03FE0079906F8011B079908F1AC
:1009F0000108090A06F8011B0799090C06F8011BF2
:100A00000799090E06F8011B6D1ED4D22BE0E07881
:100A100054F8041B60F31F613D480791058A07A93C
:100A2000484600F095FF022803D0012808D01AE0BC
:100A300060E06D1E17D39AF800100029EFD012E085
:100A400008F10108BBF1010BE1D23148048A002111
:100A50000E2000F07DFF022805D1641E03D39AF812
:100A600000100029F3D087F800804FEA1821797030
:100A7000B870F01B63E709994FF48022B1F80110B8
:100A800002EB8141084335E021480078012818BF76
:100A9000FF2002D0387020482CE02979D5F80100D9
:100AA00061F31F6000906946002000F051FF0020B4
:100AB000F0E73946284601F067FC1BE03946284636
:100AC00001F00AFC16E03946284601F013FB11E05C
:100AD0003946284601F02EFB0CE0384601F024FC94
:100AE00008E03946284601F0B9FB03E039462846BC
:100AF00001F048FB0FB000F10110BDE8F08FFF20BE
:100B000007F8010C0FB04FF00110BDE8F08F0000A6
:100B1000080100202000002001000500FF200870CF
:100B20004FF00110704700000748002101220170BA
:100B30004170426001736423038241824161027605
:100B4000417600F0C7BC000008010020704700009B
:100B5000044910B5086800F00F004860FFF7F6FF81
:100B600010BD00000000024070470000044910B5AD
:100B70000868C0F3031002014A60FFF7F5FF10BDDB
:100B80000000024070470000044910B50868C0F337
:100B9000032002024A60FFF7F5FF10BD000002408B
:100BA0001148816A09684A680146002A496B496808
:100BB0001CBF00297047426B5161426B4FF000012E
:100BC00082F8211041688989426841F04001918191
:100BD000016BC968022908BF7047006B01680029D2
:100BE00008BF704701200847AC590008044910B5F8
:100BF0000868C0F3033002034A60FFF7D1FF10BD5D
:100C000000000240014802F0CBBE0000AC590008D1
:100C1000044910B50868C0F3034002044A60FFF7B6
:100C2000F1FF10BD00000240014802F0B9BE000013
:100C3000E4590008044910B50868C0F303500205E0
:100C40004A60FFF7F1FF10BD000002401148816AC1
:100C500009684A680146002A496B49681CBF002997
:100C60007047426B5161426B4FF0000182F82110D6
:100C700041688989426841F040019181016BC968EE
:100C8000022908BF7047006B0168002908BF704740
:100C900001200847E4590008044910B50868C0F36A
:100CA000036002064A60FFF7D1FF10BD000002405A
:100CB000012818BF704730B43248426942F001023F
:100CC0004261002330480F244FF0E0224FF0010C26
:100CD00008294FD2DFE801F04E040D17222D3843CA
:100CE000836044604FF40060C2F88002C2F80001E3
:100CF00040E0C361F02343604FF48050C2F88002AB
:100D0000C2F8000136E003634FF4706343604FF4B0
:100D10000050C2F88002C2F800012BE043644FF497
:100D2000704343604FF48040C2F88002C2F8000173
:100D300020E083654FF4702343604FF40040C2F815
:100D40008002C2F8000115E0C3664FF470034360EF
:100D50004FF48030C2F88002C2F800010AE0C0F807
:100D600080304FF0706343604FF40030C2F880026F
:100D7000C2F8000105480CFA01F102781143017034
:100D800030BC7047001002400000024038000020D4
:100D9000012818BF704730B4DFF8D8C09CF80000B5
:100DA000002804BF30BC7047002001244FF0E0222F
:100DB000314B08294BD2DFE801F04A040E18222CEF
:100DC00036404FF40065C2F88051BFF34F8FBFF338
:100DD0006F8F98603BE04FF48055C2F88051BFF3AD
:100DE0004F8FBFF36F8FD86131E04FF40055C2F8D9
:100DF0008051BFF34F8FBFF36F8F186327E04FF41D
:100E00008045C2F88051BFF34F8FBFF36F8F586496
:100E10001DE04FF40045C2F88051BFF34F8FBFF380
:100E20006F8F986513E04FF48035C2F88051BFF39F
:100E30004F8FBFF36F8FD86609E04FF40035C2F8CB
:100E40008051BFF34F8FBFF36F8FC3F8800004FA58
:100E500001F09CF8001031EA00008CF800001CBF83
:100E600030BC70470548416921F00101416130BC47
:100E700070470000380000200000024000100240CF
:100E800045F6C0514843401EFDD1704730B5054678
:100E90004FF4302000F04AF8042818BF30BD0A4C47
:100EA000206940F0020020616561206940F0400047
:100EB00020614FF4302000F039F8216941F6FD72CD
:100EC0001140216130BD000000200240024801694C
:100ED00041F08001016170470020024070B5064674
:100EE0000D464FF4005000F021F8042818BF70BDE3
:100EF000074C206940F00100206135804FF400501C
:100F000000F014F8216941F6FE721140216170BDB4
:100F10000020024003480249416003494160704794
:100F20002301674500200240AB89EFCD17490246F7
:100F30000420CB6813F0010F25D1CB6813F0040F08
:100F400018BF02201AD1C96811F0100F18BF032072
:100F500014E0CB68042013F0010F18BF01200AD160
:100F6000CB6813F0040F18BF022004D1CB6813F034
:100F7000100F18BF0320521E012804D0002A18BFEA
:100F8000704705207047002AE3D1FAE700200240AD
:100F900081B0002804BF01B0704714498A6912F07B
:100FA000010F03D18A6942F001028A6110F4805F67
:100FB000C0F3421200F01F030D49C0F3032002FAF0
:100FC00003F200FA03F007D0CB6923EA02021043D0
:100FD0000090C86101B070474B6823EA02021043D9
:100FE00020F0E0600090486001B0704700100240BF
:100FF000000001402DE9F001CB78002203F00F0C36
:1010000013F0100F1CBF8B7843EA0C0C0B784FF0D9
:101010000F0613F0FF0F4FF0010518BF046819D039
:101020000F8805FA02F31F409F420FD1970006FA7E
:1010300007F824EA08040CFA07F73C43CF78282F76
:1010400008BF436102D0482F08BF0361521C082A21
:10105000E6D304600A88FF2A87BF44680022BDE8FF
:10106000F001704702F108030F8805FA03F31F40EF
:101070009F420FD1970006FA07F824EA08040CFAF9
:1010800007F73C43CF78282F08BF4361CF78482F1C
:1010900008BF0361521C082AE4D34460BDE8F00194
:1010A000704700000F2984BF00207047F0B5044648
:1010B0000D463448A4F180411F461646B1F58431EF
:1010C00004BF8069C0F3800035D0A4F18042B2F53E
:1010D000863204BF8069C0F3C0002CD0A4F18042E6
:1010E000B2F5883204BF8069C0F3001023D0A4F1A8
:1010F0008042B2F58A3204BF8069C0F340101AD032
:10110000A4F18042B2F58C3204BF8069C0F3801034
:1011100011D0A4F18042B2F58E3204BF8069C0F3D1
:10112000C01008D0A4F18042B2F5903204BF8069AB
:10113000C0F3002000D118B90121204600F024F8A6
:101140006FB90120A840022E04BFE16821EA000027
:1011500004D0032E03D1E16802260843E060082D85
:1011600024BF241D083D2168A8000F22824091431E
:10117000216047EA860101FA00F0216808432060F7
:101180000120F0BD001002402DE9F001344A354B3A
:10119000DFF8D4C0354C364D364E374FDFF8DC80A3
:1011A00000292FD0404504BF906940F0040025D0AD
:1011B000984204BF906940F008001FD0604504BF0A
:1011C000906940F0100019D0A04204BF906940F02F
:1011D000200013D0A84204BF906940F040000DD019
:1011E000B04204BF906940F0800007D0B84207BF0A
:1011F000906940F48070BDE8F00170479061BDE8EF
:10120000F0017047404504BF906920F00400F5D01C
:10121000984204BF906920F00800EFD0604504BFF9
:10122000906920F01000E9D0A04204BF906920F03E
:101230002000E3D0A84204BF906920F04000DDD038
:10124000B04204BF906920F08000D7D0B84204BFFC
:10125000906920F48070D1D0BDE8F00170470000A3
:1012600000100240000C0140001001400014014039
:1012700000180140001C014000200140000801400E
:101280002DE9F0410278FF27A2F1D003072B7AD88D
:1012900001F8012B0C4610F8011BD03908296ED239
:1012A000DFE801F0041215181C2A4A5E4048006865
:1012B00004F8010B010A04F8011B010C04F8011BDE
:1012C000000E04F8010B5BE0FFF724FE58E0FFF787
:1012D000FDFD55E00068FFF7D9FD51E08288016807
:1012E000501E80B24CD300BF11F8012BFF2A1BD136
:1012F000401E80B2F8D243E08188D0F800803829BF
:101300003ED8851D481E86B23AD300BF15F8011B92
:101310002EB115F8010B41EA0021701E86B240463D
:10132000FFF7DCFD042801D0FF2729E0711E8EB2F3
:1013300008F10208EAD223E0828801683E2A1FD819
:10134000002004F8010B501E80B219D330B111F8FF
:10135000012B401E04F8012B80B2F7E70F780FE055
:10136000BFF34F8F13480168134A01F4E061114342
:101370000160BFF34F8F00BFFDE704E0FFE7641E8D
:101380002770BDE8F0810D480268002A02BFFF20E7
:101390000870BDE8F0810A490A48C368806801EB1B
:1013A0008311094B5268BDE8F04103EB80101047F0
:1013B000002004E00CED00E00400FA050400002029
:1013C000D62200204C000020D612002072B61D4804
:1013D000006880F308881C4DA86940F00400A861EB
:1013E0001A4F6C153C601B4E19493046FFF702FE40
:1013F000A86940F00400A8613C6017493046FFF737
:10140000F9FD3C6000253E1F34606420FFF738FD85
:101410003C6034606420FFF733FD3C604FF47A7029
:10142000FFF72EFD6D1C052DEEDBBFF34F8F0B4834
:1014300001680B4A01F4E06111430160BFF34F8F73
:1014400000BFFDE700000008001002401408014042
:1014500068590008000801406C5900080CED00E0D4
:101460000400FA0507494FF4007008600648417807
:1014700021F0010141704FF0E020016941F00101CC
:101480000161704714080140000000200E4A4FF42B
:10149000007111600D4B10F0010F4FF0E02093F838
:1014A00001C04CF0010C83F801C005D0036923F0A2
:1014B0000103036111607047026942F00102026199
:1014C0000348016070470000100801400000002040
:1014D0001408014010B5064C04492046FFF78AFD68
:1014E0002046BDE810400349FFF784BD7859000845
:1014F000000C01407C5900082DE9F0473E4F4FF4A5
:10150000C04038603E4C3D492046FFF773FD3D49E1
:101510002046FFF76FFDDFF8F0800026414640F6D9
:10152000C54000F079F80120401C6428FCD3DFF8A6
:10153000DCA040F6DD40514600F06EF80220401C71
:101540006428FCD3414640F6C54000F065F802200F
:10155000401C6428FCD3514640F6DD4000F05CF8A6
:10156000DFF8AC9001253EB13D60206820F00F000F
:1015700040F04800206007E0206820F00F0040F0B5
:1015800007002060C9F800506420FFF779FC0126AD
:10159000414640F6C54000F03FF80222521C642A42
:1015A000FCD3514640F6DD4000F036F80222521CD2
:1015B000642AFCD3414640F6C54000F02DF80220D5
:1015C000401C6428FCD3514640F6DD4000F024F86E
:1015D00046B13D60206820F00F0040F048002060D8
:1015E000BDE8F087206820F00F0040F00700206081
:1015F000C9F80050BDE8F087100C01407059000890
:10160000000C0140745900080CED00E00700FA05D9
:10161000140C0140704700002DE9F0078F4C4FF487
:10162000804600272660251D4FF4005CC5F800C0E9
:10163000DFF82C82D8F8042013465B1EFDD1C4F8D5
:1016400000C013465B1EFDD110F0010F14BF2660D1
:101650002E60C5F800C013465B1EFDD1C4F800C063
:1016600013465B1EFDD107EB0009470817F0010F79
:1016700014BF26602E60C5F800C013465B1EFDD166
:10168000C4F800C013465B1EFDD1B944870817F0AB
:10169000010F14BF26602E60C5F800C013465B1E04
:1016A000FDD1C4F800C013465B1EFDD109EB070352
:1016B000C70817F0010F14BF26602E60C5F800C0E0
:1016C0001046401EFDD1C4F800C01046401EFDD19A
:1016D000D81910F0010F14BF26602E60C5F800C0A5
:1016E0001046401EFDD1C4F800C01046401EFDD17A
:1016F0002E60C5F800C01046401EFDD1C4F800C0E1
:101700001046401EFDD12660C5F800C01046401EA0
:10171000FDD1C4F800C01046401EFDD1514F3868BD
:1017200020F0706040F000603860266098F8183053
:10173000B3F100080CD000BFC5F800C01046401E31
:10174000FDD1C4F800C01046401EFDD15B1EF3D190
:10175000C5F800C01046401EFDD1DFF80C91D9F845
:10176000000010F4804F14BF01230023C4F800C010
:101770001046401EFDD1C5F800C01046401EFDD1E8
:10178000D9F8000010F4804F14BF4FF0010A4FF059
:10179000000AC4F800C01046401EFDD143EA4A03C7
:1017A000C5F800C01046401EFDD1D9F8000010F465
:1017B000804F14BF4FF001094FF00009C4F800C07A
:1017C0001046401EFDD143EA8900B8F1000F0CD04D
:1017D000C5F800C013465B1EFDD1C4F800C0134617
:1017E0005B1EFDD1B8F10108F2D13B6823F07063B4
:1017F00043F040733B602E604FF000084FF020092B
:1018000011F0010F14BF26602E60C5F800C013460A
:101810005B1EFDD1C4F800C013465B1EFDD1884499
:101820004908B9F10109EBD118F0010F14BF266086
:101830002E60C5F800C01146491EFDD1C4F800C095
:10184000521EFDD1396821F0706141F0407139605C
:101850002E602660BDE8F00770470000100C0140C4
:1018600008010020040C0140080C01402DE9F0079C
:1018700010F03F0308BF402310F0800FDFF8C48052
:10188000DFF8C4904FF40055A8F104062FD0002BC8
:1018900012BF2E4FBDE8F007704700244FF0080C30
:1018A000D9F8041014E0401EFDD1386810F4804FC0
:1018B00014BF4FF0010A4FF0000A35600846401E81
:1018C000FDD160085B1E40EACA14BCF1010C05D0D2
:1018D000002B1CBFC8F800500846E4D124FA0CF0D5
:1018E00002F8010B002BD8D1BDE8F0077047002BA0
:1018F00019BF4FF48047D9F80420BDE8F0077047BE
:1019000011F801CB082413E01CF0010F14BF37605D
:10191000C8F80070C8F800501046401EFDD1356070
:101920001046401EFDD15B1E4FEA5C0C641E04D0C5
:10193000002BE9D1BDE8F0077047002BE0D1BDE8EE
:10194000F0077047140C014008010020080C01400A
:10195000034A52780AB100F005B800F07BB90000E4
:10196000080100202DE9F04FDFF8D4C24FF4804A7F
:10197000CCF800A00CF104074FF40058C7F8008021
:10198000CCF8008010F0010F14BFCCF800A0C7F80D
:1019900000A0C7F80080CCF80080420812F0010FC8
:1019A00014BFCCF800A0C7F800A0C7F80080CCF89E
:1019B00000808318820812F0010F14BFCCF800A039
:1019C000C7F800A0C7F80080CCF800801344C20814
:1019D00012F0010F14BFCCF800A0C7F800A0C7F8A0
:1019E0000080CCF800801A4412F0010F14BFCCF82C
:1019F00000A0C7F800A0C7F80080CCF80080C7F8A6
:101A000000A0C7F80080CCF80080CCF800A0C7F890
:101A10000080CCF80080DFF82CB2DBF8002022F048
:101A2000706242F00062CBF80020CCF800A0DFF832
:101A300018E29EF81820131E06D000BFC7F80080D9
:101A4000CCF80080521EF9D1C7F80080DFF8FC9175
:101A5000D9F8002012F4804218BF0122CCF800808F
:101A6000C7F80080D9F8004014F4804418BF01245E
:101A7000CCF8008042EA4402C7F80080D9F8004060
:101A800014F4804418BF0124CCF8008042EA840298
:101A9000012A1CD0022A18BF042A7DD013F121008C
:101AA00006D000BFC7F80080CCF80080401EF9D1F6
:101AB000DBF8000020F0706040F04070CBF80000D0
:101AC000C7F800A0CCF800A01046BDE8F08F10F0D9
:101AD000020F4ED000252C465FF02003C7F800808F
:101AE000D9F8006016F4804618BF0126CCF80080B3
:101AF0006D08344445EAC6755B1EEFD14346C7F80E
:101B00000080D9F8006016F4804618BF0126CCF892
:101B10000030744014F0010F18BF0822002918BFCC
:101B20000D609EF8181021B13B60CCF80030491EC2
:101B3000FAD1DBF8001021F0706141F04071CBF870
:101B40000010C7F800A000BF10F0800F03D040487D
:101B50004068CEF808009EF80C00002818BFC7F8AF
:101B600000A067D0C7F80080CCF80080401EF9D1F3
:101B700060E02BB1C7F80080CCF800805B1EF9D183
:101B8000DBF8003023F0706343F04073CBF8003093
:101B9000C7F800A0096800E01DE000235FF0200402
:101BA00011F0010F14BFCCF800A0C7F800A0C7F8CF
:101BB0000080CCF800800B444908641EF0D113F07B
:101BC000010F14BFCCF800A0C7F800A0C7F8008030
:101BD000CCF80080B8E79EF81940002C1CBF10F02C
:101BE000020F212106D000BFC7F80080CCF800808A
:101BF000491EF9D133B100BFC7F80080CCF800808E
:101C00005B1EF9D1DBF8001021F0706141F04071EA
:101C1000CBF80010C7F800A064B110F0020F04BFA9
:101C2000C7F800A0212005D1C7F80080CCF80080BB
:101C3000401EF9D1CCF800A01046BDE8F08F00009E
:101C4000100C0140040C014008010020080C014068
:101C5000001000E02DE9F04FFF4F4FF4804E4FF0A1
:101C6000000CC7F800E03E1D4FF40059C6F8009084
:101C7000FA4D6A6813465B1EFDD1C7F80090134603
:101C80005B1EFDD110F0010F14BFC7F800E0C6F8CD
:101C900000E0C6F8009013465B1EFDD1C7F8009027
:101CA00013465B1EFDD10CEB00044FEA500C1CF0F8
:101CB000010F14BFC7F800E0C6F800E0C6F80090B6
:101CC00013465B1EFDD1C7F8009013465B1EFDD185
:101CD00064444FEA900C1CF0010F14BFC7F800E0F9
:101CE000C6F800E0C6F8009013465B1EFDD1C7F8A9
:101CF000009013465B1EFDD164444FEAD00C1CF0EB
:101D0000010F14BFC7F800E0C6F800E0C6F8009065
:101D100013465B1EFDD1C7F8009013465B1EFDD134
:101D200004EB0C0313F0010F14BFC7F800E0C6F872
:101D300000E0C6F8009013465B1EFDD1C7F8009086
:101D400013465B1EFDD1C6F800E0C6F800901346AE
:101D50005B1EFDD1C7F8009013465B1EFDD1C7F88E
:101D600000E0C6F8009013465B1EFDD1C7F8009056
:101D700013465B1EFDD1BA4BD3F800C02CF0706C3B
:101D80004CF0006CC3F800C0C7F800E095F818C02C
:101D9000BCF100040DD000BFC6F8009013465B1ED6
:101DA000FDD1C7F8009013465B1EFDD1BCF1010CBC
:101DB000F2D1C6F8009013465B1EFDD1DFF8A48275
:101DC000D8F8003013F4804F14BF4FF0010C4FF0DF
:101DD000000CC7F8009013465B1EFDD1C6F80090BA
:101DE00013465B1EFDD1D8F8003013F4804F14BFAA
:101DF0004FF0010A4FF0000AC7F8009013465B1E2F
:101E0000FDD14CEA4A0CC6F8009013465B1EFDD18A
:101E1000D8F8003013F4804F14BF4FF0010A4FF090
:101E2000000AC7F8009013465B1EFDD14CEA8A0CED
:101E3000BCF1010F22D0BCF1020F18BFBCF1040F9E
:101E400078D014F121010BD0C6F800901046401E46
:101E5000FDD1C7F800901046401EFDD1491EF3D1B8
:101E60007F48016821F0706141F040710160C6F85F
:101E700000E0C7F800E06046BDE8F08F10F0020F08
:101E800059D000252C464FF0200A00BFC6F800901C
:101E900013465B1EFDD1D8F8003013F4804F14BFF9
:101EA0004FF0010B4FF0000BC7F8009013465B1E7C
:101EB000FDD16B085C4443EACB75BAF1010AE5D168
:101EC000CA46C6F80090DFF894B113465B1EFDD1F8
:101ED000D8F8003013F4804318BF0123C7F800A0DE
:101EE000521EFDD184EA030212F0010F18BF4FF019
:101EF000080C002918BF0D609BF81830002B18BF84
:101F0000DBF804200CD000BFC6F800A01146491E23
:101F1000FDD1C7F800A01146491EFDD15B1EF3D1CB
:101F20004F490A6822F0706242F040720A60C6F8B7
:101F300000E040E05BE05CB1C6F8009013465B1E39
:101F4000FDD1C7F8009013465B1EFDD1641EF3D18E
:101F5000434B1C6824F0706444F040741C60F046ED
:101F6000C6F800E0096800245FF0200511F0010FB9
:101F700014BFC7F80080C6F80080C6F8009013466A
:101F80005B1EFDD1C7F8009013465B1EFDD10C44CB
:101F900049086D1EEAD114F0010F14BFC7F8008084
:101FA000C6F800804B46C6F800901146491EFDD188
:101FB0003B60521EFDD110F0800F03D02A484068CC
:101FC000264988602548017B00291CBFC6F800E02F
:101FD000426857D0C6F800901046401EFDD1C7F8A1
:101FE00000901046401EFDD1491EF3D14AE01B4926
:101FF0004D7E002D1CBF10F0020F21230CD000BF1E
:10200000C6F800901146491EFDD1C7F80090114650
:10201000491EFDD15B1EF3D164B100BFC6F800902C
:102020001146491EFDD1C7F800901146491EFDD149
:10203000641EF3D10A490B6823F0706343F04073C8
:102040000B60C6F800E0EDB110F0020F04BFC6F857
:1020500000E0212116D109E0100C01400801002008
:10206000040C0140080C0140001000E0C6F800908C
:102070001046401EFDD1C7F800901046401EFDD10D
:10208000491EE8D1C7F800E06046BDE8F08F0000C7
:102090002DE9F001441E3CBFBDE8F00170474FF44C
:1020A00080481348114E371F4268751411F8013BE0
:1020B0004FF0080C13F0010F14BFC7F80080C6F8EA
:1020C000008035601046401EFDD13D601046401E28
:1020D000FDD15B08ACF1010C641E3CBFBDE8F00112
:1020E0007047BCF1000FE5D1E0E70000140C01409F
:1020F0000801002070B50C46C17800680C4D61F3F2
:102100001F60A978012918BF00200BD00021E970B9
:102110002070010A6170010CA170000EE0704FF098
:10212000041070BD00F062FA0028F1D1EEE7000063
:10213000240000202DE9F0410078114C00F0010648
:102140000025E0780F4600F00100B04210D02EB11B
:10215000A01D057045702571A560E560A078012877
:1021600008D1304600F096FA002818BFE67001D07A
:102170003D7001E0FF2038704FF00110BDE8F081A4
:10218000240000202DE9F047324C80460E4622798B
:10219000A11D82F001002071E0788B5C4FF00009F6
:1021A00043EA000701F80290012811D0A068E16815
:1021B000451A6178012918BF002518D006F8017B5F
:1021C000280A06F8015B012906F8010B16D038E051
:1021D00084F80590A068E168451AA078012802D12A
:1021E00000F088FA054460790028F1D1E1E7B8F8F9
:1021F00000003C282AD88542E0D929E0E368DFF8CE
:1022000058C01846290008D0C0F30B021CF8020081
:1022100006F8010B501C491EF6D15819E060E07811
:1022200003280ED1A068E168411AB1F5805F08D299
:10223000A178C0F30B00012903D1E170604400F0E4
:102240001FFAE81C40F40030BDE8F0873C20D2E7DC
:102250000546B3E724000020240100202DE9F041C9
:102260001C4D002790F800C0EB780C461CF0010FC5
:10227000B8460BD02879AA1D80F001012971115CA4
:1022800002F80080194304F8011B01271CF0020F1B
:102290000CD0012B0ED0A868E968461A2670300AC7
:1022A0006070300CA070300EE0703F1D47F480303D
:1022B000BDE8F08185F80580A868E968461AA87825
:1022C000012802D100F016FA064468790028F1D1FD
:1022D000E4E70000240000202DE9F041114C0778CC
:1022E0000E46A078012804BF002000F011FA002556
:1022F000002F08BF012005D0012F0AD1012000F0D6
:1023000007FA30B1A770E570002818BF357004D106
:1023100001E0A570E570FF2030704FF00110BDE8BE
:10232000F0810000240000202DE9F041154D074602
:102330000026287980F001012971A91DEA780B5C3B
:102340000E5443EA0208012A0ED0A868E968441A2C
:1023500087F800807C70200AB870200CF870200E7E
:1023600038710520BDE8F0816E71A868E968441AEB
:10237000A878012802D100F0BDF90444687900284A
:10238000F2D1E5E724000020084AD37813F0010FCA
:1023900004D0FF2008704FF001107047007800282B
:1023A00012BF012850700020F3D1F3E72400002071
:1023B0004FF0E021042808690CBF40F0040020F031
:1023C0000400086170470000154830B40178DFF858
:1023D00054C0491ECBB2037044784FF4007114F01E
:1023E000020F0CF1040206D024F00204447013F032
:1023F000010F03D011E013F0070F0ED011604078E9
:1024000010F0010F04BF30BC704713F0030F0CBF76
:10241000CCF80010116030BC7047CCF80010EEE72B
:10242000000000201008014016494868164A10F0C4
:102430000C03164818BF042B01D0082B01D00260F2
:1024400015E04A684B6802F470124FF0020C13F466
:10245000803F0CEB924203D04B6813F4003F03D053
:102460000B4B5A43026002E0074B5A430260496833
:10247000084AC1F30311515C026822FA01F10160BC
:10248000704700000010024000127A000C0000208B
:1024900000093D0010000020384881B0016841F07B
:1024A000010101604168364A11404160016821F430
:1024B000102121F080710160016821F48021016008
:1024C000416821F4FE0141604FF41F018160002248
:1024D0000092016841F480310160016811F4003F0D
:1024E00003D10099B1F5A06FF7D1016811F4003F55
:1024F00018BF00923BD023490A6842F010020A60DC
:102500000A6822F003020A600A6842F002020A60C6
:102510004168416041684160416841F480614160C7
:10252000416821F47C11416000990029416814BF81
:1025300041F4D00141F4E8114160016841F080713B
:102540000160016811F0007FFBD0416821F00301B8
:102550004160416841F002014160416801F00C01B5
:102560000829FAD108060849086001B070470168D7
:1025700021F48031016001210091BCE7001002408C
:102580000000FFF80020024008ED00E070B50446AE
:102590001148124D14F0020F017841F00201017050
:1025A00009D00F48016801F580610160AA694FF404
:1025B00080610C48904714F0010F08BF70BD4FF4C4
:1025C0008061094801F032FB011ED8BF70BD06488A
:1025D0006A69BDE870401047010000208C5A00086D
:1025E00060000020D6320020D636002070B50646A6
:1025F0001F48864288BF06461E4C1F4DE07810F0EB
:10260000010F11D00021AA6A16209047E86A80477E
:1026100010F0020F08D0686A8047A1680844A060E3
:102620000021AA6A19209047AA6A314601209047E2
:1026300010B10020207070BD01202070E07810F0F3
:10264000010F12D010F0020F0BD1A0680B4AC0F39B
:102650000B0000F03F01C1F1400110442161AA6963
:1026600090470121AA6A16209047304670BD0000AD
:1026700040420F0024000020545A0008240100208A
:10268000024A1161024A92691047000024000020AA
:10269000545A000870B5144D144C88B1287800289D
:1026A00008BF70BD012028610146A269104890470B
:1026B00020B90121A26A1620904798B1002070BD70
:1026C0000021A26A16209047E06A804710F0020FAE
:1026D00008D0606A8047A9680844A8600021A26AFF
:1026E00019209047012070BD24000020545A000892
:1026F0002401002010B5054CE06A804710F002006C
:1027000008BF10BD606ABDE810400047545A000879
:1027100010B5114A0021114C117070B1A168104818
:10272000884700281CBF002010BD0220216988476F
:1027300080B1E0688047002010BD0021A26A162009
:1027400090470021A26A19209047216900208847FC
:10275000E0688047012010BD24000020545A000882
:102760004D2D0008014A00F02DBB0000AC590008B7
:102770000148006870470000AC59000881B000981B
:1027800020F0010000901E48016B0969002918BF64
:10279000B1F5803F0ED1C16961B10968C06989682E
:1027A000007921FA00F010F0010F03D1009840F0F9
:1027B00001000090009820F002000090009820F0A6
:1027C00008000090009820F004000090009961F348
:1027D000000000994FEA510161F3410000994FEA6E
:1027E000910161F3820000994FEAD10161F3C300C6
:1027F000009901B04FEA111161F31F1070470000FA
:10280000AC5900080648C16A002902BF406B006944
:10281000704709684968406B0068401A70470000BB
:10282000AC5900082C4881B0416B91F82110002967
:102830001CBF009941F0010107D1416809880122BC
:1028400022EA9112009962F300010091016B4A792A
:10285000009962F341010091016B8A79009962F35A
:1028600082010091016BCA79009962F3C301009162
:10287000016B0A7A009962F304110091016B4A7AA4
:10288000009962F345110091006B817A009861F321
:1028900086100090009961F300000099490861F3E7
:1028A00041000099890861F382000099C90861F329
:1028B000C3000099090961F304100099490961F303
:1028C00045100099890961F38610009901B0C90982
:1028D00061F3DF1070470000AC5900080648816AB8
:1028E000002902BF406B4069704709684968406B26
:1028F0004068401A70470000AC590008014800F0D9
:1029000091BD0000AC590008014900F0D0BE0000A4
:10291000AC590008014900F019BF0000AC5900088B
:10292000014A01F077B80000AC590008014A01F0F3
:102930000AB90000AC5900081649012228B1012843
:1029400013D000BF4FF0FF307047086B00690028BC
:1029500018BFB0F5003FF5D18869B8B18969006842
:10296000097902FA01F1016110E0086B00690028A1
:1029700018BFB0F5003FE5D1886938B189690068B2
:10298000097901F1100102FA01F101614FF0000033
:1029900070470000AC59000870B5144E05000B4696
:1029A000144619BF002B002C6FF0040070BD316B72
:1029B000C87A10F0040F4FF0FF3008BF70BDC9682F
:1029C000022918BF70BD0320716B3246C8612146D1
:1029D000184601F01FF8002818BF70BD3246214686
:1029E0002846BDE8704001F0AEB80000AC590008C0
:1029F00010B5184CE06828B18188002300681A4699
:102A0000FEF750FB206928B18188002300681A4630
:102A1000FEF748FB606928B18188002300681A46E8
:102A2000FEF740FBA06928B18188002300681A46A0
:102A3000FEF738FBE06928B18188002300681A4658
:102A4000FEF730FB208CFEF7A3FA216B0020C87242
:102A500010BD0000AC590008014A00F0B3B90000F5
:102A6000E45900080148006870470000E459000874
:102A700081B0009820F0010000901E48016B0969A8
:102A8000002918BFB1F5803F0ED1C16961B1096855
:102A9000C0698968007921FA00F010F0010F03D1B4
:102AA000009840F001000090009820F00200009093
:102AB000009820F008000090009820F0040000909A
:102AC000009961F3000000994FEA510161F3410060
:102AD00000994FEA910161F3820000994FEAD10118
:102AE00061F3C300009901B04FEA111161F31F10A7
:102AF00070470000E45900080648C16A002902BF77
:102B0000406B0069704709684968406B0068401A6B
:102B100070470000E45900082C4881B0416B91F8DF
:102B2000211000291CBF009941F0010107D1416823
:102B30000988012222EA9112009962F300010091B2
:102B4000016B4A79009962F341010091016B8A7926
:102B5000009962F382010091016BCA79009962F3D6
:102B6000C3010091016B0A7A009962F3041100918C
:102B7000016B4A7A009962F345110091006B817AEA
:102B8000009861F386100090009961F300000099AD
:102B9000490861F341000099890861F382000099B6
:102BA000C90861F3C3000099090961F30410009991
:102BB000490961F345100099890961F3861000996C
:102BC00001B0C90961F3DF1070470000E459000843
:102BD0000648816A002902BF406B40697047096856
:102BE0004968406B4068401A70470000E45900088B
:102BF000014800F017BC0000E4590008014900F04A
:102C000056BD0000E4590008014900F09FBD0000D6
:102C1000E4590008014A00F0FDBE0000E459000834
:102C2000014A00F090BF0000E45900081649012253
:102C300028B1012813D000BF4FF0FF307047086B58
:102C40000069002818BFB0F5003FF5D18869B8B118
:102C500089690068097902FA01F1016110E0086BE5
:102C60000069002818BFB0F5003FE5D1886938B188
:102C700089690068097901F1100102FA01F1016125
:102C80004FF0000070470000E459000870B5144E82
:102C900005000B46144619BF002B002C6FF00400F2
:102CA00070BD316BC87A10F0040F4FF0FF3008BFD1
:102CB00070BDC968022918BF70BD0320716B324610
:102CC000C8612146184600F0A5FE002818BF70BD57
:102CD000324621462846BDE8704000F034BF00006F
:102CE000E459000810B5184CE06828B18188002329
:102CF00000681A46FEF7D6F9206928B181880023BA
:102D000000681A46FEF7CEF9606928B18188002371
:102D100000681A46FEF7C6F9A06928B18188002329
:102D200000681A46FEF7BEF9E06928B181880023E1
:102D300000681A46FEF7B6F9208CFEF729F9216BD8
:102D40000020C87210BD0000E459000870B5194C8D
:102D5000054610F0020F1AD0E068A16822690A4403
:102D6000A26002F03F01C1F14001101AC1F5805389
:102D7000984284BF0320E07007D8C2F30B000E4ACC
:102D8000216110440D4A92699047012060710C48FE
:102D900015F0200F04D02179425C42F080024254A9
:102DA00015F4607F08BF70BD2179425C42F040029B
:102DB000425470BD2400002024010020545A000811
:102DC0002A0000202DE9F05F136B1446DA7A12F026
:102DD000020F00F0BB814FF0000800F0FF0CACF1D7
:102DE0001507454646464246062F80F00981DFE832
:102DF00007F08ABC0325445C606B79B190F8211020
:102E0000002940F01C81012180F82110606B80F8BE
:102E100020106068818941F081018BE090F82000EA
:102E200000286DD06068818921F080018181606B0C
:102E300080F82020606B80F8212061E06068818943
:102E400021F0C0018181A06A70B1606B90F821000F
:102E500050B16068818A21F080018182A06A006897
:102E6000016821F001010160606B80F82020606B37
:102E700080F821200020BDE8F09F6068818921F062
:102E800020018181E06A68B1206B407950B16068AF
:102E9000818A21F040018182E06A0068016821F0A6
:102EA00001010160206B42712AE06068818921F094
:102EB000E0018181A06A70B1606B90F8210050B18F
:102EC0006068818A21F080018182A06A00680168BF
:102ED00021F001010160E06A68B1206B407950B1D6
:102EE0006068818A21F040018182E06A006801689F
:102EF00021F001010160206B4271606B80F821209C
:102F00000020BDE8F09FE068002800F01F8199B123
:102F1000D968062905D08188006803230222FEF7BC
:102F2000C1F8206BC17A41F00801C17260688189E3
:102F300041F008018181E3E76068818921F008019F
:102F40008181206BC17A21F00801C172206BC068B9
:102F500006281CBFE0680028D2D081884FF000030B
:102F600000681A46FEF79EF8CAE72069002875D067
:102F700091B3D968062918BF042907D08188006851
:102F80004FF000034FF00102FEF78CF8206BC17A7E
:102F900041F01001C1726068818A41F001018182B3
:102FA0006068018A41F0400101826068818941F0D6
:102FB00010018181206B407900281CBFE06A002845
:102FC00004D16068818941F0200181816068818934
:102FD00041F00401818193E7FFE76068818921F076
:102FE00004018181206BC17A21F01001C172206B34
:102FF000C06806281EBF042820690028ADD17FE7DD
:103000005A79E2B9626B92F82120C2B96268978955
:1030100017F0080F03D0178817F0400F0FD0BCF13E
:10302000150F7DD2DFE80CF0A10F11351B202EA16A
:10303000A1A1A1A1A1A1A1A1393C5E688F006FF05F
:103040000100BDE8F09F012312E0237813F0020F86
:103050001CBF4FF4106502230AD11AE076E04FF04E
:1030600008064FF0040303E04FF002064FF005039B
:1030700010F4E06C76D0BCF5807F74D0BCF5E06FC6
:1030800077D0BDE0237813F0200F1CBF2026062345
:10309000EED16FF00600BDE8F09F606B41832FE733
:1030A000D868052852D000293FF42AAF908A40F012
:1030B00004009082D94AA068B2FBF0F25FF00100F0
:1030C00002FB00F38B429CBF401CB0F5807FF7D31E
:1030D000B0F5807F3AD061680A8B22F0FF0210437E
:1030E00008830DE7D868062830D1FF292ED8108B29
:1030F00020F47F40084324E0D868062826D1A06841
:10310000C64B01EB0114B3FBF0FC01EB01130120F2
:1031100003EB430304EB41140CFB00F5C82100E072
:1031200023E06943B1EB430F02D2B1EB440F02D865
:10313000401C4028F0D3402808D0118B21F0FF011B
:1031400008431083DCE6D868062803D04FF0FF3030
:10315000BDE8F09F00293FF4D3AE908A40F0100004
:103160009082CDE609E048E003E06FF00300BDE89F
:10317000F09F10F4405F07D142E010F4405F03D0AD
:1031800045F020054FF4805810F4405C0ED0BCF59B
:10319000805F08BF48F4806808D0BCF5005F16BFA8
:1031A0006FF0090048F4C068BDE8F09F10F4404C8F
:1031B00014D0BCF5804F08BF45F400550ED0BCF5C7
:1031C000004F08BF45F4405508D0BCF5404F16BF2E
:1031D0006FF00A0045F48055BDE8F09F10F4403CC4
:1031E00008BF00271AD0BCF5803F0DD0BCF5003FCA
:1031F00017D0BCF5403F1FD02AE010F4405FBFD08D
:103200006FF00800BDE8F09F94F800C01CF0800F3C
:103210001CBF4FF4803746F4807619D0022B1BD0A8
:1032200032E0B4F800C01CF4807F1CBF4FF40037BC
:1032300046F4C066F2D10BE0D4F800C01CF0800F59
:103240001EBF1CF4807F4FF4403746F4E066E5D1A2
:103250006FF00B00BDE8F09F10F4802C08D0BCF597
:10326000802F0EBF45F480656FF00C00BDE8F09F25
:1032700010F4002008D0B0F5002F0EBF45F4007503
:103280006FF00D00BDE8F09FD4F808A0DFF8909132
:103290000AEBCA0000EB0A1C8800BCFBF0FBA9FB90
:1032A0000BEBBCFBF0FEBCFBF0F0A9FB00C040093F
:1032B0006FF0180C00FB0CF00EEB80004FF0320C9E
:1032C0000CEB0010A9FB00C04FEA5B1B40096BF33D
:1032D0001F104FEA0A191FFA80FCB9FBFCF0000925
:1032E0004FF0640900FB09F001EB011909EB4909F2
:1032F000B0EB490F06D201EB011909EB4111B0EB1C
:10330000410F03D86FF00700BDE8F09F908920F4CB
:10331000005090816068A0F808C0206BC360206BEB
:103320000761206BC16806290AD0C07A10F0080F27
:10333000E0680ED0A0B181880323006802220DE06E
:10334000E06868B18188006803230222FDF7AAFEC5
:1033500006E028B18188002300681A46FDF7A2FE26
:10336000206BC168042918BF06290CD0C07A10F060
:10337000100F206911D0B8B1818800684FF00003A8
:103380004FF001020EE0206970B181884FF0000318
:1033900000681A46FDF786FE06E028B18188002302
:1033A00000681A46FDF77EFE606968B1216BC96846
:1033B000022918BF06298188006807BF032302225B
:1033C00000231A46FDF76EFEA06968B1B7F5803F8D
:1033D00018BFB7F5403F8188006807BF032302226A
:1033E00000231A46FDF75EFEE06928B18188006877
:1033F00000230122FDF756FE6068A0F80C8060688B
:103400000582606886826068818941F4005181810B
:10341000206BC17A41F00401C17271E500CA9A3B88
:103420001F85EB512DE9F003D0F804C0BCF8002053
:103430000021BCF80C400B4602F020052C420E4641
:103440004FF0010461D0056B6F791FB1ED68022D5B
:1034500005D00BE0BCF80410EC71202155E0456B61
:10346000ED69012D08BFBCF804C001D0BCF80430E0
:10347000D0F834C0DCF808506F1CCCF808702B7002
:10348000D0F804C0BCF80CC01CF4806F0CD11CF444
:10349000805F09D0456B1F0AD5F808C00CF1010800
:1034A000C5F808808CF80070D0F834C0DCF81050F3
:1034B0006D1CCCF81050D0F834C0DCF800C0654565
:1034C00023D1D0F804C0BCF80C5025F01005ACF89E
:1034D0000C50D0F830C08CF80560D0F830C0DCF863
:1034E0000CC0BCF1020F0FD1D0F834C0DCF81C5076
:1034F000CCF81C60012D08BF012106D0022D03D09D
:10350000032D08BF042100E002214568B5F80CC076
:1035100002F010071CEA070F1CBFB5F804C041F009
:103520004001B5F80CC002F080071CEA070F5FD01D
:10353000D0F834C09CF8207027B1AB8943F0010368
:10354000AB8155E0DCF81470DCF80450BD4224D0A7
:10355000036BDB68022B02BFDCF81C30022BBCF8CB
:103560001A301AD0DCF80C3003F10105CCF80C50FD
:10357000D0F804C01B78BCF80CC01CF4806F0CD1D0
:103580001CF4805F09D0D0F834C005F10107CCF8F5
:103590000C7095F800C043EA0C23D0F834C0DCF876
:1035A000145005F10105CCF81450D0F804C0ACF863
:1035B0000430436BD3F804C05B699C4518D1436861
:1035C000B3F80CC02CF0800CA3F80CC04368B3F81F
:1035D0000CC04CF0400CA3F80CC0436B83F8216086
:1035E000036BD3F80CC0BCF1020F54D041F00101C1
:1035F0004368B3F80CC002F040051CEA050F07D081
:10360000B3F80CC02CF0400CA3F80CC041F008013A
:1036100012F0080F05D043689B88036B41F020012E
:10362000DC7112F0020F05D043689B88036B41F4F4
:1036300080715C7212F0010F05D043689B88036BA8
:1036400041F400719C7212F4807F0AD04368B3F891
:1036500000C02CF4807CA3F800C0036B41F0800113
:103660001C7212F4007F06D04268138823F40073A2
:10367000138041F48061002904BFBDE8F003704766
:10368000006B0268002A04BFBDE8F00370470846DB
:10369000BDE8F0031047D0F834C0DCF81CC0BCF122
:1036A000010F04BFDB7A13F0100FA1D19EE710B514
:1036B0000C46096BCA7A12F0010F1CBF002010BD26
:1036C0000860216B00200871216B4871216B8871A3
:1036D000216BC871216B0872216B4872216B887253
:1036E000216BC860616B81F82100616B08604860E4
:1036F0008860C860086148618861C8610862608C40
:10370000FDF746FCE06818B100680121FDF73CFDBB
:10371000206918B100680121FDF736FD606918B114
:1037200000680121FDF730FDA06918B10068012192
:10373000FDF72AFDE06918B100680121FDF724FDBD
:10374000216B0120C872002010BD00002DE9F04758
:103750000C4600268E4FDFF83C82DFF83C928F4DFE
:10376000012138B1012801D002287AD06FF003007E
:10377000BDE8F0876068B84204D1EA6842F480424C
:10378000EA600CE0404504BF2A6942F4003205D0EB
:10379000484504BF2A6942F4802200D12A6100BF53
:1037A00000BF00BF00BFB84204D1E86820F48040E9
:1037B000E8600CE0404504BF286920F4003005D0E3
:1037C000484504BF286920F4802000D1286194F97D
:1037D000240000280CDB00F01F029140400980000B
:1037E00000F1E020C0F88011BFF34F8FBFF36F8F5F
:1037F000E06A18B141790079FDF7CAFAA06A18B1F8
:1038000041790079FDF7C4FA6068B84203D1A8692C
:1038100020F48040A8616068404503D1E86920F445
:103820000030E8616068484503D1E86920F48020F1
:10383000E861206B0671206B4671206B8671206BEE
:10384000C671206B0672206B4672206B8672606BAD
:1038500080F82160206BC17A21F00201C17293E0EF
:10386000FFE7206BC27A12F0010F04BF4FF0FF3068
:10387000BDE8F08712F0020F78D10671206B467117
:10388000206B8671206BC671206B0672206B4672AE
:10389000206B8672606B80F82160606B4683606B82
:1038A000C661606B80F82060206BC660206B06618B
:1038B000226B0320D0726068B84203D1A86940F43B
:1038C0008040A8616068404503D1E86940F4003059
:1038D000E8616068484503D1E86940F48020E86108
:1038E00094F92400002809DB00F01F0201FA02F21B
:1038F0004009800000F1E020C0F8802294F9240003
:10390000002808DB00F01F0291404009800000F110
:10391000E020C0F80011E06A18B141790079FDF7A4
:10392000C7F9A06A18B141790079FDF7C1F960685B
:10393000B84204D1E96841F48041E9600CE04045B7
:1039400004BF296941F4003105D0484504BF296905
:1039500041F4802100D1296100BF00BF00BF00BF3A
:10396000B84204D1E86820F48040E8600CE04045AB
:1039700004BF286920F4003005D0484504BF2869F9
:1039800020F4802000D128610020BDE8F0870000ED
:103990000038014000440040004800400010024050
:1039A000C16A0968496821B1416B0968002918BFDB
:1039B000704741688A8922F010028A81026B0021D7
:1039C0000B46D268022A10D1426BD2F81CC0D361D8
:1039D000BCF1010F08BF012108D0BCF1020F04D0D7
:1039E000BCF1030F08BF042100E00221426BD2F8B2
:1039F00000C0C2F810C0026B53714268938943F053
:103A000020039381006B0268002A14BF00297047CD
:103A10000846104770B5002812BF00296FF0040057
:103A200070BD136B93F80BC01CF0040F04BF4FF074
:103A3000FF3070BD5B79012B73D05368B3F80CC0B5
:103A40002CF0200CA3F80CC0536B1960D2F830C0D6
:103A500000238CF80830D2F830C08CF80930D2F846
:103A600030C08CF80730D2F830C08CF80A30D2F869
:103A700034C0CCF80800D2F834C0CCF81030D2F8FA
:103A800030C001238CF80530D2F830C08023DCF838
:103A90000CC0BCF1020F07D1D2F834C0DCF81CC056
:103AA000BCF1010F08BF0023D2F82CC0BCF1000FFD
:103AB00032D09CF806404FF4405505EA043455686E
:103AC000234343F00203AC8914F4805F04D014F460
:103AD000806F08BF43F4A063DCF800C02C1DCCF855
:103AE0000030CCF80840CCF80C00CCF80410D06AB8
:103AF0000068036843F0010303605068838A43F061
:103B0000400383825068838943F010038381106BE4
:103B1000C068022812D105E05068838943F0300361
:103B2000F4E70DE0506BC36943B90223C361506BE6
:103B30001A3000F008F810F1020F01D0002070BD1B
:103B40006FF0010070BD002812BF00296FF0040063
:103B500070472DE9F0410646106B14460D46C07AB9
:103B600010F0040F04BF4FF0FF30BDE8F081616B2F
:103B700091F82100002845D1012081F82100616BD6
:103B80008027CE60616B4D60626B00215161216BBB
:103B9000C968022910D1626BD16919B1022908BF25
:103BA000002709E0D061606B224629461830FFF7F4
:103BB00031FF10F1020F25D0A16A39B388794FF493
:103BC0004052636802EA003038439A8940F012009C
:103BD00012F4805F04D012F4806F08BF40F4A0603C
:103BE00009681A1D08608A60CE604D60A06A00688E
:103BF000016841F0010101606068818A41F0800143
:103C0000818208E06FF00100BDE8F0816068818981
:103C100041F0800181810020BDE8F0810148006809
:103C200070470000A85900080020704770B50B4D80
:103C30000C460346D5E90C0188420BD9401A844250
:103C400000DD044622461846FCF76CFA686B2044F7
:103C5000686300E00024204670BD0000980000204A
:103C600010B50A4CE06A804710F0010F18BF10BD74
:103C70004FF480610648FFF7D9FF011ED8BF10BD81
:103C800003486269BDE81040104700008C5A0008E4
:103C9000D63600202DE9F041194C0D460746D4E9EF
:103CA0000401401A17490A88101A002802DC002073
:103CB000BDE8F081854200DD0546D4E90602002614
:103CC000904210D3104A0988431911448B420AD3F9
:103CD0000E1A904632463946FCF724FA3744AD1B9B
:103CE0004046C4F8188035B12A463946FCF71AFA1E
:103CF000A0692844A0612169A81901442161D7E77E
:103D000098000020DE5A00085612002010B5054C1D
:103D10006068002805D10120606000F005F80020EF
:103D2000606010BD980000202DE9F047224CA0688B
:103D300000283BD0D4E90401421AE0684FF00006A5
:103D4000104335D01D481E4FDFF878800088DFF81B
:103D500078903D182046C1696AB1A069814203D3B9
:103D60008818A84200D36A1A99F8003038F813006E
:103D7000904200DA02461548E660007840F0800084
:103D800001F096FAE1690144E16162698D42024401
:103D9000626100D1E761216991420BD199F800205D
:103DA00038F81210814205D10120E060BDE8F087AB
:103DB000A660FBE7E660F9E798000020DE5A0008FD
:103DC00056120020E25A000873000020DC5A000856
:103DD00010B50B4C206A18B1A06A401CA06210BD3F
:103DE00001202062606200F00DF800206062206215
:103DF000D4E90C018842F2D0401AFFF731FF10BD20
:103E00009800002010B5134C144A1348216B1288F7
:103E1000144B081A101A124A1B7832F813209042D9
:103E20000EDB1148007800F0DFFE216B08442063B0
:103E3000A06A00280CD0616A002909D1401E06E062
:103E40000120E062606A002802D0A06A401CA062E3
:103E500010BD00009800002096120020E05A0008D3
:103E6000E25A000873000020DD5A000810B504462D
:103E7000400702D52046FFF7ABFF200704D52046B8
:103E8000BDE81040FFF742BF10BD704700207047EB
:103E90000020704710B50B4800F01CF8002810D027
:103EA000084A0948116801700B0A43700B0C8370B3
:103EB000090EC17011790171517941719179817146
:103EC000012010BDD00000209411002010B500F09A
:103ED0000DF810BD04498A6802608A898280897B56
:103EE00081710120704700006000002010B5044C73
:103EF0000448A1688847216902208847012010BD35
:103F00008C5A00088D25000810B5054C002118209A
:103F1000A26A90470021A26A19209047012010BD93
:103F20008C5A0008012070472DE9F0410026314CE1
:103F30000546B046A26A3746314618209047002110
:103F4000A26A192090470021A26A152090470021FB
:103F5000A26A16209047287940B1012808BF4FF483
:103F6000004703D0022808BF4FF48047687948B162
:103F7000012808BF4FF4005804D0022808BF4FF4AE
:103F800080581AD1A879052808BF4FF4A0660AD036
:103F9000062808BF4FF4C06605D007280CBF4FF4B1
:103FA000E066082809D146EA080040EA0700A26A4C
:103FB000296840F00100904710B10020BDE8F08171
:103FC0000D4829688160A9888181A97981730021C0
:103FD000016041600121A26A152090470121A26A77
:103FE00016209047A2694FF4806104489047012051
:103FF000BDE8F0818C5A000860000020D632002015
:1040000010B510480024104944608460C460046105
:10401000C0E90541C0E9071444620C498462C0E963
:104020000B4141630480FFF76FFF06484FF41651C0
:10403000383001600471447108218171FFF774FF09
:1040400010BD00009800002056120020961200209B
:1040500010B5FFF7D5FF10BD70B5174C0025012630
:10406000206A50B9D4E90C10814206D1134881422C
:1040700003D02063E56225626063A06A70B1206AA4
:1040800060B9E06A50B92662FFF7BCFE2562D4E948
:104090000C01884202D0401AFFF7E2FDD4E9010189
:1040A000084308D1D4E90401884204D06660A660C0
:1040B000FFF73AFE656070BD980000209612002060
:1040C000002070470020704700207047024910B55B
:1040D0000880FFF727FF10BD98000020084810B5A2
:1040E000C178026861F31F6206490A6002790A71A9
:1040F00042794A71807988710846FFF715FF10BD33
:1041000094110020D00000200107890E01F18041A8
:1041100001F5A041D1F8002C00F08000002814BF68
:1041200048F6CF704CF68F7002EA0000C1F8000C20
:10413000D1F8000C08D080F0300048F6BF7200EAD9
:104140000200C1F8000C704780F440504BF68F72AB
:1041500000EA0200C1F8000C7047000070B48378D8
:10416000234A03F00F0C13F0800F566881881488DF
:1041700003F00F0306EB031304D0491C21F00101E7
:104180001C6011E09C603E2909D91F3121F01F01FC
:104190004FF0FF3404EB411444F4004403E0491CA5
:1041A00021F001014C02DC6013880B441380C078BD
:1041B00010F0030008BF4FF400710CD0012808BFB5
:1041C0004FF4806107D0022808BF002103D00328E4
:1041D00008BF4FF4C06141EA0C004FEA8C0101F1C5
:1041E000804101F5A041C1F8000C70BC704700008F
:1041F00044000020002818BF70470249C0200880F2
:10420000704700004400002000F0A2BA07490028CF
:1042100008BF032007D00120086000200860044A7E
:1042200010604FF4E050086070470000405C0040B0
:10423000445C004010B50B4C0B48A28801788A42C0
:1042400000D9CAB21AB9074900201839087180206C
:10425000216801F02DF8216801442160A188081A25
:10426000A08010BD88000020C85A000810B5064C78
:104270000020216800F0B8FC216801442160A18879
:10428000081AA08010BD00008800002070470107B8
:10429000890E01F1804202F5A042D2F8001C10F014
:1042A000800F05D048F6BF700840C2F8000C704778
:1042B0004BF68F700840C2F8000C70470107890E5A
:1042C00001F1804202F5A042D2F8001C10F0800FEC
:1042D00007D081F0200048F6BF710840C2F8000CFA
:1042E000704781F440504BF68F710840C2F8000CC3
:1042F000704700002DE9F047DFF844820646A8F138
:10430000080580074FF0000AA5F1180424D500F035
:10431000BBFF98F800004746C009FFF7B7FFF888D1
:10432000A8803978C1F3411010B1012877D17DE020
:1043300098F80120834FDFF810920C2A6FD2DFE843
:1043400002F0060C951C952B3B953F45526100F001
:1043500063FD33E0FFF76EFF96E0002000F09AFD6A
:1043600000285CD000F096FF386820B16169002910
:1043700021D0082050E0484653E0012000F08AFD9B
:10438000002873D000F086FF38680028F3D06169F8
:10439000002979D004203FE011F01F0F66D198F872
:1043A0000200012140F08000207000F07F0000F04A
:1043B00045FF00F06FFF67E000F054FC78B3C9E7F9
:1043C00011F01F0F52D15E481F3819E000F0B8FD00
:1043D00028B300F05FFF386818B1616929B3012084
:1043E0001AE05A481DE001F01F0101293ED1617811
:1043F000A9B198F80400A178884237D254490844FA
:104400002860A7E700F064FE48B100F043FF386879
:1044100030B1616949B1022001F04CFA34E025E085
:104420004C48016809B1084680472DE011F01F0093
:1044300004D0012805D0022818D111E000F02AF993
:1044400013E000F02DF9F8B900F080F9E0B900F0C0
:10445000CFF8C8B900F0CEF8B0B900F01FF904E009
:1044600000F0C4F880B900F017F968B998F80010A6
:10447000090604D4B8F8060008B1002000E0802046
:1044800000F0E6FEA5F804A0700735D598F8000006
:10449000474600062ED4A88858B3FFF7E7FEA88841
:1044A00038BB3878C0F34111F1B101291CD110F0AB
:1044B0001F0004D0012805D0022815D10EE000F01D
:1044C00077F810E000F07AF898B900F047F880B972
:1044D00000F046F868B900F06FF804E000F03CF82E
:1044E00038B900F067F820B9802000F0B1FEA5F8D7
:1044F00004A001E000F0D4FE300713D598F80000C6
:10450000000606D5A888217908430BD0FFF792FE54
:1045100008E02078010605D500F07F00207000211A
:1045200000F08CFE700602D50020FFF7EDFD30068E
:1045300004D5BDE8F0478020FFF7E6BDBDE8F08771
:1045400090000020485B0008445B00083C5B0008CA
:1045500039000020405B00080020704700207047B1
:1045600010B51048104A01791278914203D00F4AD1
:104570001278914214D1417821B1022905D0202925
:104580000ED10AE0FFF79EFD02E04088FFF79CFD98
:1045900030B100F07FFE012010BDFFF79FFDF7E76F
:1045A000002010BD90000020DA5A0008DB5A0008F5
:1045B00000207047002070470020704710B5094860
:1045C000094A01791278914209D14078092806D127
:1045D00000F0D8FA18B100F05DFE012010BD0020F7
:1045E00010BD000090000020C95A0008002070474C
:1045F0000020704770B52249224A0879127890420B
:1046000003D0214A1278904238D11D4849781F4C76
:104610001F4D408804291FD007DC79B101290FD034
:1046200002290BD0032929D111E0202906D0212904
:104630001AD022291BD0232920D11BE02C6011E0A5
:10464000FFF726FC05E02C60FFF7F4FD0AE0FFF71A
:104650001DFC0028F7D111E0FFF7E6FA0CE000BFDF
:1046600000F018FE012070BDFFF714FCF1E7FFF722
:104670002DFD01E0FFF724FD0028F1D1002070BDE1
:1046800090000020DA5A0008DB5A0008941100203C
:1046900088000020002070470020704700207047ED
:1046A0002DE9F041224C23492079097888423DD1F7
:1046B0006078214D214E224F0C2837D2DFE800F0E0
:1046C0003606212D363636363616243200F070F98D
:1046D00060B3E078012802D0032803D003E0194832
:1046E000286000E02E60FFF7A5FD13E0E0780228C7
:1046F00002D0032803D00DE0134828600AE02E60A2
:1047000008E000F03DF90AE000F014FA0CE000BF08
:1047100000F0C0FD0120BDE8F08100F03FF928B1B4
:104720002F60E0E700F024FA0028F1D10020F2E742
:1047300090000020C95A0008880000204200002094
:1047400094110020D511002016120020002070477F
:10475000084800214170C160016141618161C1610E
:1047600041808180016241628162C180C1620181B8
:1047700070470000D80000202DE9F05FDFF840818D
:10478000DFF840A1DFF840B10127504C08F10109E2
:104790000025A561606910B1A761BDE8F09F676160
:1047A000A088618888421AD3206AC0B9E561A580D3
:1047B000012398F8001008F10102184600F068FF84
:1047C0000004000C60800CD04149C4F81C800978BA
:1047D000012902D8C4F81C903BE0401C608060882E
:1047E000B8BBE068A8BB216999B339484246007854
:1047F00001280FD81570A5800223521C002101202A
:1048000000F046FF0004000C608001D0C4F81C904A
:1048100025611EE01678202E00D3002607FA06F048
:10482000084240D0701CC1B21170A580022308F16B
:104830000102012000F02CFF0104090C618003D06B
:10484000491CC4F81C806180216907FA06F0814385
:1048500021616088216A01432AD0A188401A9BF80F
:10486000001086B23AF81100B04200D206466762E4
:1048700018483246E169007840F0800000F018FDE9
:10488000E06915493044E061A088304480B2A080DE
:10489000098888420AD29BF800103AF81100B04209
:1048A00004D1276205E0761CF6B2B4E7256200E089
:1048B00065626561A06900287FF46BAF6DE7000059
:1048C000D4110020D05A000873000020D800002026
:1048D000D45A0008CA5A0008D65A0008F8B5194C2C
:1048E000194D0026E08800B9A5621848A16A007831
:1048F00000F07AF90004A16A000C0144A162E18889
:1049000001448BB2E3800AD0114909888B4206D258
:10491000114A1049127831F81210814210D90F480B
:10492000017801200129009003D80021064A0220C5
:1049300003E029786A1C02205B1E00F075FFE68008
:10494000F8BD0000D800002015120020CB5A000846
:10495000D85A0008D05A000873000020D55A000821
:1049600010B50446000702D52046FFF705FF600793
:1049700004D52046BDE81040FFF7B0BF10BD0000D1
:10498000034804498078085C034908700120704797
:1049900090000020400000209411002010B500F08D
:1049A00075FE02490870012010BD0000941100201E
:1049B0000B4910B5C8780022012804D0022804D081
:1049C000032806D103E0074A02E0002010BD064A92
:1049D000521C8978002300F05BFE012010BD00000E
:1049E00090000020D4110020410000202DE9F05F4C
:1049F0004648007800287DD0454800273D4601788C
:104A00004A1C0270434A1478042204EB440A02FA56
:104A10000AF2521E914201DB057001273E49002334
:104A20000A88FF2A01D2521C0A803C4A8E46098815
:104A300032F81490894500D1012383460021006992
:104A40009BF8006043E000BF4FF0000C6FB1344AA8
:104A5000545CFF2C01D2641C5454324C645C24B16D
:104A6000525CA24201D34FF0010C2E4A4FF00208D3
:104A700008FA0AF8525C02FA08F44C4502DA0AB164
:104A8000012400E0002433B12CB14FF0010808FAF2
:104A900001F848EA0000DFF8908018F801804245EC
:104AA0000AD01F4A525C424503D301228A40104378
:104AB00000261C4A02F80180BCF1000F05D014B991
:104AC00001228A401043164A5554491CC9B2174A5C
:104AD00012789142B8D3CBF8100059468BF8006099
:104AE0000BB1AEF8005008B1CA6852B1104A137841
:104AF000012200E003E09A409043CBF81000BDE8AB
:104B0000F09FBDE8F05F0020FFF736BE7100002087
:104B1000D8000020730000203C000020CC5A000880
:104B20003E0000203F00002040000020D45A000832
:104B3000D411002010B50A4809498078C97810B10D
:104B4000084A815409E00020074B084A02E0195442
:104B5000401CC0B21478A042F9D3012010BD00005F
:104B6000900000203F00002040000020D45A0008A0
:104B7000034810B5807800F055FE012010BD0000FC
:104B8000900000200C4908B5C8780022012804D004
:104B9000022804D0032806D103E0002008BD074AFC
:104BA00000E0074A521C00230093CB88897800F06C
:104BB0003BFE012008BD00009000002015120020DF
:104BC000410000200648C16941F40001C1614FF075
:104BD000E0214FF48010C1F80001FCF71BBD00007C
:104BE00000100240704700001B4B30B45B6800F0BF
:104BF0000F0203EB0212DFF864C0936892890CEB9A
:104C00004303C2F30905002205F1010CB2EB5C0F6E
:104C100008D200BF33F8044B521C21F8024BB2EB10
:104C20005C0FF7D30107890E01F1804202F5A04223
:104C3000D2F8001C10F0800F19BF48F6BF70084072
:104C400081F440504BF68F7108BF0840C2F8000C49
:104C5000284630BC7047000044000020006000403F
:104C6000704700007CB54048A0F120050178A0F114
:104C7000080411F01F0102D0012973D15CE0C37850
:104C8000394839492038394AC0788978082B69D29F
:104C9000DFE803F06804123F6868082C344820609D
:104CA000122047E0117800295CD018B1314820600B
:104CB0000A203FE03048FAE712780AB9012851D0BB
:104CC00018B12E480090002008E02D48FAE7009A1D
:104CD000137813B153881A440092401C8142F6D1D4
:104CE00000980178E9B32060408823E01278C2B3CD
:104CF00018B124480090002008E02348FAE7009A01
:104D0000137813B153881A440092401C8142F6D1A3
:104D1000E6E71E480090002005E0009B1A780AB1E3
:104D20001A440092401C8142F7D100980178C1B129
:104D300020600078019005E001A9684600F02AF89B
:104D400000280DD0A1880198814208D9104980B26D
:104D5000A0800978491E084201D101202871012054
:104D60007CBDFFE70020FBE790000020C55A00084B
:104D7000725B0008855B0008845B0008F25B00083A
:104D8000865B0008F45B0008F35B0008F65B000834
:104D9000C85A000830B5164A164C174BD578127908
:104DA000212D02D0222D20D115E02478A2421CD141
:104DB000124A1478124A12780CB9012A15D042B15D
:104DC000104A02601046104A1288104418600920E8
:104DD00008E00E4AF5E72078824206D10C481860B8
:104DE0000C4800880860012030BD002030BD000064
:104DF00090000020C95A000888000020C55A000809
:104E000073000020F25B0008705B0008865B0008FE
:104E10004C5B00086E5B000870B51C481B4D0078A9
:104E2000A5F1080510F01F040AD01848A5F11801D3
:104E3000174B4A780079012C06D0022C24D109E0C6
:104E400012481A3828601DE0F2B1897888421BD2D6
:104E5000002015E000F08F04200605D504F00F06B1
:104E60004FF48030B04001E00120A0400AB9220791
:104E70000AD18A68024207D0C9680142E8D00120FD
:104E800018802B60012070BD002070BD90000020B4
:104E90009411002070B5294A0146A2F1200410782F
:104EA00010F01F031046408804D0012B28D0022B9D
:104EB00026D110E0012823D129B100F0F7F9E088CC
:104EC00040F0020005E0002000F0F0F9E08820F05A
:104ED0000200E08030E0127902F08F06320605D53C
:104EE00006F00F024FF48035954001E00125B540F2
:104EF00062782AB1320703D0A2682A4200D008B1F2
:104F0000002070BD0D482038C06800EA050031B1AE
:104F100090B9304600F09CF9E06828430BE058B1A6
:104F20002069284208D13046FFF7EEF83046FFF7F7
:104F300097FEE068A843E060012070BD900000206B
:104F40002DE9F84F5C4F00200090387810F01F0FCB
:104F50006FD1B8784FF000094FF0010B4FF4803A51
:104F6000A7F1200600287AD0544801783046C0784E
:104F700009B901285DD008B1514C6BE0514C69E092
:104F80006078022804D0042844D0052860D144E089
:104F90006179B87881423BD170702079B07000207F
:104FA000494A4A4903E000BF02F80090401C0B88C0
:104FB0009842F9D30125B0460BFA05F0D8F808104D
:104FC000084202D02846FFF762F9D8F808100AFA1A
:104FD00005F0084203D045F08000FFF758F96D1C3A
:104FE000102DE9D34FF00110C8E902090120C8F8DB
:104FF0001090FFF7FFF8E0794006B8F8060002D5F8
:1050000040F0010001E020F00100A8F806001FE0D8
:1050100060881EE0E07800901AE00098C0B9A0789F
:1050200000F08F05280605D505F00F010AFA01F0FA
:1050300002E03CE00BFA05F0B16801432046B160A4
:10504000FFF78CF82846FFF739F9284600F0D6F824
:10505000207804442078002892D124E0FFE7C84655
:1050600086F8019001245D464FEA0A09B16805FA05
:1050700004F0084202D02046FFF709F9B16809FAA6
:1050800004F0084203D044F08000FFF700F9641CEC
:10509000102CEBD34FF00110C6E902080020C6F82F
:1050A0001080FFF7A7F8B8787178884202D0002006
:1050B000BDE8F88F0120FBE790000020C55A0008EA
:1050C000F25B0008865B000839000020C65A000821
:1050D0002DE9FC5F444E00273D463078BB4600F08A
:1050E0001F00B84601287DD1A6F12001487800288C
:1050F00075D03E48BA4602780846C0780AB90128F9
:1051000070D0894608B13A4C65E03A4C63E060786B
:10511000022804D0042809D005285AD117E0617963
:1051200099F80100814254D0608853E0A778307923
:10513000E5784FF00008B8424BD1B078A84248D18A
:105140002D484FF0010A10F807B0C55541E03079FD
:10515000B8423ED1A07800F08F000190000605D53E
:10516000019800F00F014FF4803001E00199012017
:1051700088400090B078A84217D1D9F80810009A5A
:1051800020461143C9F80810D9F80C109143C9F80A
:105190000C10FEF7E3FF0198FFF790F8019800F07C
:1051A0002DF8009948EA010813E05D4511D10099F6
:1051B00018EA010F0DD1D9F80810009A9143C9F8E7
:1051C0000810D9F80C109143C9F80C100198FFF79A
:1051D0005EF8207804442078002898D15046BDE835
:1051E000FC9FFFE70020FAE790000020C55A000866
:1051F000F25B0008865B0008390000200107890E79
:1052000001F1804202F5A042D2F8001C10F0800F9C
:1052100005D048F6CF700840C2F8000C70474CF635
:105220008F700840C2F8000C7047FEF711BF10B530
:10523000FFF7DCFBBDE81040FEF70EBF002918BFEA
:10524000704740F080000149086070474C5C0040A6
:105250000107890E01F1804202F5A042D2F8001C3C
:1052600010F0800F07D081F0100048F6BF710840A1
:10527000C2F8000C704781F480504BF68F710840E3
:10528000C2F8000C7047000001490020FFF7ACBCD9
:105290009000002000221146802000F009B8000094
:1052A00001490020FFF7A0BC9411002070470000C6
:1052B0002DE9F001284F054600F00F067868274BCE
:1052C00000EB0610006803EB4000531C012B1CD9B7
:1052D0005B081AD0001F4FF0000C13F0010F05D02F
:1052E000B1F800C040F804CF4FF0010C5B080CD0BF
:1052F00001EB4C045B1EB4F80080C0F804806488A5
:1053000040F8084F0CF1020CF2D1786800EB06105F
:105310004260B00000F1804000F5A040D0F8000CE1
:1053200000F03000102813D02807800E00F18041D3
:1053300001F5A041D1F8000C15F0800F0EBF4BF61F
:105340008F7380F0300048F6BF731840C1F8000C2E
:10535000BDE8F001104670474400002000600040A6
:105360002DE9F05F654D2C68654F664E14F4806F33
:10537000A5F104083BD000202860316800290EBF49
:1053800000224FF400514A0011433A68002A18BF26
:105390004FF4007241EA020214BF4FF48071002101
:1053A00042EA010141F41C41C8F80010574B56492C
:1053B0004FF04002186048684FF0C00302604FF0A1
:1053C000800282600B8048F2FF71C16050494FF447
:1053D000485008604F48026000F06EFA4E4801687D
:1053E00000291CBF084680476FF48060286014F4D1
:1053F000006F14D0D8F8000040F00800C8F8000092
:10540000D8F8000040F00400C8F8000043480168E4
:1054100000291CBF084680476FF40060286014F420
:10542000805F0ED0D8F8000020F00800C8F8000017
:105430003B48016800291CBF084680476FF4805034
:10544000286014F4007F06D03868002818BF804711
:105450006FF40070286014F4804F07D0306810B1EA
:105460003168022088476FF48040286014F4005FA0
:1054700007D0306810B13168012088476FF40050C0
:105480002860286810F4004F08BFBDE8F09F6FF453
:105490000049DFF8908040F68F7A48F60F7B00BF16
:1054A000C5F8009000F00F06B00000F1804707F546
:1054B000A047D7F8004C14F4004F0CD004EA0A00BF
:1054C000C7F8000C58F8261029B114F4006F0CBF6F
:1054D00004200220884714F0800F09D004EA0B0052
:1054E000C7F8000C58F8261000291CBF0820884770
:1054F000286810F4004FD3D1BDE8F09F445C004011
:10550000F45A0008F85A000844000020505C00409B
:10551000005C00404C5C0040E85A0008EC5A00086F
:10552000F05A0008FC5A0008014901200870704731
:105530002000002001498860FBF7F6BA0000002037
:1055400002E008C8121F08C1002AFAD1704770474C
:10555000002001E001C1121F002AFBD170470000AA
:10556000FCF762FF324EB06940F01C00B061324F70
:1055700030493846FBF73EFD30493148FBF73AFDEC
:1055800030493148FBF736FDB06940F00400B061A6
:105590002E4D74152C602E493846FBF72BFDB06953
:1055A00040F00400B0612C602A493846FBF722FD28
:1055B0002C604FF0E026284870612849F02081F8DF
:1055C000140D0020B061072030616FF00400FCF77B
:1055D000EFFE306920F001003061281F046021498E
:1055E0001F4848600168083888470A20FBF748FCD4
:1055F00000F052F9012000F047F800F03DF838B90A
:105600002C600A20FBF73CFC00F036F80028F7D0AD
:10561000306940F0010030616420FBF731FCFEF797
:1056200065FC00BF00F0C0F8FAF7A0FDFAE7000043
:105630000010024080590008000801408459000809
:10564000000C014088590008001001401408014076
:10565000685900086C5900083F771B000FE000E014
:10566000945900080000002010B500F08FF8BDE844
:105670001040FEF72BBC000002484078002800D004
:105680000120704770000020FEF7C0BD0020704769
:1056900010B59446012802D10BB1012B01D0002096
:1056A00010BD114C2069E168884201BFA078002834
:1056B00001206070F3D00D4821694FF0400200EBEB
:1056C00081116046FAF72EFD2069401C2061216996
:1056D0000020402908BF20612169E268914208BF8B
:1056E000A070402010BD00004C000020D6220020F9
:1056F0002DE9F04107461F4816460088824202DD28
:105700000020BDE8F0811C4800780028F9D01B4C2F
:1057100001224FF00008E26000E0B0B1626A12B10D
:10572000A269002AF9D1164D3246681C2F70FAF78B
:10573000F9FCE5611349A4F80480B0B260800978EF
:1057400001290BD86D1CE5610AE0C4F80C80C4F88F
:105750001C80A4F80480A4F80280D1E7401C60807B
:105760000020FFF709F8084800F807800120C4F876
:105770000C80C6E7D65A000871000020D80000202F
:10578000D4110020D45A00083E0000200548002112
:10579000017041608160012242708170C1600161CD
:1057A000704700004C00002070B51C4CA068616878
:1057B000884202BF2078002870BD194DE068A268B9
:1057C00005EB8011A5F5805000EB8210FBF758FD2A
:1057D000A068401C402808BF0020A060A168626843
:1057E0000020914208BF2070617849B16070E06884
:1057F000402205EB80110020FFF77AFF012070BDE9
:10580000E068401C402808BF0020E060E068216993
:10581000884204BF0120A070F0E700004C00002087
:10582000D622002070470000022818BF7047002BC6
:1058300008BF704710B51078114607281DD0134CCB
:10584000207820B16068A268904208BF10BD10485F
:10585000626800EB82101A46FAF764FC6068401C2C
:1058600060606068402804BF002060606068A168D4
:10587000884204BF0120207010BD0648006800283F
:1058800008BF10BD8068BDE8104000474C000020F4
:10589000D612002004000020054910B50020C87071
:1058A000FFF7E2FEFFF79EF9BDE81040FFF78AB967
:1058B000700000207047000006484FF00112017888
:1058C0000548C180002101704170C0E902210161D9
:1058D00070470000C45A00087000002070B51D4DCC
:1058E0000446294640F6C540FBF796FE0122521CAD
:1058F000642AFCD3184E40F6DD403146FBF78CFE9F
:105900000222521C642AFCD3294640F6C540FBF70C
:1059100083FE0221491C6429FCD3314640F6DD4058
:10592000FBF77AFE0D4814F0010F4FF0010107D08C
:105930000B4A1160016821F00F0141F0480106E0B7
:10594000026822F00F0242F007020260054801607F
:1059500070BD00000CED00E00700FA05000C0140EE
:10596000100C0140140C014000020310000203104F
:105970008000000400600310006000040100004883
:10598000FF870000FFFF000000E000006514000832
:105990008D14000835550008D90100082955000864
:1059A000322E302E300000000302020239060000C1
:1059B0000038014000A24A04000000001C5A000800
:1059C0000000000000000000000000002200220093
:1059D00025000000245A00082C5A00082411002039
:1059E0003811002039060000004400400051250213
:1059F000345A00083C5A0008000000000000000073
:105A0000000000002300230026000000445A000884
:105A10004C5A00085C110020701100200008014061
:105A20000A00000044000240010400005800024047
:105A300001050000000801400200000000080140CC
:105A40000300000080000240010700006C000240DB
:105A5000010600001D3C0008712700080929000804
:105A6000F1290008152900082D290008212900081E
:105A700099290008DD280008052800086527000886
:105A800025280008392900087D2700081D3C00084A
:105A9000652A0008FD2B0008E52C0008092C0008E9
:105AA000212C0008152C00088D2C0008D12B000893
:105AB000F92A0008592A0008192B00082D2C000883
:105AC000712A0008000003004002030301004000A7
:105AD00040000400010140004000000102024000BB
