:020000040800F2
:100000000047002001010008F9190008F91900084B
:10001000F9190008F9190008F91900080000000092
:10002000000000000000000000000000F9190008B6
:10003000F919000800000000F9190008455C0008E3
:100040001B0100081B0100081B0100081B01000820
:100050001B0100081B0100081B0100081B01000810
:100060001B0100081B0100081B01000859110008B2
:100070007511000891110008F51100081912000807
:100080003D120008A11200081B0100081B01000816
:10009000E58B00081B0100081B0100081B0100087C
:1000A0001B0100081B0100081B0100081B010008C0
:1000B0001B0100081B0100081B0100081B010008B0
:1000C0001B0100081B0100081B0100081B010008A0
:1000D0001B01000875610008696400081B01000825
:1000E0001B0100081B0100081B010008DFF80CD0F1
:1000F00000F02AF800480047E58D0008004700207E
:100100000648804706480047FEE7FEE7FEE7FEE7B1
:10011000FEE7FEE7FEE7FEE7FEE7FEE7115D00080B
:10012000ED00000840EA01039B0703D009E008C97D
:10013000121F08C0042AFAD203E011F8013B00F8AC
:10014000013B521EF9D27047064C074D06E0E068AD
:1001500040F0010394E8070098471034AC42F6D30E
:10016000FFF7C8FF449500086495000870B5174E66
:10017000F06A804710F0020F08BF70BD144C25686C
:10018000706A804761682844411AB1F5806FA4BF46
:100190006068084415DA0029D8BF70BD6068C0F3F4
:1001A0000900C0F5806081420DDC6068094AC0F337
:1001B0000900104407F0AAF90028C6BF6168084486
:1001C00070BD606070BD0146EFE700003893000825
:1001D00060000020FE3200202DE9F04F027883B04D
:1001E000A2F180031F2B04D800F086FC03B0BDE809
:1001F000F08F01F8012B0F4610F8011B06461F294E
:1002000080F06584DFE811F01F005E007A00930043
:10021000AC02BA02C002630416049C00AC00630482
:100220006304630463046304B30063018A019A01F5
:10023000FF0126028B023D04420447044C04510492
:100240005A04A90155043178781C0024062933D0BA
:1002500006DC052930D2DFE801F02F2F2F2F0E000A
:10026000FD2918D002DCF02926D10AE0FE2920D091
:10027000FF2918D020E006242246FE49FFF752FF4E
:100280001AE0FD490968002918BF202141F0170133
:100290000170012410E00021102201704270817071
:1002A000C170042408E04021017000214170022443
:1002B00002E04021017001243C7003B004F10210FF
:1002C000BDE8F08F307830B101280BD0FF203870B6
:1002D000EA4800F0F7BBEA497078096800F00100CD
:1002E000096805E0E6497078096800F0010049688E
:1002F000884700203870E14800F0E4BB3478002CD7
:100300000CBF0124012C06D0022C18BF002408D0F9
:100310003C7000F021BADB490120087003F00AFDAF
:10032000F6E7D8490220087003F0A6FCF0E7D548AC
:100330000024047003F0D6FC3C70012000F0C2BB26
:10034000308800EB4000C0000128D2D04008009067
:10035000B0F1004F80F0C383401E0028FCDCC8E7EA
:100360000120787000203870022000F0ABBB357897
:1003700074787079D6F8026014F0010F60F31F668C
:100380000CD0C14815F0010F416841F08061416017
:100390004FF480400CBFBD49BD49086014F0020F06
:1003A0000CD0B94815F0020F416841F080614160FE
:1003B0004FF400500CBFB549B549086014F0040F64
:1003C00008D0A80810F0010F4FF020000CBFB14971
:1003D000B149086014F0800F1CBFE80908F0C6FEA0
:1003E000F6B30120AD4A5368DFF8B4C2DFF8B48237
:1003F000A549ACF10406A8F1040900BF14F0010FEF
:100400000BD0D1F804A04AF0806AC1F804A0DCF84F
:1004100000A0CAF3803AAA452BD114F0020F0CD0E9
:10042000D1F804A04AF0806AC1F804A0D6F800A070
:10043000CAF3403ABAEB550F1BD114F0040F06D0A3
:10044000D8F800A0CAF3401ABAEB950F11D114F0F6
:10045000200F18BF5FEA551A0BD114F0800F00E08F
:100460000DE00CD0D9F800A0CAF3801ABAEBD51F62
:1004700005D0D2F804A0AAEB030A8245BED3824875
:10048000416841F080614160854909684268C1F373
:10049000803142F08062426083480068C0F340309F
:1004A00041EA40007F49096801F0200140EAD1019A
:1004B0007E480268006802F0800241EA121100F0F2
:1004C000400041EA40003870794800F0FBBAF1780A
:1004D000306861F31F6038B17649814209D86948B4
:1004E00001214170416014E0FF203870724800F033
:1004F000E9BA644900224A70704A0244B2FBF0F043
:10050000022898BF012003D96D4AA2FB00204008B1
:10051000486000203870684800F0D4BA3478711C04
:10052000002C08BF4FF48074204605F0C1F900206C
:100530003870E01DC0080121401CECE0307800F06C
:1005400003014A1C4F49C0F380000A764876002018
:1005500038704FF0011000F0B5BA0020387016F86E
:10056000010B07F101084FF00109CA46471E28BFD9
:10057000454D44D316F8014B14F03F0008BF40200E
:10058000C01D4FEAD00B686814F0800F40F0806007
:1005900068604C48016821F4700106D041F4000104
:1005A000016041143A48016006E041F440110160E5
:1005B00036494FF40050086042463146204604F068
:1005C0002BF86FB9686840F0806068603D4801684A
:1005D00021F4700141F4401101602C49401408607D
:1005E00014F0800F04D0D844DA4409F1010904E082
:1005F00009EB0B005E4400F101097F1EBAD24AEA02
:10060000094000F05FBA002007F8010B012516F839
:10061000010BA846B0F1010A18D300BF16F8019BE0
:1006200019F03F0008BF4020C01DC4083A463146BB
:10063000484601F07FFF2819451C264419F0800F19
:100640001CBF2744A044BAF1010AE7D248EA05409A
:1006500000F038BA0B4D16F8011B0020A97641B105
:1006600005F11C0C05F124034FEA010216F8014BB9
:100670002AE04CE04C9200080C000020010002002F
:10068000080000200801002000000140140801407B
:1006900010080140140C0140100C0140001000E053
:1006A0000C0801400C0C014008080140080C0140F6
:1006B0000100060080A8120101000400FF5025027D
:1006C000ABAAAAAA040801400CF8014B23F8020BBC
:1006D0002044521ECAD1D1B105F11B0205F13203EB
:1006E00011F0010F05D012F801CFA0EB0C0023F898
:1006F000020F5FEA510C0AD05478001B588012F8A0
:10070000024F001B23F8040FBCF1010CF4D10020B0
:100710003870481C012141EA004000F0D3B9F24989
:100720000878022815D13078C876897E884210D2A0
:100730000E2001F0ABF901F041FD00213970787015
:10074000010AB970010CF970000E3871E74800F029
:10075000B9B9FF2087F800004FF0011000F0B2B9DE
:10076000E14831780173B6F801100182B6F8031040
:10077000418200203870DE4800F0A4B93946304686
:1007800000F0D2F900F09EB9D748007801280FD0C8
:10079000022877D0002038707870B8700320F17884
:1007A00011F0020F18BF40F4802040F08B8139E136
:1007B000DFF840934FF0000A504607F1030889F82C
:1007C00000A0741C34F8025B7DB314F801BB1BF06D
:1007D000020F04BF681E019043D01BF0010F1CBF25
:1007E000C148048A0FD00021584603F0CDFF0228EB
:1007F00002D0012807D061E0641E5FD399F8001091
:100800000029F0D05AE06C1E58D324B91BF0010F18
:1008100018BF4FF00E0BB448058A6946584603F0DE
:10082000B3FF022802D0012807D047E06D1E45D350
:1008300099F800100029F0D040E0009908F8011B59
:1008400000990AF1010A090A08F8011B0099090C2C
:1008500008F8011B0099090E08F8011B641ED4D288
:100860002CE0E17854F8040B61F31F6000909E487F
:10087000058A6946584603F087FF022803D00128FD
:1008800008D01BE023E06D1E18D399F80010002952
:10089000EFD013E001980AF1010A401E0190E0D266
:1008A0009148048A00210E2003F06EFF022805D132
:1008B000641E03D399F800100029F3D087F800A034
:1008C0004FEA1A217970B870A8EB070067E7FD1CA2
:1008D0000197884F4FF00008404687F80080824912
:1008E0003278741CCA76897E8A4247D234F802BBB9
:1008F000BBF1000F42D014F8019B19F0010F0CBF9F
:100900004FF00A0A4FF00B0A504601F0BFF819F0F9
:10091000020F19BF7448048AABF10100029043D062
:100920000021484601F096FE022802D0012806D098
:100930006CE0641E6AD339780029F1D066E0BBF11F
:10094000010B63D3BBF1000F0AD06748048A6946E4
:10095000484601F07FFE02280BD001280FD055E059
:10096000BAF10A0F1CBF0A2001F090F84FF00E09EF
:10097000EBE7641E4AD339780029E8D046E00099B5
:1009800005F8011B009908F10108090A05F8011B87
:100990000099090C05F8011B0099090E05F8011BC7
:1009A000BBF1010BCED231E0E17854F8040B61F3D6
:1009B0001F6000904C48B0F810B06946484601F0FE
:1009C00049FE022802D0012807D01FE0BBF1010B2D
:1009D0001CD339780029F0D018E0029808F10108FA
:1009E000401E0290E0D2BAF10A0F1CBF0A2001F0AB
:1009F0004DF83D48048A00210E2001F02BFE02280C
:100A000004D1641E02D339780029F4D001994FEA49
:100A1000182281F8008001994A7001998870019824
:100A2000281ABCE6B6F801104FF4802202EB81418F
:100A3000084347E02C490878012802D002280BD04F
:100A40000FE03179D6F8010061F31F60009069462C
:100A5000002003F099FE10E03078C876897E884245
:100A600001D3FF200AE0082001F010F83179D6F810
:100A7000010061F31F6002F0ADFD002038701C48DA
:100A800020E03946304605F0BDF81BE039463046D7
:100A900005F060F816E03946304604F069FF11E0D1
:100AA0003946304604F084FF0CE0384605F07AF809
:100AB00008E03946304605F00FF803E03946304685
:100AC00004F09EFF03B000F10110BDE8F08FFF209D
:100AD00007F8010C03B04FF00110BDE8F08F401E85
:100AE0000090FCD105E40000080100200500010091
:100AF0000100050020000020FF2008704FF00110C9
:100B000070470000074800210122017041704260D7
:100B100001736423038241824161027641768176CA
:100B200003F0E0B8080100202DE9F04FFF4E054624
:100B300000233078FE4F8FB001281CD0022800F02F
:100B40008881AC466D1C15F8010B50B115F8012BCE
:100B500012F0020F02D012F0100F00D02D1D401E17
:100B6000F4D10B704B70A5EB0C0002210FB041EAE1
:100B70000040BDE8F08FCDE904510020891C0B90A6
:100B800000913B7007900A9095F80180AD1CB8F178
:100B9000000F00F0538100BF15F8019B19F0020F00
:100BA00079D00799A1B3348A09F0110001280BD13B
:100BB00001A9484603F0E8FD02280DD1641E44D384
:100BC00039780029F4D0A6E001A90E2003F0DCFD5D
:100BD000022804D000210791012836D107E0641EC5
:100BE00002D339780029EFD00021079193E0DDE9A5
:100BF00000120A70019A0099120A01F8012F019A55
:100C0000120C01F8012F019A120E4A70891C0091F2
:100C100019F0100F40D0E87855F804ABB6F812B0D0
:100C200060F31F6A19F0010F18BF348A0ED000213B
:100C3000484603F0A9FD022802D0012806D06AE048
:100C4000641E68D339780029F1D064E0348A01A9A0
:100C5000484603F099FD022802D0012806D010E092
:100C6000641E0ED339780029F1D00AE07269019927
:100C70001140514505D0BBF1010B02D33978002951
:100C8000E4D07169019A1140514518BF40F010003D
:100C9000012840D138E050E0348A19F0010F13D018
:100CA000079989BB0021484603F06EFD022805D054
:100CB000012804BF0121079126D02CE0641E2AD30D
:100CC00039780029EED026E001A9484603F05CFD02
:100CD000022802D0012806D01DE0641E1BD33978FB
:100CE0000029F1D017E0DDE900120A70019A00999D
:100CF000120A01F8012F019A120C01F8012F019A32
:100D0000120E4A70891C009100210A910B99491C0E
:100D10000B913978F1B3B8F1000F0BD015F8011B26
:100D200011F0020F02D011F0100F00D02D1DB8F1FC
:100D30000108F3D101284BD080E00798002818BFA4
:100D4000348A1AD001A90E2003F01EFD02282ED0ED
:100D50000128E0D1DDE90001017001990098090A3C
:100D600000F8011F0199090C00F8011F0199090EF3
:100D70004170801C009000200790E97855F8040B22
:100D800019F0200F61F31F6001901ABF70610120FC
:100D9000348A00E017E0B9D101A9484603F0F4FC19
:100DA00002280AD0012808BF0121AED0B3E7641E93
:100DB000B1D339780029C5D0ADE7641EABD33978FB
:100DC0000029E9D0A7E7B8F101087FF4E5AEB1E763
:100DD0000799002918BF348A20D001A90E2003F0FA
:100DE000D3FC022802D0012806D027E0641E25D3B8
:100DF00039780029F1D021E0DDE900120A70019A6A
:100E00000099120A01F8012F019A120C01F8012F22
:100E1000019A120E4A70891C00910FE00A9900296C
:100E200018BF348A0AD000210E2003F0ADFC02283E
:100E300004D1641E02D339780029F4D0059A0B99A5
:100E400011700599487005990098411A0498281A5C
:100E50008CE600200491891C06950C9000913B7053
:100E600003900A9015F8011BF176B27E914280F052
:100E7000628115F8018BB8F1000F00F05C8100BFB2
:100E800015F8019B19F0010F14BF0B240A2419F067
:100E9000020F74D00A9981B30398B6F810A0A0424B
:100EA00008BF19F0100F0FD003980A2803D00A20AA
:100EB000039000F0EBFD02A90E2001F0CBFB02280D
:100EC00012D000210A9105E002A9484601F0C2FBB8
:100ED000022802D0012841D110E0BAF1010A3DD325
:100EE00039780029F0D0D9E0BAF1010A02D3397873
:100EF0000029E0D000210A91D0E010E0009A029988
:100F00001170029A0099120A01F8012F029A120C2C
:100F100001F8012F029A120E4A70891C009119F0F3
:100F2000100F48D0E87855F804AB03E00801002022
:100F30002000002060F31F6A0398B6F812B0A042A8
:100F400003D02046039400F0A1FD348A00214846D6
:100F500001F080FB022802D0012806D09EE0641E2A
:100F600044D339780029F1D098E0348A02A9484660
:100F700001F070FB022803D0012807D011E036E011
:100F8000641E0ED339780029F0D00AE07269029904
:100F90001140514505D0BBF1010B02D3397800292E
:100FA000E3D07169029A1140514518BF40F010001A
:100FB000012873D16DE00A99A1BB0398A04203D028
:100FC0002046039400F062FD348A0021484601F077
:100FD00041FB022805D0012804BF01210A9158D005
:100FE0005CE0641E5AD339780029EED056E00A98A6
:100FF00060B303980A2803D00A20039000F046FD4E
:10100000B6F810A002A90E2001F024FB022802D09D
:10101000012808D042E0BAF1010A3FD3397800290B
:10102000F0D03BE035E000990298087002990098F2
:10103000090A00F8011F0299090C00F8011F029922
:10104000090E4170801C009000200A90E97855F844
:10105000040B19F0200F61F31F6002901CBF706138
:10106000012016D10398A04203D02046039400F03B
:101070000DFD348A02A9484601F0ECFA022802D09C
:10108000012806D00AE0641E08D339780029F1D07F
:1010900004E00C99491C0C91397891B1B8F1000F1A
:1010A0000CD000BF15F8011B11F0020F02D011F097
:1010B000100F00D02D1DB8F10108F3D1012805D083
:1010C00039E0B8F101087FF4DBAEF7E703980A28AE
:1010D0001CBF0A2000F0DAFC348A0A9800B302A987
:1010E0000E2001F0B7FA022802D0012806D022E033
:1010F000641E20D339780029F1D01CE0009A0299AF
:101100001170029A0099120A01F8012F029A120C2A
:1011100001F8012F029A120E4A70891C00910AE010
:1011200000210E2001F096FA022804D1641E02D399
:1011300039780029F4D0049A0C99117004994870F8
:1011400004990098411A06980FB0281A41EA004005
:10115000BDE8F08F70470000044910B5086800F042
:101160000F004860FFF7F6FF10BD000000000240CE
:1011700070470000044910B50868C0F3031002016D
:101180004A60FFF7F5FF10BD000002407047000005
:10119000044910B50868C0F3032002024A60FFF753
:1011A000F5FF10BD000002401148816A09684A68D5
:1011B0000146002A496B49681CBF00297047426BF1
:1011C0005161426B4FF0000182F82110416889891A
:1011D000426841F040019181016BC968022908BF52
:1011E0007047006B0168002908BF7047012008475D
:1011F00058920008044910B50868C0F30330020390
:101200004A60FFF7D1FF10BD00000240014806F020
:1012100003B8000058920008044910B50868C0F3EC
:10122000034002044A60FFF7F1FF10BD00000240D6
:10123000014805F0F1BF000090920008044910B584
:101240000868C0F3035002054A60FFF7F1FF10BDC4
:10125000000002401148816A09684A680146002A74
:10126000496B49681CBF00297047426B5161426B52
:101270004FF0000182F8211041688989426841F0ED
:1012800040019181016BC968022908BF7047006B5A
:101290000168002908BF70470120084790920008A4
:1012A000044910B50868C0F3036002064A60FFF7FE
:1012B000D1FF10BD00000240012818BF704730B4B4
:1012C0003248426942F001024261002330480F2453
:1012D0004FF0E0224FF0010C08294FD2DFE801F077
:1012E0004E040D17222D3843836044604FF4006094
:1012F000C2F88002C2F8000140E0C361F0234360FD
:101300004FF48050C2F88002C2F8000136E0036357
:101310004FF4706343604FF40050C2F88002C2F88B
:1013200000012BE043644FF4704343604FF480406E
:10133000C2F88002C2F8000120E083654FF47023F8
:1013400043604FF40040C2F88002C2F8000115E08B
:10135000C3664FF4700343604FF48030C2F88002DC
:10136000C2F800010AE0C0F880304FF070634360BB
:101370004FF40030C2F88002C2F8000105480CFAB0
:1013800001F102781143017030BC70470010024037
:101390000000024038000020012818BF704730B418
:1013A000DFF8D8C09CF80000002804BF30BC7047AC
:1013B000002001244FF0E022314B08294BD2DFE816
:1013C00001F04A040E18222C36404FF40065C2F892
:1013D0008051BFF34F8FBFF36F8F98603BE04FF4A6
:1013E0008055C2F88051BFF34F8FBFF36F8FD86124
:1013F00031E04FF40055C2F88051BFF34F8FBFF377
:101400006F8F186327E04FF48045C2F88051BFF317
:101410004F8FBFF36F8F58641DE04FF40045C2F843
:101420008051BFF34F8FBFF36F8F986513E04FF478
:101430008035C2F88051BFF34F8FBFF36F8FD866EE
:1014400009E04FF40035C2F88051BFF34F8FBFF36E
:101450006F8FC3F8800004FA01F09CF8001031EAA5
:1014600000008CF800001CBF30BC70470548416983
:1014700021F00101416130BC7047000038000020BC
:10148000000002400010024045F6C051484381B0C0
:10149000012804BF01B0704740080090B0F1004F30
:1014A00004D2401E0028FCDC01B07047401E0090B2
:1014B000FCD101B07047000030B505464FF4302034
:1014C00000F04AF8042818BF30BD0A4C206940F0EB
:1014D000020020616561206940F0400020614FF406
:1014E000302000F039F8216941F6FD721140216188
:1014F00030BD0000002002400248016941F0800137
:10150000016170470020024070B506460D464FF459
:10151000005000F021F8042818BF70BD074C206966
:1015200040F00100206135804FF4005000F014F8C5
:10153000216941F6FE721140216170BD0020024018
:1015400003480249416003494160704723016745F0
:1015500000200240AB89EFCD174902460420CB683A
:1015600013F0010F25D1CB6813F0040F18BF022030
:101570001AD1C96811F0100F18BF032014E0CB680E
:10158000042013F0010F18BF01200AD1CB6813F01B
:10159000040F18BF022004D1CB6813F0100F18BF3E
:1015A0000320521E012804D0002A18BF70470520CE
:1015B0007047002AE3D1FAE70020024081B00028FA
:1015C00004BF01B0704714498A6912F0010F03D1BA
:1015D0008A6942F001028A6110F4805FC0F342120E
:1015E00000F01F030D49C0F3032002FA03F200FAD2
:1015F00003F007D0CB6923EA020210430090C861D0
:1016000001B070474B6823EA0202104320F0E0600B
:101610000090486001B07047001002400000014097
:101620002DE9F001CB78002203F00F0C13F0100F1E
:101630001CBF8B7843EA0C0C0B784FF00F0613F0AD
:10164000FF0F4FF0010518BF046819D00F8805FA85
:1016500002F31F409F420FD1970006FA07F824EAD1
:1016600008040CFA07F73C43CF78282F08BF4361E2
:1016700002D0482F08BF0361521C082AE6D3046039
:101680000A88FF2A87BF44680022BDE8F00170473E
:1016900002F108030F8805FA03F31F409F420FD1A0
:1016A000970006FA07F824EA08040CFA07F73C4307
:1016B000CF78282F08BF4361CF78482F08BF036138
:1016C000521C082AE4D34460BDE8F00170470000D2
:1016D0000F2984BF00207047F0B504460D463448FA
:1016E000A4F180411F461646B1F5843104BF8069DC
:1016F000C0F3800035D0A4F18042B2F5863204BF39
:101700008069C0F3C0002CD0A4F18042B2F58832C9
:1017100004BF8069C0F3001023D0A4F18042B2F569
:101720008A3204BF8069C0F340101AD0A4F180420D
:10173000B2F58C3204BF8069C0F3801011D0A4F1DF
:101740008042B2F58E3204BF8069C0F3C01008D069
:10175000A4F18042B2F5903204BF8069C0F300204A
:1017600000D118B90121204600F024F86FB90120FA
:10177000A840022E04BFE16821EA000004D0032E35
:1017800003D1E16802260843E060082D24BF241D30
:10179000083D2168A8000F2282409143216047EA5A
:1017A000860101FA00F02168084320600120F0BDA5
:1017B000001002402DE9F001344A354BDFF8D4C067
:1017C000354C364D364E374FDFF8DC8000292FD0B0
:1017D000404504BF906940F0040025D0984204BF02
:1017E000906940F008001FD0604504BF906940F048
:1017F000100019D0A04204BF906940F0200013D01F
:10180000A84204BF906940F040000DD0B04204BF30
:10181000906940F0800007D0B84207BF906940F45B
:101820008070BDE8F00170479061BDE8F00170473D
:10183000404504BF906920F00400F5D0984204BFF1
:10184000906920F00800EFD0604504BF906920F057
:101850001000E9D0A04204BF906920F02000E3D03E
:10186000A84204BF906920F04000DDD0B04204BF20
:10187000906920F08000D7D0B84204BF906920F46E
:101880008070D1D0BDE8F001704700000010024028
:10189000000C0140001001400014014000180140FC
:1018A000001C014000200140000801402DE9F041EA
:1018B0000278FF27A2F1D003072B7AD801F8012B79
:1018C0000C4610F8011BD03908296ED2DFE801F070
:1018D000041215181C2A4A5E4048006804F8010BDF
:1018E000010A04F8011B010C04F8011B000E04F8A6
:1018F000010B5BE0FFF724FE58E0FFF7FDFD55E02C
:101900000068FFF7D9FD51E082880168501E80B25F
:101910004CD300BF11F8012BFF2A1BD1401E80B20F
:10192000F8D243E08188D0F8008038293ED8851D60
:10193000481E86B23AD300BF15F8011B2EB115F828
:10194000010B41EA0021701E86B24046FFF7DCFD24
:10195000042801D0FF2729E0711E8EB208F1020889
:10196000EAD223E0828801683E2A1FD8002004F8CA
:10197000010B501E80B219D330B111F8012B401E5B
:1019800004F8012B80B2F7E70F780FE0BFF34F8F19
:1019900013480168134A01F4E06111430160BFF389
:1019A0004F8F00BFFDE704E0FFE7641E2770BDE82E
:1019B000F0810D480268002A02BFFF200870BDE8D0
:1019C000F0810A490A48C368806801EB8311094B1A
:1019D0005268BDE8F04103EB80101047002004E09E
:1019E0000CED00E00400FA0504000020FE220020B7
:1019F0004C000020FE12002072B61D48006880F3E3
:101A000008881C4EB06940F01000B0611A4C4FF4C9
:101A10000055656119492046FFF702FEB06940F0A4
:101A20001000B061656116492046FFF7F9FD256198
:101A3000002665616420FFF727FD2561656164204C
:101A4000FFF722FD25614FF47A70FFF71DFD761C2C
:101A5000052EEEDBBFF34F8F0A4801680A4A01F4F6
:101A6000E06111430160BFF34F8F00BFFDE700004D
:101A7000000000080010024000100140F89100082A
:101A8000FC9100080CED00E00400FA052DE9F00FD0
:101A9000754B5978002900F0E28074494A6842F099
:101AA00080624A60724C4FF40059C4F800904A6852
:101AB00042F080624A60251D4FF480422A60D1F8CE
:101AC00004C04CF0806CC1F804C02260D1F804C09E
:101AD0004CF0806CC1F804C02A60D1F804C04CF00E
:101AE000806CC1F804C02260D1F804C04CF0806C56
:101AF000C1F804C0C5F80090D1F804C04CF0806C67
:101B0000C1F804C02A60D1F804C04CF0806CC1F860
:101B100004C02260D1F804C04CF0806CC1F804C04D
:101B20002A60D1F804C04CF0806CC1F804C0226077
:101B3000504F20263E6093F81B8003EB480ABAF80A
:101B400024307BB1D1F804C04CF0806CC1F804C0E3
:101B50002A60D1F804C04CF0806CC1F804C0226047
:101B60005B1EEFD1444B18F80330DFF810815B1E89
:101B700017D000BF10F0010F14BF3E60C8F800601E
:101B8000D1F804C04CF0806CC1F804C02A60D1F8D0
:101B900004C04CF0806CC1F804C0226040085B1E99
:101BA000E8D1BAF83430002B4CD010F0010F0CBF44
:101BB000C8F800603E60486840F0806048602A6075
:101BC000486840F08060486022603E60581E0BD03C
:101BD0004B6843F080634B602A604B6843F080633E
:101BE0004B602260401EF3D1486840F0806048603E
:101BF000C4F80090486840F0806048602A604868F7
:101C000040F0806048602260486840F08060486032
:101C10002A60486840F0806048602260486840F070
:101C200080604860C5F80090486840F08060486077
:101C30002A60486840F08060486022603E60BDE8ED
:101C4000F00F70474B6843F080634B60C4F800901E
:101C500010F0010F14BF3E60C8F80060CAE7BDE88D
:101C6000F00F00F00DB80000080100200000014056
:101C700010080140100C014024010020140C014008
:101C80002DE9F84FFE4C616841F080616160DFF83A
:101C9000F4834FF4005BC8F800B0616841F08061E4
:101CA000616008F104074FF480453D60DFF8D8C358
:101CB000DCF804104A0801290BD013460092B2F157
:101CC000004F38BF531E80F00482002BC8BF5B1E3C
:101CD000FBDC636843F080636360C8F8005001294F
:101CE0000BD013460092B2F1004F38BF531E80F064
:101CF000F481002BC8BF5B1EFBDC636843F080638C
:101D000063603D6001290BD013460092B2F1004F91
:101D100038BF531E80F0E581002BC8BF5B1EFBDC83
:101D2000636843F080636360C8F8005001290BD0FA
:101D300013460092B2F1004F38BF531E80F0D58198
:101D4000002BC8BF5B1EFBDC636843F080636360ED
:101D5000C7F800B0636843F0806363603D600129A9
:101D60000BD013460092B2F1004F38BF531E80F0E3
:101D7000C081002BC8BF5B1EFBDC636843F080633F
:101D80006360C8F8005001290BD013460092B2F1ED
:101D9000004F38BF531E80F0B081002BC8BF5B1EC0
:101DA000FBDC636843F0806363603D6001290BD016
:101DB00013460092B2F1004F38BF531E80F0A2814B
:101DC000002BC8BF5B1EFBDC636843F0806363606D
:101DD000C8F8005001290BD013460092B2F1004F11
:101DE00038BF531E80F09281002BC8BF5B1EFBDC06
:101DF000DFF898922026C9F800609CF81BA00CEB35
:101E00004A0EBEF824C0BCF1000F1BD0636843F03B
:101E1000806363603D60012904D00092B2F1004FFD
:101E200080F07881636843F080636360C8F8005095
:101E3000012904D00092B2F1004F80F07381BCF10F
:101E4000010CE3D1924B1AF80330DFF848A2B3F14A
:101E5000010C23D010F0010F14BFC9F80060CAF8BC
:101E60000060636843F0806363603D60012904D0D3
:101E70000092B2F1004F80F05E81636843F08063AE
:101E80006360C8F80050012904D00092B2F1004FFD
:101E900080F059814008BCF1010CDBD1BEF8343030
:101EA000002B7ED010F0010F0CBFCAF80060C9F8FB
:101EB0000060606840F0806060603D6001290BD088
:101EC00010460092B2F1004F38BF501E80F043819F
:101ED0000028C8BF401EFBDC606840F08060606086
:101EE000C8F8005001290BD010460092B2F1004F03
:101EF00038BF501E80F034810028C8BF401EFBDC74
:101F0000C9F800605B1E18BFBC461DD0606840F079
:101F100080606060CCF80050012905D01046009226
:101F2000B2F1004F80F02081606840F08060606016
:101F3000C8F80050012905D010460092B2F1004FB8
:101F400080F016815B1EE1D1606840F080606060C7
:101F5000C8F800B0606840F0806060603D600129B2
:101F60000AD010460092B2F1004F38BF501E7DD209
:101F70000028C8BF401EFBDC606840F080606060E5
:101F8000C8F8005001293ED010460092B2F1004F2F
:101F900038BF501E6BD20028C8BF401EFBDC32E0A9
:101FA000FFE7636843F080636360C8F800B010F037
:101FB000010F14BFC9F80060CAF80060606840F003
:101FC000806060603D6001290AD010460092B2F145
:101FD000004F38BF501E7AD20028C8BF401EFBDC1D
:101FE000606840F080606060C8F8005001290AD045
:101FF00010460092B2F1004F38BF501E68D2002840
:10200000C8BF401EFBDC606840F0806060603D60DF
:1020100001290AD010460092B2F1004F38BF501E7D
:102020006FD20028C8BF401EFBDC606840F08060B3
:102030006060C8F8005001290AD010460092B2F141
:10204000004F38BF501E75D20028C8BF401EFBDCB1
:10205000606840F080606060C7F800B0606840F081
:10206000806060603D6001291AD001E084E087E073
:1020700010460092B2F1004F38BF501E6FD20BE0F5
:10208000000001401008014008010020100C014030
:1020900024010020140C01400028C8BF401EEEDCC3
:1020A000606840F080606060C8F8005001290AD084
:1020B00010460092B2F1004F38BF501E79D200286E
:1020C000C8BF401EFBDCC9F80060BDE8F88F5BE0CC
:1020D0005EE05B1E0093FCD1FBE55B1E0093FCD130
:1020E0000BE65B1E0093FCD11AE65B1E0093FCD14D
:1020F0002AE65B1E0093FCD13FE65B1E0093FCD1F9
:102100004FE649E05B1E0093FCD15DE65B1E009349
:10211000FCD16DE6531E00933FF484AE5B1E00932A
:10212000FCD17FE6531E00933FF489AE5B1E009303
:10213000FCD184E635E0531E00933FF49EAE5B1E57
:102140000093FCD199E6531E00933FF4A3AE5B1EAF
:102150000093FCD19EE6401E0090FCD1BCE624E03A
:10216000401E0090FCD1CBE6401E0090FCD1DBE687
:10217000401E0090FCD1E5E6401E0090FCD1FBE63D
:10218000401E0090FCD13EE7401E0090FCD127E7A6
:10219000401E0090FCD136E7401E0090FCD144E781
:1021A00007E0401E0090FCD152E7401E0090FCD199
:1021B00076E7401E0090FCD185E700002DE9F80786
:1021C000D84A506840F080605060D74D57142F6057
:1021D000506840F0806050602E1D4FF4804CC6F86F
:1021E00000C0D24C61684B0801290BD018460093FF
:1021F000B3F1004F38BF581E80F03F810028C8BFA0
:10220000401EFBDC506840F080605060C5F800C0A4
:1022100001290BD018460093B3F1004F38BF581E68
:1022200080F02F810028C8BF401EFBDC506840F0C2
:10223000806050603760506840F080605060C6F841
:1022400000C001290BD018460093B3F1004F38BFEE
:10225000581E80F01A810028C8BF401EFBDC506861
:1022600040F080605060C5F800C001290BD01846CE
:102270000093B3F1004F38BF581E80F00B81002847
:10228000C8BF401EFBDC506840F080605060C6F85C
:1022900000C001290BD018460093B3F1004F38BF9E
:1022A000581E80F0FB800028C8BF401EFBDC506831
:1022B00040F080605060C5F800C001290BD018467E
:1022C0000093B3F1004F38BF581E80F0EB80002818
:1022D000C8BF401EFBDCE47ECCB1506840F080609B
:1022E0005060C6F800C0012903D00093B3F1004F3D
:1022F0007DD2506840F080605060C5F800C0012970
:1023000003D00093B3F1004F72D2641EE5D1DFF821
:1023100020924FF000081F24506840F08060506009
:10232000C6F800C0012903D00093B3F1004F7DD25D
:10233000D9F80000C0F3C01A506840F080605060C7
:10234000C5F800C0012903D00093B3F1004F6ED24D
:1023500048EACA704FEA5008641EDDD1506840F068
:10236000806050602F60506840F080605060C6F818
:1023700000C001290AD018460093B3F1004F38BFBE
:10238000581E79D20028C8BF401EFBDCD9F80000D7
:10239000C0F3C014506840F080605060C5F800C0C1
:1023A00001290AD018460093B3F1004F38BF581ED8
:1023B0006FD20028C8BF401EFBDC48EAC4705468D6
:1023C00044F080645460C6F800C001290AD01C465D
:1023D0000093B3F1004F38BF5C1E6FD2002CC8BF12
:1023E000641EFBDC546844F08064546001E05DE0EE
:1023F00065E0C5F800C001290AD01C460093B3F17E
:10240000004F38BF5C1E7FD2002CC8BF641EFBDCAF
:10241000546844F0806454603760546844F08064C9
:102420005460C6F800C001290DD001E04FE056E02D
:102430001C460093B3F1004F38BF5C1E68D2002CDD
:10244000C8BF641EFBDC546844F080645460C5F867
:1024500000C0012904BFBDE8F80770471946009382
:10246000B3F1004F38BF591E56D20029C8BF491ECC
:10247000FBDCBDE8F80770473AE0401E0090FCD155
:10248000C0E6401E0090FCD1D0E6401E0090FCD17A
:10249000E5E631E0401E0090FCD1F4E6401E0090DD
:1024A000FCD104E7401E0090FCD114E7581E0090B8
:1024B0003FF41FAF401E0090FCD11AE720E0581EE9
:1024C00000903FF422AF401E0090FCD11DE7581E43
:1024D00000903FF42DAF401E0090FCD128E7581E1D
:1024E00000903FF435AF401E0090FCD130E70BE088
:1024F000401E0090FCD149E7401E0090FCD15CE7F3
:10250000641E0094FCD16DE7641E0094FCD17FE74B
:10251000641E0094FCD196E7491E0091FCD1BDE8F1
:10252000F807704700000140100801400801002032
:10253000080C01402DE9F74F81B0019810F03F02DF
:1025400008BF402210F0400F3D48DFF8F0804FF404
:102550000053D0F804C0A8F104094CF0806CC0F816
:1025600004C014BFC9F80030C8F80030002A19BFF1
:102570004FF0200E4FF4804704B0BDE8F08F00BF4D
:10258000304B002508245B6811F801CB5E0834E06D
:102590001CF0010F14BFDFF8B0A0DFF8B0A0CAF83C
:1025A00000E0D0F804A04AF0806AC0F804A0C8F89F
:1025B0000070012B04D0B2460096B6F1004F31D224
:1025C000DFF88CA0DAF800A0D0F804B0CAF3C01A83
:1025D0004BF0806BC0F804B0C9F80070012B04D038
:1025E000B3460096B6F1004F22D26D08521E4FEA54
:1025F0005C0C45EACA15641E01D0002AC8D1DDF87A
:1026000004C025FA04F31CF0800F06D0DDF80CC0DE
:102610008CF80030039B5B1C0393002AB0D104B0FC
:10262000BDE8F08FBAF1010ACDF800A0FAD1C7E7F2
:10263000BBF1010BCDF800B0FAD1D6E71408014088
:102640000000014008010020100C0140140C014062
:10265000080C0140034A52780AB100F005B800F0B6
:102660000BBA0000080100202DE9F84FFA4A536820
:1026700043F080635360DFF8E4C34FF40058CCF8B4
:102680000080536843F0806353600CF1040B4FF4F7
:102690008043CBF80030546844F080645460CCF838
:1026A0000030546844F080645460CBF80080546873
:1026B00044F080645460CBF80030546844F0806487
:1026C0005460CCF80030546844F080645460CBF817
:1026D0000030546844F080645460CCF80030E04C22
:1026E000E47E6CB1556845F080655560CBF80030EC
:1026F000556845F080655560CCF80030641EF1D116
:102700004408DFF8609314F0010F4FF020051ABF62
:10271000D54C2560C9F80050546844F0806454607A
:10272000CBF80030D14F3C685668C4F3C01446F073
:1027300080665660CCF800306600840814F0010F03
:102740001ABFC94C2560C9F80050546844F0806431
:102750005460CBF800303C68D2F804A0C4F3C01435
:102760004AF0806AC2F804A0CCF800302643C408BE
:1027700014F0010F1ABFBC4C2560C9F80050B64CCC
:10278000626842F080626260B94B4FF480421A6026
:102790003B68D4F804A0C3F3C0134AF0806AC4F8BD
:1027A00004A0DFF8B8C2CCF8002046EA830EBEF1E0
:1027B000010F1AD02346596841F080615960624682
:1027C000C2F80080596841F08061596002F1040C40
:1027D0004FF48041CCF80010D3F804C04CF0806C6A
:1027E000C3F804C0116000F0E5B89D4A10F0020F74
:1027F000937ED27EA3EB020200927DD0974E0023FF
:10280000DFF854C21F224FF4804406F1040900BFD0
:10281000DCF804A04AF0806ACCF804A0C9F80040B3
:10282000D7F800A04FEADA1BDCF804A04AF0806A6F
:10283000CCF804A0346043EACB735B08521EE7D1A6
:10284000009A521E3DD0DCF804A04AF0806ACCF811
:1028500004A0C9F800403F68C7F3C01ADCF8047050
:1028600047F08067CCF804703460521E11D000BF6E
:10287000DCF8047047F08067CCF80470C9F80040B9
:10288000DCF8047047F08067CCF804703460521EA6
:10289000EED1DCF8042042F08062CCF80420C6F8C7
:1028A0000080DCF8042042F08062CCF80420C9F8F3
:1028B0000040DCF8042042F08062CCF80420346050
:1028C00019E0DCF8042042F08062CCF80420C6F85D
:1028D0000080DCF8042042F08062CCF80420C9F8C3
:1028E00000403A68C2F3C01ADCF8042042F080626B
:1028F000CCF80420346000E005E043EACA72002905
:1029000018BF0A6056E00A68544C1F23DFF858A12C
:1029100051494FF4804C261D12F0010F14BFCAF824
:102920000050C9F800504F6847F080674F60C6F804
:1029300000C04F6847F080674F60C4F800C052087D
:102940005B1EE9D1009B5B1E77D012F0010F0CBF1C
:10295000C9F80050CAF800504A6842F080624A60E4
:10296000C6F800C04A6842F080624A60C4F800C0FD
:102970005A1E0DD04B6843F080634B60C6F800C010
:102980004B6843F080634B60C4F800C0521EF1D125
:102990004A6842F080624A60C4F800804A6842F0A7
:1029A00080624A60C6F800C04A6842F080624A60AD
:1029B000C4F800C0284A516841F0806151602C4938
:1029C0004FF480430B60D2F804C04CF0806CC2F826
:1029D00004C0A1F1040CCCF80030546844F08064C9
:1029E0005460C1F80080546844F0806454600B6007
:1029F000546844F080645460CCF800301A4C256070
:102A000010F0800F03D01B484068154CA06014489C
:102A1000007B00280DDD546844F0806454600B6036
:102A2000546844F080645460CCF80030401E0028A4
:102A3000F1DC7046BDE8F88FFFE74B6843F0806338
:102A40004B60C4F8008012F0010F14BFCAF80050A8
:102A5000C9F80050A2E70000000001401008014042
:102A600008010020140C0140100C0140080C01402A
:102A700014080140001000E02DE9F04FFE4C88B032
:102A8000626842F080626260FC4F4FF40058C7F801
:102A90000080626842F0806262603D1D4FF48046B3
:102AA0002E60DFF8DCA3DAF804205308012A0FD0E7
:102AB0009C460193B3F1004F38BFA3F1010C80F0A5
:102AC000778400BFBCF1000FC8BFACF1010CF9DC8A
:102AD000D4F804C04CF0806CC4F804C03E60012AF5
:102AE0000ED09C460193B3F1004F38BFA3F1010C07
:102AF00080F06684BCF1000FC8BFACF1010CF9DCBA
:102B0000D4F804C04CF0806CC4F804C04FF4005CEE
:102B1000C5F800C0D4F804C04CF0806CC4F804C000
:102B20002E60012A0ED09C460193B3F1004F38BFAE
:102B3000A3F1010C80F04C84BCF1000FC8BFACF1D4
:102B4000010CF9DCD4F804C04CF0806CC4F804C06B
:102B50003E60012A0ED09C460193B3F1004F38BF6E
:102B6000A3F1010C80F03C84BCF1000FC8BFACF1B4
:102B7000010CF9DCD4F804C04CF0806CC4F804C03B
:102B80002E60012A0ED09C460193B3F1004F38BF4E
:102B9000A3F1010C80F02C84BCF1000FC8BFACF194
:102BA000010CF9DCD4F804C04CF0806CC4F804C00B
:102BB0003E60012A0ED09C460193B3F1004F38BF0E
:102BC000A3F1010C80F01C84BCF1000FC8BFACF174
:102BD000010CF9DC9AF81B80B8F1000F1FD000BF80
:102BE000D4F804C04CF0806CC4F804C02E60012AF4
:102BF00004D00193B3F1004F80F00A84D4F804C0EC
:102C00004CF0806CC4F804C03E60012A04D00193EB
:102C1000B3F1004F80F00A84B8F10108E0D14FEA27
:102C2000500CDFF860921CF0010F4FF0200E1ABF1D
:102C3000DFF854C2CCF800E0C9F800E0D4F804C0D2
:102C40004CF0806CC4F804C02E60012A0ED09C4663
:102C50000193B3F1004F38BFA3F1010C80F0F4836E
:102C6000BCF1000FC8BFACF1010CF9DCDFF81C822D
:102C7000D8F800C0D4F804B0CCF3C01C4BF0806B83
:102C8000C4F804B03E60012A0ED09A460293B3F114
:102C9000004F38BFA3F1010A80F0DC83BAF1000FC6
:102CA000C8BFAAF1010AF9DC4FEA900A4FEA4C0CBE
:102CB0001AF0010F1ABFDFF8D0A1CAF800E0C9F876
:102CC00000E0D4F804A04AF0806AC4F804A02E60A2
:102CD000012A0FD09A460193B3F1004F38BFA3F1F8
:102CE000010A80F0BD8300BFBAF1000FC8BFAAF18E
:102CF000010AF9DCD8F800A0D4F804B0CAF3C01A6D
:102D00004BF0806BC4F804B03E60012A0ED09B46A5
:102D10000293B3F1004F38BFA3F1010B80F0A883F9
:102D2000BBF1000FC8BFABF1010BF9DC4CEA0A0C98
:102D30004FEAD00A1AF0010F1ABFDFF84CA1CAF807
:102D400000E0C9F800E0D4F804A04AF0806AC4F8B2
:102D500004A04F4D2E60012A0BD01D460193B3F104
:102D6000004F38BF5D1E80F08983002DC8BF6D1EE7
:102D7000FBDCD8F80050404CC5F3C015D4F804B0C3
:102D80004BF0806BC4F804B03E60012A0BD01C46A7
:102D90000293B3F1004F38BF5C1E80F07383002CA8
:102DA000C8BF641EFBDC4CEA850CCDF814C0BCF136
:102DB000010F38D0DFF8C0C0DCF8041041F08061AA
:102DC000CCF804104FF400513960DCF8041041F0E5
:102DD0008061CCF804102E490E60012A0BD01946F0
:102DE0000193B3F1004F38BF591E80F04F83002983
:102DF000C8BF491EFBDCDCF8041041F08061CCF850
:102E000004103E60012A00F02F8219460093B3F1AE
:102E1000004F38BF591E80F03D830029C8BF491EAE
:102E2000FBDC00F021BA164C10F0020F94F81AC027
:102E3000E47EACEB040CCDF818C07BD0DFF85090EA
:102E40000D4D00244FF01F0CD5F804A04AF0806A05
:102E5000C5F804A0C9F80060012A04D00193B3F1B9
:102E6000004F80F01B83D8F800A0D5F804B0CAF357
:102E7000C01A4BF0806B0DE00000014010080140CB
:102E800008010020140C0140100C0140080C014006
:102E900014080140C5F804B03E60012A04D007932D
:102EA000B3F1004F80F0068344EACA746408BCF1B1
:102EB000010CC9D1DDF818C0BCF1010C7CD0D5F8EB
:102EC00004A04AF0806AC5F804A0C9F80060012A8D
:102ED0000ED09A460193B3F1004F38BFA3F1010A17
:102EE00080F0F482BAF1000FC8BFAAF1010AF9DC40
:102EF000D8F80080FF4DC8F3C01AD5F8048048F018
:102F00008068C5F80480B3463E60012A0BD01D4698
:102F10000693B3F1004F38BF5D1E80F0DD82002DB7
:102F2000C8BF6D1EFBDCBCF101081CBFF14D5E4645
:102F300023D000E0A0E0D5F804C04CF0806CC5F8C8
:102F400004C0C9F80060012A05D09C460693B3F17D
:102F5000004F80F0C582D5F804C04CF0806CC5F8F5
:102F600004C03E60012A05D09C460693B3F1004F91
:102F700080F0BC82B8F10108DBD1DFF878C3DCF85F
:102F8000045045F08065CCF804504FF400553D6086
:102F9000DCF8045045F08065CCF80450C9F800B066
:102FA000012A0DD01D460493B3F1004F38BF5D1EBA
:102FB00080F0A282002D00E019E0C8BF6D1EF9DC90
:102FC000DCF8045045F08065CCF80450C7F800B038
:102FD000012A4BD01A460093B3F1004F38BF5A1E56
:102FE00080F08E82002AC8BF521EFBDC3EE0D5F87E
:102FF00004C04CF0806CC5F804C04FF4005CC7F806
:1030000000C0D5F804C04CF0806CC5F804C0B446CC
:10301000C9F80060012A0FD099460193B3F1004F1F
:1030200038BFA3F1010980F06F8200BFB9F1000F32
:10303000C8BFA9F10109F9DCD8F80080C8F3C01AAB
:10304000D5F8048048F08068C5F80480C7F800C04F
:10305000012A0BD01A460093B3F1004F38BF5A1E15
:1030600080F05882002AC8BF521EFBDC44EACA72B4
:10307000002918BF0A60F7E0DFF87CA2DFF87C8245
:10308000DFF870C20C681F2514F0010F14BFCAF8D6
:1030900000E0C9F800E0DCF8041041F08061CCF8F1
:1030A0000410C8F80060012A04D00193B3F1004F66
:1030B00080F03482DCF8041041F08061CCF8041018
:1030C0003E60012A04D00193B3F1004F80F02E82BC
:1030D00064086D1ED8D10699491E7DD014F0010FE9
:1030E0000CBFC9F800E0CAF800E0DCF8044044F086
:1030F0008064CCF804403446C8F80060012A0BD044
:103100001D460193B3F1004F38BF5D1E80F016825B
:10311000002DC8BF6D1EFBDCDCF8045045F0806557
:10312000CCF804503C60012A0BD01D460193B3F14A
:10313000004F38BF5D1E80F00582002DC8BF6D1E98
:10314000FBDC4D1E21D000BFDCF8041041F0806193
:10315000CCF80410C8F80040012A05D019460193A4
:10316000B3F1004F80F0F281DCF8041041F080618F
:10317000CCF804103C60012A05D019460193B3F144
:10318000004F80F0E7816D1EDED1DCF8041041F0C5
:103190008061CCF804104FF400513960DCF8041061
:1031A00041F08061CCF80410C8F80040012A0AD030
:1031B00019460193B3F1004F38BF591E7CD2002944
:1031C000C8BF491EFBDCDCF8041041F08061CCF87C
:1031D00004103C60012A00E00CE045D01946009341
:1031E000B3F1004F38BF591E67D20029C8BF491E2E
:1031F000FBDC39E0DCF8041041F08061CCF804100D
:103200004FF40051396014F0010F14BFCAF800E008
:10321000C9F800E0DCF8041041F08061CCF804103B
:103220003446C8F80060012A0AD019460193B3F168
:10323000004F38BF591E5CD20029C8BF491EFBDCB5
:10324000DCF8041041F08061CCF804103C60012AE5
:103250000AD019460093B3F1004F38BF591E7DD2F2
:103260000029C8BF491EFBDC224A516841F0806139
:103270005160224B1E60224C616801290BD04FEA3D
:10328000510CCDF804C0BCF1004F68D2ACF1010C78
:10329000BCF1000FFADCD2F804C04CF0806CC2F82C
:1032A00004C03E6001290ED04FEA510CCDF804C095
:1032B000BCF1004F7AD201E050E153E1ACF1010CD6
:1032C000BCF1000FF7DCD2F804C04CF0806CC2F8FF
:1032D00004C04FF4005CC3F800C0D2F804C04CF046
:1032E000806CC2F804C01E60012916D04FEA510C50
:1032F00008E03BE100000140100C014014080140CF
:1033000008010020CDF804C0BCF1004F6FD200BF0F
:10331000ACF1010CBCF1000FFADCD2F804C04CF0A7
:10332000806CC2F804C03E6001290CD04FEA510CF9
:10333000CDF804C0BCF1004F77D200BFACF1010C56
:10334000BCF1000FFADCDFF884C2CCF800E010F02A
:10335000800F02D09E484068A06001E00AE10DE1C4
:1033600094F80CC0BCF1000FC8BF4C081ADD5068BF
:1033700040F0806050601E60012903D00394B4F1D6
:10338000004F73D2506840F0806050603E60012969
:1033900003D00394B4F1004F69D2ACF1010CBCF13D
:1033A000000FE4DC059808B0BDE8F08FECE000BF4A
:1033B000BCF1010CCDF804C0FAD1FFF789BB00BF06
:1033C000BCF1010CCDF804C0FAD1FFF799BB00BFE6
:1033D000BCF1010CCDF804C0FAD1FFF7B3BB00BFBC
:1033E000BCF1010CCDF804C0FAD1FFF7C3BBD1E0AA
:1033F000BCF1010CCDF804C0FAD1FFF7D3BB00BF7C
:10340000BCF1010CCDF804C0FAD1FFF7E3BB00BF5B
:10341000B3F1010CCDF804C03FF4F0ABBCF1010CEA
:10342000CDF804C0FAD1FFF7E9BBB9E0B3F1010C64
:10343000CDF804C03FF4F0ABBCF1010CCDF804C0F2
:10344000FAD1FFF7E9BB00BFBCF1010CCDF804C015
:10345000FAD10BE4BAF1010ACDF808A0FAD123E4BD
:10346000BAF1010ACDF804A0FAD143E49EE0A5E048
:10347000BBF1010BCDF808B0FAD157E46D1E0195F0
:10348000FCD176E4641E0294FCD18CE4491E0191C7
:10349000FCD1B0E4491E0091FCD1E5E6B3F1010A8C
:1034A000CDF804A03FF4DFACBAF1010ACDF804A0D6
:1034B000FAD1D8E4B3F1010BCDF81CB03FF4F4AC71
:1034C000BBF1010BCDF81CB0FAD1EDE4BAF1010A61
:1034D000CDF804A0FAD10BE56D1E0695FCD122E5CE
:1034E000BCF1010CCDF818C0FAD134E5BCF1010CE7
:1034F000CDF818C0FAD13DE56D1E0495FCD15FE50D
:10350000521E0092FCD1B1E5B9F10109CDF8049049
:10351000FAD191E5521E0092FCD1A7E5591E019106
:103520003FF4C8AD491E0191FCD1C3E5591E01917C
:103530003FF4CEAD491E0191FCD1C9E56D1E019548
:10354000FCD1E9E56D1E0195FCD1FAE5491E01911A
:10355000FCD109E6491E0191FCD114E6491E0191F6
:10356000FCD130E6491E0091FCD17DE6491E019157
:10357000FCD165E6491E0091FCD175E6BCF1010C59
:10358000CDF804C0FAD186E6BCF1010CCDF804C038
:10359000FAD198E6BCF1010CCDF804C0FAD1BCE632
:1035A000BCF1010CCDF804C0FAD1CCE6601E03904A
:1035B0003FF4E8AE401E0390FCD1E3E6601E0390AA
:1035C0003FF4EBAE401E0390FCD1E6E6100C014048
:1035D000001000E02DE9F84FDFF8ECC3DCF8041030
:1035E00041F08061CCF80410F84D4FF4005BC5F851
:1035F00000B0DCF8041041F08061CCF804102E1DFE
:103600004FF480443460DFF8C893D9F804104A08B6
:1036100001290BD013460092B2F1004F38BF531E60
:1036200080F07082002BC8BF5B1EFBDCDCF804302E
:1036300043F08063CCF804302C6001290BD0134692
:103640000092B2F1004F38BF531E80F05F82002B12
:10365000C8BF5B1EFBDCDCF8043043F08063CCF8B1
:103660000430C6F800B0DCF8043043F08063CCF8D6
:103670000430346001290BD013460092B2F1004FA0
:1036800038BF531E80F04682002BC8BF5B1EFBDC98
:10369000DCF8043043F08063CCF804302C6001295E
:1036A0000BD013460092B2F1004F38BF531E80F08A
:1036B0003682002BC8BF5B1EFBDCDCF8043043F015
:1036C0008063CCF80430346001290BD0134600929B
:1036D000B2F1004F38BF531E80F02582002BC8BFC7
:1036E0005B1EFBDCDCF8043043F08063CCF8043074
:1036F0002C6001290BD013460092B2F1004F38BF65
:10370000531E80F01482002BC8BF5B1EFBDC99F8AF
:103710001B70B7F1000E1DD0DCF8043043F080635D
:10372000CCF804303460012904D00092B2F1004F8B
:1037300080F00182DCF8043043F08063CCF8043080
:103740002C60012904D00092B2F1004F80F0FC817E
:103750007F1EE1D1DFF87CA24FF02008CAF800807C
:10376000DCF8043043F08063CCF804303460012985
:103770000BD013460092B2F1004F38BF531E80F0B9
:10378000EB81002BC8BF5B1EFBDCDCF8043043F090
:103790008063CCF804302C6001290BD013460092D2
:1037A000B2F1004F38BF531E80F0DA81002BC8BF42
:1037B0005B1EFBDCDCF8043043F08063CCF80430A3
:1037C000346001290BD013460092B2F1004F38BF8C
:1037D000531E80F0C981002BC8BF5B1EFBDCDCF8E8
:1037E000043043F08063CCF804302C6001290BD006
:1037F00013460092B2F1004F38BF531E80F0B981DA
:10380000002BC8BF5B1EFBDCDCF8043043F0806398
:10381000CCF80430346001290BD013460092B2F189
:10382000004F38BF531E80F0A881002BC8BF5B1E1D
:10383000FBDCDCF8043043F08063CCF804302C600F
:1038400001290BD013460092B2F1004F38BF531E2E
:1038500080F09781002BC8BF5B1EFBDCDFF87891FE
:103860001F2700BF10F0010F14BFC9F80080CAF86D
:103870000080DCF8043043F08063CCF8043034601E
:10388000012904D00092B2F1004F80F07E81DCF873
:10389000043043F08063CCF804302C60012904D05C
:1038A0000092B2F1004F80F0788140087F1ED9D19C
:1038B000474B9B7EA3EB0E035B1E7CD010F0010FE9
:1038C0000CBFCAF80080C9F80080DCF8040040F0A2
:1038D0008060CCF80400346001290BD010460092BF
:1038E000B2F1004F38BF501E80F060810028C8BF81
:1038F000401EFBDCDCF8040040F08060CCF80400E3
:1039000027462C6001290BD010460092B2F1004FDF
:1039100038BF501E80F04E810028C8BF401EFBDC1F
:103920005B1E1FD0DCF8040040F08060CCF804007F
:103930003760012905D010460092B2F1004F80F0A7
:103940003D81DCF8040040F08060CCF804002F607A
:10395000012905D010460092B2F1004F80F032816B
:103960005B1EDFD1DCF80430604643F08063CCF8A6
:103970000430C5F800B0DCF8043043F08063CCF8C4
:103980000430376001290AD013460092B2F1004F8B
:1039900038BF531E7CD2002BC8BF5B1EFBDC4368C4
:1039A00043F0806343602F6001294BD010460092A2
:1039B000B2F1004F00E011E038BF501E69D200287C
:1039C000C8BF401EFBDC3DE0000001401008014084
:1039D00008010020140C0140100C0140DCF80470B8
:1039E000634647F08067CCF80470C5F800B010F06B
:1039F000010F14BFC9F80080CAF80080586840F071
:103A000080605860346001290AD010460092B2F1FB
:103A1000004F38BF501E74D20028C8BF401EFBDCC8
:103A2000586840F0806058602C6001290AD0104628
:103A30000092B2F1004F38BF501E6FD20028C8BFAD
:103A4000401EFBDCDCF8040040F08060CCF8040091
:103A5000346001290AD010460092B2F1004F38BFFD
:103A6000501E70D20028C8BF401EFBDCDCF80400EA
:103A700040F08060CCF804002C6001290DD0104685
:103A80000092B2F1004F38BF501E71D2002801E001
:103A90009CE0A0E0C8BF401EF8DCDCF8040040F069
:103AA0008060CCF80400C6F800B0DCF8040040F0F8
:103AB0008060CCF80400346001290AD010460092DE
:103AC000B2F1004F38BF501E6FD20028C8BF401E51
:103AD000FBDCDCF8040040F08060CCF804002C60D3
:103AE00001290AD010460092B2F1004F38BF501E93
:103AF00070D20028C8BF401EFBDCC9F80080BDE8BA
:103B0000F88F6CE05B1E0093FCD18FE55B1E009389
:103B1000FCD1A0E55B1E0093FCD1B9E563E05B1E20
:103B20000093FCD1C9E55B1E0093FCD1DAE55B1E76
:103B30000093FCD1EBE5531E00933FF4FBAD5B1EFD
:103B40000093FCD1F6E552E0531E00933FF400AE23
:103B50005B1E0093FCD1FBE55B1E0093FCD114E6D9
:103B60005B1E0093FCD125E65B1E0093FCD136E67C
:103B700041E05B1E0093FCD146E65B1E0093FCD146
:103B800057E65B1E0093FCD168E6531E00933FF49A
:103B90007EAE5B1E0093FCD179E6531E00933FF48A
:103BA00084AE5B1E0093FCD17FE628E0401E0090AF
:103BB000FCD19FE6401E0090FCD1B1E6401E009073
:103BC000FCD1BEE6401E0090FCD1C9E65B1E00930E
:103BD000FCD1E4E617E0401E0090FCD132E7401E25
:103BE0000090FCD11CE7401E0090FCD12AE7401E4B
:103BF0000090FCD13AE7401E0090FCD14DE7401EFA
:103C00000090FCD165E7401E0090FCD175E70000F4
:103C100007494FF4005008610648417821F001013E
:103C200041704FF0E020016941F0010101617047EE
:103C300000100140000000200D4A4FF40051516176
:103C40000C4B10F0010F4FF0E02093F801C04CF046
:103C5000010C83F801C0036904D023F00103036160
:103C60005161704743F00103036111617047000027
:103C70000010014000000020124910B54FF4C04070
:103C80000860114920200860114C10492046FDF7BA
:103C9000C7FC10492046FDF7C3FC0F48416841F0BE
:103CA000806141600D490E48FDF7BAFC002005F027
:103CB0005DFA6420FDF7E8FBBDE81040012005F047
:103CC00055BA000010080140100C01401092000885
:103CD000000C0140189200080000014014920008F6
:103CE000000801400C4810B5416841F08061416016
:103CF0000A490B48FDF794FC0B4C0A492046FDF796
:103D00008FFC0A492046FDF78BFC2046BDE8104099
:103D10000749FDF785BC0000000001402092000823
:103D2000000801401C920008000C01402492000889
:103D300028920008104910B54FF4C0400860104C9C
:103D40000E492046FDF76CFC0E492046FDF768FC45
:103D50000D48416841F0806141600C490C48FDF715
:103D60005FFC002005F002FA6420FDF78DFBBDE842
:103D70001040012005F0FAB9100801400492000833
:103D8000000C014008920008000001400C9200085D
:103D9000000801400548816941F00401816104493E
:103DA0008015086003490448FDF73ABC0010024042
:103DB0001408014000920008000801402DE9F84F66
:103DC000FE4D6A6842F080626A60FD4F4FF4005910
:103DD000C7F800906A6842F080626A603E1D4FF446
:103DE000804CC6F800C0F74C62685308012A0FD017
:103DF00098460093B3F1004F38BFA3F1010880F05B
:103E0000558300BFB8F1000FC8BFA8F10108F9DC65
:103E1000D5F8048048F08068C5F80480C7F800C071
:103E2000012A0FD098460093B3F1004F38BFA3F199
:103E3000010880F0418300BFB8F1000FC8BFA8F1AE
:103E40000108F9DCD5F8048048F08068C5F80480E2
:103E500010F0010F14BFC7F80090C6F80090D5F815
:103E6000048048F08068C5F80480C6F800C0012AC4
:103E70000ED098460093B3F1004F38BFA3F1010A6A
:103E800080F02083BAF1000FC8BFAAF1010AF9DC63
:103E9000D5F8048048F08068C5F80480C7F800C0F1
:103EA000012A0FD098460093B3F1004F38BFA3F119
:103EB000010A80F00F8300BFBAF1000FC8BFAAF15A
:103EC000010AF9DCD5F804B080464FEA500A4BF0FD
:103ED000806BC5F804B01AF0010F14BFC7F800904A
:103EE000C6F80090D5F804B04BF0806BC5F804B06C
:103EF000C6F800C0012A0FD09B460093B3F1004FD3
:103F000038BFA3F1010B80F0EB8200BFBBF1000FC3
:103F1000C8BFABF1010BF9DCD5F804B04BF0806BF6
:103F2000C5F804B0C7F800C0012A0FD09B46009323
:103F3000B3F1004F38BFA3F1010B80F0D98200BF6D
:103F4000BBF1000FC8BFABF1010BF9DCD5F804B031
:103F500082444FEA90084BF0806BC5F804B018F02B
:103F6000010F14BFC7F80090C6F80090D5F804B050
:103F70004BF0806BC5F804B0C6F800C0012A0FD022
:103F80009B460093B3F1004F38BFA3F1010B80F0C3
:103F9000B58200BFBBF1000FC8BFABF1010BF9DC6C
:103FA000D5F804B04BF0806BC5F804B0C7F800C07A
:103FB000012A0FD09B460093B3F1004F38BFA3F105
:103FC000010B80F0A18200BFBBF1000FC8BFABF1B5
:103FD000010BF9DCD044D5F804A0C0084AF0806A8F
:103FE000C5F804A010F0010F14BFC7F80090C6F880
:103FF0000090D5F804A04AF0806AC5F804A0C6F87D
:1040000000C0012A0ED09A460093B3F1004F38BF8A
:10401000A3F1010A80F07E82BAF1000FC8BFAAF1B5
:10402000010AF9DCD5F804A04AF0806AC5F804A0BA
:10403000C7F800C0012A0FD09A460093B3F1004F91
:1040400038BFA3F1010A80F06B8200BFBAF1000F04
:10405000C8BFAAF1010AF9DC4044D5F8048048F051
:104060008068C5F8048010F0010F14BFC7F80090F5
:10407000C6F80090686840F080606860C6F800C0CC
:10408000012A0BD018460093B3F1004F38BF581ED9
:1040900080F04D820028C8BF401EFBDC686840F0FD
:1040A00080606860C7F800C0012A0BD018460093F2
:1040B000B3F1004F38BF581E80F03D820028C8BFC2
:1040C000401EFBDC686840F080606860C6F80090C5
:1040D000686840F080606860C6F800C0012A0BD0B4
:1040E00018460093B3F1004F38BF581E80F0278266
:1040F0000028C8BF401EFBDC686840F08060686034
:10410000C7F800C0012A0BD018460093B3F1004F46
:1041100038BF581E80F017820028C8BF401EFBDC45
:10412000686840F080606860C7F80090686840F098
:1041300080606860C6F800C0012A0BD01846009362
:10414000B3F1004F38BF581E80F001820028C8BF6D
:10415000401EFBDC686840F080606860C7F800C003
:10416000012A0BD018460093B3F1004F38BF581EF8
:1041700080F0F2810028C8BF401EFBDC686840F078
:1041800080606860DFF840B0DBF8000020F4700069
:1041900040F40000CBF80000C7F80090247EB4F192
:1041A000000824D0686840F080606860C6F800C0ED
:1041B000012A0DD00093B3F1004F07E00000014049
:1041C00010080140080100200408014080F0C88167
:1041D000686840F080606860C7F800C0012A04D0B9
:1041E0000093B3F1004F80F0C381641EDAD1686898
:1041F00040F080606860C6F800C0012A0BD0184605
:104200000093B3F1004F38BF581E80F0B9810028E9
:10421000C8BF401EFBDC686840F080606860F94CF5
:10422000206810F4005018BF0120D5F804A04AF00F
:10423000806AC5F804A0C7F800C0012A0ED09A46CB
:104240000093B3F1004F38BFA3F1010A80F09C81C5
:10425000BAF1000FC8BFAAF1010AF9DCD5F804A031
:104260004AF0806AC5F804A0C6F800C0012A0FD041
:104270009A460093B3F1004F38BFA3F1010A80F0D2
:10428000898100BFBAF1000FC8BFAAF1010AF9DCA9
:10429000D5F804A04AF0806AC5F804A0D4F800A0BC
:1042A0001AF4005A18BF4FF0010AD5F804E04EF096
:1042B000806EC5F804E0C7F800C0012A0ED09E4603
:1042C0000093B3F1004F38BFA3F1010E7DD200BFC0
:1042D000BEF1000FC8BFAEF1010EF9DC40EA4A00A2
:1042E000D5F804A04AF0806AC5F804A0C6F800C05A
:1042F000012A0DD09A460093B3F1004F38BFA3F1C5
:10430000010A63D2BAF1000FC8BFAAF1010AF9DCB1
:10431000D5F804A04AF0806AC5F804A0246814F413
:10432000005418BF0124D5F804A04AF0806AC5F8EB
:1043300004A0C7F800C0012A0ED09A460093B3F13A
:10434000004F38BFA3F1010A7ED200BFBAF1000FBF
:10435000C8BFAAF1010AF9DC40EA8400B8F1000FF5
:104360001AD06C6844F080646C60C6F800C0012A02
:1043700003D00093B3F1004F67D26C6844F08064BF
:104380006C60C7F800C0012A03D00093B3F1004F5E
:104390007ED2B8F10108E4D16C6844F080646C60AE
:1043A000DBF8004024F4700444F44014CBF80040DF
:1043B000C6F800904FF000084FF0200A6C6844F0F7
:1043C00080646C6011F0010F01E0E9E0EEE014BFE1
:1043D000C7F80090C6F800906C6844F080646C6088
:1043E000C6F800C0012A03D00093B3F1004F6FD28A
:1043F0006C6844F080646C60C7F800C0012A03D088
:104400000093B3F1004F71D288444908BAF1010A10
:10441000D4D1696841F08061696018F0010F14BF60
:10442000C7F80090C6F80090696841F08061696043
:10443000C6F800C0012A0DD019460093B3F1004F11
:1044400038BF591E72D201E0B6E0BBE00029C8BFF8
:10445000491EF8DC696841F080616960C7F800C0F6
:10446000012A0AD019460093B3F1004F38BF591EF4
:1044700071D20029C8BF491EFBDC696841F0806128
:104480006960DBF8001021F4700141F4401100E094
:10449000A0E0CBF80010C6F80090696841F0806198
:1044A0006960C7F80090BDE8F88F00BFB8F1010857
:1044B000CDF80080FAD1ABE4B8F10108CDF8008066
:1044C000FAD1BFE4B8F10108CDF80080FAD1DFE4F9
:1044D00088E000BFB8F10108CDF80080FAD1F1E41E
:1044E000BBF1010BCDF800B0FAD115E582E000BFB9
:1044F000BBF1010BCDF800B0FAD127E5BBF1010B00
:10450000CDF800B0FAD14BE5BBF1010BCDF800B00E
:10451000FAD15FE5BAF1010ACDF800A0FAD181E540
:10452000BAF1010ACDF800A0FAD195E56CE0401E81
:104530000090FCD1B2E5401E0090FCD1C2E5401EC7
:104540000090FCD1D8E5401E0090FCD1E8E5401E6B
:104550000090FCD1FEE55BE0401E0090FCD10DE632
:10456000581E00903FF434AE401E0090FCD12FE660
:10457000581E00903FF439AE401E0090FCD134E646
:10458000401E0090FCD146E6BAF1010ACDF800A029
:10459000FAD163E6BAF1010ACDF800A0FAD177E6C4
:1045A000BEF1010ECDF800E0FAD197E6BAF1010AAA
:1045B000CDF800A0FAD1ABE6BAF1010ACDF800A01F
:1045C000FAD1C9E65C1E00943FF4D7AE641E009495
:1045D000FCD1D2E65C1E00943FF4DBAE641E009476
:1045E000FCD1D6E65C1E00943FF402AF641E00943A
:1045F000FCD1FDE65C1E00943FF406AF641E0094FF
:10460000FCD101E708080140491E0091FCD121E7D7
:10461000491E0091FCD130E72DE9F84F10F03F031F
:1046200008BF402310F0800F534F5448DFF850E18B
:104630004FF48046A7F1040948D0002B14BFDFF8DF
:1046400044B1BDE8F88F0025DEF8041008244FEAD5
:10465000510C31E0D0F8048048F08068C0F8048044
:104660003E60012905D0E046CDF800C0BCF1004F06
:104670006ED2D0F8048048F08068C0F80480DBF87F
:10468000008018F4005818BF4FF00108D0F804A0BB
:104690004AF0806AC0F804A0C9F80060012905D07A
:1046A000E246CDF800C0BCF1004F57D26D085B1E4A
:1046B00045EAC815641E01D0002BCBD125FA04F1C0
:1046C00002F8011B002BBED1BDE8F88F002B08BFFC
:1046D000BDE8F88F4FF4005ADEF804C04FEA5C05DD
:1046E00011F8014B4FF008082AE0426842F080625E
:1046F000426014F0010F14BFC9F800A0C7F800A071
:10470000426842F0806242603E60BCF1010F04D01A
:104710002A460095B5F1004F26D2426842F08062E9
:104720004260C9F80060BCF1010F04D02A46009530
:10473000B5F1004F1CD264085B1EB8F1010803D02C
:10474000002BD2D1BDE8F88F002BC9D1BDE8F88F7E
:10475000B8F10108CDF80080FAD18AE7BAF1010A70
:10476000CDF800A0FAD1A1E7521E0092FCD1D4E707
:10477000521E0092FCD1DEE7140801400000014007
:104780000801002008080140034A52780AB100F0ED
:1047900005B800F09FBA0000080100202DE9F04F95
:1047A000FD4B0746586840F080605860FB4C4FF462
:1047B000005EC4F800E0586840F08060586004F182
:1047C000040C4FF48049CCF80090586840F08060A9
:1047D0005860C4F80090586840F08060586017F046
:1047E000010F14BFC4F800E0CCF800E0586840F0B6
:1047F00080605860CCF80090586840F08060586045
:10480000C4F800905D68780845F080655D6010F040
:10481000010F14BFC4F800E0CCF800E05D6845F07B
:1048200080655D60CCF800905D6845F080655D60F6
:10483000C4F800903A185D68B80845F080655D607E
:1048400010F0010F14BFC4F800E0CCF800E05D6880
:1048500045F080655D60CCF800905D6845F080654E
:104860005D60C4F8009002445D68F80845F080651A
:104870005D6010F0010F14BFC4F800E0CCF800E058
:104880005D6845F080655D60CCF800905D6845F03E
:1048900080655D60C4F8009010445A6842F0806200
:1048A0005A6010F0010F14BFC4F800E0CCF800E02B
:1048B000586840F080605860CCF80090586840F02C
:1048C00080605860C4F80090586840F0806058607C
:1048D000CCF800E0586840F080605860CCF8009058
:1048E000586840F080605860C4F80090586840F004
:1048F00080605860C4F800E0586840F080605860FC
:10490000CCF80090586840F080605860C4F800907F
:10491000586840F080605860A148026822F4700234
:1049200042F400020260C4F800E09E48007E021ECD
:104930000DD05D6845F080655D60CCF800905D68E5
:1049400045F080655D60C4F80090401EF1D1586864
:1049500040F080605860CCF80090586840F080606B
:104960005860DFF844B2DBF8000010F4005018BFC4
:1049700001205D6845F080655D60C4F800905D6869
:1049800045F080655D60CCF800905D6845F080651D
:104990005D60DBF8005015F4005518BF01255E6816
:1049A00046F080665E60C4F8009040EA45005D68AD
:1049B00045F080655D60CCF800905D6845F08065ED
:1049C0005D60DBF8005015F4005518BF01255E68E6
:1049D00046F080665E60C4F8009040EA85000128D9
:1049E00024D0022818BF042800F01C8112F12101F4
:1049F0000DD05A6842F080625A60CCF800905A6834
:104A000042F080625A60C4F80090491EF1D15968A2
:104A100041F08061596062490A6822F4700242F4F0
:104A200040120A60CCF800E000F047B917F0020F1E
:104A30007ED0002635462022D3F8048048F08068D6
:104A4000C3F80480CCF80090D3F8048048F0806864
:104A5000C3F80480DBF8008018F4005818BF4FF04A
:104A60000108D3F804A04AF0806AC3F804A0C4F88F
:104A700000907608454446EAC876521EDCD15A6852
:104A8000984642F080625A604A46CCF80090D3F8CB
:104A900004A04AF0806AC3F804A0DBF800A01AF46E
:104AA000005A18BF4FF0010AD8F804B04BF0806BE1
:104AB000C8F804B0226085EA0A0515F0010F18BF96
:104AC0000820002918BF0E603649097E89B100BF51
:104AD000D8F8045045F08065C8F80450CCF80020A0
:104AE000D8F8045045F08065C8F804502260491E8B
:104AF000EED1D8F8041041F08061C8F804102849BC
:104B00000A6822F4700242F440120A60CCF800E015
:104B100017F0800F03D025494968224A9160214946
:104B2000097B00297DD05A6842F080625A6000E01B
:104B300010E0CCF800E05A6842F080625A60CCF88D
:104B400000905A6842F080625A60C4F80090491E92
:104B5000F1D1B2E06AB15D6845F080655D60CCF886
:104B600000905D6845F080655D60C4F80090521E5D
:104B7000F1D15A6842F080625A60094A156825F4FA
:104B8000700545F440151560F046CCF800E00E685D
:104B9000002120221D460BE00000014010080140CA
:104BA000040801400801002008080140001000E04E
:104BB000D5F804A04AF0806AC5F804A016F0010FE9
:104BC00014BFC4F80080CCF80080D5F804A04AF0E7
:104BD000806AC5F804A0CCF80090D5F804A04AF08B
:104BE000806AC5F804A0C4F8009031447608521ECB
:104BF000D1D16A6842F080626A6011F0010F14BF7F
:104C0000C4F80080CCF80080696841F08061696078
:104C1000CCF80090696841F080616960C4F8009048
:104C200076E74AE029494E7E002E1CBF17F0020F9E
:104C300021210DD05D6845F080655D60CCF8009065
:104C40005D6845F080655D60C4F80090491EF1D153
:104C50006AB1596841F080615960CCF80090596898
:104C600041F080615960C4F80090521EF1D159683A
:104C700041F08061596016490A6822F4700242F4DA
:104C800040120A60CCF800E0BEB117F0020F14D158
:104C9000596841F080615960CCF800E021215A68E0
:104CA00042F080625A60CCF800905A6842F080620C
:104CB0005A60C4F80090491EF1D1596841F08061F2
:104CC0005960C4F800E0BDE8F08F00000801002042
:104CD000040801402DE9F34FFE4C81B0616841F0BA
:104CE00080616160FC4F4FF4005CC7F800C06168F0
:104CF00041F08061616007F1040A4FF48046CAF810
:104D00000060DFF8D883D8F804104A0801290BD0D6
:104D100013460092B2F1004F38BF531E80F0AD84AD
:104D2000002BC8BF5B1EFBDC636843F080636360DD
:104D30003E6001290BD013460092B2F1004F38BFFC
:104D4000531E80F09F84002BC8BF5B1EFBDC636892
:104D500043F08063636010F0010F14BFC7F800C018
:104D6000CAF800C0636843F080636360CAF80060FB
:104D700001290BD013460092B2F1004F38BF531EE9
:104D800080F08584002BC8BF5B1EFBDC636843F0AA
:104D9000806363603E6001290BD013460092B2F13C
:104DA000004F38BF531E80F07784002BC8BF5B1EB6
:104DB000FBDC636805464FEA500943F0806363609B
:104DC00019F0010F14BFC7F800C0CAF800C063682B
:104DD00043F080636360CAF8006001290BD013467A
:104DE0000092B2F1004F38BF531E80F05A84002B5E
:104DF000C8BF5B1EFBDC636843F0806363603E609A
:104E000001290BD013460092B2F1004F38BF531E58
:104E100080F04E84002BC8BF5B1EFBDC63688144BE
:104E2000850843F08063636015F0010F14BFC7F875
:104E300000C0CAF800C0636843F080636360CAF8CA
:104E4000006001290BD013460092B2F1004F38BF29
:104E5000531E80F03284002BC8BF5B1EFBDC6368EE
:104E600043F0806363603E6001290BD013460092DB
:104E7000B2F1004F38BF531E80F02484002BC8BF0E
:104E80005B1EFBDCA9446368C50843F08063636074
:104E900015F0010F14BFC7F800C0CAF800C063685E
:104EA00043F080636360CAF8006001290BD01346A9
:104EB0000092B2F1004F38BF531E80F00884002BDF
:104EC000C8BF5B1EFBDC636843F0806363603E60C9
:104ED00001290BD013460092B2F1004F38BF531E88
:104EE00080F0FA83002BC8BF5B1EFBDC09EB0503D7
:104EF000656845F08065656013F0010F14BFC7F861
:104F000000C0CAF800C0636843F080636360CAF8F9
:104F1000006001290BD013460092B2F1004F38BF58
:104F2000531E80F0DD83002BC8BF5B1EFBDC636873
:104F300043F0806363603E6001290BD0134600920A
:104F4000B2F1004F38BF531E80F0CE83002BC8BF94
:104F50005B1EFBDC636843F080636360CAF800C0DB
:104F6000636843F080636360CAF8006001290BD076
:104F700013460092B2F1004F38BF531E80F0B88341
:104F8000002BC8BF5B1EFBDC636843F0806363607B
:104F90003E6001290BD013460092B2F1004F38BF9A
:104FA000531E80F0A983002BC8BF5B1EFBDC636827
:104FB00043F080636360C7F800C0636843F08063B8
:104FC0006360CAF8006001290BD013460092B2F169
:104FD000004F38BF531E80F09383002BC8BF5B1E69
:104FE000FBDC636843F0806363603E6001290BD0A3
:104FF00013460092B2F1004F38BF531E80F08483F5
:10500000002BC8BF5B1EFBDC636843F080636360FA
:10501000334B1D6825F4700545F400051D605B14D5
:105020003B6098F81850B5F1000C1AD0636843F053
:1050300080636360CAF80060012904D00092B2F175
:10504000004F80F06583636843F0806363603E6077
:10505000012904D00092B2F1004F80F061836D1EEF
:10506000E4D1636843F080636360CAF8006001299B
:105070000BD013460092B2F1004F38BF531E80F0A0
:105080005883002BC8BF5B1EFBDC636843F0806362
:105090006360DFF850B0DBF8003013F4005318BF42
:1050A0000123656845F0806565603E6001290BD08D
:1050B00015460092B2F1004F38BF551E80F03D8377
:1050C000002DC8BF6D1EFBDC656845F0806565601E
:1050D0000AE0000000000140100801400801002023
:1050E0000408014008080140CAF8006001290BD0FB
:1050F00015460092B2F1004F38BF551E80F0228352
:10510000002DC8BF6D1EFBDC656845F080656560DD
:10511000DBF8005015F4005518BF0125D4F80490B1
:1051200049F08069C4F804903E6001290ED0914690
:105130000092B2F1004F38BFA2F1010980F006835E
:10514000B9F1000FC8BFA9F10109F9DC43EA450331
:10515000656845F080656560CAF8006001290BD07C
:1051600015460092B2F1004F38BF551E80F0F48210
:10517000002DC8BF6D1EFBDC656845F0806565606D
:10518000DBF8005015F4005518BF0125D4F8049041
:1051900049F08069C4F804904FF480463E600129CC
:1051A0000BD016460092B2F1004F38BF561E80F069
:1051B000D782002EC8BF761EFBDC43EA8508B8F113
:1051C000010F3FD0B8F1020F18BFB8F1040F00F083
:1051D000C1811CF1210318BF4FF4804C1BD06068C3
:1051E00040F080606060CAF800C0012904D00092DD
:1051F000B2F1004F80F04C83606840F080606060E6
:10520000C7F800C0012904D00092B2F1004F80F02D
:1052100047835B1EE3D1606840F080606060FD48BA
:10522000016821F4700141F4401101604014CAF892
:105230000000616841F080616160386003B0404601
:10524000BDE8F08F10F0020F7ED04FF000094E46FF
:1052500020254FF4804C636843F080636360CAF894
:1052600000C0012904D00092B2F1004F80F07C828E
:10527000636843F080636360DBF8003013F400532D
:1052800018BF0123D4F804E04EF0806EC4F804E0A7
:10529000C7F800C0012904D00092B2F1004F80F09D
:1052A0006B824FEA59091E4449EAC3796D1ED2D177
:1052B0006568234645F080656560CAF800C0DFF880
:1052C00058E301290BD015460092B2F1004F38BFC8
:1052D000551E80F05D82002DC8BF6D1EFBDC5D6831
:1052E00045F080655D60DBF8005015F4005518BF8F
:1052F0000125D3F804B04BF0806BC3F804B0C7F8B5
:1053000000C0F34601290BD011460092B2F1004FC4
:1053100038BF511E80F040820029C8BF491EFBDC07
:1053200086EA050111F0010F18BF4FF00808029935
:10533000002918BFC1F800909BF81850002D1CBF21
:10534000DEF80420560800E02BE01BD0596841F03D
:1053500080615960CAF800C0012A04D00096B6F1F5
:10536000004F80F01D82596841F080615960C7F894
:1053700000C0012A04D00096B6F1004F80F01882D8
:105380006D1EE3D1596841F080615960A1490A68F6
:1053900022F4700242F440120A604914CAF8001064
:1053A0009BE0BCF1000F18BF4FF480451BD0636831
:1053B00043F080636360CAF80050012904D0009272
:1053C000B2F1004F80F0FC81636843F0806363605A
:1053D0003D60012904D00092B2F1004F80F0F881C5
:1053E000BCF1010CE3D1636843F080636360894BD7
:1053F000D3F800C02CF4700C4CF4401CC3F800C06F
:105400004FF4005BCAF800B0029B002520261B6801
:105410004FF48049D4F804C04CF0806CC4F804C048
:1054200013F0010F14BFC7F800B0CAF800B0D4F8E9
:1054300004C04CF0806CC4F804C0CAF80090012984
:1054400004D00092B2F1004F80F0CA81D4F804C0B9
:105450004CF0806CC4F804C0C7F80090012904D057
:105460000092B2F1004F80F0C7811D445B08761EA8
:10547000D0D1636843F08063636015F0010F14BFFF
:10548000C7F800B0CAF800B0A446636843F0806370
:105490006360CAF8009001290AD013460092B2F165
:1054A000004F38BF531E7DD2002BC8BF5B1EFBDCF4
:1054B000DCF8043043F08063CCF80430C7F8009087
:1054C00001290AD011460092B2F1004F38BF511E97
:1054D00069D20029C8BF491EFBDC10F0800F03D041
:1054E0004E4840684C4988604B48037B3BB3616839
:1054F00041F0806161604FF40051CAF800104168CA
:105500004FF4804C4A08606840F080606060CAF8E0
:1055100000C0012904D010460092B2F1004F7FD2A2
:10552000606840F080606060C7F800C0012904D066
:1055300010460092B2F1004F73D25B1EE3D1606857
:1055400040F0806060604FF40050386003B0404627
:10555000BDE8F08F304B93F81990B9F1000F1EBFE2
:1055600010F0020F21254FF4804618D0636843F0F5
:1055700080636360CAF80060012903D00092B2F131
:10558000004F78D2636843F0806363603E60012916
:1055900003D00092B2F1004F6ED26D1EE6D1BCF185
:1055A000000F01E034E137E118BF4FF4804519D016
:1055B000636843F080636360CAF80050012903D038
:1055C0000092B2F1004F71D2636843F08063636070
:1055D0003D60012903D00092B2F1004F67D2BCF1C7
:1055E000010CE5D1636843F080636360094BD3F835
:1055F00000C02CF4700C4CF4401CC3F800C04FF4F5
:10560000005CCAF800C0B9F1000F2DD010F0020FF5
:105610002AD107E00408014008010020001000E042
:10562000FEE001E1606840F080606060CAF800C0A0
:1056300021234FF48045606840F080606060CAF8C4
:105640000050012903D00092B2F1004F70D260687F
:1056500040F0806060603D60012903D00092B2F1AB
:10566000004F6ED25B1EE6D1606840F080606060E3
:10567000C7F800C0E2E5DBE0E2E05B1E0093FCD18E
:10568000FFF752BB5B1E0093FCD1FFF760BB5B1EB4
:105690000093FCD1FFF77ABB5B1E0093FCD1FFF7B0
:1056A00088BB5B1E0093FCD1FFF7A5BBD0E0D7E021
:1056B0005B1E0093FCD1FFF7B1BB5B1E0093FCD1D6
:1056C000FFF7CDBB5B1E0093FCD1FFF7DBBB5B1E7E
:1056D0000093FCD1FFF7F7BB5B1E0093FCD105E400
:1056E0005B1E0093FCD122E45B1E0093FCD131E4ED
:1056F0005B1E0093FCD147E45B1E0093FCD156E493
:105700005B1E0093FCD16CE45B1E0093FCD17BE438
:10571000531E00933FF497AC5B1E0093FCD192E4C0
:10572000531E00933FF49BAC5B1E0093FCD196E4A8
:105730009EE05B1E0093FCD1A7E46D1E0095FCD19A
:10574000C2E49DE06D1E0095FCD1DDE4B9F10109D4
:10575000CDF80090FAD1F9E46D1E0095FCD10BE56F
:10576000761E0096FCD128E5531E00933FF480ADD1
:105770005B1E0093FCD17BE5B2F1010ECDF800E099
:105780003FF48FADBEF1010ECDF800E0FAD188E50F
:105790006D1E0095FCD1A2E5491E0091FCD1BFE52C
:1057A000711E00913FF4DFAD491E0091FCD1DAE596
:1057B000711E00913FF4E4AD491E0091FCD1DFE57C
:1057C000531E00933FF400AE5B1E0093FCD1FBE53B
:1057D000531E00933FF404AE5B1E0093FCD1FFE523
:1057E000B2F1010CCDF800C03FF430AEBCF1010CB9
:1057F000CDF800C0FAD129E6B2F1010CCDF800C015
:105800003FF433AEBCF1010CCDF800C0FAD12CE668
:105810005B1E0093FCD14BE6491E0091FCD15CE677
:10582000401E0090FCD17BE6401E0090FCD184E637
:10583000531E00933FF4A6AE5B1E0093FCD1A1E67D
:10584000531E00933FF4A9AE5B1E0093FCD1A4E667
:10585000531E00933FF4B8AE5B1E0093FCD1B3E639
:10586000531E00933FF4BBAE5B1E0093FCD1B6E623
:10587000501E00903FF4EBAE401E0090FCD1E6E6D7
:10588000501E00903FF4EEAE401E0090FCD1E9E6C1
:10589000501E00903FF4B0AC401E0090FCD1ABE431
:1058A000501E00903FF4B5AC401E0090FCD1B0E417
:1058B0002DE9F8070028DCBFBDE8F80770474FF472
:1058C000005A4FF48047294ADFF89880DFF898C0E3
:1058D0005468A8F10409630811F8015B5FF0080639
:1058E000DCF8042015F0010F42F08062CCF80420AF
:1058F00014BFC9F800A0C8F800A0DCF8042042F0EA
:105900008062CCF80420C8F80070012C03D000930A
:10591000B3F1004F18D2DCF8042042F08062CCF8DA
:105920000420C9F80070012C03D00093B3F1004F9C
:1059300011D26D08401E761E0028DCBFBDE8F807B6
:105940007047002ECCD1C7E75A1E0092E3D0521EFA
:105950000092FCD1DFE75A1E0092EAD0521E00925C
:10596000FCD1E6E7140801400000014008010020D6
:1059700070B50C46C17800680C4D61F31F60A978C2
:10598000012918BF00200BD00021E9702070010A06
:105990006170010CA170000EE0704FF0041070BD3A
:1059A00000F060FA0028F1D1EEE7000024000020AA
:1059B0002DE9F0410078114C00F001060025E07857
:1059C0000F4600F00100B04210D02EB1A01D0570AE
:1059D00045702571A560E560A078012808D13046A2
:1059E00000F094FA002818BFE67001D03D7001E085
:1059F000FF2038704FF00110BDE8F0812400002036
:105A00002DE9F047324C80460E462279A11D82F0E6
:105A100001002071E0788B5C4FF0000943EA000739
:105A200001F80290012811D0A068E168451A617858
:105A3000012918BF002518D006F8017B280A06F8AE
:105A4000015B012906F8010B16D038E084F80590B7
:105A5000A068E168451AA078012802D100F086FA12
:105A6000054460790028F1D1E1E7B8F800003C284E
:105A70002AD88542E0D929E0E368DFF858C0184603
:105A8000290008D0C0F30B021CF8020006F8010B35
:105A9000501C491EF6D15819E060E07803280ED159
:105AA000A068E168411AB1F5805F08D2A178C0F31F
:105AB0000B00012903D1E170604400F01DFAE81CDD
:105AC00040F40030BDE8F0873C20D2E70546B3E75C
:105AD000240000204C0100202DE9F0411C4D00273E
