:020000040800F2
:1000000000470020010100084519000845190008B3
:1000100045190008451900084519000800000000AE
:10002000000000000000000000000000451900086A
:100030004519000800000000451900084933000870
:100040001B0100081B0100081B0100081B01000820
:100050001B0100081B0100081B0100081B01000810
:100060001B0100081B0100081B010008C910000843
:10007000E510000801110008651100088911000849
:10008000AD110008111200081B0100081B01000837
:10009000E16200081B0100081B0100081B010008A9
:1000A0001B0100081B0100081B0100081B010008C0
:1000B0001B0100081B0100081B0100081B010008B0
:1000C0001B0100081B0100081B0100081B010008A0
:1000D0001B0100087D380008713B00081B01000867
:1000E0001B0100081B0100081B010008DFF80CD0F1
:1000F00000F02AF800480047E164000800470020AB
:100100000648804706480047FEE7FEE7FEE7FEE7B1
:10011000FEE7FEE7FEE7FEE7FEE7FEE7193400082C
:10012000ED00000840EA01039B0703D009E008C97D
:10013000121F08C0042AFAD203E011F8013B00F8AC
:10014000013B521EF9D27047064C074D06E0E068AD
:1001500040F0010394E8070098471034AC42F6D30E
:10016000FFF7C8FF306C0008506C000870B5174EE0
:10017000F06A804710F0020F08BF70BD144C25686C
:10018000706A804761682844411AB1F5806FA4BF46
:100190006068084415DA0029D8BF70BD6068C0F3F4
:1001A0000900C0F5806081420DDC6068094AC0F337
:1001B0000900104404F02EFD0028C6BF6168084401
:1001C00070BD606070BD0146EFE70000246A000862
:1001D00060000020FE3200202DE9F04F027883B04D
:1001E000A2F180031F2B04D800F03EFC03B0BDE851
:1001F000F08F0A704F1C10F8011B06461F2980F073
:100200002284DFE811F01F005E007A00930069028B
:1002100077027D022004D3039C00A3002004200465
:10022000200420042004AA002E0159016A01C801FB
:10023000EF012702FA03FF03040409040E04170464
:10024000790112043178781C0024062933D006DCA9
:10025000052930D2DFE801F02F2F2F2F0E00FD29C6
:1002600018D002DCF02926D10AE0FE2920D0FF298F
:1002700018D020E006242246FE49FFF753FF1AE07B
:10028000FD490968002918BF202141F017010170BC
:10029000012410E000211022017042708170C170B1
:1002A000042408E04021017000214170022402E092
:1002B0004021017001243C7003B004F10210BDE83C
:1002C000F08F307830B101280BD0FF203870EB4828
:1002D00000F0B4BBEA497078096800F001000968D1
:1002E00005E0E7497078096800F00100496888472F
:1002F00000203870E14800F0A1BB3478002C0CBF1E
:100300000124012C06D0022C18BF002408D03C7018
:1003100000F0DEB9DB490120087002F011F9F6E7C0
:10032000D8490220087002F0BFF8F0E7D548002451
:10033000047002F0E5F83C70012000F07FBB3088CB
:1003400000EB4000C000401EFDD1D1E701207870D5
:1003500000203870022000F071BB35787478707915
:10036000D6F8026014F0010F60F31F6607D015F095
:10037000010F4FF400500CBFC349C449086014F08A
:10038000020F07D015F0020F4FF480400CBFBE499A
:10039000BE49086014F0040F08D0A80810F0010F3F
:1003A0004FF480700CBFB849B849086014F0800F52
:1003B0001CBFE80906F052FAAEB30123B4494868FD
:1003C000DFF8D0C2ACF1040614F0010F05D0DCF860
:1003D0000020C2F34032AA4221D114F0020F05D00E
:1003E0003268C2F38032B2EB550F18D114F0040F0B
:1003F00006D0DCF80020C2F30022B2EB950F0ED13C
:1004000014F0200F18BF5FEA551208D114F0800FC6
:1004100009D03268C2F38012B2EBD51F03D04A680C
:10042000121A9A42D0D39B49086800F40052081F60
:100430000368096803F480431A43520B01F4807186
:1004400042EA9111944A1268006802F4806241EA1B
:10045000D21100F0400041EA400038708F4800F0AF
:10046000EDBAF278306862F31F6088B18C4A82423C
:1004700013D8844801224270426082480278022ADE
:1004800008BF491C416000203870864800F0D6BA89
:10049000FF203870834800F0D1BA7A4A00215170A9
:1004A00081490144B1FBF0F0022891BF01217F494D
:1004B000A1FB00104108E0E716F8014B3146002C83
:1004C00008BF4FF48074204602F0A2FD002038706F
:1004D000E01DC0080121401CB8E0307800F00301A5
:1004E0004A1C6849C0F380000A76487600203870BC
:1004F0004FF0011000F0A2BA002007F8010B16F827
:10050000010B4FF00108C146451E28BFDFF8A0A12E
:100510003DD300BF16F8014B14F03F0008BF402048
:10052000C01D4FEAD00BDAF8000014F0800F20F065
:10053000706014BF40F0006040F04070CAF80000E6
:100540004FF4804014BF51494F4908603A46314644
:10055000204602F04BF95DB9DAF8000020F0706037
:1005600040F04070CAF8000047494FF480400860EE
:1005700014F0800F04D05F44D94408F1010804E06E
:1005800008EB0B005E4400F101086D1EC2D249EA7F
:10059000084000F053BA002007F8010B012516F8B7
:1005A000010BA846B0F1010A18D300BF16F8019B51
:1005B00019F03F0008BF4020C01DC4083A4631462C
:1005C000484601F099FB2819451C264419F0800F74
:1005D0001CBF2744A044BAF1010AE7D248EA05400B
:1005E00000F02CBA274D16F8014B0020AC764CB326
:1005F00005F11C0305F124024FEA040116F801CBB2
:1006000003F801CB22F8020B6044491EF6D1CCB1AD
:1006100005F11B0305F1320214F0010F04D013F8A9
:10062000011F401A22F8020F5FEA540C0AD05978D1
:10063000401A508013F8021F401A22F8040FBCF130
:10064000010CF4D100203870601C012141EA004007
:1006500000F0F4B90B490878022836D13078C87612
:10066000897E884231D20E2001F0B8F901F0CEFA2D
:1006700000211FE0386900080C0000200100020082
:100680000800002008010020140C0140100C01405B
:10069000001000E00C0C01400808014001000600B9
:1006A00080A8120101000400FF502502ABAAAAAAEB
:1006B000040C014039707870010AB970010CF970AE
:1006C000000E3871E44800F0B9B9FF2087F8000047
:1006D0004FF0011000F0B2B9E04831780173B6F87C
:1006E00001100182B6F80310418200203870DC4806
:1006F00000F0A4B93946304600F0CEF900F09EB9BA
:10070000D648007801280FD0022877D00020387012
:100710007870B8700320F17811F0020F18BF40F420
:10072000802040F08B8139E1DFF838934FF0000AE8
:10073000504607F1030889F800A0741C34F8025BE6
:100740007DB314F801BB1BF0020F04BF681E0190BB
:1007500043D01BF0010F1CBFC048048A0FD00021FA
:10076000584602F0B5F8022802D0012807D061E00F
:10077000641E5FD399F800100029F0D05AE06C1E77
:1007800058D324B91BF0010F18BF4FF00E0BB3481C
:10079000058A6946584602F09BF8022802D00128D3
:1007A00007D047E06D1E45D399F800100029F0D01E
:1007B00040E0009908F8011B00990AF1010A090AB2
:1007C00008F8011B0099090C08F8011B0099090E93
:1007D00008F8011B641ED4D22CE0E17854F8040B15
:1007E00061F31F6000909D48058A6946584602F0F3
:1007F0006FF8022803D0012808D01BE023E06D1E0B
:1008000018D399F800100029EFD013E001980AF1ED
:10081000010A401E0190E0D29048048A00210E2077
:1008200002F056F8022805D1641E03D399F800108F
:100830000029F3D087F800A04FEA1A217970B87028
:10084000A8EB070067E7FD1C0197864F4FF00008F3
:10085000404687F8008081493278741CCA76897EC8
:100860008A4247D234F802BBBBF1000F42D014F8E1
:10087000019B19F0010F0CBF4FF00A0A4FF00B0A51
:10088000504601F0ABF819F0020F19BF7348048A03
:10089000ABF10100029043D00021484601F088FAF4
:1008A000022802D0012806D06CE0641E6AD3397891
:1008B0000029F1D066E0BBF1010B63D3BBF1000F5F
:1008C0000AD06648048A6946484601F071FA02284F
:1008D0000BD001280FD055E0BAF10A0F1CBF0A2037
:1008E00001F07CF84FF00E09EBE7641E4AD339782B
:1008F0000029E8D046E0009905F8011B009908F1AD
:100900000108090A05F8011B0099090C05F8011BEB
:100910000099090E05F8011BBBF1010BCED231E0A5
:10092000E17854F8040B61F31F6000904B48B0F875
:1009300010B06946484601F03BFA022802D001286F
:1009400007D01FE0BBF1010B1CD339780029F0D090
:1009500018E0029808F10108401E0290E0D2BAF1B6
:100960000A0F1CBF0A2001F039F83C48048A002114
:100970000E2001F01DFA022804D1641E02D339783A
:100980000029F4D001994FEA182281F800800199DA
:100990004A70019988700198281ABCE6B6F80110CF
:1009A0004FF4802202EB8141084347E02B48017855
:1009B000012902D002290BD00FE03179D6F80100CD
:1009C00061F31F6000906946002001F081FF10E094
:1009D0003178C176807E814201D3FF200AE0082071
:1009E00000F0FCFF3179D6F8010061F31F6001F0DF
:1009F0005DFC002038701A4820E03946304602F08D
:100A000083FC1BE03946304602F026FC16E03946EE
:100A1000304602F02FFB11E03946304602F04AFB27
:100A20000CE0384602F040FC08E03946304602F05F
:100A3000D5FB03E03946304602F064FB03B000F119
:100A40000110BDE8F08FFF2007F8010C03B04FF054
:100A50000110BDE8F08F0000050001000801002032
:100A60000100050020000020FF2008704FF0011059
:100A70007047000007480021012201704170426068
:100A8000017364230382418241610276417681765B
:100A900001F036BD080100202DE9F04FFF4E05465C
:100AA00000233078FE4F8FB001281CD0022800F0C0
:100AB0008881AC466D1C15F8010B50B115F8012B5F
:100AC00012F0020F02D012F0100F00D02D1D401EA8
:100AD000F4D10B704B70A5EB0C0002210FB041EA72
:100AE0000040BDE8F08FCDE904510020891C0B9037
:100AF00000913B7007900A9095F80180AD1CB8F109
:100B0000000F00F0538100BF15F8019B19F0020F90
:100B100079D00799A1B3348A09F0110001280BD1CB
:100B200001A9484601F0D4FE02280DD1641E44D329
:100B300039780029F4D0A6E001A90E2001F0C8FE02
:100B4000022804D000210791012836D107E0641E55
:100B500002D339780029EFD00021079193E0DDE935
:100B600000120A70019A0099120A01F8012F019AE5
:100B7000120C01F8012F019A120E4A70891C009183
:100B800019F0100F40D0E87855F804ABB6F812B061
:100B900060F31F6A19F0010F18BF348A0ED00021CC
:100BA000484601F095FE022802D0012806D06AE0EE
:100BB000641E68D339780029F1D064E0348A01A931
:100BC000484601F085FE022802D0012806D010E038
:100BD000641E0ED339780029F1D00AE072690199B8
:100BE0001140514505D0BBF1010B02D339780029E2
:100BF000E4D07169019A1140514518BF40F01000CE
:100C0000012840D138E050E0348A19F0010F13D0A8
:100C1000079989BB0021484601F05AFE022805D0F9
:100C2000012804BF0121079126D02CE0641E2AD39D
:100C300039780029EED026E001A9484601F048FEA7
:100C4000022802D0012806D01DE0641E1BD339788B
:100C50000029F1D017E0DDE900120A70019A00992D
:100C6000120A01F8012F019A120C01F8012F019AC2
:100C7000120E4A70891C009100210A910B99491C9F
:100C80000B913978F1B3B8F1000F0BD015F8011BB7
:100C900011F0020F02D011F0100F00D02D1DB8F18D
:100CA0000108F3D101284BD080E00798002818BF35
:100CB000348A1AD001A90E2001F00AFE02282ED093
:100CC0000128E0D1DDE90001017001990098090ACD
:100CD00000F8011F0199090C00F8011F0199090E84
:100CE0004170801C009000200790E97855F8040BB3
:100CF00019F0200F61F31F6001901ABF706101208D
:100D0000348A00E017E0B9D101A9484601F0E0FDBE
:100D100002280AD0012808BF0121AED0B3E7641E23
:100D2000B1D339780029C5D0ADE7641EABD339788B
:100D30000029E9D0A7E7B8F101087FF4E5AEB1E7F3
:100D40000799002918BF348A20D001A90E2001F08C
:100D5000BFFD022802D0012806D027E0641E25D35B
:100D600039780029F1D021E0DDE900120A70019AFA
:100D70000099120A01F8012F019A120C01F8012FB3
:100D8000019A120E4A70891C00910FE00A990029FD
:100D900018BF348A0AD000210E2001F099FD0228E4
:100DA00004D1641E02D339780029F4D0059A0B9936
:100DB00011700599487005990098411A0498281AED
:100DC0008CE600200491891C06950C9000913B70E4
:100DD00003900A9015F8011BF176B27E914280F0E3
:100DE000628115F8018BB8F1000F00F05C8100BF43
:100DF00015F8019B19F0010F14BF0B240A2419F0F8
:100E0000020F74D00A9981B30398B6F810A0A042DB
:100E100008BF19F0100F0FD003980A2803D00A203A
:100E2000039000F0DBFD02A90E2000F0C1FF0228B4
:100E300012D000210A9105E002A9484600F0B8FF4F
:100E4000022802D0012841D110E0BAF1010A3DD3B5
:100E500039780029F0D0D9E0BAF1010A02D3397803
:100E60000029E0D000210A91D0E010E0009A029918
:100E70001170029A0099120A01F8012F029A120CBD
:100E800001F8012F029A120E4A70891C009119F084
:100E9000100F48D0E87855F804AB03E008010020B3
:100EA0002000002060F31F6A0398B6F812B0A04239
:100EB00003D02046039400F091FD348A0021484677
:100EC00000F076FF022802D0012806D09EE0641EC2
:100ED00044D339780029F1D098E0348A02A94846F1
:100EE00000F066FF022803D0012807D011E036E0A9
:100EF000641E0ED339780029F0D00AE07269029995
:100F00001140514505D0BBF1010B02D339780029BE
:100F1000E3D07169029A1140514518BF40F01000AA
:100F2000012873D16DE00A99A1BB0398A04203D0B8
:100F30002046039400F052FD348A0021484600F018
:100F400037FF022805D0012804BF01210A9158D09B
:100F50005CE0641E5AD339780029EED056E00A9836
:100F600060B303980A2803D00A20039000F036FDEE
:100F7000B6F810A002A90E2000F01AFF022802D035
:100F8000012808D042E0BAF1010A3FD3397800299C
:100F9000F0D03BE035E00099029808700299009883
:100FA000090A00F8011F0299090C00F8011F0299B3
:100FB000090E4170801C009000200A90E97855F8D5
:100FC000040B19F0200F61F31F6002901CBF7061C9
:100FD000012016D10398A04203D02046039400F0CC
:100FE000FDFC348A02A9484600F0E2FE022802D045
:100FF000012806D00AE0641E08D339780029F1D010
:1010000004E00C99491C0C91397891B1B8F1000FAA
:101010000CD000BF15F8011B11F0020F02D011F027
:10102000100F00D02D1DB8F10108F3D1012805D013
:1010300039E0B8F101087FF4DBAEF7E703980A283E
:101040001CBF0A2000F0CAFC348A0A9800B302A927
:101050000E2000F0ADFE022802D0012806D022E0CA
:10106000641E20D339780029F1D01CE0009A02993F
:101070001170029A0099120A01F8012F029A120CBB
:1010800001F8012F029A120E4A70891C00910AE0A1
:1010900000210E2000F08CFE022804D1641E02D331
:1010A00039780029F4D0049A0C9911700499487089
:1010B00004990098411A06980FB0281A41EA004096
:1010C000BDE8F08F70470000044910B5086800F0D3
:1010D0000F004860FFF7F6FF10BD0000000002405F
:1010E00070470000044910B50868C0F303100201FE
:1010F0004A60FFF7F5FF10BD000002407047000096
:10110000044910B50868C0F3032002024A60FFF7E3
:10111000F5FF10BD000002401148816A09684A6865
:101120000146002A496B49681CBF00297047426B81
:101130005161426B4FF0000182F8211041688989AA
:10114000426841F040019181016BC968022908BFE2
:101150007047006B0168002908BF704701200847ED
:1011600044690008044910B50868C0F3033002035D
:101170004A60FFF7D1FF10BD00000240014803F0B4
:10118000CFBB000044690008044910B50868C0F3EB
:10119000034002044A60FFF7F1FF10BD0000024067
:1011A000014803F0BDBB00007C690008044910B58C
:1011B0000868C0F3035002054A60FFF7F1FF10BD55
:1011C000000002401148816A09684A680146002A05
:1011D000496B49681CBF00297047426B5161426BE3
:1011E0004FF0000182F8211041688989426841F07E
:1011F00040019181016BC968022908BF7047006BEB
:101200000168002908BF7047012008477C69000871
:10121000044910B50868C0F3036002064A60FFF78E
:10122000D1FF10BD00000240012818BF704730B444
:101230003248426942F001024261002330480F24E3
:101240004FF0E0224FF0010C08294FD2DFE801F007
:101250004E040D17222D3843836044604FF4006024
:10126000C2F88002C2F8000140E0C361F02343608D
:101270004FF48050C2F88002C2F8000136E00363E8
:101280004FF4706343604FF40050C2F88002C2F81C
:1012900000012BE043644FF4704343604FF48040FF
:1012A000C2F88002C2F8000120E083654FF4702389
:1012B00043604FF40040C2F88002C2F8000115E01C
:1012C000C3664FF4700343604FF48030C2F880026D
:1012D000C2F800010AE0C0F880304FF0706343604C
:1012E0004FF40030C2F88002C2F8000105480CFA41
:1012F00001F102781143017030BC704700100240C8
:101300000000024038000020012818BF704730B4A8
:10131000DFF8D8C09CF80000002804BF30BC70473C
:10132000002001244FF0E022314B08294BD2DFE8A6
:1013300001F04A040E18222C36404FF40065C2F822
:101340008051BFF34F8FBFF36F8F98603BE04FF436
:101350008055C2F88051BFF34F8FBFF36F8FD861B4
:1013600031E04FF40055C2F88051BFF34F8FBFF307
:101370006F8F186327E04FF48045C2F88051BFF3A8
:101380004F8FBFF36F8F58641DE04FF40045C2F8D4
:101390008051BFF34F8FBFF36F8F986513E04FF409
:1013A0008035C2F88051BFF34F8FBFF36F8FD8667F
:1013B00009E04FF40035C2F88051BFF34F8FBFF3FF
:1013C0006F8FC3F8800004FA01F09CF8001031EA36
:1013D00000008CF800001CBF30BC70470548416914
:1013E00021F00101416130BC70470000380000204D
:1013F000000002400010024045F6C0514843401E24
:10140000FDD1704730B505464FF4302000F04AF862
:10141000042818BF30BD0A4C206940F0020020614A
:101420006561206940F0400020614FF4302000F0F9
:1014300039F8216941F6FD721140216130BD00008B
:10144000002002400248016941F0800101617047BB
:101450000020024070B506460D464FF4005000F0E3
:1014600021F8042818BF70BD074C206940F0010026
:10147000206135804FF4005000F014F8216941F6E6
:10148000FE721140216170BD0020024003480249F4
:1014900041600349416070472301674500200240D5
:1014A000AB89EFCD174902460420CB6813F0010F3A
:1014B00025D1CB6813F0040F18BF02201AD1C968D8
:1014C00011F0100F18BF032014E0CB68042013F0B4
:1014D000010F18BF01200AD1CB6813F0040F18BF09
:1014E000022004D1CB6813F0100F18BF0320521E46
:1014F000012804D0002A18BF704705207047002A31
:10150000E3D1FAE70020024081B0002804BF01B017
:10151000704714498A6912F0010F03D18A6942F0B9
:1015200001028A6110F4805FC0F3421200F01F03D1
:101530000D49C0F3032002FA03F200FA03F007D0CA
:10154000CB6923EA020210430090C86101B07047E2
:101550004B6823EA0202104320F0E06000904860EC
:1015600001B0704700100240000001402DE9F00179
:10157000CB78002203F00F0C13F0100F1CBF8B78F8
:1015800043EA0C0C0B784FF00F0613F0FF0F4FF0EF
:10159000010518BF046819D00F8805FA02F31F402F
:1015A0009F420FD1970006FA07F824EA08040CFAC4
:1015B00007F73C43CF78282F08BF436102D0482F5C
:1015C00008BF0361521C082AE6D304600A88FF2A78
:1015D00087BF44680022BDE8F001704702F10803AC
:1015E0000F8805FA03F31F409F420FD1970006FAB8
:1015F00007F824EA08040CFA07F73C43CF78282FB1
:1016000008BF4361CF78482F08BF0361521C082AE6
:10161000E4D34460BDE8F001704700000F2984BFA7
:1016200000207047F0B504460D463448A4F18041CF
:101630001F461646B1F5843104BF8069C0F38000AF
:1016400035D0A4F18042B2F5863204BF8069C0F380
:10165000C0002CD0A4F18042B2F5883204BF80696A
:10166000C0F3001023D0A4F18042B2F58A3204BF47
:101670008069C0F340101AD0A4F18042B2F58C32D8
:1016800004BF8069C0F3801011D0A4F18042B2F58C
:101690008E3204BF8069C0F3C01008D0A4F180422C
:1016A000B2F5903204BF8069C0F3002000D118B9B0
:1016B0000121204600F024F86FB90120A840022E35
:1016C00004BFE16821EA000004D0032E03D1E168E1
:1016D00002260843E060082D24BF241D083D216830
:1016E000A8000F2282409143216047EA860101FA57
:1016F00000F02168084320600120F0BD0010024086
:101700002DE9F001344A354BDFF8D4C0354C364D65
:10171000364E374FDFF8DC8000292FD0404504BF1C
:10172000906940F0040025D0984204BF906940F0D1
:1017300008001FD0604504BF906940F0100019D028
:10174000A04204BF906940F0200013D0A84204BF1B
:10175000906940F040000DD0B04204BF906940F065
:10176000800007D0B84207BF906940F48070BDE8A0
:10177000F00170479061BDE8F0017047404504BF3B
:10178000906920F00400F5D0984204BF906920F0E1
:101790000800EFD0604504BF906920F01000E9D048
:1017A000A04204BF906920F02000E3D0A84204BF0B
:1017B000906920F04000DDD0B04204BF906920F075
:1017C0008000D7D0B84204BF906920F48070D1D097
:1017D000BDE8F0017047000000100240000C01401D
:1017E000001001400014014000180140001C01409D
:1017F00000200140000801402DE9F0410278FF2758
:10180000A2F1D003072B7AD801F8012B0C4610F86F
:10181000011BD03908296ED2DFE801F00412151837
:101820001C2A4A5E4048006804F8010B010A04F8CB
:10183000011B010C04F8011B000E04F8010B5BE016
:10184000FFF724FE58E0FFF7FDFD55E00068FFF7C5
:10185000D9FD51E082880168501E80B24CD300BF90
:1018600011F8012BFF2A1BD1401E80B2F8D243E0B1
:101870008188D0F8008038293ED8851D481E86B260
:101880003AD300BF15F8011B2EB115F8010B41EA40
:101890000021701E86B24046FFF7DCFD042801D00F
:1018A000FF2729E0711E8EB208F10208EAD223E078
:1018B000828801683E2A1FD8002004F8010B501EC0
:1018C00080B219D330B111F8012B401E04F8012B5E
:1018D00080B2F7E70F780FE0BFF34F8F134801682E
:1018E000134A01F4E06111430160BFF34F8F00BF61
:1018F000FDE704E0FFE7641E2770BDE8F0810D48B6
:101900000268002A02BFFF200870BDE8F0810A4982
:101910000A48C368806801EB8311094B5268BDE82F
:10192000F04103EB80101047002004E00CED00E0D4
:101930000400FA0504000020FE2200204C000020D4
:10194000FE12002072B61D48006880F308881C4D06
:10195000A86940F00400A8611A4F6C153C601B4E4A
:1019600019493046FFF702FEA86940F00400A8615B
:101970003C6017493046FFF7F9FD3C6000253E1FEB
:1019800034606420FFF738FD3C6034606420FFF76A
:1019900033FD3C604FF47A70FFF72EFD6D1C052D72
:1019A000EEDBBFF34F8F0B4801680B4A01F4E06197
:1019B00011430160BFF34F8F00BFFDE70000000837
:1019C0000010024014080140E868000800080140C7
:1019D000EC6800080CED00E00400FA052DE9F007C2
:1019E0008849894C0A464B7892F81B80A4F1040C74
:1019F0004FF4804A671402F11C0902EB48064FF4C9
:101A00008075002BCCF800A0276004BF49680A4607
:101A100058D0CCF800702760CCF80070C4F800A053
:101A20002760CCF800702760CCF80070CCF800502C
:101A3000B18C21B12760CCF80070491EFAD118F89A
:101A40000910491E0CD000BF10F0010F14BFCCF8D4
:101A5000005025602760CCF800704008491EF3D183
:101A6000B18E19B310F0010F0CBF2560CCF80050F7
:101A70002760CCF80070CCF80050481E04D02760D6
:101A8000CCF80070401EFAD1CCF800A02760CCF84A
:101A900000702760CCF80070C4F800A02760CCF874
:101AA0000070CCF80050BDE8F0077047CCF800A0FB
:101AB00010F0010F14BFCCF8005025602760CCF85F
:101AC0000070E6E7521EFDD1CCF800700A46521EA7
:101AD000FDD127600A46521EFDD1CCF800700A469F
:101AE000521EFDD1C4F800A027600A46521EFDD147
:101AF000CCF800700A46521EFDD127600A46521EDD
:101B0000FDD1CCF800700A46521EFDD1CCF8005031
:101B1000B38C53B127600A46521EFDD1CCF8007039
:101B20000A46521EFDD15B1EF4D118F80920531E3F
:101B300012D000BF10F0010F14BFCCF80050256088
:101B400027600A46521EFDD1CCF800700A46521E8C
:101B5000FDD140085B1EEDD1B28E4AB310F0010FEB
:101B60000CBF2560CCF8005027600846401EFDD110
:101B7000CCF800700846401EFDD1CCF80050521E33
:101B80000AD027600846401EFDD1CCF800700846F8
:101B9000401EFDD1521EF4D1CCF800A027600846AB
:101BA000401EFDD1CCF800700846401EFDD110E06B
:101BB000CCF800A010F0010F14BFCCF80050256045
:101BC00027600846401EFDD1CCF800700846401E34
:101BD000FDD127600846401EFDD1CCF800700846B4
:101BE000401EFDD1C4F800A027600846401EFDD16C
:101BF000CCF80070491EFDD1CCF80050BDE8F007CC
:101C00007047000008010020140C01402DE9F0018C
:101C1000DFF8D8C04FF48044CCF800400CF1040346
:101C200062101A60324D68680146401EFDD1CCF842
:101C300000200846401EFDD11C601A600846401E68
:101C4000FDD1CCF800200846401EFDD11A600846A0
:101C5000401EFDD1CCF800200846401EFDD1ED7E8F
:101C600055B11A600846401EFDD1CCF80020084648
:101C7000401EFDD16D1EF4D100261E4F1F251A6097
:101C80000846401EFDD13868CCF80020C0F38028FB
:101C90000846401EFDD146EAC87046086D1EEED1CA
:101CA000CCF800401A600846401EFDD13868CCF8D8
:101CB0000020C0F380250846401EFDD146EAC570CD
:101CC0001A600D466D1EFDD1CCF800200D466D1E2C
:101CD000FDD11C601A600B465B1EFDD1CCF80020C4
:101CE000491EFDD1BDE8F00170470000100C014015
:101CF00008010020080801402DE9F74F009810F076
:101D00003F0C08BF4FF0400C10F0400F254E4FF431
:101D10008040A6F1040714BF38603060BCF1000FAA
:101D200004BF03B0BDE8F08F4FF4807ADFF878B0DD
:101D30004FF400591D4811F8014B4FF000080825D9
:101D400043681DE014F0010F14BFC7F800A0C6F8E7
:101D500000A0C6F800901846401EFDD1DBF8000038
:101D6000C7F80090C0F3802E1846401EFDD16408CD
:101D70004FEA580040EACE186D1EACF1010C02D0BB
:101D8000BCF1000FDED1009B28FA05F013F0800FA4
:101D900018BF02F8010BBCF1000FCBD103B0BDE8B6
:101DA000F08F0000140C01400808014008010020D9
:101DB0002DE9F05FDFF8C0E19EF80120002A00F075
:101DC000D780DFF8B8C14FF48049CCF800900CF10F
:101DD00004074FF400533B60CCF80030C7F8009084
:101DE0003B60CCF800303B60CCF800309EF81B2004
:101DF00022B13B60CCF80030521EFAD1420812F0FA
:101E0000010F4FF4807414BFCCF800403C603B607D
:101E10005B4D2A68CCF80030C2F38022520086085D
:101E200016F0010F14BFCCF800403C603B602E68F8
:101E3000CCF80030C6F380263243C60816F0010FF6
:101E400014BFCCF800403C603B602E68CCF80030FA
:101E5000C6F3802642EA860ABAF1010F59D1464EEE
:101E600010F0020FB27EF67EA2EB060B14BF002626
:101E700009684FF01F022DD03B60D5F80080CCF8E8
:101E800000304FEA982846EAC8767608521EF3D109
:101E9000BBF1010210D03B602D68CCF80030C5F3D7
:101EA0008025521E04D03B60CCF80030521EFAD17F
:101EB000CCF800903B6005E0CCF800903B602A68CD
:101EC000C2F38025CCF8003046EAC572002918BF5D
:101ED0000A6023E011F0010F14BFCCF800403C6011
:101EE0003B60CCF800304908521EF3D1BBF101022F
:101EF00032D011F0010F0CBF3C60CCF800403B60C9
:101F0000CCF80030511E04D03B60CCF80030491EA4
:101F1000FAD1CCF800903B60CCF800303B60CCF8B4
:101F20000030C7F800903B60CCF80030CCF800409F
:101F300010F0800F03D013484068CEF808009EF8D8
:101F40000C00002805DD3B60CCF80030401E002866
:101F5000F9DC5046BDE8F09FCCF8009011F0010F7D
:101F600014BFCCF800403C603B60CCF80030D5E7B3
:101F7000BDE8F05F00F008B808010020100C014037
:101F800008080140001000E02DE9F84FDFF80C834D
:101F90004FF48047C8F8007008F1040A7E10CAF8B0
:101FA0000060DFF8FC92D9F8042013465B1EFDD1D7
:101FB000C8F8006013465B1EFDD1CAF80070CAF86D
:101FC000006013465B1EFDD1C8F8006013465B1E1F
:101FD000FDD1CAF8006013465B1EFDD1C8F8006051
:101FE00013465B1EFDD199F81BC0BCF1000F0CD04D
:101FF000CAF8006013465B1EFDD1C8F800601346A6
:102000005B1EFDD1BCF1010CF2D1430813F0010FAE
:102010004FF4807414BFC8F80040CAF80040CAF8F2
:10202000006013465B1EFDD19E4D2B68C8F8006012
:10203000C3F3802C13465B1EFDD183084FEA4C0C82
:1020400013F0010F14BFC8F80040CAF80040CAF8E6
:10205000006013465B1EFDD12B68C8F80060C3F317
:10206000802B13465B1EFDD1C3084CEA0B0C13F00A
:10207000010F14BFC8F80040CAF80040CAF8006059
:1020800013465B1EFDD12B68844EC3F3802B4FF4A7
:102090000053336013465B1EFDD14CEA8B0EBEF13C
:1020A000010F0DD07D4B1F604FF4005CCAF800C0DB
:1020B0001146491EFDD1C3F800C0521EFDD1B7E044
:1020C000774B10F0020F93F81AC0DB7EACEB0303E2
:1020D000009358D0DFF8C48100264FF01F094FF459
:1020E000005C00BFCAF800C013465B1EFDD12B6820
:1020F000C8F800C0C3F3802B13465B1EFDD146EA2F
:10210000CB735E08B9F10109ECD1009BB3F1010971
:1021100008BFC8F80070CAF800C0134624D05B1E80
:10212000FDD12B68C8F800C0C3F3802B13465B1E9B
:10213000FDD1B9F101050BD0CAF800C013465B1EF2
:10214000FDD1C8F800C013465B1EFDD16D1EF3D152
:10215000C8F80070CAF800C013465B1EFDD1C8F86D
:1021600000C0521EFDD108E05B1EFDD12B68C8F8EF
:1021700000C0C3F3802B521EFDD146EACB7200296A
:1021800018BF0A6054E0454ED1F800304FF01F0CE4
:10219000D046751413F0010F14BF3460C8F8004026
:1021A000C8F800501146491EFDD135601146491E40
:1021B000FDD15B08BCF1010CECD10099B1F1010C2F
:1021C00027D013F0010F0CBFC8F800403460C8F8E6
:1021D00000501146491EFDD135601146491EFDD102
:1021E000BCF101030BD000BFC8F800501146491ED6
:1021F000FDD135601146491EFDD15B1EF4D137601B
:10220000C8F800501146491EFDD13560521EFDD15F
:102210000EE0376013F0010F14BF3460C8F80040BF
:10222000C8F800501146491EFDD13560521EFDD13F
:102230004FF40053CAF80030DFF864C0DCF8041033
:102240000A46521EFDD1154D2B600A46521EFDD185
:10225000CAF80070CAF800300A46521EFDD12B6041
:102260000A46521EFDD12C6010F0800F03D00E489C
:102270004068CCF808009CF80C00421E0BD300BF4D
:10228000CAF800300846401EFDD12B600846401EAB
:10229000FDD1521EF4D27046BDE8F88F100C0140FB
:1022A0000801002008080140001000E02DE9F003BB
:1022B0005F4B4FF480461E6003F1040C5A14CCF8B7
:1022C0000020DFF87081D8F804100C46641EFDD1A0
:1022D0001A600C46641EFDD1CCF80060CCF80020DA
:1022E0000C46641EFDD11A600C46641EFDD1CCF86C
:1022F00000200C46641EFDD11A600C46641EFDD100
:1023000098F81B502F1E0AD0CCF800200C46641EF3
:10231000FDD11A600C46641EFDD16D1EF4D14FF440
:102320008074CCF80040CCF800200D466D1EFDD125
:102330001A600D466D1EFDD1CCF800200D466D1EB5
:10234000FDD11A600D466D1EFDD1CCF800200D4662
:102350006D1EFDD11A600D466D1EFDD14FF01F0997
:1023600010F0010F14BF1C60CCF80040CCF8002026
:102370000D466D1EFDD11A600D466D1EFDD1400843
:10238000B9F10109ECD198F81A50ED1B6F1E27D056
:1023900010F0010F0CBFCCF800401C60CCF80020FE
:1023A0000846401EFDD115461A600846401EFDD164
:1023B0007F1E0AD0CCF800500846401EFDD11D609B
:1023C0000846401EFDD17F1EF4D11E60CCF800509F
:1023D0000846401EFDD11D600846401EFDD10FE09D
:1023E0001E6010F0010F14BF1C60CCF80040CCF848
:1023F00000200846401EFDD11A600846401EFDD14F
:10240000CCF800200846401EFDD11A600846401E48
:10241000FDD1CCF80060CCF800200846401EFDD16C
:102420001A60491EFDD11C60BDE8F0037047000032
:10243000100C01400801002007494FF400700860AB
:102440000648417821F0010141704FF0E020016918
:1024500041F00101016170471408014000000020B3
:102460000E4A4FF4007111600D4B10F0010F4FF048
:10247000E02093F801C04CF0010C83F801C005D0B6
:10248000036923F00103036111607047026942F0A0
:10249000010202610348016070470000100801401A
:1024A00000000020140801400F4810B54FF4C0414F
:1024B0000160811501600D490D48FFF757F80E4C7A
:1024C0000C492046FFF752F80C492046FFF74EF81A
:1024D000002004F0C3F96420FEF78EFFBDE8104031
:1024E000012004F0BBB90000100C0140FC6800089A
:1024F0000008014004690008000C01400069000860
:1025000010B50A4C08492046FFF730F80849204624
:10251000FFF72CF807490848FFF728F82046BDE8E0
:1025200010400649FFF722B80C690008000C014072
:1025300008690008106900080008014014690008D3
:102540000E4910B54FF4C04008600E4C0C492046AF
:10255000FFF70CF80C490D48FFF708F80C49204626
:10256000FFF704F8002004F079F96420FEF744FF37
:10257000BDE81040012004F071B90000100C0140CA
:10258000F0680008000C0140F468000800080140F1
:10259000F8680008704700002DE9F0078F4C4FF4F1
:1025A000804600272660251D4FF4005CC5F800C05A
:1025B000DFF82C82D8F8042013465B1EFDD1C4F846
:1025C00000C013465B1EFDD110F0010F14BF266042
:1025D0002E60C5F800C013465B1EFDD1C4F800C0D4
:1025E00013465B1EFDD107EB0009470817F0010FEA
:1025F00014BF26602E60C5F800C013465B1EFDD1D7
:10260000C4F800C013465B1EFDD1B944870817F01B
:10261000010F14BF26602E60C5F800C013465B1E74
:10262000FDD1C4F800C013465B1EFDD109EB0703C2
:10263000C70817F0010F14BF26602E60C5F800C050
:102640001046401EFDD1C4F800C01046401EFDD10A
:10265000D81910F0010F14BF26602E60C5F800C015
:102660001046401EFDD1C4F800C01046401EFDD1EA
:102670002E60C5F800C01046401EFDD1C4F800C051
:102680001046401EFDD12660C5F800C01046401E11
:10269000FDD1C4F800C01046401EFDD1514F38682E
:1026A00020F0706040F000603860266098F81830C4
:1026B000B3F100080CD000BFC5F800C01046401EA2
:1026C000FDD1C4F800C01046401EFDD15B1EF3D101
:1026D000C5F800C01046401EFDD1DFF80C91D9F8B6
:1026E000000010F4804F14BF01230023C4F800C081
:1026F0001046401EFDD1C5F800C01046401EFDD159
:10270000D9F8000010F4804F14BF4FF0010A4FF0C9
:10271000000AC4F800C01046401EFDD143EA4A0337
:10272000C5F800C01046401EFDD1D9F8000010F4D5
:10273000804F14BF4FF001094FF00009C4F800C0EA
:102740001046401EFDD143EA8900B8F1000F0CD0BD
:10275000C5F800C013465B1EFDD1C4F800C0134687
:102760005B1EFDD1B8F10108F2D13B6823F0706324
:1027700043F040733B602E604FF000084FF020099B
:1027800011F0010F14BF26602E60C5F800C013467B
:102790005B1EFDD1C4F800C013465B1EFDD188440A
:1027A0004908B9F10109EBD118F0010F14BF2660F7
:1027B0002E60C5F800C01146491EFDD1C4F800C006
:1027C000521EFDD1396821F0706141F040713960CD
:1027D0002E602660BDE8F00770470000100C014035
:1027E00008010020040C0140080C01402DE9F0070D
:1027F00010F03F0308BF402310F0800FDFF8C480C3
:10280000DFF8C4904FF40055A8F104062FD0002B38
:1028100012BF2E4FBDE8F007704700244FF0080CA0
:10282000D9F8041014E0401EFDD1386810F4804F30
:1028300014BF4FF0010A4FF0000A35600846401EF1
:10284000FDD160085B1E40EACA14BCF1010C05D042
:10285000002B1CBFC8F800500846E4D124FA0CF045
:1028600002F8010B002BD8D1BDE8F0077047002B10
:1028700019BF4FF48047D9F80420BDE8F00770472E
:1028800011F801CB082413E01CF0010F14BF3760CE
:10289000C8F80070C8F800501046401EFDD13560E1
:1028A0001046401EFDD15B1E4FEA5C0C641E04D036
:1028B000002BE9D1BDE8F0077047002BE0D1BDE85F
:1028C000F0077047140C014008010020080C01407B
:1028D000034A52780AB100F005B800F07BB9000055
:1028E000080100202DE9F04FDFF8D4C24FF4804AF0
:1028F000CCF800A00CF104074FF40058C7F8008092
:10290000CCF8008010F0010F14BFCCF800A0C7F87D
:1029100000A0C7F80080CCF80080420812F0010F38
:1029200014BFCCF800A0C7F800A0C7F80080CCF80E
:1029300000808318820812F0010F14BFCCF800A0A9
:10294000C7F800A0C7F80080CCF800801344C20884
:1029500012F0010F14BFCCF800A0C7F800A0C7F810
:102960000080CCF800801A4412F0010F14BFCCF89C
:1029700000A0C7F800A0C7F80080CCF80080C7F816
:1029800000A0C7F80080CCF80080CCF800A0C7F801
:102990000080CCF80080DFF82CB2DBF8002022F0B9
:1029A000706242F00062CBF80020CCF800A0DFF8A3
:1029B00018E29EF81820131E06D000BFC7F800804A
:1029C000CCF80080521EF9D1C7F80080DFF8FC91E6
:1029D000D9F8002012F4804218BF0122CCF8008000
:1029E000C7F80080D9F8004014F4804418BF0124CF
:1029F000CCF8008042EA4402C7F80080D9F80040D1
:102A000014F4804418BF0124CCF8008042EA840208
:102A1000012A1CD0022A18BF042A7DD013F12100FC
:102A200006D000BFC7F80080CCF80080401EF9D166
:102A3000DBF8000020F0706040F04070CBF8000040
:102A4000C7F800A0CCF800A01046BDE8F08F10F049
:102A5000020F4ED000252C465FF02003C7F80080FF
:102A6000D9F8006016F4804618BF0126CCF8008023
:102A70006D08344445EAC6755B1EEFD14346C7F87E
:102A80000080D9F8006016F4804618BF0126CCF803
:102A90000030744014F0010F18BF0822002918BF3D
:102AA0000D609EF8181021B13B60CCF80030491E33
:102AB000FAD1DBF8001021F0706141F04071CBF8E1
:102AC0000010C7F800A000BF10F0800F03D04048EE
:102AD0004068CEF808009EF80C00002818BFC7F820
:102AE00000A067D0C7F80080CCF80080401EF9D164
:102AF00060E02BB1C7F80080CCF800805B1EF9D1F4
:102B0000DBF8003023F0706343F04073CBF8003003
:102B1000C7F800A0096800E01DE000235FF0200472
:102B200011F0010F14BFCCF800A0C7F800A0C7F83F
:102B30000080CCF800800B444908641EF0D113F0EB
:102B4000010F14BFCCF800A0C7F800A0C7F80080A0
:102B5000CCF80080B8E79EF81940002C1CBF10F09C
:102B6000020F212106D000BFC7F80080CCF80080FA
:102B7000491EF9D133B100BFC7F80080CCF80080FE
:102B80005B1EF9D1DBF8001021F0706141F040715B
:102B9000CBF80010C7F800A064B110F0020F04BF1A
:102BA000C7F800A0212005D1C7F80080CCF800802C
:102BB000401EF9D1CCF800A01046BDE8F08F00000F
:102BC000100C0140040C014008010020080C0140D9
:102BD000001000E02DE9F04FFF4F4FF4804E4FF012
:102BE000000CC7F800E03E1D4FF40059C6F80090F5
:102BF000FA4D6A6813465B1EFDD1C7F80090134674
:102C00005B1EFDD110F0010F14BFC7F800E0C6F83D
:102C100000E0C6F8009013465B1EFDD1C7F8009097
:102C200013465B1EFDD10CEB00044FEA500C1CF068
:102C3000010F14BFC7F800E0C6F800E0C6F8009026
:102C400013465B1EFDD1C7F8009013465B1EFDD1F5
:102C500064444FEA900C1CF0010F14BFC7F800E069
:102C6000C6F800E0C6F8009013465B1EFDD1C7F819
:102C7000009013465B1EFDD164444FEAD00C1CF05B
:102C8000010F14BFC7F800E0C6F800E0C6F80090D6
:102C900013465B1EFDD1C7F8009013465B1EFDD1A5
:102CA00004EB0C0313F0010F14BFC7F800E0C6F8E3
:102CB00000E0C6F8009013465B1EFDD1C7F80090F7
:102CC00013465B1EFDD1C6F800E0C6F8009013461F
:102CD0005B1EFDD1C7F8009013465B1EFDD1C7F8FF
:102CE00000E0C6F8009013465B1EFDD1C7F80090C7
:102CF00013465B1EFDD1BA4BD3F800C02CF0706CAC
:102D00004CF0006CC3F800C0C7F800E095F818C09C
:102D1000BCF100040DD000BFC6F8009013465B1E46
:102D2000FDD1C7F8009013465B1EFDD1BCF1010C2C
:102D3000F2D1C6F8009013465B1EFDD1DFF8A482E5
:102D4000D8F8003013F4804F14BF4FF0010C4FF04F
:102D5000000CC7F8009013465B1EFDD1C6F800902A
:102D600013465B1EFDD1D8F8003013F4804F14BF1A
:102D70004FF0010A4FF0000AC7F8009013465B1E9F
:102D8000FDD14CEA4A0CC6F8009013465B1EFDD1FB
:102D9000D8F8003013F4804F14BF4FF0010A4FF001
:102DA000000AC7F8009013465B1EFDD14CEA8A0C5E
:102DB000BCF1010F22D0BCF1020F18BFBCF1040F0F
:102DC00078D014F121010BD0C6F800901046401EB7
:102DD000FDD1C7F800901046401EFDD1491EF3D129
:102DE0007F48016821F0706141F040710160C6F8D0
:102DF00000E0C7F800E06046BDE8F08F10F0020F79
:102E000059D000252C464FF0200A00BFC6F800908C
:102E100013465B1EFDD1D8F8003013F4804F14BF69
:102E20004FF0010B4FF0000BC7F8009013465B1EEC
:102E3000FDD16B085C4443EACB75BAF1010AE5D1D8
:102E4000CA46C6F80090DFF894B113465B1EFDD168
:102E5000D8F8003013F4804318BF0123C7F800A04E
:102E6000521EFDD184EA030212F0010F18BF4FF089
:102E7000080C002918BF0D609BF81830002B18BFF4
:102E8000DBF804200CD000BFC6F800A01146491E94
:102E9000FDD1C7F800A01146491EFDD15B1EF3D13C
:102EA0004F490A6822F0706242F040720A60C6F828
:102EB00000E040E05BE05CB1C6F8009013465B1EAA
:102EC000FDD1C7F8009013465B1EFDD1641EF3D1FF
:102ED000434B1C6824F0706444F040741C60F0465E
:102EE000C6F800E0096800245FF0200511F0010F2A
:102EF00014BFC7F80080C6F80080C6F800901346DB
:102F00005B1EFDD1C7F8009013465B1EFDD10C443B
:102F100049086D1EEAD114F0010F14BFC7F80080F4
:102F2000C6F800804B46C6F800901146491EFDD1F8
:102F30003B60521EFDD110F0800F03D02A4840683C
:102F4000264988602548017B00291CBFC6F800E09F
:102F5000426857D0C6F800901046401EFDD1C7F811
:102F600000901046401EFDD1491EF3D14AE01B4996
:102F70004D7E002D1CBF10F0020F21230CD000BF8E
:102F8000C6F800901146491EFDD1C7F800901146C1
:102F9000491EFDD15B1EF3D164B100BFC6F800909D
:102FA0001146491EFDD1C7F800901146491EFDD1BA
:102FB000641EF3D10A490B6823F0706343F0407339
:102FC0000B60C6F800E0EDB110F0020F04BFC6F8C8
:102FD00000E0212116D109E0100C01400801002079
:102FE000040C0140080C0140001000E0C6F80090FD
:102FF0001046401EFDD1C7F800901046401EFDD17E
:10300000491EE8D1C7F800E06046BDE8F08F000037
:103010002DE9F001441E3CBFBDE8F00170474FF4BC
:1030200080481348114E371F4268751411F8013B50
:103030004FF0080C13F0010F14BFC7F80080C6F85A
:10304000008035601046401EFDD13D601046401E98
:10305000FDD15B08ACF1010C641E3CBFBDE8F00182
:103060007047BCF1000FE5D1E0E70000140C01400F
:103070000801002070B50C46C17800680C4D61F362
:103080001F60A978012918BF00200BD00021E9702A
:103090002070010A6170010CA170000EE0704FF009
:1030A000041070BD00F062FA0028F1D1EEE70000D4
:1030B000240000202DE9F0410078114C00F00106B9
:1030C0000025E0780F4600F00100B04210D02EB18C
:1030D000A01D057045702571A560E560A0780128E8
:1030E00008D1304600F096FA002818BFE67001D0EB
:1030F0003D7001E0FF2038704FF00110BDE8F08115
:10310000240000202DE9F047324C80460E462279FB
:10311000A11D82F001002071E0788B5C4FF0000966
:1031200043EA000701F80290012811D0A068E16885
:10313000451A6178012918BF002518D006F8017BCF
:10314000280A06F8015B012906F8010B16D038E0C1
:1031500084F80590A068E168451AA078012802D19A
:1031600000F088FA054460790028F1D1E1E7B8F869
:1031700000003C282AD88542E0D929E0E368DFF83E
:1031800058C01846290008D0C0F30B021CF80200F2
:1031900006F8010B501C491EF6D15819E060E07882
:1031A00003280ED1A068E168411AB1F5805F08D20A
:1031B000A178C0F30B00012903D1E170604400F055
:1031C0001FFAE81C40F40030BDE8F0873C20D2E74D
:1031D0000546B3E7240000204C0100202DE9F04112
:1031E0001C4D002790F800C0EB780C461CF0010F36
:1031F000B8460BD02879AA1D80F001012971115C15
:1032000002F80080194304F8011B01271CF0020F8B
:103210000CD0012B0ED0A868E968461A2670300A37
:103220006070300CA070300EE0703F1D47F48030AD
:10323000BDE8F08185F80580A868E968461AA87895
:10324000012802D100F016FA064468790028F1D16D
:10325000E4E70000240000202DE9F041114C07783C
:103260000E46A078012804BF002000F011FA0025C6
:10327000002F08BF012005D0012F0AD1012000F046
:1032800007FA30B1A770E570002818BF357004D177
:1032900001E0A570E570FF2030704FF00110BDE82F
:1032A000F0810000240000202DE9F041154D074673
:1032B0000026287980F001012971A91DEA780B5CAC
:1032C0000E5443EA0208012A0ED0A868E968441A9D
:1032D00087F800807C70200AB870200CF870200EEF
:1032E00038710520BDE8F0816E71A868E968441A5C
:1032F000A878012802D100F0BDF9044468790028BB
:10330000F2D1E5E724000020084AD37813F0010F3A
:1033100004D0FF2008704FF001107047007800289B
:1033200012BF012850700020F3D1F3E724000020E1
:103330004FF0E021042808690CBF40F0040020F0A1
:103340000400086170470000154830B40178DFF8C8
:1033500054C0491ECBB2037044784FF4007114F08E
:10336000020F0CF1040206D024F00204447013F0A2
:10337000010F03D011E013F0070F0ED01160407859
:1033800010F0010F04BF30BC704713F0030F0CBFE7
:10339000CCF80010116030BC7047CCF80010EEE79C
:1033A000000000201008014016494868164A10F035
:1033B0000C03164818BF042B01D0082B01D0026063
:1033C00015E04A684B6802F470124FF0020C13F4D7
:1033D000803F0CEB924203D04B6813F4003F03D0C4
:1033E0000B4B5A43026002E0074B5A4302604968A4
:1033F000084AC1F30311515C026822FA01F101602D
:10340000704700000010024000127A000C000020FB
:1034100000093D0010000020384881B0016841F0EB
:10342000010101604168364A11404160016821F4A0
:10343000102121F080710160016821F48021016078
:10344000416821F4FE0141604FF41F0181600022B8
:103450000092016841F480310160016811F4003F7D
:1034600003D10099B1F5A06FF7D1016811F4003FC5
:1034700018BF00923BD023490A6842F010020A604C
:103480000A6822F003020A600A6842F002020A6037
:103490004168416041684160416841F48061416038
:1034A000416821F47C11416000990029416814BFF2
:1034B00041F4D00141F4E8114160016841F08071AC
:1034C0000160016811F0007FFBD0416821F0030129
:1034D0004160416841F002014160416801F00C0126
:1034E0000829FAD108060849086001B07047016848
:1034F00021F48031016001210091BCE700100240FD
:103500000000FFF80020024008ED00E070B504461E
:103510001148124D14F0020F017841F002010170C0
:1035200009D00F48016801F580610160AA694FF474
:1035300080610C48904714F0010F08BF70BD4FF434
:103540008061094801F032FB011ED8BF70BD0648FA
:103550006A69BDE87040104701000020246A000835
:1035600060000020FE320020FE36002070B50646C6
:103570001F48864288BF06461E4C1F4DE07810F05B
:10358000010F11D00021AA6A16209047E86A8047EF
:1035900010F0020F08D0686A8047A1680844A06054
:1035A0000021AA6A19209047AA6A31460120904753
:1035B00010B10020207070BD01202070E07810F064
:1035C000010F12D010F0020F0BD1A0680B4AC0F30C
:1035D0000B0000F03F01C1F1400110442161AA69D4
:1035E00090470121AA6A16209047304670BD00001E
:1035F00040420F0024000020EC6900084C0100202C
:10360000024A1161024A926910470000240000201A
:10361000EC69000870B5144D144C88B12878002866
:1036200008BF70BD012028610146A269104890477B
:1036300020B90121A26A1620904798B1002070BDE0
:103640000021A26A16209047E06A804710F0020F1E
:1036500008D0606A8047A9680844A8600021A26A6F
:1036600019209047012070BD24000020EC6900085B
:103670004C01002010B5054CE06A804710F00200B4
:1036800008BF10BD606ABDE810400047EC69000843
:1036900010B5114A0021114C117070B1A168104889
:1036A000884700281CBF002010BD022021698847E0
:1036B00080B1E0688047002010BD0021A26A16207A
:1036C00090470021A26A192090472169002088476D
:1036D000E0688047012010BD24000020EC6900084C
:1036E000CD3C0008014A00F02DBB000044690008F1
:1036F00001480068704700004469000881B00098E4
:1037000020F0010000901E48016B0969002918BFD4
:10371000B1F5803F0ED1C16961B10968C06989689E
:10372000007921FA00F010F0010F03D1009840F069
:1037300001000090009820F002000090009820F016
:1037400008000090009820F004000090009961F3B8
:10375000000000994FEA510161F3410000994FEADE
:10376000910161F3820000994FEAD10161F3C30036
:10377000009901B04FEA111161F31F10704700006A
:10378000446900080648C16A002902BF406B00690D
:10379000704709684968406B0068401A704700002C
:1037A000446900082C4881B0416B91F82110002930
:1037B0001CBF009941F0010107D14168098801222D
:1037C00022EA9112009962F300010091016B4A799B
:1037D000009962F341010091016B8A79009962F3CB
:1037E00082010091016BCA79009962F3C3010091D3
:1037F000016B0A7A009962F304110091016B4A7A15
:10380000009962F345110091006B817A009861F391
:1038100086100090009961F300000099490861F357
:1038200041000099890861F382000099C90861F399
:10383000C3000099090961F304100099490961F373
:1038400045100099890961F38610009901B0C909F2
:1038500061F3DF1070470000446900080648816A80
:10386000002902BF406B4069704709684968406B96
:103870004068401A7047000044690008014800F0A1
:1038800091BD000044690008014900F0D0BE00006D
:1038900044690008014900F019BF000044690008AC
:1038A000014A01F077B8000044690008014A01F0BC
:1038B0000AB90000446900081649012228B101280C
:1038C00013D000BF4FF0FF307047086B006900282D
:1038D00018BFB0F5003FF5D18869B8B189690068B3
:1038E000097902FA01F1016110E0086B0069002812
:1038F00018BFB0F5003FE5D1886938B18969006823
:10390000097901F1100102FA01F101614FF00000A3
:10391000704700004469000870B5144E05000B465E
:10392000144619BF002B002C6FF0040070BD316BE2
:10393000C87A10F0040F4FF0FF3008BF70BDC9689F
:10394000022918BF70BD0320716B3246C861214641
:10395000184601F01FF8002818BF70BD32462146F6
:103960002846BDE8704001F0AEB800004469000888
:1039700010B5184CE06828B18188002300681A4609
:10398000FDF74CFE206928B18188002300681A46A3
:10399000FDF744FE606928B18188002300681A465B
:1039A000FDF73CFEA06928B18188002300681A4613
:1039B000FDF734FEE06928B18188002300681A46CB
:1039C000FDF72CFE208CFDF79FFD216B0020C872B7
:1039D00010BD000044690008014A00F0B3B90000BE
:1039E0007C69000801480068704700007C69000895
:1039F00081B0009820F0010000901E48016B096919
:103A0000002918BFB1F5803F0ED1C16961B10968C5
:103A1000C0698968007921FA00F010F0010F03D124
:103A2000009840F001000090009820F00200009003
:103A3000009820F008000090009820F0040000900A
:103A4000009961F3000000994FEA510161F34100D0
:103A500000994FEA910161F3820000994FEAD10188
:103A600061F3C300009901B04FEA111161F31F1017
:103A7000704700007C6900080648C16A002902BF3F
:103A8000406B0069704709684968406B0068401ADC
:103A9000704700007C6900082C4881B0416B91F8A8
:103AA000211000291CBF009941F0010107D1416894
:103AB0000988012222EA9112009962F30001009123
:103AC000016B4A79009962F341010091016B8A7997
:103AD000009962F382010091016BCA79009962F347
:103AE000C3010091016B0A7A009962F304110091FD
:103AF000016B4A7A009962F345110091006B817A5B
:103B0000009861F386100090009961F3000000991D
:103B1000490861F341000099890861F38200009926
:103B2000C90861F3C3000099090961F30410009901
:103B3000490961F345100099890961F386100099DC
:103B400001B0C90961F3DF10704700007C6900080B
:103B50000648816A002902BF406B406970470968C6
:103B60004968406B4068401A704700007C69000853
:103B7000014800F017BC00007C690008014900F012
:103B800056BD00007C690008014900F09FBD00009F
:103B90007C690008014A00F0FDBE00007C69000855
:103BA000014A00F090BF00007C690008164901221C
:103BB00028B1012813D000BF4FF0FF307047086BC9
:103BC0000069002818BFB0F5003FF5D18869B8B189
:103BD00089690068097902FA01F1016110E0086B56
:103BE0000069002818BFB0F5003FE5D1886938B1F9
:103BF00089690068097901F1100102FA01F1016196
:103C00004FF00000704700007C69000870B5144E4A
:103C100005000B46144619BF002B002C6FF0040062
:103C200070BD316BC87A10F0040F4FF0FF3008BF41
:103C300070BDC968022918BF70BD0320716B324680
:103C4000C8612146184600F0A5FE002818BF70BDC7
:103C5000324621462846BDE8704000F034BF0000DF
:103C60007C69000810B5184CE06828B181880023F1
:103C700000681A46FDF7D2FC206928B1818800232C
:103C800000681A46FDF7CAFC606928B181880023E4
:103C900000681A46FDF7C2FCA06928B1818800239C
:103CA00000681A46FDF7BAFCE06928B18188002354
:103CB00000681A46FDF7B2FC208CFDF725FC216B4D
:103CC0000020C87210BD00007C69000870B5194C56
:103CD000054610F0020F1AD0E068A16822690A4474
:103CE000A26002F03F01C1F14001101AC1F58053FA
:103CF000984284BF0320E07007D8C2F30B000E4A3D
:103D0000216110440D4A92699047012060710C486E
:103D100015F0200F04D02179425C42F08002425419
:103D200015F4607F08BF70BD2179425C42F040020B
:103D3000425470BD240000204C010020EC690008B2
:103D40002A0000202DE9F05F136B1446DA7A12F096
:103D5000020F00F0BB814FF0000800F0FF0CACF147
:103D60001507454646464246062F80F00981DFE8A2
:103D700007F08ABC0325445C606B79B190F8211090
:103D8000002940F01C81012180F82110606B80F82F
:103D900020106068818941F081018BE090F820005B
:103DA00000286DD06068818921F080018181606B7D
:103DB00080F82020606B80F8212061E060688189B4
:103DC00021F0C0018181A06A70B1606B90F8210080
:103DD00050B16068818A21F080018182A06A006808
:103DE000016821F001010160606B80F82020606BA8
:103DF00080F821200020BDE8F09F6068818921F0D3
:103E000020018181E06A68B1206B407950B160681F
:103E1000818A21F040018182E06A0068016821F016
:103E200001010160206B42712AE06068818921F004
:103E3000E0018181A06A70B1606B90F8210050B1FF
:103E40006068818A21F080018182A06A006801682F
:103E500021F001010160E06A68B1206B407950B146
:103E60006068818A21F040018182E06A006801680F
:103E700021F001010160206B4271606B80F821200C
:103E80000020BDE8F09FE068002800F01F8199B194
:103E9000D968062905D08188006803230222FDF72E
:103EA000BDFB206BC17A41F00801C1726068818955
:103EB00041F008018181E3E76068818921F0080110
:103EC0008181206BC17A21F00801C172206BC0682A
:103ED00006281CBFE0680028D2D081884FF000037C
:103EE00000681A46FDF79AFBCAE72069002875D0DA
:103EF00091B3D968062918BF042907D081880068C2
:103F00004FF000034FF00102FDF788FB206BC17AF0
:103F100041F01001C1726068818A41F00101818223
:103F20006068018A41F0400101826068818941F046
:103F300010018181206B407900281CBFE06A0028B5
:103F400004D16068818941F02001818160688189A4
:103F500041F00401818193E7FFE76068818921F0E6
:103F600004018181206BC17A21F01001C172206BA4
:103F7000C06806281EBF042820690028ADD17FE74D
:103F80005A79E2B9626B92F82120C2B962689789C6
:103F900017F0080F03D0178817F0400F0FD0BCF1AF
:103FA000150F7DD2DFE80CF0A10F11351B202EA1DB
:103FB000A1A1A1A1A1A1A1A1393C5E688F006FF0D0
:103FC0000100BDE8F09F012312E0237813F0020FF7
:103FD0001CBF4FF4106502230AD11AE076E04FF0BF
:103FE00008064FF0040303E04FF002064FF005030C
:103FF00010F4E06C76D0BCF5807F74D0BCF5E06F37
:1040000077D0BDE0237813F0200F1CBF20260623B5
:10401000EED16FF00600BDE8F09F606B41832FE7A3
:10402000D868052852D000293FF42AAF908A40F082
:1040300004009082D94AA068B2FBF0F25FF0010060
:1040400002FB00F38B429CBF401CB0F5807FF7D38E
:10405000B0F5807F3AD061680A8B22F0FF021043EE
:1040600008830DE7D868062830D1FF292ED8108B99
:1040700020F47F40084324E0D868062826D1A068B1
:10408000C64B01EB0114B3FBF0FC01EB0113012063
:1040900003EB430304EB41140CFB00F5C82100E0E3
:1040A00023E06943B1EB430F02D2B1EB440F02D8D6
:1040B000401C4028F0D3402808D0118B21F0FF018C
:1040C00008431083DCE6D868062803D04FF0FF30A1
:1040D000BDE8F09F00293FF4D3AE908A40F0100075
:1040E0009082CDE609E048E003E06FF00300BDE810
:1040F000F09F10F4405F07D142E010F4405F03D01E
:1041000045F020054FF4805810F4405C0ED0BCF50B
:10411000805F08BF48F4806808D0BCF5005F16BF18
:104120006FF0090048F4C068BDE8F09F10F4404CFF
:1041300014D0BCF5804F08BF45F400550ED0BCF537
:10414000004F08BF45F4405508D0BCF5404F16BF9E
:104150006FF00A0045F48055BDE8F09F10F4403C34
:1041600008BF00271AD0BCF5803F0DD0BCF5003F3A
:1041700017D0BCF5403F1FD02AE010F4405FBFD0FD
:104180006FF00800BDE8F09F94F800C01CF0800FAD
:104190001CBF4FF4803746F4807619D0022B1BD019
:1041A00032E0B4F800C01CF4807F1CBF4FF400372D
:1041B00046F4C066F2D10BE0D4F800C01CF0800FCA
:1041C0001EBF1CF4807F4FF4403746F4E066E5D113
:1041D0006FF00B00BDE8F09F10F4802C08D0BCF508
:1041E000802F0EBF45F480656FF00C00BDE8F09F96
:1041F00010F4002008D0B0F5002F0EBF45F4007574
:104200006FF00D00BDE8F09FD4F808A0DFF89091A2
:104210000AEBCA0000EB0A1C8800BCFBF0FBA9FB00
:104220000BEBBCFBF0FEBCFBF0F0A9FB00C04009AF
:104230006FF0180C00FB0CF00EEB80004FF0320C0E
:104240000CEB0010A9FB00C04FEA5B1B40096BF3AD
:104250001F104FEA0A191FFA80FCB9FBFCF0000995
:104260004FF0640900FB09F001EB011909EB490962
:10427000B0EB490F06D201EB011909EB4111B0EB8C
:10428000410F03D86FF00700BDE8F09F908920F43C
:10429000005090816068A0F808C0206BC360206B5C
:1042A0000761206BC16806290AD0C07A10F0080F98
:1042B000E0680ED0A0B181880323006802220DE0DF
:1042C000E06868B18188006803230222FDF7A6F93F
:1042D00006E028B18188002300681A46FDF79EF9A0
:1042E000206BC168042918BF06290CD0C07A10F0D1
:1042F000100F206911D0B8B1818800684FF0000319
:104300004FF001020EE0206970B181884FF0000388
:1043100000681A46FDF782F906E028B1818800237B
:1043200000681A46FDF77AF9606968B1216BC968BF
:10433000022918BF06298188006807BF03230222CB
:1043400000231A46FDF76AF9A06968B1B7F5803F06
:1043500018BFB7F5403F8188006807BF03230222DA
:1043600000231A46FDF75AF9E06928B181880068F0
:1043700000230122FDF752F96068A0F80C80606804
:104380000582606886826068818941F4005181817C
:10439000206BC17A41F00401C17271E500CA9A3BF9
:1043A0001F85EB512DE9F003D0F804C0BCF80020C4
:1043B0000021BCF80C400B4602F020052C420E46B2
:1043C0004FF0010461D0056B6F791FB1ED68022DCC
:1043D00005D00BE0BCF80410EC71202155E0456BD2
:1043E000ED69012D08BFBCF804C001D0BCF8043051
:1043F000D0F834C0DCF808506F1CCCF808702B7073
:10440000D0F804C0BCF80CC01CF4806F0CD11CF4B4
:10441000805F09D0456B1F0AD5F808C00CF1010870
:10442000C5F808808CF80070D0F834C0DCF8105063
:104430006D1CCCF81050D0F834C0DCF800C06545D5
:1044400023D1D0F804C0BCF80C5025F01005ACF80E
:104450000C50D0F830C08CF80560D0F830C0DCF8D3
:104460000CC0BCF1020F0FD1D0F834C0DCF81C50E6
:10447000CCF81C60012D08BF012106D0022D03D00D
:10448000032D08BF042100E002214568B5F80CC0E7
:1044900002F010071CEA070F1CBFB5F804C041F07A
:1044A0004001B5F80CC002F080071CEA070F5FD08E
:1044B000D0F834C09CF8207027B1AB8943F00103D9
:1044C000AB8155E0DCF81470DCF80450BD4224D018
:1044D000036BDB68022B02BFDCF81C30022BBCF83C
:1044E0001A301AD0DCF80C3003F10105CCF80C506E
:1044F000D0F804C01B78BCF80CC01CF4806F0CD141
:104500001CF4805F09D0D0F834C005F10107CCF865
:104510000C7095F800C043EA0C23D0F834C0DCF8E6
:10452000145005F10105CCF81450D0F804C0ACF8D3
:104530000430436BD3F804C05B699C4518D14368D1
:10454000B3F80CC02CF0800CA3F80CC04368B3F88F
:104550000CC04CF0400CA3F80CC0436B83F82160F6
:10456000036BD3F80CC0BCF1020F54D041F0010131
:104570004368B3F80CC002F040051CEA050F07D0F1
:10458000B3F80CC02CF0400CA3F80CC041F00801AB
:1045900012F0080F05D043689B88036B41F020019F
:1045A000DC7112F0020F05D043689B88036B41F465
:1045B00080715C7212F0010F05D043689B88036B19
:1045C00041F400719C7212F4807F0AD04368B3F802
:1045D00000C02CF4807CA3F800C0036B41F0800184
:1045E0001C7212F4007F06D04268138823F4007313
:1045F000138041F48061002904BFBDE8F0037047D7
:10460000006B0268002A04BFBDE8F003704708464B
:10461000BDE8F0031047D0F834C0DCF81CC0BCF192
:10462000010F04BFDB7A13F0100FA1D19EE710B584
:104630000C46096BCA7A12F0010F1CBF002010BD96
:104640000860216B00200871216B4871216B887113
:10465000216BC871216B0872216B4872216B8872C3
:10466000216BC860616B81F82100616B0860486054
:104670008860C860086148618861C8610862608CB0
:10468000FCF742FFE06818B100680121FDF738F837
:10469000206918B100680121FDF732F8606918B18E
:1046A00000680121FDF72CF8A06918B1006801210C
:1046B000FDF726F8E06918B100680121FDF720F840
:1046C000216B0120C872002010BD00002DE9F047C9
:1046D0000C4600268E4FDFF83C82DFF83C928F4D6F
:1046E000012138B1012801D002287AD06FF00300EF
:1046F000BDE8F0876068B84204D1EA6842F48042BD
:10470000EA600CE0404504BF2A6942F4003205D05B
:10471000484504BF2A6942F4802200D12A6100BFC3
:1047200000BF00BF00BFB84204D1E86820F4804059
:10473000E8600CE0404504BF286920F4003005D053
:10474000484504BF286920F4802000D1286194F9ED
:10475000240000280CDB00F01F029140400980007B
:1047600000F1E020C0F88011BFF34F8FBFF36F8FCF
:10477000E06A18B141790079FCF7C6FDA06A18B16A
:1047800041790079FCF7C0FD6068B84203D1A8699F
:1047900020F48040A8616068404503D1E86920F4B6
:1047A0000030E8616068484503D1E86920F4802062
:1047B000E861206B0671206B4671206B8671206B5F
:1047C000C671206B0672206B4672206B8672606B1E
:1047D00080F82160206BC17A21F00201C17293E060
:1047E000FFE7206BC27A12F0010F04BF4FF0FF30D9
:1047F000BDE8F08712F0020F78D10671206B467188
:10480000206B8671206BC671206B0672206B46721E
:10481000206B8672606B80F82160606B4683606BF2
:10482000C661606B80F82060206BC660206B0661FB
:10483000226B0320D0726068B84203D1A86940F4AB
:104840008040A8616068404503D1E86940F40030C9
:10485000E8616068484503D1E86940F48020E86178
:1048600094F92400002809DB00F01F0201FA02F28B
:104870004009800000F1E020C0F8802294F9240073
:10488000002808DB00F01F0291404009800000F181
:10489000E020C0F80011E06A18B141790079FCF716
:1048A000C3FCA06A18B141790079FCF7BDFC6068CF
:1048B000B84204D1E96841F48041E9600CE0404528
:1048C00004BF296941F4003105D0484504BF296976
:1048D00041F4802100D1296100BF00BF00BF00BFAB
:1048E000B84204D1E86820F48040E8600CE040451C
:1048F00004BF286920F4003005D0484504BF28696A
:1049000020F4802000D128610020BDE8F08700005D
:1049100000380140004400400048004000100240C0
:10492000C16A0968496821B1416B0968002918BF4B
:10493000704741688A8922F010028A81026B002147
:104940000B46D268022A10D1426BD2F81CC0D36148
:10495000BCF1010F08BF012108D0BCF1020F04D047
:10496000BCF1030F08BF042100E00221426BD2F822
:1049700000C0C2F810C0026B53714268938943F0C3
:1049800020039381006B0268002A14BF002970473E
:104990000846104770B5002812BF00296FF00400C8
:1049A00070BD136B93F80BC01CF0040F04BF4FF0E5
:1049B000FF3070BD5B79012B73D05368B3F80CC026
:1049C0002CF0200CA3F80CC0536B1960D2F830C047
:1049D00000238CF80830D2F830C08CF80930D2F8B7
:1049E00030C08CF80730D2F830C08CF80A30D2F8DA
:1049F00034C0CCF80800D2F834C0CCF81030D2F86B
:104A000030C001238CF80530D2F830C08023DCF8A8
:104A10000CC0BCF1020F07D1D2F834C0DCF81CC0C6
:104A2000BCF1010F08BF0023D2F82CC0BCF1000F6D
:104A300032D09CF806404FF4405505EA04345568DE
:104A4000234343F00203AC8914F4805F04D014F4D0
:104A5000806F08BF43F4A063DCF800C02C1DCCF8C5
:104A60000030CCF80840CCF80C00CCF80410D06A28
:104A70000068036843F0010303605068838A43F0D1
:104A8000400383825068838943F010038381106B55
:104A9000C068022812D105E05068838943F03003D2
:104AA000F4E70DE0506BC36943B90223C361506B57
:104AB0001A3000F008F810F1020F01D0002070BD8C
:104AC0006FF0010070BD002812BF00296FF00400D4
:104AD00070472DE9F0410646106B14460D46C07A2A
:104AE00010F0040F04BF4FF0FF30BDE8F081616BA0
:104AF00091F82100002845D1012081F82100616B47
:104B00008027CE60616B4D60626B00215161216B2B
:104B1000C968022910D1626BD16919B1022908BF95
:104B2000002709E0D061606B224629461830FFF764
:104B300031FF10F1020F25D0A16A39B388794FF403
:104B40004052636802EA003038439A8940F012000C
:104B500012F4805F04D012F4806F08BF40F4A060AC
:104B600009681A1D08608A60CE604D60A06A0068FE
:104B7000016841F0010101606068818A41F08001B3
:104B8000818208E06FF00100BDE8F08160688189F2
:104B900041F0800181810020BDE8F081014800687A
:104BA00070470000406900080020704770B50B4D49
:104BB0000C460346D5E90C0188420BD9401A8442C1
:104BC00000DD044622461846FBF7ACFA686B204429
:104BD000686300E00024204670BD000098000020BB
:104BE00010B50A4CE06A804710F0010F18BF10BDE5
:104BF0004FF480610648FFF7D9FF011ED8BF10BDF2
:104C000003486269BDE8104010470000246A0008AC
:104C1000FE3600202DE9F041194C0D460746D4E937
:104C20000401401A17490A88101A002802DC0020E3
:104C3000BDE8F081854200DD0546D4E90602002684
:104C4000904210D3104A0988431911448B420AD369
:104C50000E1A904632463946FBF764FA3744AD1BCC
:104C60004046C4F8188035B12A463946FBF75AFA4F
:104C7000A0692844A0612169A81901442161D7E7EE
:104C800098000020766A00087E12002010B5054CBE
:104C90006068002805D10120606000F005F8002060
:104CA000606010BD980000202DE9F047224CA068FC
:104CB00000283BD0D4E90401421AE0684FF0000616
:104CC000104335D01D481E4FDFF878800088DFF88C
:104CD00078903D182046C1696AB1A069814203D32A
:104CE0008818A84200D36A1A99F8003038F81300DF
:104CF000904200DA02461548E660007840F08000F5
:104D000001F096FAE1690144E16162698D42024471
:104D1000626100D1E761216991420BD199F80020CD
:104D200038F81210814205D10120E060BDE8F0871B
:104D3000A660FBE7E660F9E798000020766A0008C5
:104D40007E1200207A6A000873000020746A00084E
:104D500010B50B4C206A18B1A06A401CA06210BDAF
:104D600001202062606200F00DF800206062206285
:104D7000D4E90C018842F2D0401AFFF731FF10BD90
:104D80009800002010B5134C144A1348216B128868
:104D9000144B081A101A124A1B7832F8132090424A
:104DA0000EDB1148007800F0DFFE216B0844206321
:104DB000A06A00280CD0616A002909D1401E06E0D3
:104DC0000120E062606A002802D0A06A401CA06254
:104DD00010BD000098000020BE120020786A000874
:104DE0007A6A000873000020756A000810B504464E
:104DF000400702D52046FFF7ABFF200704D5204629
:104E0000BDE81040FFF742BF10BD7047002070475B
:104E10000020704710B50B4800F01CF8002810D097
:104E2000084A0948116801700B0A43700B0C837023
:104E3000090EC170117901715179417191798171B6
:104E4000012010BDD0000020BC11002010B500F0E2
:104E50000DF810BD04498A6802608A898280897BC6
:104E600081710120704700006000002010B5044CE3
:104E70000448A1688847216902208847012010BDA5
:104E8000246A00080D35000810B5054C00211820D3
:104E9000A26A90470021A26A19209047012010BD04
:104EA000246A0008012070472DE9F0410026314CAA
:104EB0000546B046A26A3746314618209047002181
:104EC000A26A192090470021A26A1520904700216C
:104ED000A26A16209047287940B1012808BF4FF4F4
:104EE000004703D0022808BF4FF48047687948B1D3
:104EF000012808BF4FF4005804D0022808BF4FF41F
:104F000080581AD1A879052808BF4FF4A0660AD0A6
:104F1000062808BF4FF4C06605D007280CBF4FF421
:104F2000E066082809D146EA080040EA0700A26ABC
:104F3000296840F00100904710B10020BDE8F081E1
:104F40000D4829688160A9888181A9798173002130
:104F5000016041600121A26A152090470121A26AE7
:104F600016209047A2694FF48061044890470120C1
:104F7000BDE8F081246A000860000020FE320020B5
:104F800010B510480024104944608460C460046176
:104F9000C0E90541C0E9071444620C498462C0E9D4
:104FA0000B4141630480FFF76FFF06484FF4165131
:104FB000383001600471447108218171FFF774FF7A
:104FC00010BD0000980000207E120020BE120020BC
:104FD00010B5FFF7D5FF10BD70B5174C00250126A1
:104FE000206A50B9D4E90C10814206D1134881429D
:104FF00003D02063E56225626063A06A70B1206A15
:1050000060B9E06A50B92662FFF7BCFE2562D4E9B8
:105010000C01884202D0401AFFF7E2FDD4E90101F9
:10502000084308D1D4E90401884204D06660A66030
:10503000FFF73AFE656070BD98000020BE120020A8
:10504000002070470020704700207047024910B5CB
:105050000880FFF727FF10BD98000020084810B512
:10506000C178026861F31F6206490A6002790A7119
:1050700042794A71807988710846FFF715FF10BDA3
:10508000BC110020D00000200107890E01F18041F1
:1050900001F5A041D1F8002C00F08000002814BFD9
:1050A00048F6CF704CF68F7002EA0000C1F8000C91
:1050B000D1F8000C08D080F0300048F6BF7200EA4A
:1050C0000200C1F8000C704780F440504BF68F721C
:1050D00000EA0200C1F8000C7047000070B4837849
:1050E000234A03F00F0C13F0800F56688188148850
:1050F00003F00F0306EB031304D0491C21F0010158
:105100001C6011E09C603E2909D91F3121F01F016C
:105110004FF0FF3404EB411444F4004403E0491C15
:1051200021F001014C02DC6013880B441380C0782D
:1051300010F0030008BF4FF400710CD0012808BF25
:105140004FF4806107D0022808BF002103D0032854
:1051500008BF4FF4C06141EA0C004FEA8C0101F135
:10516000804101F5A041C1F8000C70BC70470000FF
:1051700044000020002818BF70470249C020088062
:10518000704700004400002000F0A2BA0749002840
:1051900008BF032007D00120086000200860044AEF
:1051A00010604FF4E050086070470000405C004021
:1051B000445C004010B50B4C0B48A28801788A4231
:1051C00000D9CAB21AB907490020183908718020DD
:1051D000216801F02DF8216801442160A188081A96
:1051E000A08010BD88000020606A000810B5064C41
:1051F0000020216800F0B8FC216801442160A188EA
:10520000081AA08010BD0000880000207047010728
:10521000890E01F1804202F5A042D2F8001C10F084
:10522000800F05D048F6BF700840C2F8000C7047E8
:105230004BF68F700840C2F8000C70470107890ECA
:1052400001F1804202F5A042D2F8001C10F0800F5C
:1052500007D081F0200048F6BF710840C2F8000C6A
:10526000704781F440504BF68F710840C2F8000C33
:10527000704700002DE9F047DFF844820646A8F1A8
:10528000080580074FF0000AA5F1180424D500F0A6
:10529000BBFF98F800004746C009FFF7B7FFF88842
:1052A000A8803978C1F3411010B1012877D17DE091
:1052B00098F80120834FDFF810920C2A6FD2DFE8B4
:1052C00002F0060C951C952B3B953F45526100F072
:1052D00063FD33E0FFF76EFF96E0002000F09AFDDB
:1052E00000285CD000F096FF386820B16169002981
:1052F00021D0082050E0484653E0012000F08AFD0C
:10530000002873D000F086FF38680028F3D0616968
:10531000002979D004203FE011F01F0F66D198F8E2
:105320000200012140F08000207000F07F0000F0BA
:1053300045FF00F06FFF67E000F054FC78B3C9E769
:1053400011F01F0F52D15E481F3819E000F0B8FD70
:1053500028B300F05FFF386818B1616929B30120F4
:105360001AE05A481DE001F01F0101293ED1617881
:10537000A9B198F80400A178884237D2544908446A
:105380002860A7E700F064FE48B100F043FF3868EA
:1053900030B1616949B1022001F04CFA34E025E0F6
:1053A0004C48016809B1084680472DE011F01F0004
:1053B00004D0012805D0022818D111E000F02AF904
:1053C00013E000F02DF9F8B900F080F9E0B900F031
:1053D000CFF8C8B900F0CEF8B0B900F01FF904E07A
:1053E00000F0C4F880B900F017F968B998F8001017
:1053F000090604D4B8F8060008B1002000E08020B7
:1054000000F0E6FEA5F804A0700735D598F8000076
:10541000474600062ED4A88858B3FFF7E7FEA888B1
:1054200038BB3878C0F34111F1B101291CD110F01B
:105430001F0004D0012805D0022815D10EE000F08D
:1054400077F810E000F07AF898B900F047F880B9E2
:1054500000F046F868B900F06FF804E000F03CF89E
:1054600038B900F067F820B9802000F0B1FEA5F847
:1054700004A001E000F0D4FE300713D598F8000036
:10548000000606D5A888217908430BD0FFF792FEC5
:1054900008E02078010605D500F07F00207000218B
:1054A00000F08CFE700602D50020FFF7EDFD3006FF
:1054B00004D5BDE8F0478020FFF7E6BDBDE8F087E2
:1054C00090000020E06A0008DC6A0008D46A000846
:1054D00039000020D86A000800207047002070477B
:1054E00010B51048104A01791278914203D00F4A42
:1054F0001278914214D1417821B1022905D0202996
:105500000ED10AE0FFF79EFD02E04088FFF79CFD08
:1055100030B100F07FFE012010BDFFF79FFDF7E7DF
:10552000002010BD90000020726A0008736A000815
:1055300000207047002070470020704710B50948D0
:10554000094A01791278914209D14078092806D197
:1055500000F0D8FA18B100F05DFE012010BD002067
:1055600010BD000090000020616A00080020704714
:105570000020704770B52249224A0879127890427B
:1055800003D0214A1278904238D11D4849781F4CE7
:105590001F4D408804291FD007DC79B101290FD0A5
:1055A00002290BD0032929D111E0202906D0212975
:1055B0001AD022291BD0232920D11BE02C6011E016
:1055C000FFF726FC05E02C60FFF7F4FD0AE0FFF78B
:1055D0001DFC0028F7D111E0FFF7E6FA0CE000BF50
:1055E00000F018FE012070BDFFF714FCF1E7FFF793
:1055F0002DFD01E0FFF724FD0028F1D1002070BD52
:1056000090000020726A0008736A0008BC11002034
:10561000880000200020704700207047002070475D
:105620002DE9F041224C23492079097888423DD167
:105630006078214D214E224F0C2837D2DFE800F050
:105640003606212D363636363616243200F070F9FD
:1056500060B3E078012802D0032803D003E01948A2
:10566000286000E02E60FFF7A5FD13E0E078022837
:1056700002D0032803D00DE0134828600AE02E6012
:1056800008E000F03DF90AE000F014FA0CE000BF79
:1056900000F0C0FD0120BDE8F08100F03FF928B125
:1056A0002F60E0E700F024FA0028F1D10020F2E7B3
:1056B00090000020616A000888000020420000205D
:1056C000BC110020FD1100203E1200200020704778
:1056D000084800214170C160016141618161C1617F
:1056E00041808180016241628162C180C162018129
:1056F00070470000D80000202DE9F05FDFF84081FE
:10570000DFF840A1DFF840B10127504C08F1010952
:105710000025A561606910B1A761BDE8F09F6761D0
:10572000A088618888421AD3206AC0B9E561A58043
:10573000012398F8001008F10102184600F068FFF4
:105740000004000C60800CD04149C4F81C8009782A
:10575000012902D8C4F81C903BE0401C608060889E
:10576000B8BBE068A8BB216999B3394842460078C4
:1057700001280FD81570A5800223521C002101209A
:1057800000F046FF0004000C608001D0C4F81C90BB
:1057900025611EE01678202E00D3002607FA06F0B9
:1057A000084240D0701CC1B21170A580022308F1DC
:1057B0000102012000F02CFF0104090C618003D0DC
:1057C000491CC4F81C806180216907FA06F08143F6
:1057D00021616088216A01432AD0A188401A9BF880
:1057E000001086B23AF81100B04200D20646676255
:1057F00018483246E169007840F0800000F018FD5A
:10580000E06915493044E061A088304480B2A0804E
:10581000098888420AD29BF800103AF81100B04279
:1058200004D1276205E0761CF6B2B4E7256200E0F9
:1058300065626561A06900287FF46BAF6DE70000C9
:10584000FC110020686A000873000020D8000020C6
:105850006C6A0008626A00086E6A0008F8B5194CA4
:10586000194D0026E08800B9A5621848A16A0078A1
:1058700000F07AF90004A16A000C0144A162E188F9
:1058800001448BB2E3800AD0114909888B4206D2C9
:10589000114A1049127831F81210814210D90F487C
:1058A000017801200129009003D80021064A022036
:1058B00003E029786A1C02205B1E00F075FFE68079
:1058C000F8BD0000D80000203D120020636A0008E7
:1058D000706A0008686A0008730000206D6A00089A
:1058E00010B50446000702D52046FFF705FF600704
:1058F00004D52046BDE81040FFF7B0BF10BD000042
:10590000034804498078085C034908700120704707
:105910009000002040000020BC11002010B500F0D5
:1059200075FE02490870012010BD0000BC11002066
:105930000B4910B5C8780022012804D0022804D0F1
:10594000032806D103E0074A02E0002010BD064A02
:10595000521C8978002300F05BFE012010BD00007E
:1059600090000020FC110020410000202DE9F05F94
:105970004648007800287DD0454800273D460178FC
:105980004A1C0270434A1478042204EB440A02FAC7
:105990000AF2521E914201DB057001273E490023A5
:1059A0000A88FF2A01D2521C0A803C4A8E46098886
:1059B00032F81490894500D1012383460021006903
:1059C0009BF8006043E000BF4FF0000C6FB1344A19
:1059D000545CFF2C01D2641C5454324C645C24B1DE
:1059E000525CA24201D34FF0010C2E4A4FF0020844
:1059F00008FA0AF8525C02FA08F44C4502DA0AB1D5
:105A0000012400E0002433B12CB14FF0010808FA62
:105A100001F848EA0000DFF8908018F8018042455C
:105A20000AD01F4A525C424503D301228A401043E8
:105A300000261C4A02F80180BCF1000F05D014B901
:105A400001228A401043164A5554491CC9B2174ACC
:105A500012789142B8D3CBF8100059468BF8006009
:105A60000BB1AEF8005008B1CA6852B1104A1378B1
:105A7000012200E003E09A409043CBF81000BDE81B
:105A8000F09FBDE8F05F0020FFF736BE71000020F8
:105A9000D8000020730000203C000020646A000849
:105AA0003E0000203F000020400000206C6A0008FB
:105AB000FC11002010B50A4809498078C97810B156
:105AC000084A815409E00020074B084A02E01954B3
:105AD000401CC0B21478A042F9D3012010BD0000D0
