:020000040800F2
:10000000004700200101000891190008911900081B
:1000100091190008911900089119000800000000CA
:10002000000000000000000000000000911900081E
:100030009119000800000000911900088D42000885
:100040001B0100081B0100081B0100081B01000820
:100050001B0100081B0100081B0100081B01000810
:100060001B0100081B0100081B010008F910000813
:10007000151100083111000895110008B911000888
:10008000DD110008411200081B0100081B010008D7
:100090002D7200081B0100081B0100081B0100084D
:1000A0001B0100081B0100081B0100081B010008C0
:1000B0001B0100081B0100081B0100081B010008B0
:1000C0001B0100081B0100081B0100081B010008A0
:1000D0001B010008BD470008B14A00081B010008C9
:1000E0001B0100081B0100081B010008DFF80CD0F1
:1000F00000F02AF8004800472D740008004700204F
:100100000648804706480047FEE7FEE7FEE7FEE7B1
:10011000FEE7FEE7FEE7FEE7FEE7FEE759430008DD
:10012000ED00000840EA01039B0703D009E008C97D
:10013000121F08C0042AFAD203E011F8013B00F8AC
:10014000013B521EF9D27047064C074D06E0E068AD
:1001500040F0010394E8070098471034AC42F6D30E
:10016000FFF7C8FF787B0008987B000870B5174E32
:10017000F06A804710F0020F08BF70BD144C25686C
:10018000706A804761682844411AB1F5806FA4BF46
:100190006068084415DA0029D8BF70BD6068C0F3F4
:1001A0000900C0F5806081420DDC6068094AC0F337
:1001B0000900104405F0CEFC0028C6BF6168084461
:1001C00070BD606070BD0146EFE700006C7900080B
:1001D00060000020FE3200202DE9F04F0646007836
:1001E00083B0A0F180021F2A05D8304600F04AFCF7
:1001F00003B0BDE8F08F01F8010B16F8010B0F46B4
:100200001F2880F02C84DFE810F01F005E007A00C9
:1002100093007302810287022A04DD039C00B00070
:100220002A042A042A042A042A04B7003A01640191
:100230007401D201FB015302040409040E041304E7
:100240001804210483011C043178781C0024062939
:1002500033D006DC052930D2DFE801F02F2F2F2F15
:100260000E00FD2918D002DCF02926D10AE0FE2973
:1002700020D0FF2918D020E006242246FE49FFF7AF
:1002800051FF1AE0FD490968002918BF202141F0FB
:1002900017010170012410E000211022017042704A
:1002A0008170C170042408E0402101700021417078
:1002B000022402E04021017001243C7003B004F1EB
:1002C0000210BDE8F08F307830B101280BD0FF204C
:1002D0003870EB4800F0BEBBEA497078096800F05E
:1002E0000100096805E0E7497078096800F001003D
:1002F0004968884700203870E14800F0ABBB34788B
:10030000002C0CBF0124012C06D0022C18BF0024A5
:1003100008D03C7000F0E8B9DB490120087002F019
:10032000ADFDF6E7D8490220087002F05FFDF0E766
:10033000D5480024047002F083FD3C70012000F0D9
:1003400089BBCE49D14A30880968B1FBF2F1D04A65
:10035000891CA2FB012149084843B0F1004F80F0FD
:100360008683401E0028FCDCC4E701207870002052
:100370003870022000F06EBB357874787079D6F84A
:10038000026014F0010F60F31F6607D015F0010F33
:100390004FF480700CBFBF49BF49086014F0020FD2
:1003A00007D015F0020F4FF400700CBFB949BA49DD
:1003B000086014F0040F08D0A80810F0010F4FF0E7
:1003C00020000CBFB349B449086014F0800F1CBF73
:1003D000E80907F0E5F9AEB30120DFF8C0C2DCF8A8
:1003E0000430AF49B1F1040614F0010F04D00A68DB
:1003F000C2F30022AA4220D114F0020F05D03268C5
:10040000C2F34022B2EB550F17D114F0040F05D000
:100410000A68C2F34012B2EB950F0ED114F0200F10
:1004200018BF5FEA551208D114F0800F0AD0326865
:10043000C2F38012B2EBD51F04D0DCF80420D21A2C
:100440008242D1D39649086800F48072081F03687D
:10045000096803F400731A43120A01F0200142EA0A
:10046000D1010268006802F0800241EA121100F036
:10047000400041EA400038708A4800F0EBBAF17859
:10048000306861F31F6048B17C490A68B0EB920F95
:1004900009D37D4901204870486015E0FF2038707D
:1004A000814800F0D7BA00EB5202521EB2FBF0F0C6
:1004B0007549002302284B7098BF012003D9744A64
:1004C000A2FB00204008486000203870764800F009
:1004D000C1BA3478711C002C08BF4FF480742046D8
:1004E00003F02EFD00203870E01DC0080121401CE3
:1004F000BEE0307800F003014A1C6349C0F380007D
:100500000A764876002038704FF0011000F0A2BA49
:10051000002007F8010B16F8010B4FF00108C24646
:10052000451E28BFDFF884B13DD300BF16F8014B4C
:1005300014F03F0008BF4020C01D4FEAD009DBF88F
:10054000000014F0800F20F0F00014BF40F0800095
:1005500040F03000CBF800004FF4007114BF4E485B
:100560004C4801603A463146204602F02DFF5DB905
:10057000DBF8000020F0F00040F03000CBF8000085
:1005800044484FF40071016014F0800F04D04F44D0
:10059000CA4408F1010804E008EB09004E4400F1E8
:1005A00001086D1EC2D24AEA084000F053BA00208A
:1005B00007F8010B16F8010B4FF00108C146B0F126
:1005C000010A19D316F8015B15F03F0008BF40205F
:1005D000C01DC4083A463146284601F041FD08EBEB
:1005E0000400264400F1010815F0800F1CBF2744C9
:1005F000A144BAF1010AE5D249EA084000F02ABA5A
:10060000214D16F801CB002085F81AC0BCF1000F6F
:1006100029D005F11C0105F12403644616F8012BCD
:1006200001F8012B23F8020B1044641EF6D1BCF133
:10063000000F18D005F11B0205F132011CF0010F6B
:1006400004D012F8013FC01A21F8020F5FEA5C03E0
:1006500009D05478001B488012F8024F001B21F883
:10066000040F5B1EF5D1002038700CF10100012150
:1006700041EA004000F0EEB9807800080C0000204C
:1006800001000200080000200801002040420F0085
:10069000ABAAAAAA140C0140100C0140001000E003
:1006A0000C0C01400100060001000400040C014094
:1006B000F0480178022915D13178C176807E8142D7
:1006C00010D20E2001F0AEF901F0B8FB0021397014
:1006D0007870010AB970010CF970000E3871E648A3
:1006E00000F0B8B9FF2038704FF0011000F0B2B937
:1006F000E04831780173B6F801100182B6F80310B2
:10070000418200203870DD4800F0A4B939463046F7
:1007100000F0DAF900F09EB9D648007801280FD031
:10072000022877D0002038707870B8700320F178F4
:1007300011F0020F18BF40F4802040F08B8139E1A6
:10074000DFF83C934FF0000A504607F1030889F8A0
:1007500000A0741C34F8025B7DB314F801BB1BF0DD
:10076000020F04BF681E019043D01BF0010F1CBF95
:10077000C048048A0FD00021584602F0A5FE022886
:1007800002D0012807D061E0641E5FD399F8001001
:100790000029F0D05AE06C1E58D324B91BF0010F89
:1007A00018BF4FF00E0BB348058A6946584602F051
:1007B0008BFE022802D0012807D047E06D1E45D3EA
:1007C00099F800100029F0D040E0009908F8011BCA
:1007D00000990AF1010A090A08F8011B0099090C9D
:1007E00008F8011B0099090E08F8011B641ED4D2F9
:1007F0002CE0E17854F8040B61F31F6000909D48F1
:10080000058A6946584602F05FFE022803D0012897
:1008100008D01BE023E06D1E18D399F800100029C2
:10082000EFD013E001980AF1010A401E0190E0D2D6
:100830009048048A00210E2002F046FE022805D1CD
:10084000641E03D399F800100029F3D087F800A0A4
:100850004FEA1A217970B870A8EB070067E7FD1C12
:100860000197874F4FF00008404687F80080814A83
:100870003178741CD176927E914247D234F802BB13
:10088000BBF1000F42D014F8019B19F0010F0CBF0F
:100890004FF00A0A4FF00B0A504601F0C3F819F066
:1008A000020F19BF7348048AABF10100029043D0D4
:1008B0000021484601F038FC022802D0012806D069
:1008C0006CE0641E6AD339780029F1D066E0BBF190
:1008D000010B63D3BBF1000F0AD06648048A694656
:1008E000484601F021FC02280BD001280FD055E02A
:1008F000BAF10A0F1CBF0A2001F094F84FF00E095C
:10090000EBE7641E4AD339780029E8D046E0009925
:1009100005F8011B009908F10108090A05F8011BF7
:100920000099090C05F8011B0099090E05F8011B37
:10093000BBF1010BCED231E0E17854F8040B61F346
:100940001F6000904B48B0F810B06946484601F06F
:10095000EBFB022802D0012807D01FE0BBF1010BFE
:100960001CD339780029F0D018E0029808F101086A
:10097000401E0290E0D2BAF10A0F1CBF0A2001F01B
:1009800051F83C48048A00210E2001F0CDFB0228DA
:1009900004D1641E02D339780029F4D001994FEABA
:1009A000182281F8008001994A7001998870019895
:1009B000281ABCE6B6F801104FF4802202EB814100
:1009C000084347E02B490878012802D002280BD0C1
:1009D0000FE03179D6F8010061F31F60009069469D
:1009E000002002F071FD10E03078C876897E8842E0
:1009F00001D3FF200AE0082001F014F83179D6F87D
:100A0000010061F31F6001F0CFFF002038701B4828
:100A100020E03946304603F019FC1BE039463046E9
:100A200003F0BCFB16E03946304603F0C5FA11E08E
:100A30003946304603F0E0FA0CE0384603F0D6FBC6
:100A400008E03946304603F06BFB03E03946304698
:100A500003F0FAFA03B000F10110BDE8F08FFF20B7
:100A600007F8010C03B04FF00110BDE8F08F401EF5
:100A7000FDD13FE408010020050001000100050050
:100A800020000020FF2008704FF001107047000088
:100A90000A4800210A4A017041701268094BB2FBF2
:100AA000F3F2921E426001736422028241820122AB
:100AB000416102764176817602F0C2B908010020D8
:100AC0000C000020002D31012DE9F04FFF4E0546AE
:100AD00000233078FE4F8FB001281CD0022800F090
:100AE0008881AC466D1C15F8010B50B115F8012B2F
:100AF00012F0020F02D012F0100F00D02D1D401E78
:100B0000F4D10B704B70A5EB0C0002210FB041EA41
:100B10000040BDE8F08FCDE904510020891C0B9006
:100B200000913B7007900A9095F80180AD1CB8F1D8
:100B3000000F00F0538100BF15F8019B19F0020F60
:100B400079D00799A1B3348A09F0110001280BD19B
:100B500001A9484602F0B8FC02280DD1641E44D316
:100B600039780029F4D0A6E001A90E2002F0ACFCEF
:100B7000022804D000210791012836D107E0641E25
:100B800002D339780029EFD00021079193E0DDE905
:100B900000120A70019A0099120A01F8012F019AB5
:100BA000120C01F8012F019A120E4A70891C009153
:100BB00019F0100F40D0E87855F804ABB6F812B031
:100BC00060F31F6A19F0010F18BF348A0ED000219C
:100BD000484602F079FC022802D0012806D06AE0DB
:100BE000641E68D339780029F1D064E0348A01A901
:100BF000484602F069FC022802D0012806D010E025
:100C0000641E0ED339780029F1D00AE07269019987
:100C10001140514505D0BBF1010B02D339780029B1
:100C2000E4D07169019A1140514518BF40F010009D
:100C3000012840D138E050E0348A19F0010F13D078
:100C4000079989BB0021484602F03EFC022805D0E6
:100C5000012804BF0121079126D02CE0641E2AD36D
:100C600039780029EED026E001A9484602F02CFC94
:100C7000022802D0012806D01DE0641E1BD339785B
:100C80000029F1D017E0DDE900120A70019A0099FD
:100C9000120A01F8012F019A120C01F8012F019A92
:100CA000120E4A70891C009100210A910B99491C6F
:100CB0000B913978F1B3B8F1000F0BD015F8011B87
:100CC00011F0020F02D011F0100F00D02D1DB8F15D
:100CD0000108F3D101284BD080E00798002818BF05
:100CE000348A1AD001A90E2002F0EEFB02282ED081
:100CF0000128E0D1DDE90001017001990098090A9D
:100D000000F8011F0199090C00F8011F0199090E53
:100D10004170801C009000200790E97855F8040B82
:100D200019F0200F61F31F6001901ABF706101205C
:100D3000348A00E017E0B9D101A9484602F0C4FBAB
:100D400002280AD0012808BF0121AED0B3E7641EF3
:100D5000B1D339780029C5D0ADE7641EABD339785B
:100D60000029E9D0A7E7B8F101087FF4E5AEB1E7C3
:100D70000799002918BF348A20D001A90E2002F05B
:100D8000A3FB022802D0012806D027E0641E25D349
:100D900039780029F1D021E0DDE900120A70019ACA
:100DA0000099120A01F8012F019A120C01F8012F83
:100DB000019A120E4A70891C00910FE00A990029CD
:100DC00018BF348A0AD000210E2002F07DFB0228D1
:100DD00004D1641E02D339780029F4D0059A0B9906
:100DE00011700599487005990098411A0498281ABD
:100DF0008CE600200491891C06950C9000913B70B4
:100E000003900A9015F8011BF176B27E914280F0B2
:100E1000628115F8018BB8F1000F00F05C8100BF12
:100E200015F8019B19F0010F14BF0B240A2419F0C7
:100E3000020F74D00A9981B30398B6F810A0A042AB
:100E400008BF19F0100F0FD003980A2803D00A200A
:100E5000039000F0E7FD02A90E2001F065F90228D9
:100E600012D000210A9105E002A9484601F05CF980
:100E7000022802D0012841D110E0BAF1010A3DD385
:100E800039780029F0D0D9E0BAF1010A02D33978D3
:100E90000029E0D000210A91D0E010E0009A0299E8
:100EA0001170029A0099120A01F8012F029A120C8D
:100EB00001F8012F029A120E4A70891C009119F054
:100EC000100F48D0E87855F804AB03E00801002083
:100ED0002000002060F31F6A0398B6F812B0A04209
:100EE00003D02046039400F09DFD348A002148463B
:100EF00001F01AF9022802D0012806D09EE0641EF3
:100F000044D339780029F1D098E0348A02A94846C0
:100F100001F00AF9022803D0012807D011E036E0D9
:100F2000641E0ED339780029F0D00AE07269029964
:100F30001140514505D0BBF1010B02D3397800298E
:100F4000E3D07169029A1140514518BF40F010007A
:100F5000012873D16DE00A99A1BB0398A04203D088
:100F60002046039400F05EFD348A0021484601F0DB
:100F7000DBF8022805D0012804BF01210A9158D0CE
:100F80005CE0641E5AD339780029EED056E00A9806
:100F900060B303980A2803D00A20039000F042FDB2
:100FA000B6F810A002A90E2001F0BEF8022802D067
:100FB000012808D042E0BAF1010A3FD3397800296C
:100FC000F0D03BE035E00099029808700299009853
:100FD000090A00F8011F0299090C00F8011F029983
:100FE000090E4170801C009000200A90E97855F8A5
:100FF000040B19F0200F61F31F6002901CBF706199
:10100000012016D10398A04203D02046039400F09B
:1010100009FD348A02A9484601F086F8022802D068
:10102000012806D00AE0641E08D339780029F1D0DF
:1010300004E00C99491C0C91397891B1B8F1000F7A
:101040000CD000BF15F8011B11F0020F02D011F0F7
:10105000100F00D02D1DB8F10108F3D1012805D0E3
:1010600039E0B8F101087FF4DBAEF7E703980A280E
:101070001CBF0A2000F0D6FC348A0A9800B302A9EB
:101080000E2001F051F8022802D0012806D022E0FB
:10109000641E20D339780029F1D01CE0009A02990F
:1010A0001170029A0099120A01F8012F029A120C8B
:1010B00001F8012F029A120E4A70891C00910AE071
:1010C00000210E2001F030F8022804D1641E02D362
:1010D00039780029F4D0049A0C9911700499487059
:1010E00004990098411A06980FB0281A41EA004066
:1010F000BDE8F08F70470000044910B5086800F0A3
:101100000F004860FFF7F6FF10BD0000000002402E
:1011100070470000044910B50868C0F303100201CD
:101120004A60FFF7F5FF10BD000002407047000065
:10113000044910B50868C0F3032002024A60FFF7B3
:10114000F5FF10BD000002401148816A09684A6835
:101150000146002A496B49681CBF00297047426B51
:101160005161426B4FF0000182F82110416889897A
:10117000426841F040019181016BC968022908BFB2
:101180007047006B0168002908BF704701200847BD
:101190008C780008044910B50868C0F303300203D6
:1011A0004A60FFF7D1FF10BD00000240014804F083
:1011B00057BB00008C780008044910B50868C0F3DC
:1011C000034002044A60FFF7F1FF10BD0000024037
:1011D000014804F045BB0000C4780008044910B57C
:1011E0000868C0F3035002054A60FFF7F1FF10BD25
:1011F000000002401148816A09684A680146002AD5
:10120000496B49681CBF00297047426B5161426BB2
:101210004FF0000182F8211041688989426841F04D
:1012200040019181016BC968022908BF7047006BBA
:101230000168002908BF704701200847C4780008EA
:10124000044910B50868C0F3036002064A60FFF75E
:10125000D1FF10BD00000240012818BF704730B414
:101260003248426942F001024261002330480F24B3
:101270004FF0E0224FF0010C08294FD2DFE801F0D7
:101280004E040D17222D3843836044604FF40060F4
:10129000C2F88002C2F8000140E0C361F02343605D
:1012A0004FF48050C2F88002C2F8000136E00363B8
:1012B0004FF4706343604FF40050C2F88002C2F8EC
:1012C00000012BE043644FF4704343604FF48040CF
:1012D000C2F88002C2F8000120E083654FF4702359
:1012E00043604FF40040C2F88002C2F8000115E0EC
:1012F000C3664FF4700343604FF48030C2F880023D
:10130000C2F800010AE0C0F880304FF0706343601B
:101310004FF40030C2F88002C2F8000105480CFA10
:1013200001F102781143017030BC70470010024097
:101330000000024038000020012818BF704730B478
:10134000DFF8D8C09CF80000002804BF30BC70470C
:10135000002001244FF0E022314B08294BD2DFE876
:1013600001F04A040E18222C36404FF40065C2F8F2
:101370008051BFF34F8FBFF36F8F98603BE04FF406
:101380008055C2F88051BFF34F8FBFF36F8FD86184
:1013900031E04FF40055C2F88051BFF34F8FBFF3D7
:1013A0006F8F186327E04FF48045C2F88051BFF378
:1013B0004F8FBFF36F8F58641DE04FF40045C2F8A4
:1013C0008051BFF34F8FBFF36F8F986513E04FF4D9
:1013D0008035C2F88051BFF34F8FBFF36F8FD8664F
:1013E00009E04FF40035C2F88051BFF34F8FBFF3CF
:1013F0006F8FC3F8800004FA01F09CF8001031EA06
:1014000000008CF800001CBF30BC704705484169E3
:1014100021F00101416130BC70470000380000201C
:101420000000024000100240084942F228320968D8
:10143000B1FBF2F14843B0F1004F03D2401E002847
:10144000FCDC7047401EFDD1704700000C000020FE
:1014500030B505464FF4302000F04AF8042818BF94
:1014600030BD0A4C206940F00200206165612069AE
:1014700040F0400020614FF4302000F039F821693D
:1014800041F6FD721140216130BD00000020024094
:101490000248016941F0800101617047002002406B
:1014A00070B506460D464FF4005000F021F80428B0
:1014B00018BF70BD074C206940F0010020613580E5
:1014C0004FF4005000F014F8216941F6FE7211400B
:1014D000216170BD00200240034802494160034978
:1014E000416070472301674500200240AB89EFCD82
:1014F000174902460420CB6813F0010F25D1CB68B1
:1015000013F0040F18BF02201AD1C96811F0100F90
:1015100018BF032014E0CB68042013F0010F18BF9C
:1015200001200AD1CB6813F0040F18BF022004D1A8
:10153000CB6813F0100F18BF0320521E012804D0EF
:10154000002A18BF704705207047002AE3D1FAE748
:101550000020024081B0002804BF01B07047144948
:101560008A6912F0010F03D18A6942F001028A618F
:1015700010F4805FC0F3421200F01F030D49C0F366
:10158000032002FA03F200FA03F007D0CB6923EA42
:10159000020210430090C86101B070474B6823EA13
:1015A0000202104320F0E0600090486001B07047F4
:1015B00000100240000001402DE9F001CB7800222C
:1015C00003F00F0C13F0100F1CBF8B7843EA0C0CC8
:1015D0000B784FF00F0613F0FF0F4FF0010518BF07
:1015E000046819D00F8805FA02F31F409F420FD1FB
:1015F000970006FA07F824EA08040CFA07F73C43B8
:10160000CF78282F08BF436102D0482F08BF03615D
:10161000521C082AE6D304600A88FF2A87BF446860
:101620000022BDE8F001704702F108030F8805FAB7
:1016300003F31F409F420FD1970006FA07F824EAF0
:1016400008040CFA07F73C43CF78282F08BF436102
:10165000CF78482F08BF0361521C082AE4D34460A6
:10166000BDE8F001704700000F2984BF00207047DB
:10167000F0B504460D463448A4F180411F46164695
:10168000B1F5843104BF8069C0F3800035D0A4F186
:101690008042B2F5863204BF8069C0F3C0002CD00E
:1016A000A4F18042B2F5883204BF8069C0F3001013
:1016B00023D0A4F18042B2F58A3204BF8069C0F31E
:1016C00040101AD0A4F18042B2F58C3204BF806978
:1016D000C0F3801011D0A4F18042B2F58E3204BF65
:1016E0008069C0F3C01008D0A4F18042B2F59032F6
:1016F00004BF8069C0F3002000D118B90121204641
:1017000000F024F86FB90120A840022E04BFE16860
:1017100021EA000004D0032E03D1E1680226084329
:10172000E060082D24BF241D083D2168A8000F2279
:1017300082409143216047EA860101FA00F0216866
:10174000084320600120F0BD001002402DE9F001A7
:10175000344A354BDFF8D4C0354C364D364E374F12
:10176000DFF8DC8000292FD0404504BF906940F0AD
:10177000040025D0984204BF906940F008001FD0B3
:10178000604504BF906940F0100019D0A04204BF2A
:10179000906940F0200013D0A84204BF906940F047
:1017A00040000DD0B04204BF906940F0800007D0E7
:1017B000B84207BF906940F48070BDE8F0017047FF
:1017C0009061BDE8F0017047404504BF906920F08A
:1017D0000400F5D0984204BF906920F00800EFD0D3
:1017E000604504BF906920F01000E9D0A04204BF1A
:1017F000906920F02000E3D0A84204BF906920F057
:101800004000DDD0B04204BF906920F08000D7D006
:10181000B84204BF906920F48070D1D0BDE8F001D7
:101820007047000000100240000C01400010014011
:101830000014014000180140001C0140002001403C
:10184000000801402DE9F0410278FF27A2F1D00302
:10185000072B7AD801F8012B0C4610F8011BD03960
:1018600008296ED2DFE801F0041215181C2A4A5E1E
:101870004048006804F8010B010A04F8011B010C40
:1018800004F8011B000E04F8010B5BE0FFF724FED7
:1018900058E0FFF7FDFD55E00068FFF7D9FD51E086
:1018A00082880168501E80B24CD300BF11F8012B12
:1018B000FF2A1BD1401E80B2F8D243E08188D0F8C5
:1018C000008038293ED8851D481E86B23AD300BF15
:1018D00015F8011B2EB115F8010B41EA0021701E0D
:1018E00086B24046FFF7DCFD042801D0FF2729E03F
:1018F000711E8EB208F10208EAD223E082880168E4
:101900003E2A1FD8002004F8010B501E80B219D3C4
:1019100030B111F8012B401E04F8012B80B2F7E71B
:101920000F780FE0BFF34F8F13480168134A01F49B
:10193000E06111430160BFF34F8F00BFFDE704E09A
:10194000FFE7641E2770BDE8F0810D480268002A99
:1019500002BFFF200870BDE8F0810A490A48C36849
:10196000806801EB8311094B5268BDE8F04103EB3D
:1019700080101047002004E00CED00E00400FA05A0
:1019800004000020FE2200204C000020FE12002057
:1019900072B61D48006880F308881C4EB06940F09C
:1019A0001000B0611A4C4FF400556561194920468A
:1019B000FFF702FEB06940F01000B06165611649A2
:1019C0002046FFF7F9FD2561002665616420FFF7D9
:1019D0002BFD256165616420FFF726FD25614FF42D
:1019E0007A70FFF721FD761C052EEEDBBFF34F8FDB
:1019F0000A4801680A4A01F4E06111430160BFF33B
:101A00004F8F00BFFDE700000000000800100240FB
:101A1000001001402C780008307800080CED00E040
:101A20000400FA052DE9F007F749F84C0A464B780F
:101A300092F81B80A4F1040C4FF4007A2025A7151E
:101A400002F11C0902EB4806002BCCF800A027602D
:101A500058D0CCF800702760CCF80070C4F800A013
:101A60002760CCF800702760CCF80070CCF80050EC
:101A7000B18C21B12760CCF80070491EFAD118F85A
:101A80000910491E0CD000BF10F0010F14BFCCF894
:101A9000005025602760CCF800704008491EF3D143
:101AA000B18E19B310F0010F0CBF2560CCF80050B7
:101AB0002760CCF80070CCF80050481E04D0276096
:101AC000CCF80070401EFAD1CCF800A02760CCF80A
:101AD00000702760CCF80070C4F800A02760CCF834
:101AE0000070CCF80050BDE8F0077047CCF800A0BB
:101AF00010F0010F14BFCCF8005025602760CCF81F
:101B00000070E6E749680A46B1F1004F38BF4A1E47
:101B100080F03681002AC8BF521EFBDCCCF8007072
:101B20000A46B1F1004F38BF4A1E80F02C81002ACE
:101B3000C8BF521EFBDC27600A46B1F1004F38BF18
:101B40004A1E80F02381002AC8BF521EFBDC00BF62
:101B5000CCF800700A46B1F1004F38BF4A1E80F041
:101B60001881002AC8BF521EFBDC00BFC4F800A0C9
:101B700027600A46B1F1004F38BF4A1E80F00D8140
:101B8000002AC8BF521EFBDCCCF800700A46B1F137
:101B9000004F38BF4A1E80F00381002AC8BF521E82
:101BA000FBDC27600A46B1F1004F38BF4A1E80F0C7
:101BB000FA80002AC8BF521EFBDC00BFCCF80070C0
:101BC0000A46B1F1004F38BF4A1E80F0EF80002A6C
:101BD000C8BF521EFBDC00BFCCF80050B38C53B121
:101BE0002760B1F1004F7BD2CCF80070B1F1004F0B
:101BF00077D25B1EF4D118F80920531E12D000BF13
:101C000010F0010F14BFCCF8005025602760B1F12F
:101C1000004F67D2CCF80070B1F1004F7CD2400881
:101C20005B1EEDD1B28EEAB310F0010F0CBF256040
:101C3000CCF8005027600846B1F1004F38BF481E6D
:101C40006BD20028C8BF401EFBDC00BFCCF8007080
:101C50000846B1F1004F38BF481E7DD20028C8BFEA
:101C6000401EFBDCCCF80050521E0DD02760084609
:101C7000B1F1004F71D200BFCCF800700846B1F14D
:101C8000004F6BD2521EF1D1CCF800A0276008465D
:101C9000B1F1004F38BF481E71D20028C8BF401EA6
:101CA000FBDC00E00CE0CCF800700846B1F1004F1E
:101CB00038BF481E70D20028C8BF401EFBDC23E09E
:101CC000CCF800A010F0010F14BFCCF80050256034
:101CD00027600846B1F1004F38BF481E6FD202E0BE
:101CE00067E06DE072E00028C8BF401EF7DC00BF6F
:101CF000CCF800700846B1F1004F38BF481E71D2D1
:101D00000028C8BF401EFBDC27600846B1F1004F29
:101D100038BF481E67D201E05EE065E00028C8BF1A
:101D2000401EF8DCCCF800700846B1F1004F38BF17
:101D3000481E79D20028C8BF401EFBDCC4F800A0B2
:101D400027600846B1F1004F38BF481E70D2002806
:101D5000C8BF401EFBDC02E049E04BE04DE0CCF8A0
:101D60000070B1F1004F38BF481E64D20028C8BFD0
:101D7000401EFBDCCCF80050BDE8F00770473FE0A8
:101D8000521EFDD1CAE6521EFDD1D4E6521EFDD12F
:101D9000DEE6521EFDD1E9E63AE0521EFDD1F3E641
:101DA000521EFDD1FDE6521EFDD107E7521EFDD1A8
:101DB00012E74A1E3FF418AF521EFDD114E72AE085
:101DC0004A1E3FF416AF521EFDD112E74A1E3FF4E1
:101DD00021AF521EFDD11DE74A1E3FF420AF521E17
:101DE000FDD11CE71AE01CE0401EFDD12EE7401E8D
:101DF000FDD137E7401EFDD13EE7401EFDD141E752
:101E0000401EFDD14DE70FE008010020140C0140F9
:101E1000401EFDD178E7401EFDD169E7401EFDD18F
:101E200072E7401EFDD17DE7401EFDD186E7FFE74A
:101E3000401EFDD18FE7491EFDD19BE72DE9F00142
:101E4000DFF810C24FF40074CCF800400CF104032A
:101E500062101A60804D69680846B1F1004F80F049
:101E6000B780401E0028FCDCCCF800200846B1F109
:101E7000004F38BF481E7BD20028C8BF401EFBDC85
:101E80001C601A600846B1F1004F38BF481E70D27E
:101E90000028C8BF401EFBDCCCF800200846B1F18A
:101EA000004F38BF481E65D20028C8BF401EFBDC6B
:101EB0001A600846B1F1004F38BF481E7ED2002894
:101EC000C8BF401EFBDC00BFCCF800200846B1F1C3
:101ED000004F38BF481E72D20028C8BF401EFBDC2E
:101EE000ED7E55B11A60B1F1004F69D2CCF80020F7
:101EF000B1F1004F65D26D1EF4D10026574F1F255A
:101F00001A60B1F1004F6FD23868CCF80020C0F3EE
:101F1000C018B1F1004F68D246EAC87046086D1E7D
:101F2000EED1CCF800401A600846B1F1004F38BF3E
:101F3000481E7AD20028C8BF401EFBDC3868CCF8A7
:101F40000020C0F3C0150846B1F1004F38BF481E4D
:101F50006ED20028C8BF401EFBDC00BF46EAC57039
:101F60001A600D46B1F1004F38BF4D1E63D202E03A
:101F700031E033E035E0002DC8BF6D1EF7DC00BF57
:101F8000CCF800200D46B1F1004F38BF4D1E55D2A0
:101F9000002DC8BF6D1EFBDC1C601A600B46B1F142
:101FA000004F38BF4B1E4CD2002BC8BF5B1EFBDC62
:101FB000CCF80020B1F1004F46D203E016E018E063
:101FC0001AE01FE0491E0029F7DCBDE8F001704768
:101FD000401EFDD148E7401EFDD151E7401EFDD116
:101FE0005AE7401EFDD163E712E018E0401EFDD124
:101FF0006AE7401EFDD173E7481E3FF477AF401EED
:10200000FDD173E7481E3FF476AF401EFDD172E765
:10201000481E3FF479AF401EFDD175E705E0481E2C
:102020003FF47AAF401EFDD176E7401EFDD185E733
:10203000401EFDD192E76D1EFDD1A1E76D1EFDD1C1
:10204000AAE75B1EFDD1B3E7491EFDD1BDE8F00153
:1020500070470000100C014008010020080C0140EE
:102060002DE9F74F009810F03F0408BF402410F00E
:10207000400F2A4F4FF40070A7F1040814BFC8F8AE
:1020800000003860002C04BF03B0BDE8F08F4FF0B3
:10209000200BDFF88CE04FF4807A00BF214811F864
:1020A000015B4FF000090826D0F804C020E000BF13
:1020B00015F0010F14BFC8F800B0C7F800B0C7F89A
:1020C00000A06346BCF1004F21D200BFDEF8000043
:1020D000C8F800A0C0F3C0136046BCF1004F19D28D
:1020E0006D084FEA5900641E40EAC319761E01D0FC
:1020F000002CDDD1009B29FA06F013F0800F18BFE9
:1021000002F8010B002CC9D103B0BDE8F08F5B1EB3
:10211000FDD1DBE7401EFDD1E2E70000140C0140D9
:10212000080C0140080100202DE9F05FDFF8C0E154
:102130009EF80120002A00F0D780DFF8B8C14FF4E4
:102140000079CCF800900CF104074FF480733B60E9
:10215000CCF80030C7F800903B60CCF800303B6012
:10216000CCF800309EF81B2022B13B60CCF8003048
:10217000521EFAD1420812F0010F4FF0200414BF92
:10218000CCF800403C603B605B4D2A68CCF80030E6
:10219000C2F3C0125200860816F0010F14BFCCF82B
:1021A00000403C603B602E68CCF80030C6F3C0169F
:1021B0003243C60816F0010F14BFCCF800403C6053
:1021C0003B602E68CCF80030C6F3C01642EA860A9F
:1021D000BAF1010F59D1464E10F0020FB27EF67ED1
:1021E000A2EB060B14BF002609684FF01F022DD08A
:1021F0003B60D5F80080CCF800304FEAD81846EAAA
:10220000C8767608521EF3D1BBF1010210D03B60B4
:102210002D68CCF80030C5F3C015521E04D03B60C9
:10222000CCF80030521EFAD1CCF800903B6005E0AB
:10223000CCF800903B602A68C2F3C015CCF800309F
:1022400046EAC572002918BF0A6023E011F0010FA9
:1022500014BFCCF800403C603B60CCF8003049082B
:10226000521EF3D1BBF1010232D011F0010F0CBFAD
:102270003C60CCF800403B60CCF80030511E04D0EC
:102280003B60CCF80030491EFAD1CCF800903B609E
:10229000CCF800303B60CCF80030C7F800903B60D1
:1022A000CCF80030CCF8004010F0800F03D0134879
:1022B0004068CEF808009EF80C00002805DD3B6061
:1022C000CCF80030401E0028F9DC5046BDE8F09FF5
:1022D000CCF8009011F0010F14BFCCF800403C6026
:1022E0003B60CCF80030D5E7BDE8F05F00F008B8FF
:1022F00008010020100C0140080C0140001000E013
:102300002DE9F84FFF4D4FF40078C5F8008005F136
:102310000409AC15C9F80040FB4F7A681346B2F1C6
:10232000004F80F095825B1E002BFCDC2C60134676
:10233000B2F1004F38BF531E80F08D82002BC8BF12
:102340005B1EFBDCC9F80080C9F800401346B2F1FF
:10235000004F38BF531E80F08182002BC8BF5B1E28
:10236000FBDC2C601346B2F1004F38BF531E80F0E7
:102370007882002BC8BF5B1EFBDC00BFC9F80040A1
:102380001346B2F1004F38BF531E80F06D82002B10
:10239000C8BF5B1EFBDC2C601346B2F1004F38BF98
:1023A000531E80F06482002BC8BF5B1EFBDC00BFA5
:1023B00097F81BC0BCF1000F0FD000BFC9F8004058
:1023C000B2F1004F80F056822C60B2F1004F80F0E5
:1023D000598200BFBCF1010CF0D1430813F0010F8A
:1023E0004FF0200614BF2E60C9F80060C9F8004005
:1023F0001346B2F1004F38BF531E80F04982002BC4
:10240000C8BF5B1EFBDCDFF804C3DCF800302C60C7
:10241000C3F3C0139246B2F1004F38BFA2F1010AD4
:1024200080F03A82BAF1000FC8BFAAF1010AF9DCC4
:102430005B004FEA900A1AF0010F14BF2E60C9F832
:102440000060C9F800409246B2F1004F38BFA2F1D7
:10245000010A80F0258200BFBAF1000FC8BFAAF1BF
:10246000010AF9DCDCF800A02C60CAF3C01A93461C
:10247000B2F1004F38BFA2F1010B80F0158200BF0E
:10248000BBF1000FC8BFABF1010BF9DC43EA0A0A4C
:10249000C30813F0010F14BF2E60C9F80060C9F81B
:1024A00000401346B2F1004F38BF531E80F0008247
:1024B000002BC8BF5B1EFBDCDCF80030914CC3F383
:1024C000C01B4FF4807323601346B2F1004F38BF36
:1024D000531E80F0F081002BC8BF5B1EFBDC00BFE9
:1024E0004AEA8B0ABAF1010F20D0864BC3F800806C
:1024F0004FF4807CC9F800C01146B2F1004F38BFDC
:10250000511E80F0DB810029C8BF491EFBDC00BFE3
:10251000C3F800C0B2F1004F38BF511E80F0D28125
:102520000029C8BF491EFBDC00F029B9764C10F029
:10253000020FA37EE47EA3EB040300936FD0714FE0
:1025400000244FF01F0BBD15C9F80050B2F1004F29
:1025500080F0BB81DCF800303D60C3F3C01EB2F1F7
:10256000004F80F0B88100BF44EACE735C08BBF135
:10257000010BE9D1009B5B1E52D0C9F80050934675
:10258000B2F1004F38BFA2F1010B80F0AB8100BF68
:10259000BBF1000FC8BFABF1010BF9DCDCF800C0E8
:1025A0003D60CCF3C01B9446B2F1004F38BFA2F19E
:1025B000010C80F09B8100BFBCF1000FC8BFACF1E3
:1025C000010CF9DCB3F1010C11D000BFC9F80050C7
:1025D0001346B2F1004F80F08D813D601346B2F199
:1025E000004F80F08A8100BFBCF1010CEED1C7F82A
:1025F0000080C9F800501346B2F1004F38BF531E97
:1026000080F07E81002BC8BF5B1EFBDC3D60B2F119
:10261000004F80F07881521E002AFCDC1CE021E093
:10262000C7F80080C9F800501346B2F1004F38BF18
:10263000531E80F06B81002BC8BF5B1EFBDC00BF0C
:10264000DCF800303D60C3F3C01BB2F1004F80F0F6
:102650006281521E002AFCDC44EACB72002918BFBA
:102660000A608CE0274CD1F800301F254FF4807CA5
:1026700013F0010F14BF2660C9F80060C9F800C04C
:10268000B2F1004F7ED200BFC4F800C0B2F1004FDB
:1026900079D25B086D1EEBD10099491E50D013F022
:1026A000010F0CBFC9F800602660C9F800C01346CE
:1026B000B2F1004F38BF531E66D2002BC8BF5B1E5D
:1026C000FBDC00BFC4F800C01346B2F1004F38BFB6
:1026D000531E7DD2002BC8BF5B1EFBDC4B1E0DD0F2
:1026E000C9F800C01146B2F1004F72D2C4F800C060
:1026F0001146B2F1004F6DD25B1EF1D1C4F80080DB
:1027000006E00000100C014008010020080C014008
:10271000C9F800C01146B2F1004F38BF511E7DD23A
:102720000029C8BF491EFBDCC4F800C0B2F1004F4D
:1027300038BF511E73D20029C8BF491EFBDC1EE002
:10274000C4F8008013F0010F14BF2660C9F80060C0
:10275000C9F800C01146B2F1004F38BF511E75D202
:102760000029C8BF491EFBDCC4F800C0B2F1004F0D
:1027700038BF511E6BD20029C8BF491EFBDC4FF485
:10278000807202E0CAE0CFE0D4E0C9F80020834CB8
:1027900061680B46B1F1004F72D25B1E002BFCDC6E
:1027A0007F4B1A608C46B1F1004F38BFA1F1010C8C
:1027B00067D200BFBCF1000FC8BFACF1010CF9DC5F
:1027C000C9F80080C9F800208C46B1F1004F02E042
:1027D000B3E0B5E0B7E038BFA1F1010C71D200BFA2
:1027E000BCF1000FC8BFACF1010CF9DC1A608C46DB
:1027F000B1F1004F38BFA1F1010C72D2BCF1000F52
:10280000C8BFACF1010CF9DC1E6010F0800F02D0E3
:1028100064484068A06094F80CC001E096E098E03D
:10282000BCF1000F0FDD00BFC9F80020B1F1004F6F
:102830006FD21A60B1F1004F6CD200BFACF1010C45
:10284000BCF1000FF0DC5046BDE8F88F84E086E074
:102850005B1EFDD16AE55B1EFDD173E55B1EFDD1FC
:102860007FE55B1EFDD189E55B1EFDD193E55B1E17
:10287000FDD19DE5531E3FF4A7AD5B1EFDD1A3E541
:1028800070E072E0531E3FF4A5AD5B1EFDD1A1E5E3
:102890005B1EFDD1B7E500BFBAF1010AFCD1C7E567
:1028A000BAF1010AFCD1DDE5BBF1010BFCD1EDE58C
:1028B0005B1EFDD100E65B1EFDD111E6491EFDD178
:1028C00026E656E0521EFDD159E7531E3FF442AEB4
:1028D0005B1EFDD13EE6531E3FF446AE5B1EFDD1AE
:1028E00042E64AE0BBF1010BFCD157E6BCF1010C1A
:1028F000FCD167E65B1EFDD16FE65B1EFDD173E682
:102900005B1EFDD182E6521EFDD1A5E65B1EFDD108
:1029100096E636E03BE0521EFDD19DE6511E3FF4A7
:10292000B3AE491EFDD1AFE6511E3FF4B2AE491E13
:10293000FDD1AEE65B1EFDD1C4E65B1EFDD1CDE64A
:10294000491EFDD1D2E6491EFDD1D5E6491EFDD175
:10295000EAE6521EFDD112E7491EFDD104E7521EE0
:10296000FDD10CE75B1EFDD11AE7BCF1010CFCD1D7
:1029700026E7BCF1010CFCD138E7BCF1010CFCD11D
:1029800042E7481E3FF455AF401EFDD151E7481EB7
:102990003FF454AF401EFDD150E700000801002075
:1029A000100C0140001000E02DE9F003F34C4FF44F
:1029B00000772760251D4FF4807CC5F800C0F04EDD
:1029C00071680A46B1F1004F80F07281521E002AF0
:1029D000FCDC00BFC4F800C00A46B1F1004F38BFAC
:1029E0004A1E80F06881002AC8BF521EFBDC2F609F
:1029F000C5F800C00A46B1F1004F38BF4A1E80F04A
:102A00005D81002AC8BF521EFBDC00BFC4F800C0B5
:102A10000A46B1F1004F38BF4A1E80F05281002AA9
:102A2000C8BF521EFBDC00BFC5F800C00A46B1F1AA
:102A3000004F38BF4A1E80F04881002AC8BF521E8E
:102A4000FBDC00BFC4F800C00A46B1F1004F38BF3C
:102A50004A1E80F03D81002AC8BF521EFBDCF37E77
:102A6000B3F100090ED000BFC5F800C0B1F1004FAE
:102A700080F03181C4F800C0B1F1004F80F03181A5
:102A80005B1EF1D14FF02008C5F80080C5F800C0EA
:102A90000A46B1F1004F38BF4A1E80F02981002A52
:102AA000C8BF521EFBDC00BFC4F800C00A46B1F12B
:102AB000004F38BF4A1E80F01E81002AC8BF521E38
:102AC000FBDC00BFC5F800C00A46B1F1004F38BFBB
:102AD0004A1E80F01381002AC8BF521EFBDC00BFD3
:102AE000C4F800C00A46B1F1004F38BF4A1E80F05A
:102AF0000881002AC8BF521EFBDC00BFC5F800C019
:102B00000A46B1F1004F38BF4A1E80F0FE80002A0D
:102B1000C8BF521EFBDC00BFC4F800C00A46B1F1BA
:102B2000004F38BF4A1E80F0F380002AC8BF521EF3
:102B3000FBDC1F2310F0010F14BFC4F80080C5F8A0
:102B40000080C5F800C0B1F1004F7BD2C4F800C0CE
:102B5000B1F1004F77D240085B1EEBD1B27EA2EB01
:102B60000902521E44D010F0010F0CBFC5F80080BE
:102B7000C4F800806346C5F800C00846B1F1004FB4
:102B800038BF481E7ED20028C8BF401EFBDC236031
:102B90000846B1F1004F38BF481E74D20028C8BFA4
:102BA000401EFBDC521E0BD02B600846B1F1004FDB
:102BB0006AD223600846B1F1004F66D2521EF3D1AB
:102BC00027602B600846B1F1004F38BF481E6ED217
:102BD0000028C8BF401EFBDC23600846B1F1004F4F
:102BE00038BF481E70D20028C8BF401EFBDC1FE063
:102BF000276010F0010F14BFC4F80080C5F80080F2
:102C0000C5F800C00846B1F1004F38BF481E6ED26B
:102C10000028C8BF401EFBDCC4F800C00846B1F164
:102C2000004F38BF481E6FD20028C8BF401EFBDCD3
:102C3000C5F800C00846B1F1004F38BF481E70D239
:102C4000002801E067E06DE0C8BF401EF8DC00BF6F
:102C5000C4F800C00846B1F1004F38BF481E70D21A
:102C60000028C8BF401EFBDC2F60C5F800C0084626
:102C7000B1F1004F38BF481E7AD20028C8BF401EAD
:102C8000FBDC03E054E056E058E05BE0C4F800C031
:102C9000B1F1004F38BF481E6DD20028C8BF401E9A
:102CA000FBDC00BFC4F80080BDE8F00370474CE0D7
:102CB000521EFDD18EE6521EFDD198E6521EFDD168
:102CC000A4E6521EFDD1AFE642E0521EFDD1B9E6A8
:102CD000521EFDD1C3E64A1E3FF4CCAE521EFDD1BA
:102CE000C8E64A1E3FF4CCAE521EFDD1C8E632E023
:102CF000521EFDD1D8E6521EFDD1E3E6521EFDD193
:102D0000EEE6521EFDD1F9E629E0521EFDD103E7A1
:102D1000521EFDD10DE74A1E3FF418AF521EFDD1E1
:102D200014E71FE04A1E3FF416AF521EFDD112E712
:102D3000401EFDD12BE7401EFDD133E7401EFDD1E3
:102D400037E712E0401EFDD138E7401EFDD143E7D2
:102D5000401EFDD16CE7401EFDD15DE708E0401E3E
:102D6000FDD165E7401EFDD172E7401EFDD17BE736
:102D7000401EFDD185E7491EFDD193E7100C0140AF
:102D80000801002007494FF40050086106484178C7
:102D900021F0010141704FF0E020016941F0010193
:102DA0000161704700100140000000200D4A4FF4FF
:102DB000005151610C4B10F0010F4FF0E02093F8DF
:102DC00001C04CF0010C83F801C0036904D023F06A
:102DD000010303615161704743F001030361116115
:102DE0007047000000100140000000200F4810B59F
:102DF0004FF440710160202101600E4C0C492046C7
:102E0000FEF7DAFB0C492046FEF7D6FB0B492046BD
:102E1000FEF7D2FB002004F0C3FC6420FEF704FBA5
:102E2000BDE81040012004F0BBBC0000100C0140C4
:102E300044780008000C01404C78000848780008ED
:102E400010B50A4C08492046FEF7B6FB0849204653
:102E5000FEF7B2FB07492046FEF7AEFB2046BDE871
:102E600010400549FEF7A8BB54780008000C01404B
:102E700050780008587800085C7800080E4910B5B2
:102E80004FF4407008600E4C0C492046FEF794FB4E
:102E90000C492046FEF790FB0B492046FEF78CFBC1
:102EA000002004F07DFC6420FEF7BEFABDE810406F
:102EB000012004F075BC0000100C014038780008B7
:102EC000000C01403C780008407800080548816902
:102ED00041F00401816104498015086003490448F8
:102EE000FEF76ABB00100240140801403478000865
:102EF000000801402DE9F007F74C4FF400762660FA
:102F0000251D4FF4807CC5F800C0F44B5F683A463D
:102F1000B7F1004F80F0D9817F1E002FFCDC00BF8D
:102F2000C4F800C01746B2F1004F38BF571E80F0FA
:102F3000CF81002FC8BF7F1EFBDC00BF10F0010F48
:102F400014BF26602E60C5F800C01746B2F1004FCE
:102F500038BF571E80F0C881002FC8BF7F1EFBDC22
:102F6000C4F800C01746B2F1004F38BF571E80F0BA
:102F7000BE81002FC8BF7F1EFBDC4FEA5009804690
:102F800019F0010F14BF26602E60C5F800C0174667
:102F9000B2F1004F38BF571E80F0AC81002FC8BF80
:102FA0007F1EFBDCC4F800C01746B2F1004F38BFEB
:102FB000571E80F0A481002FC8BF7F1EFBDC4FEAA4
:102FC0009008814418F0010F14BF26602E60C5F8E8
:102FD00000C01746B2F1004F38BF571E80F09281F3
:102FE000002FC8BF7F1EFBDCC4F800C01746B2F13B
:102FF000004F38BF571E80F08881002FC8BF7F1E4A
:10300000FBDC00BF09EB08074FEAD00818F0010FFE
:1030100014BF26602E60C5F800C01046B2F1004F04
:1030200038BF501E80F074810028C8BF401EFBDCF2
:10303000C4F800C01046B2F1004F38BF501E80F0F7
:103040006A810028C8BF401EFBDC00BF07EB0800F8
:1030500010F0010F14BF26602E60C5F800C01046A6
:10306000B2F1004F38BF501E80F058810028C8BF11
:10307000401EFBDCC4F800C01046B2F1004F38BF60
:10308000501E80F04E810028C8BF401EFBDC2E6021
:10309000C5F800C01046B2F1004F38BF501E80F096
:1030A00043810028C8BF401EFBDC00BFC4F800C03D
:1030B0001046B2F1004F38BF501E80F03881002812
:1030C000C8BF401EFBDC2660C5F800C01046B2F148
:1030D000004F38BF501E80F02D810028C8BF401E11
:1030E000FBDC00BFC4F800C01046B2F1004F38BF8F
:1030F000501E80F024810028C8BF401EFBDC784FA2
:10310000386820F0F00040F08000386026601B7EB8
:10311000B3F100080DD000BFC5F800C0B2F1004FF8
:103120007CD200BFC4F800C0B2F1004F77D25B1E62
:10313000F2D1C5F800C01046B2F1004F38BF501EA2
:103140006ED20028C8BF401EFBDC6648036813F43B
:10315000007318BF0123C4F800C09146B2F1004FBC
:1031600038BFA2F101097CD2B9F1000FC8BFA9F1A3
:103170000109F9DCC5F800C09146B2F1004F38BF33
:10318000A2F101096ED200BFB9F1000FC8BFA9F1C9
:103190000109F9DCD0F8009019F4007F14BF4FF05A
:1031A000010A4FF0000AC4F800C09146B2F1004F86
:1031B00038BFA2F101097BD2B9F1000FC8BFA9F154
:1031C0000109F9DC43EA4A09C5F800C01346B2F127
:1031D000004F38BF531E6CD2002BC8BF5B1EFBDCF8
:1031E000006810F4007F14BF01230023C4F800C05E
:1031F0001046B2F1004F38BF501E6CD20028C8BF35
:10320000401EFBDC49EA8300B8F1000F11D000BF7B
:10321000C5F800C0B2F1004F6FD202E092E097E033
:103220009CE0C4F800C0B2F1004F67D2B8F10108C9
:10323000EED13B6823F0F00343F030033B602E6097
:103240004FF000084FF0200911F0010F14BF266065
:103250002E60C5F800C0B2F1004F6ED2C4F800C0B5
:1032600001E07EE081E0B2F1004F67D28844490876
:10327000B9F10109E8D118F0010F14BF26602E60E2
:10328000C5F800C01146B2F1004F38BF511E70D2D0
:103290000029C8BF491EFBDCC4F800C0B2F1004FD2
:1032A00038BF511E70D20029C8BF491EFBDC01E0A7
:1032B00060E063E0396821F0F00141F030013960ED
:1032C0002E602660BDE8F00770477F1EFDD127E61F
:1032D0007F1EFDD132E654E0100C014008010020B1
:1032E000040C0140080C01407F1EFDD138E67F1E12
:1032F000FDD142E67F1EFDD154E646E04BE07F1E45
:10330000FDD15CE67F1EFDD16EE67F1EFDD179E624
:10331000401EFDD18CE6401EFDD197E6401EFDD13A
:10332000A8E6401EFDD1B2E6401EFDD1BEE6401E1D
:10333000FDD1C8E6401EFDD1D4E632E037E0401EA4
:10334000FDD1DCE6501E3FF4EDAE401EFDD1E9E6B6
:10335000501E3FF4ECAE401EFDD1E8E6401EFDD10C
:10336000F3E6B9F10109FCD104E7B9F10109FCD197
:1033700010E722E0B9F10109FCD123E75B1EFDD182
:103380002EE7401EFDD13DE71AE0531E3FF445AF46
:103390005B1EFDD141E7531E3FF448AF5B1EFDD1DC
:1033A00044E7531E3FF45AAF5B1EFDD156E7531E50
:1033B0003FF45CAF5B1EFDD158E7491EFDD16BE7C2
:1033C000521EFDD173E700002DE9F00710F03F0316
:1033D00008BF402310F0800FDFF8E090DFF8E0A096
:1033E0004FF48075A9F104062FD0002B12BFDFF82F
:1033F000D480BDE8F007704700270824DAF804C03D
:1034000018E000BFC9F800506146BCF1004F49D236
:10341000D8F8000010F4007F14BF012100213560AE
:103420006046BCF1004F40D278085B1E40EAC117ED
:10343000641E01D0002BE5D127FA04F002F8010B3D
:10344000002BD9D1BDE8F0077047002B19BF4FF40E
:10345000007CDAF80420BDE8F007704711F8014B52
:10346000082715E014F0010F14BFC6F800C0C9F812
:1034700000C0C9F800501046B2F1004F18D23560B4
:103480001046B2F1004F16D264085B1E7F1E04D0B6
:10349000002BE7D1BDE8F0077047002BDED1BDE877
:1034A000F0077047491EFDD1B2E7401EFDD1BBE7D2
:1034B000401EFDD1E3E7401EFDD1E5E7140C0140BD
:1034C00008010020080C0140034A52780AB100F0BC
:1034D00005B800F07BB90000080100202DE9F04F8D
:1034E000DFF8D4C24FF4007ACCF800A00CF1040746
:1034F0004FF48078C7F80080CCF8008010F0010FFE
:1035000014BFCCF800A0C7F800A0C7F80080CCF822
:103510000080420812F0010F14BFCCF800A0C7F8D9
:1035200000A0C7F80080CCF800808318820812F051
:10353000010F14BFCCF800A0C7F800A0C7F80080A6
:10354000CCF800801344C20812F0010F14BFCCF86D
:1035500000A0C7F800A0C7F80080CCF800801A448B
:1035600012F0010F14BFCCF800A0C7F800A0C7F8F4
:103570000080CCF80080C7F800A0C7F80080CCF825
:103580000080CCF800A0C7F80080CCF80080DFF8FD
:103590002CB2DBF8002022F0F00242F08002CBF8DF
:1035A0000020CCF800A0DFF818E29EF81820131EC7
:1035B00006D000BFC7F80080CCF80080521EF9D1B9
:1035C000C7F80080DFF8FC91D9F8002012F40072EF
:1035D00018BF0122CCF80080C7F80080D9F800405D
:1035E00014F4007418BF0124CCF8008042EA4402AD
:1035F000C7F80080D9F8004014F4007418BF012403
:10360000CCF8008042EA8402012A1CD0022A18BFAA
:10361000042A7DD013F1210006D000BFC7F8008036
:10362000CCF80080401EF9D1DBF8000020F0F0005B
:1036300040F03000CBF80000C7F800A0CCF800A0A4
:103640001046BDE8F08F10F0020F4ED000252C463A
:103650005FF02003C7F80080D9F8006016F4007608
:1036600018BF0126CCF800806D08344445EAC675C1
:103670005B1EEFD14346C7F80080D9F8006016F40E
:10368000007618BF0126CCF80030744014F0010F0A
:1036900018BF0822002918BF0D609EF8181021B12C
:1036A0003B60CCF80030491EFAD1DBF8001021F065
:1036B000F00141F03001CBF80010C7F800A000BFC6
:1036C00010F0800F03D040484068CEF808009EF804
:1036D0000C00002818BFC7F800A067D0C7F800800A
:1036E000CCF80080401EF9D160E02BB1C7F8008013
:1036F000CCF800805B1EF9D1DBF8003023F0F0033A
:1037000043F03003CBF80030C7F800A0096800E0B0
:103710001DE000235FF0200411F0010F14BFCCF86E
:1037200000A0C7F800A0C7F80080CCF800800B44C8
:103730004908641EF0D113F0010F14BFCCF800A0AB
:10374000C7F800A0C7F80080CCF80080B8E79EF862
:103750001940002C1CBF10F0020F212106D000BF21
:10376000C7F80080CCF80080491EF9D133B100BF02
:10377000C7F80080CCF800805B1EF9D1DBF80010A0
:1037800021F0F00141F03001CBF80010C7F800A0A3
:1037900064B110F0020F04BFC7F800A0212005D1CA
:1037A000C7F80080CCF80080401EF9D1CCF800A00A
:1037B0001046BDE8F08F0000100C0140040C0140E1
:1037C00008010020080C0140001000E02DE9F04F36
:1037D000DFF80CC44FF4007ECCF800E00CF1040AD2
:1037E0004FF48079CAF80090FE4E72681346B2F129
:1037F000004F80F0D7825B1E002BFCDCCCF80090E1
:103800001346B2F1004F38BF531E80F0CE82002B1A
:10381000C8BF5B1EFBDC00BF10F0010F14BFCCF86B
:1038200000E0CAF800E0CAF800901346B2F1004F79
:1038300038BF531E80F0BC82002BC8BF5B1EFBDC70
:10384000CCF800901346B2F1004F38BF531E80F001
:10385000B282002BC8BF5B1EFBDC4508044615F096
:10386000010F14BFCCF800E0CAF800E0CAF80090DD
:103870001346B2F1004F38BF531E80F09F82002BD9
:10388000C8BF5B1EFBDC00BFCCF800901346B2F152
:10389000004F38BF531E80F09482002BC8BF5B1EC0
:1038A000FBDC8408054414F0010F14BFCCF800E0E1
:1038B000CAF800E0CAF800901346B2F1004F38BFD2
:1038C000531E80F08182002BC8BF5B1EFBDC00BF53
:1038D000CCF800901346B2F1004F38BF531E80F071
:1038E0007882002BC8BF5B1EFBDC2544C40814F0A3
:1038F000010F14BFCCF800E0CAF800E0CAF800904D
:103900001346B2F1004F38BF531E80F06582002B82
:10391000C8BF5B1EFBDC00BFCCF800901346B2F1C1
:10392000004F38BF531E80F05A82002BC8BF5B1E69
:10393000FBDC2B1913F0010F14BFCCF800E0CAF820
:1039400000E0CAF800901346B2F1004F38BF531E92
:1039500080F04882002BC8BF5B1EFBDCCCF80090D7
:103960001346B2F1004F38BF531E80F03E82002B49
:10397000C8BF5B1EFBDC00BFCAF800E0CAF80090BD
:103980001346B2F1004F38BF531E80F03182002B36
:10399000C8BF5B1EFBDC00BFCCF800901346B2F141
:1039A000004F38BF531E80F02682002BC8BF5B1E1D
:1039B000FBDC00BFCCF800E0CAF800901346B2F17F
:1039C000004F38BF531E80F01982002BC8BF5B1E0A
:1039D000FBDC00BFCCF800901346B2F1004F38BFBB
:1039E000531E80F01082002BC8BF5B1EFBDC7E4B99
:1039F0001C6824F0F00444F080041C60CCF800E063
:103A0000347E251E0ED000BFCAF80090B2F1004FE0
:103A100080F0FC81CCF80090B2F1004F80F0FC8186
:103A2000641EF1D1CAF800901346B2F1004F38BFBE
:103A3000531E80F0F981002BC8BF5B1EFBDCDFF852
:103A4000ACB1DBF8003013F4007318BF0123CCF8DD
:103A500000901446B2F1004F38BF541E80F0E78149
:103A6000002CC8BF641EFBDCCAF800901446B2F1FB
:103A7000004F38BF541E80F0DD81002CC8BF641E8B
:103A8000FBDC00BFDBF8004014F4007418BF012415
:103A9000CCF800901746B2F1004F38BF571E80F0A7
:103AA000CC81002FC8BF7F1EFBDC00BF43EA44036C
:103AB000CAF800901446B2F1004F38BF541E80F08F
:103AC000BF81002CC8BF641EFBDC00BFDBF80040D8
:103AD00014F4007418BF0124CCF800901646B2F11B
:103AE000004F38BF561E80F0AE81002EC8BF761E34
:103AF000FBDC00BF43EA8404012C23D0022C18BF56
:103B0000042C75D015F121010ED000BFCAF8009029
:103B1000B2F1004F80F00282CCF80090B2F1004F79
:103B200080F00282491EF1D12F48016821F0F00196
:103B300041F030010160CAF800E0CCF800E0204616
:103B4000BDE8F08F10F0020F69D04FF00008474633
:103B50005FF02006CAF80090B2F1004F80F0768145
:103B6000DBF8003013F4007F14BF01250025CCF8EA
:103B70000090B2F1004F80F06F814FEA58032F445C
:103B800043EAC578761EE5D14D46CAF80090154E39
:103B90001346B2F1004F38BF531E7CD2002BC8BF72
:103BA0005B1EFBDCDBF8003013F4007318BF01234D
:103BB000CCF80050B2F1004F6ED2521E002AFCDC4D
:103BC00087EA030212F0010F18BF0824002918BF6A
:103BD000C1F80080337E002B18BF726815D008E052
:103BE000100C014008010020040C0140080C0140A9
:103BF00089E0CAF80050B2F1004F7DD2CCF80050F5
:103C0000B2F1004F79D25B1EE9D1CA490A6822F0AD
:103C1000F00242F030020A60CAF800E051E065B1FB
:103C2000CAF80090B2F1004F68D200BFCCF8009003
:103C3000B2F1004F7CD26D1EF2D1BE4B1D6825F053
:103C4000F00545F030051D607746CAF800E0002514
:103C50000B68202613F0010F14BFCCF80070CAF8CF
:103C60000070CAF80090B2F1004F7DD2CCF80090FD
:103C7000B2F1004F79D21D445B08761EEAD115F0EF
:103C8000010F14BFCCF80070CAF800704B46CAF898
:103C90000090114601E0E5E0E9E0B2F1004F38BFE5
:103CA000511E7DD20029C8BF491EFBDCCCF8003074
:103CB000B2F1004F38BF511E73D20029C8BF491E50
:103CC000FBDC10F0800F03D09B4840689B49886064
:103CD0009A48027B002A1CBFCAF800E041685AD00B
:103CE000CAF800900846B1F1004F70D2CCF80090AD
:103CF0000846B1F1004F02E0BCE0C1E0C6E067D287
:103D0000521EEDD147E08D494E7E002E1CBF10F0B3
:103D1000020F21230FD000BFCAF80090B2F1004F6C
:103D20006FD200BFCCF80090B2F1004F6AD200E031
:103D3000B2E05B1EF0D165B1CAF80090B2F1004F5D
:103D400070D200BFCCF80090B2F1004F6BD26D1E64
:103D5000F2D178490B6823F0F00343F030030B6095
:103D6000CAF800E0BEB101E09CE0A1E010F0020F53
:103D700004BFCAF800E021210DD100BFCAF80090AD
:103D8000B2F1004F71D200BFCCF80090B2F1004FF9
:103D90006CD2491EF2D1CCF800E02046BDE8F08F8D
:103DA0008CE08EE05B1EFDD128E55B1EFDD133E586
:103DB0005B1EFDD144E55B1EFDD14EE55B1EFDD1D2
:103DC00062E55B1EFDD16CE55B1EFDD180E57BE00D
:103DD0007DE05B1EFDD188E55B1EFDD19CE55B1E91
:103DE000FDD1A6E55B1EFDD1B8E55B1EFDD1C3E5A7
:103DF0005B1EFDD1D0E55B1EFDD1DBE55B1EFDD179
:103E0000E8E567E06CE05B1EFDD1F0E5531E3FF492
:103E100001AE5B1EFDD1FDE5531E3FF401AE5B1EFE
:103E2000FDD1FDE562E067E05B1EFDD107E6641EA3
:103E3000FDD119E6641EFDD124E67F1EFDD135E6D5
:103E4000641EFDD142E6761EFDD153E6531E3FF4BB
:103E500087AE5B1EFDD183E6531E3FF48EAE5B1E24
:103E6000FDD18AE65B1EFDD19CE64BE050E0521E80
:103E7000FDD1A5E6511E3FF4C1AE491EFDD1BDE600
:103E8000511E3FF4C0AE491EFDD1BCE6531E3FF4A7
:103E9000CDAE5B1EFDD1C9E6531E3FF4CCAE5B1E1A
:103EA000FDD1C8E6511E3FF4E1AE491EFDD1DDE66D
:103EB000511E3FF4E0AE491EFDD1DCE6491EFDD1A6
:103EC000F4E6521EFDD1FCE6401EFDD10EE7401E79
:103ED000FDD115E7511E3FF425AF491EFDD121E765
:103EE000511E3FF424AF491EFDD120E7511E3FF47F
:103EF00029AF491EFDD125E7511E3FF428AF491EC9
:103F0000FDD124E7501E3FF43FAF401EFDD13BE7FB
:103F1000501E3FF43EAF401EFDD13AE7501E3FF425
:103F2000FBAD401EFDD1F7E5501E3FF4FBAD401E3A
:103F3000FDD1F7E5040C0140001000E0080100206D
:103F40002DE9F0010028DCBFBDE8F00170474FF417
:103F50000078184A164E371F5368B51511F801CB73
:103F60005FF008041CF0010F14BFC7F80080C6F80A
:103F700000803560B3F1004F10D23D60B3F1004FC7
:103F800011D200BF401E641E4FEA5C0C0028DCBF4B
:103F9000BDE8F0017047002CE4D1DFE75A1EECD0F9
:103FA000521EFDD1E9E75A1EECD0521EFDD1E9E7C1
:103FB000140C01400801002070B50C46C17800685F
:103FC0000C4D61F31F60A978012918BF00200BD0A8
:103FD0000021E9702070010A6170010CA170000ECF
:103FE000E0704FF0041070BD00F060FA0028F1D1CD
:103FF000EEE70000240000202DE9F0410078114C8C
:1040000000F001060025E0780F4600F00100B04204
:1040100010D02EB1A01D057045702571A560E5601A
:10402000A078012808D1304600F094FA002818BF83
:10403000E67001D03D7001E0FF2038704FF00110B4
:10404000BDE8F081240000202DE9F047324C804685
:104050000E462279A11D82F001002071E0788B5C70
:104060004FF0000943EA000701F80290012811D03F
:10407000A068E168451A6178012918BF002518D0A9
:1040800006F8017B280A06F8015B012906F8010BF6
:1040900016D038E084F80590A068E168451AA07849
:1040A000012802D100F086FA054460790028F1D198
:1040B000E1E7B8F800003C282AD88542E0D929E099
:1040C000E368DFF858C01846290008D0C0F30B0297
:1040D0001CF8020006F8010B501C491EF6D15819B5
:1040E000E060E07803280ED1A068E168411AB1F5DC
:1040F000805F08D2A178C0F30B00012903D1E170E1
:10410000604400F01DFAE81C40F40030BDE8F08780
:104110003C20D2E70546B3E7240000204C010020F4
:104120002DE9F0411C4D002790F800C0EB780C46BB
:104130001CF0010FB8460BD02879AA1D80F00101B0
:104140002971115C02F80080194304F8011B012752
:104150001CF0020F0CD0012B0ED0A868E968461A9B
:104160002670300A6070300CA070300EE0703F1D79
:1041700047F48030BDE8F08185F80580A868E968DB
:10418000461AA878012802D100F014FA064468798A
:104190000028F1D1E4E70000240000202DE9F041DF
:1041A000114C07780E46A078012804BF002000F0CB
:1041B0000FFA0025002F08BF012005D0012F0AD1DA
:1041C000012000F005FA30B1A770E570002818BF93
:1041D000357004D101E0A570E570FF2030704FF01C
:1041E0000110BDE8F0810000240000202DE9F0411D
:1041F000154D07460026287980F001012971A91D77
:10420000EA780B5C0E5443EA0208012A0ED0A86833
:10421000E968441A87F800807C70200AB870200C86
:10422000F870200E38710520BDE8F0816E71A86825
:10423000E968441AA878012802D100F0BBF90444C7
:1042400068790028F2D1E5E724000020084AD378F5
:1042500013F0010F04D0FF2008704FF001107047D9
:104260000078002812BF012850700020F3D1F3E736
:10427000240000204FF0E021042808690CBF40F022
:10428000040020F00400086170470000144A10B4D4
:1042900010781449401EC3B2137092F801C04FF455
:1042A00000501CF0020F07D02CF0020C82F801C065
:1042B00013F0010F03D010E013F0070F0DD00861C9
:1042C000527812F0010F04BF10BC704713F0030FB7
:1042D0000CBF4861086110BC70474861F0E70000FE
:1042E000000000200010014016494868164A10F0EE
:1042F0000C03164818BF042B01D0082B01D0026014
:1043000015E04A684B6802F470124FF0020C13F487
:10431000803F0CEB924203D04B6813F4003F03D074
:104320000B4B5A43026002E0074B5A430260496854
:10433000084AC1F30311515C026822FA01F10160DD
:10434000704700000010024000127A000C000020AC
:1043500000093D0010000020384881B0016841F09C
:10436000010101604168364A11404160016821F451
:10437000102121F080710160016821F48021016029
:10438000416821F4FE0141604FF41F018160002269
:104390000092016841F480310160016811F4003F2E
:1043A00003D10099B1F5A06FF7D1016811F4003F76
:1043B00018BF00923BD023490A6842F010020A60FD
:1043C0000A6822F003020A600A6842F002020A60E8
:1043D0004168416041684160416841F480614160E9
:1043E000416821F47C11416000990029416814BFA3
:1043F00041F4D00141F4E8114160016841F080715D
:104400000160016811F0007FFBD0416821F00301D9
:104410004160416841F002014160416801F00C01D6
:104420000829FAD108060849086001B070470168F8
:1044300021F48031016001210091BCE700100240AD
:104440000000FFF80020024008ED00E070B50446CF
:104450001148124D14F0020F017841F00201017071
:1044600009D00F48016801F580610160AA694FF425
:1044700080610C48904714F0010F08BF70BD4FF4E5
:104480008061094801F032FB011ED8BF70BD0648AB
:104490006A69BDE870401047010000206C7900088F
:1044A00060000020FE320020FE36002070B5064677
:1044B0001F48864288BF06461E4C1F4DE07810F00C
:1044C000010F11D00021AA6A16209047E86A8047A0
:1044D00010F0020F08D0686A8047A1680844A06005
:1044E0000021AA6A19209047AA6A31460120904704
:1044F00010B10020207070BD01202070E07810F015
:10450000010F12D010F0020F0BD1A0680B4AC0F3BC
:104510000B0000F03F01C1F1400110442161AA6984
:1045200090470121AA6A16209047304670BD0000CE
:1045300040420F0024000020347900084C01002084
:10454000024A1161024A92691047000024000020CB
:104550003479000870B5144D144C88B128780028BF
:1045600008BF70BD012028610146A269104890472C
:1045700020B90121A26A1620904798B1002070BD91
:104580000021A26A16209047E06A804710F0020FCF
:1045900008D0606A8047A9680844A8600021A26A20
:1045A00019209047012070BD2400002034790008B4
:1045B0004C01002010B5054CE06A804710F0020065
:1045C00008BF10BD606ABDE810400047347900089C
:1045D00010B5114A0021114C117070B1A16810483A
:1045E000884700281CBF002010BD02202169884791
:1045F00080B1E0688047002010BD0021A26A16202B
:1046000090470021A26A192090472169002088471D
:10461000E0688047012010BD2400002034790008A4
:104620000D4C0008014A00F02DBB00008C780008FA
:1046300001480068704700008C78000881B000983D
:1046400020F0010000901E48016B0969002918BF85
:10465000B1F5803F0ED1C16961B10968C06989684F
:10466000007921FA00F010F0010F03D1009840F01A
:1046700001000090009820F002000090009820F0C7
:1046800008000090009820F004000090009961F369
:10469000000000994FEA510161F3410000994FEA8F
:1046A000910161F3820000994FEAD10161F3C300E7
:1046B000009901B04FEA111161F31F10704700001B
:1046C0008C7800080648C16A002902BF406B006967
:1046D000704709684968406B0068401A70470000DD
:1046E0008C7800082C4881B0416B91F8211000298A
:1046F0001CBF009941F0010107D1416809880122DE
:1047000022EA9112009962F300010091016B4A794B
:10471000009962F341010091016B8A79009962F37B
:1047200082010091016BCA79009962F3C301009183
:10473000016B0A7A009962F304110091016B4A7AC5
:10474000009962F345110091006B817A009861F342
:1047500086100090009961F300000099490861F308
:1047600041000099890861F382000099C90861F34A
:10477000C3000099090961F304100099490961F324
:1047800045100099890961F38610009901B0C909A3
:1047900061F3DF10704700008C7800080648816ADA
:1047A000002902BF406B4069704709684968406B47
:1047B0004068401A704700008C780008014800F0FB
:1047C00091BD00008C780008014900F0D0BE0000C7
:1047D0008C780008014900F019BF00008C780008AF
:1047E000014A01F077B800008C780008014A01F016
:1047F0000AB900008C7800081649012228B1012866
:1048000013D000BF4FF0FF307047086B00690028DD
:1048100018BFB0F5003FF5D18869B8B18969006863
:10482000097902FA01F1016110E0086B00690028C2
:1048300018BFB0F5003FE5D1886938B189690068D3
:10484000097901F1100102FA01F101614FF0000054
:10485000704700008C78000870B5144E05000B46B8
:10486000144619BF002B002C6FF0040070BD316B93
:10487000C87A10F0040F4FF0FF3008BF70BDC96850
:10488000022918BF70BD0320716B3246C8612146F2
:10489000184601F01FF8002818BF70BD32462146A7
:1048A0002846BDE8704001F0AEB800008C780008E2
:1048B00010B5184CE06828B18188002300681A46BA
:1048C000FCF7D2FE206928B18188002300681A46CF
:1048D000FCF7CAFE606928B18188002300681A4687
:1048E000FCF7C2FEA06928B18188002300681A463F
:1048F000FCF7BAFEE06928B18188002300681A46F7
:10490000FCF7B2FE208CFCF725FE216B0020C8725C
:1049100010BD00008C780008014A00F0B3B9000017
:10492000C47800080148006870470000C478000897
:1049300081B0009820F0010000901E48016B0969C9
:10494000002918BFB1F5803F0ED1C16961B1096876
:10495000C0698968007921FA00F010F0010F03D1D5
:10496000009840F001000090009820F002000090B4
:10497000009820F008000090009820F004000090BB
:10498000009961F3000000994FEA510161F3410081
:1049900000994FEA910161F3820000994FEAD10139
:1049A00061F3C300009901B04FEA111161F31F10C8
:1049B00070470000C47800080648C16A002902BF99
:1049C000406B0069704709684968406B0068401A8D
:1049D00070470000C47800082C4881B0416B91F802
:1049E000211000291CBF009941F0010107D1416845
:1049F0000988012222EA9112009962F300010091D4
:104A0000016B4A79009962F341010091016B8A7947
:104A1000009962F382010091016BCA79009962F3F7
:104A2000C3010091016B0A7A009962F304110091AD
:104A3000016B4A7A009962F345110091006B817A0B
:104A4000009861F386100090009961F300000099CE
:104A5000490861F341000099890861F382000099D7
:104A6000C90861F3C3000099090961F304100099B2
:104A7000490961F345100099890961F3861000998D
:104A800001B0C90961F3DF1070470000C478000865
:104A90000648816A002902BF406B40697047096877
:104AA0004968406B4068401A70470000C4780008AD
:104AB000014800F017BC0000C4780008014900F06C
:104AC00056BD0000C4780008014900F09FBD0000F9
:104AD000C4780008014A00F0FDBE0000C478000858
:104AE000014A00F090BF0000C47800081649012276
:104AF00028B1012813D000BF4FF0FF307047086B7A
:104B00000069002818BFB0F5003FF5D18869B8B139
:104B100089690068097902FA01F1016110E0086B06
:104B20000069002818BFB0F5003FE5D1886938B1A9
:104B300089690068097901F1100102FA01F1016146
:104B40004FF0000070470000C478000870B5144EA4
:104B500005000B46144619BF002B002C6FF0040013
:104B600070BD316BC87A10F0040F4FF0FF3008BFF2
:104B700070BDC968022918BF70BD0320716B324631
:104B8000C8612146184600F0A5FE002818BF70BD78
:104B9000324621462846BDE8704000F034BF000090
:104BA000C478000810B5184CE06828B1818800234B
:104BB00000681A46FCF758FD206928B18188002357
:104BC00000681A46FCF750FD606928B1818800230F
:104BD00000681A46FCF748FDA06928B181880023C7
:104BE00000681A46FCF740FDE06928B1818800237F
:104BF00000681A46FCF738FD208CFCF7ABFC216BF3
:104C00000020C87210BD0000C478000870B5194CAF
:104C1000054610F0020F1AD0E068A16822690A4424
:104C2000A26002F03F01C1F14001101AC1F58053AA
:104C3000984284BF0320E07007D8C2F30B000E4AED
:104C4000216110440D4A92699047012060710C481F
:104C500015F0200F04D02179425C42F080024254CA
:104C600015F4607F08BF70BD2179425C42F04002BC
:104C7000425470BD240000204C010020347900080B
:104C80002A0000202DE9F05F136B1446DA7A12F047
:104C9000020F00F0BB814FF0000800F0FF0CACF1F8
:104CA0001507454646464246062F80F00981DFE853
:104CB00007F08ABC0325445C606B79B190F8211041
:104CC000002940F01C81012180F82110606B80F8E0
:104CD00020106068818941F081018BE090F820000C
:104CE00000286DD06068818921F080018181606B2E
:104CF00080F82020606B80F8212061E06068818965
:104D000021F0C0018181A06A70B1606B90F8210030
:104D100050B16068818A21F080018182A06A0068B8
:104D2000016821F001010160606B80F82020606B58
:104D300080F821200020BDE8F09F6068818921F083
:104D400020018181E06A68B1206B407950B16068D0
:104D5000818A21F040018182E06A0068016821F0C7
:104D600001010160206B42712AE06068818921F0B5
:104D7000E0018181A06A70B1606B90F8210050B1B0
:104D80006068818A21F080018182A06A00680168E0
:104D900021F001010160E06A68B1206B407950B1F7
:104DA0006068818A21F040018182E06A00680168C0
:104DB00021F001010160206B4271606B80F82120BD
:104DC0000020BDE8F09FE068002800F01F8199B145
:104DD000D968062905D08188006803230222FCF7E0
:104DE00043FC206BC17A41F00801C172606881897F
:104DF00041F008018181E3E76068818921F00801C1
:104E00008181206BC17A21F00801C172206BC068DA
:104E100006281CBFE0680028D2D081884FF000032C
:104E200000681A46FCF720FCCAE72069002875D004
:104E300091B3D968062918BF042907D08188006872
:104E40004FF000034FF00102FCF70EFC206BC17A1B
:104E500041F01001C1726068818A41F001018182D4
:104E60006068018A41F0400101826068818941F0F7
:104E700010018181206B407900281CBFE06A002866
:104E800004D16068818941F0200181816068818955
:104E900041F00401818193E7FFE76068818921F097
:104EA00004018181206BC17A21F01001C172206B55
:104EB000C06806281EBF042820690028ADD17FE7FE
:104EC0005A79E2B9626B92F82120C2B96268978977
:104ED00017F0080F03D0178817F0400F0FD0BCF160
:104EE000150F7DD2DFE80CF0A10F11351B202EA18C
:104EF000A1A1A1A1A1A1A1A1393C5E688F006FF081
:104F00000100BDE8F09F012312E0237813F0020FA7
:104F10001CBF4FF4106502230AD11AE076E04FF06F
:104F200008064FF0040303E04FF002064FF00503BC
:104F300010F4E06C76D0BCF5807F74D0BCF5E06FE7
:104F400077D0BDE0237813F0200F1CBF2026062366
:104F5000EED16FF00600BDE8F09F606B41832FE754
:104F6000D868052852D000293FF42AAF908A40F033
:104F700004009082D94AA068B2FBF0F25FF0010011
:104F800002FB00F38B429CBF401CB0F5807FF7D33F
:104F9000B0F5807F3AD061680A8B22F0FF0210439F
:104FA00008830DE7D868062830D1FF292ED8108B4A
:104FB00020F47F40084324E0D868062826D1A06862
:104FC000C64B01EB0114B3FBF0FC01EB0113012014
:104FD00003EB430304EB41140CFB00F5C82100E094
:104FE00023E06943B1EB430F02D2B1EB440F02D887
:104FF000401C4028F0D3402808D0118B21F0FF013D
:1050000008431083DCE6D868062803D04FF0FF3051
:10501000BDE8F09F00293FF4D3AE908A40F0100025
:105020009082CDE609E048E003E06FF00300BDE8C0
:10503000F09F10F4405F07D142E010F4405F03D0CE
:1050400045F020054FF4805810F4405C0ED0BCF5BC
:10505000805F08BF48F4806808D0BCF5005F16BFC9
:105060006FF0090048F4C068BDE8F09F10F4404CB0
:1050700014D0BCF5804F08BF45F400550ED0BCF5E8
:10508000004F08BF45F4405508D0BCF5404F16BF4F
:105090006FF00A0045F48055BDE8F09F10F4403CE5
:1050A00008BF00271AD0BCF5803F0DD0BCF5003FEB
:1050B00017D0BCF5403F1FD02AE010F4405FBFD0AE
:1050C0006FF00800BDE8F09F94F800C01CF0800F5E
:1050D0001CBF4FF4803746F4807619D0022B1BD0CA
:1050E00032E0B4F800C01CF4807F1CBF4FF40037DE
:1050F00046F4C066F2D10BE0D4F800C01CF0800F7B
:105100001EBF1CF4807F4FF4403746F4E066E5D1C3
:105110006FF00B00BDE8F09F10F4802C08D0BCF5B8
:10512000802F0EBF45F480656FF00C00BDE8F09F46
:1051300010F4002008D0B0F5002F0EBF45F4007524
:105140006FF00D00BDE8F09FD4F808A0DFF8909153
:105150000AEBCA0000EB0A1C8800BCFBF0FBA9FBB1
:105160000BEBBCFBF0FEBCFBF0F0A9FB00C0400960
:105170006FF0180C00FB0CF00EEB80004FF0320CBF
:105180000CEB0010A9FB00C04FEA5B1B40096BF35E
:105190001F104FEA0A191FFA80FCB9FBFCF0000946
:1051A0004FF0640900FB09F001EB011909EB490913
:1051B000B0EB490F06D201EB011909EB4111B0EB3D
:1051C000410F03D86FF00700BDE8F09F908920F4ED
:1051D000005090816068A0F808C0206BC360206B0D
:1051E0000761206BC16806290AD0C07A10F0080F49
:1051F000E0680ED0A0B181880323006802220DE090
:10520000E06868B18188006803230222FCF72CFA69
:1052100006E028B18188002300681A46FCF724FACA
:10522000206BC168042918BF06290CD0C07A10F081
:10523000100F206911D0B8B1818800684FF00003C9
:105240004FF001020EE0206970B181884FF0000339
:1052500000681A46FCF708FA06E028B181880023A6
:1052600000681A46FCF700FA606968B1216BC968EA
:10527000022918BF06298188006807BF032302227C
:1052800000231A46FCF7F0F9A06968B1B7F5803F32
:1052900018BFB7F5403F8188006807BF032302228B
:1052A00000231A46FCF7E0F9E06928B1818800681C
:1052B00000230122FCF7D8F96068A0F80C80606830
:1052C0000582606886826068818941F4005181812D
:1052D000206BC17A41F00401C17271E500CA9A3BAA
:1052E0001F85EB512DE9F003D0F804C0BCF8002075
:1052F0000021BCF80C400B4602F020052C420E4663
:105300004FF0010461D0056B6F791FB1ED68022D7C
:1053100005D00BE0BCF80410EC71202155E0456B82
:10532000ED69012D08BFBCF804C001D0BCF8043001
:10533000D0F834C0DCF808506F1CCCF808702B7023
:10534000D0F804C0BCF80CC01CF4806F0CD11CF465
:10535000805F09D0456B1F0AD5F808C00CF1010821
:10536000C5F808808CF80070D0F834C0DCF8105014
:105370006D1CCCF81050D0F834C0DCF800C0654586
:1053800023D1D0F804C0BCF80C5025F01005ACF8BF
:105390000C50D0F830C08CF80560D0F830C0DCF884
:1053A0000CC0BCF1020F0FD1D0F834C0DCF81C5097
:1053B000CCF81C60012D08BF012106D0022D03D0BE
:1053C000032D08BF042100E002214568B5F80CC098
:1053D00002F010071CEA070F1CBFB5F804C041F02B
:1053E0004001B5F80CC002F080071CEA070F5FD03F
:1053F000D0F834C09CF8207027B1AB8943F001038A
:10540000AB8155E0DCF81470DCF80450BD4224D0C8
:10541000036BDB68022B02BFDCF81C30022BBCF8EC
:105420001A301AD0DCF80C3003F10105CCF80C501E
:10543000D0F804C01B78BCF80CC01CF4806F0CD1F1
:105440001CF4805F09D0D0F834C005F10107CCF816
:105450000C7095F800C043EA0C23D0F834C0DCF897
:10546000145005F10105CCF81450D0F804C0ACF884
:105470000430436BD3F804C05B699C4518D1436882
:10548000B3F80CC02CF0800CA3F80CC04368B3F840
:105490000CC04CF0400CA3F80CC0436B83F82160A7
:1054A000036BD3F80CC0BCF1020F54D041F00101E2
:1054B0004368B3F80CC002F040051CEA050F07D0A2
:1054C000B3F80CC02CF0400CA3F80CC041F008015C
:1054D00012F0080F05D043689B88036B41F0200150
:1054E000DC7112F0020F05D043689B88036B41F416
:1054F00080715C7212F0010F05D043689B88036BCA
:1055000041F400719C7212F4807F0AD04368B3F8B2
:1055100000C02CF4807CA3F800C0036B41F0800134
:105520001C7212F4007F06D04268138823F40073C3
:10553000138041F48061002904BFBDE8F003704787
:10554000006B0268002A04BFBDE8F00370470846FC
:10555000BDE8F0031047D0F834C0DCF81CC0BCF143
:10556000010F04BFDB7A13F0100FA1D19EE710B535
:105570000C46096BCA7A12F0010F1CBF002010BD47
:105580000860216B00200871216B4871216B8871C4
:10559000216BC871216B0872216B4872216B887274
:1055A000216BC860616B81F82100616B0860486005
:1055B0008860C860086148618861C8610862608C61
:1055C000FBF7C8FFE06818B100680121FCF7BEF8DE
:1055D000206918B100680121FCF7B8F8606918B1BA
:1055E00000680121FCF7B2F8A06918B10068012138
:1055F000FCF7ACF8E06918B100680121FCF7A6F8E7
:10560000216B0120C872002010BD00002DE9F04779
:105610000C4600268E4FDFF83C82DFF83C928F4D1F
:10562000012138B1012801D002287AD06FF003009F
:10563000BDE8F0876068B84204D1EA6842F480426D
:10564000EA600CE0404504BF2A6942F4003205D00C
:10565000484504BF2A6942F4802200D12A6100BF74
:1056600000BF00BF00BFB84204D1E86820F480400A
:10567000E8600CE0404504BF286920F4003005D004
:10568000484504BF286920F4802000D1286194F99E
:10569000240000280CDB00F01F029140400980002C
:1056A00000F1E020C0F88011BFF34F8FBFF36F8F80
:1056B000E06A18B141790079FBF73EFEA06A18B1A3
:1056C00041790079FBF738FE6068B84203D1A869D8
:1056D00020F48040A8616068404503D1E86920F467
:1056E0000030E8616068484503D1E86920F4802013
:1056F000E861206B0671206B4671206B8671206B10
:10570000C671206B0672206B4672206B8672606BCE
:1057100080F82160206BC17A21F00201C17293E010
:10572000FFE7206BC27A12F0010F04BF4FF0FF3089
:10573000BDE8F08712F0020F78D10671206B467138
:10574000206B8671206BC671206B0672206B4672CF
:10575000206B8672606B80F82160606B4683606BA3
:10576000C661606B80F82060206BC660206B0661AC
:10577000226B0320D0726068B84203D1A86940F45C
:105780008040A8616068404503D1E86940F400307A
:10579000E8616068484503D1E86940F48020E86129
:1057A00094F92400002809DB00F01F0201FA02F23C
:1057B0004009800000F1E020C0F8802294F9240024
:1057C000002808DB00F01F0291404009800000F132
:1057D000E020C0F80011E06A18B141790079FBF7C8
:1057E0003BFDA06A18B141790079FBF735FD60688F
:1057F000B84204D1E96841F48041E9600CE04045D9
:1058000004BF296941F4003105D0484504BF296926
:1058100041F4802100D1296100BF00BF00BF00BF5B
:10582000B84204D1E86820F48040E8600CE04045CC
:1058300004BF286920F4003005D0484504BF28691A
:1058400020F4802000D128610020BDE8F08700000E
:105850000038014000440040004800400010024071
:10586000C16A0968496821B1416B0968002918BFFC
:10587000704741688A8922F010028A81026B0021F8
:105880000B46D268022A10D1426BD2F81CC0D361F9
:10589000BCF1010F08BF012108D0BCF1020F04D0F8
:1058A000BCF1030F08BF042100E00221426BD2F8D3
:1058B00000C0C2F810C0026B53714268938943F074
:1058C00020039381006B0268002A14BF00297047EF
:1058D0000846104770B5002812BF00296FF0040079
:1058E00070BD136B93F80BC01CF0040F04BF4FF096
:1058F000FF3070BD5B79012B73D05368B3F80CC0D7
:105900002CF0200CA3F80CC0536B1960D2F830C0F7
:1059100000238CF80830D2F830C08CF80930D2F867
:1059200030C08CF80730D2F830C08CF80A30D2F88A
:1059300034C0CCF80800D2F834C0CCF81030D2F81B
:1059400030C001238CF80530D2F830C08023DCF859
:105950000CC0BCF1020F07D1D2F834C0DCF81CC077
:10596000BCF1010F08BF0023D2F82CC0BCF1000F1E
:1059700032D09CF806404FF4405505EA043455688F
:10598000234343F00203AC8914F4805F04D014F481
:10599000806F08BF43F4A063DCF800C02C1DCCF876
:1059A0000030CCF80840CCF80C00CCF80410D06AD9
:1059B0000068036843F0010303605068838A43F082
:1059C000400383825068838943F010038381106B06
:1059D000C068022812D105E05068838943F0300383
:1059E000F4E70DE0506BC36943B90223C361506B08
:1059F0001A3000F008F810F1020F01D0002070BD3D
:105A00006FF0010070BD002812BF00296FF0040084
:105A100070472DE9F0410646106B14460D46C07ADA
:105A200010F0040F04BF4FF0FF30BDE8F081616B50
:105A300091F82100002845D1012081F82100616BF7
:105A40008027CE60616B4D60626B00215161216BDC
:105A5000C968022910D1626BD16919B1022908BF46
:105A6000002709E0D061606B224629461830FFF715
:105A700031FF10F1020F25D0A16A39B388794FF4B4
:105A80004052636802EA003038439A8940F01200BD
:105A900012F4805F04D012F4806F08BF40F4A0605D
:105AA00009681A1D08608A60CE604D60A06A0068AF
:105AB000016841F0010101606068818A41F0800164
:105AC000818208E06FF00100BDE8F08160688189A3
:105AD00041F0800181810020BDE8F081014800682B
