:020000040800F2
:10000000004700200101000889190008891900082B
:1000100089190008891900088919000800000000E2
:100020000000000000000000000000008919000826
:10003000891900080000000089190008B94A000861
:100040001B0100081B0100081B0100081B01000820
:100050001B0100081B0100081B0100081B01000810
:100060001B0100081B0100081B010008E910000823
:10007000051100082111000885110008A9110008C8
:10008000CD110008311200081B0100081B010008F7
:10009000597A00081B0100081B0100081B01000819
:1000A0001B0100081B0100081B0100081B010008C0
:1000B0001B0100081B0100081B0100081B010008B0
:1000C0001B0100081B0100081B0100081B010008A0
:1000D0001B010008E94F0008DD5200081B01000861
:1000E0001B0100081B0100081B010008DFF80CD0F1
:1000F00000F02AF800480047597C0008004700201B
:100100000648804706480047FEE7FEE7FEE7FEE7B1
:10011000FEE7FEE7FEE7FEE7FEE7FEE7854B0008A9
:10012000ED00000840EA01039B0703D009E008C97D
:10013000121F08C0042AFAD203E011F8013B00F8AC
:10014000013B521EF9D27047064C074D06E0E068AD
:1001500040F0010394E8070098471034AC42F6D30E
:10016000FFF7C8FFA4830008C483000870B5174ECA
:10017000F06A804710F0020F08BF70BD144C25686C
:10018000706A804761682844411AB1F5806FA4BF46
:100190006068084415DA0029D8BF70BD6068C0F3F4
:1001A0000900C0F5806081420DDC6068094AC0F337
:1001B0000900104406F0E4F80028C6BF616808444E
:1001C00070BD606070BD0146EFE7000098810008D7
:1001D00060000020FE3200202DE9F04F027883B04D
:1001E000A2F180031F2B04D800F04EFC03B0BDE841
:1001F000F08F0A704F1C0178461C1F2980F02F8455
:10020000DFE811F01F005F007B009400760284029B
:100210008A022D04E0039D00AD002D042D042D0461
:100220002D042D04B40038015F017001D301FC01DD
:10023000560207040C04110416041B0424047F0155
:100240001F0430787B1C0024062834D006DC0528E7
:1002500031D2DFE800F0303030300E00FD2819D008
:1002600002DCF02827D10BE0FE2821D0FF2819D08E
:1002700021E006242246FE491846FFF753FF1AE004
:10028000FC480068002818BF202040F017001870B4
:10029000012410E000201021187059709870D87057
:1002A000042408E04020187000205870022402E066
:1002B0004020187001243C7003B004F10210BDE826
:1002C000F08F307830B101280BD0FF203870EA4829
:1002D00000F0C0BBE9497078096800F001000968C6
:1002E00005E0E6497078096800F001004968884730
:1002F00000203870E04800F0ADBB3478002C0CBF13
:100300000124012C06D0022C18BF002408D03C7018
:1003100000F0EAB9DA490120087002F0F3FFF6E7CD
:10032000D7490220087002F0A5FFF0E7D448002466
:10033000047002F0C9FF3C70012000F08BBB3088D4
:1003400000EB4000C0000128D2D040080090B0F17E
:10035000004F80F08C83401E0028FCDCC8E70120A1
:10036000787000203870022000F074BB3478757803
:100370007079D6F8026015F0010F60F31F6607D0A0
:1003800014F0010F4FF480700CBFBE49BE490860E5
:1003900015F0020F07D014F0020F4FF400700CBFDD
:1003A000B849B949086015F0040F08D0A00810F04A
:1003B000010F4FF020000CBFB249B349086015F09F
:1003C000800F1CBFE00907F001FEB6B30122AF4861
:1003D0004368DFF8BCC2ACF1040600BF15F0010FA2
:1003E00005D0DCF80010C1F30021A14221D115F0A5
:1003F000020F05D03168C1F34021B1EB540F18D181
:1004000015F0040F06D0DCF80010C1F34011B1EB79
:10041000940F0ED115F0200F18BF5FEA541108D1C8
:1004200015F0800F09D03168C1F38011B1EBD41FF2
:1004300003D04168C91A9142D0D39548016801F4AC
:100440008072011F0B68006803F400731A43120ADC
:1004500000F0200042EAD0000A68096802F0800239
:1004600040EA121001F0400140EA4100387089482A
:1004700000F0F0BAF178306861F31F6038B1864956
:10048000814209D87E4901204870486014E0FF206D
:100490003870824800F0DEBA794900224A70804AFA
:1004A0000244B2FBF0F0022898BF012003D97D4A34
:1004B000A2FB00204008486000203870774800F018
:1004C000C9BA16F8014B3146002C08BF4FF48074AE
:1004D000204604F039F900203870E01DC0080121E1
:1004E000401CC2E0307800F003014A1C6449C0F3AC
:1004F00080000A764876002038704FF0011000F036
:10050000A9BA002007F8010B012516F8010BA8462F
:10051000B0F1010928BFDFF890A142D316F8014BD2
:1005200014F03F0108BF4021C81D4FEAD00BDAF894
:10053000000014F0800F20F0F00008D040F08000A0
:10054000CAF8000050484FF40071016007E040F025
:100550003000CAF800004B494FF4007008603A467A
:100560003146204603F026FAB9F1000F0BD1DAF834
:10057000000020F0F00040F03000CAF800004149CF
:100580004FF40070086014F0800F03D05F44D8442B
:100590006D1C03E005EB0B005E44451CB9F101093D
:1005A000BCD248EA054000F055BA002007F8010B1C
:1005B00016F8010B4FF001084546B0F1010A19D3B6
:1005C00016F8019B19F03F0308BF4023D81DC4084B
:1005D0003A463146484601F0FDFD08EB040026444A
:1005E00000F1010819F0800F1CBF27442544BAF11F
:1005F000010AE5D245EA084000F02CBA204D16F871
:10060000014B0020AC7664B305F11C0305F1240214
:100610004FEA040C16F8011B03F8011B22F8020B29
:100620000844BCF1010CF5D1DCB105F11B0305F167
:10063000320214F0010F04D013F8011F401A22F8FF
:10064000020F61080DD000BF93F801C0491EA0EB56
:100650000C00508013F802CFA0EB0C0022F8040F1E
:10066000F2D100203870601C012141EA00401DE0F9
:10067000AC8000080C0000200100020008000020EF
:1006800008010020140C0140100C0140001000E093
:100690000C0C01400100060080A8120101000400BA
:1006A000FF502502ABAAAAAA040C014000F0D2B95F
:1006B000F1480178022915D13178C176807E8142D6
:1006C00010D20E2001F0AAF901F01CFC00213970B3
:1006D0007870010AB970010CF970000E3871E748A2
:1006E00000F0B8B9FF2038704FF0011000F0B2B937
:1006F000E14831780173B6F801100182B6F80310B1
:10070000418200203870DE4800F0A4B939463046F6
:1007100000F0D2F900F09EB9D748007801280FD038
:10072000022877D0002038707870B8700320F178F4
:1007300011F0020F18BF40F4802040F08B8139E1A6
:10074000DFF840934FF0000A504607F1030889F89C
:1007500000A0741C34F8025B7DB314F801BB1BF0DD
:10076000020F04BF681E019043D01BF0010F1CBF95
:10077000C148048A0FD00021584603F0B3F902287B
:1007800002D0012807D061E0641E5FD399F8001001
:100790000029F0D05AE06C1E58D324B91BF0010F89
:1007A00018BF4FF00E0BB448058A6946584603F04F
:1007B00099F9022802D0012807D047E06D1E45D3E1
:1007C00099F800100029F0D040E0009908F8011BCA
:1007D00000990AF1010A090A08F8011B0099090C9D
:1007E00008F8011B0099090E08F8011B641ED4D2F9
:1007F0002CE0E07854F8041B60F31F619E480091E0
:10080000058A6946584603F06DF9022803D001288D
:1008100008D01BE023E06D1E18D399F800100029C2
:10082000EFD013E001980AF1010A401E0190E0D2D6
:100830009148048A00210E2003F054F9022805D1C2
:10084000641E03D399F800100029F3D087F800A0A4
:100850004FEA1A217970B870A8EB070067E7FD1C12
:100860000197884F4FF00008404687F80080824A81
:100870003178741CD176927E914247D234F802BB13
:10088000BBF1000F42D014F8019B19F0010F0CBF0F
:100890004FF00A0A4FF00B0A504601F0BFF819F06A
:1008A000020F19BF7448048AABF10100029043D0D3
:1008B0000021484601F0FCFC022802D0012806D0A5
:1008C0006CE0641E6AD339780029F1D066E0BBF190
:1008D000010B63D3BBF1000F0AD06748048A694655
:1008E000484601F0E5FC02280BD001280FD055E066
:1008F000BAF10A0F1CBF0A2001F090F84FF00E0960
:10090000EBE7641E4AD339780029E8D046E0009925
:1009100005F8011B009908F10108090A05F8011BF7
:100920000099090C05F8011B0099090E05F8011B37
:10093000BBF1010BCED231E0E17854F8040B61F346
:100940001F6000904C48B0F810B06946484601F06E
:10095000AFFC022802D0012807D01FE0BBF1010B39
:100960001CD339780029F0D018E0029808F101086A
:10097000401E0290E0D2BAF10A0F1CBF0A2001F01B
:100980004DF83D48048A00210E2001F091FC022818
:1009900004D1641E02D339780029F4D001994FEABA
:1009A000182281F8008001994A7001998870019895
:1009B000281ABCE6B6F801104FF4802202EB814100
:1009C000084347E02C480178012902D002290BD0C6
:1009D0000FE03179D6F8010061F31F60009069469D
:1009E000002003F07FF810E03178C176807E8142EC
:1009F00001D3FF200AE0082001F010F83179D6F881
:100A0000010061F31F6002F09BF9002038701C4860
:100A100020E03946304604F02FF81BE039463046D6
:100A200003F0D2FF16E03946304603F0DBFE11E05A
:100A30003946304603F0F6FE0CE0384603F0ECFF92
:100A400008E03946304603F081FF03E0394630467E
:100A500003F010FF03B000F10110BDE8F08FFF209C
:100A600007F8010C03B04FF00110BDE8F08F401EF5
:100A70000090FCD13CE400000801002005000100CA
:100A80000100050020000020FF2008704FF0011039
:100A90007047000007480021012201704170426048
:100AA000017364230382418241610276417681763B
:100AB00002F00ABC080100202DE9F04FFF4E054668
:100AC00000233078FE4F8FB001281CD0022800F0A0
:100AD0008881AC466D1C15F8010B50B115F8012B3F
:100AE00012F0020F02D012F0100F00D02D1D401E88
:100AF000F4D10B704B70A5EB0C0002210FB041EA52
:100B00000040BDE8F08FCDE904510020891C0B9016
:100B100000913B7007900A9095F80180AD1CB8F1E8
:100B2000000F00F0538100BF15F8019B19F0020F70
:100B300079D00799A1B3348A09F0110001280BD1AB
:100B400001A9484602F0CEFF02280DD1641E44D30D
:100B500039780029F4D0A6E001A90E2002F0C2FFE6
:100B6000022804D000210791012836D107E0641E35
:100B700002D339780029EFD00021079193E0DDE915
:100B800000120A70019A0099120A01F8012F019AC5
:100B9000120C01F8012F019A120E4A70891C009163
:100BA00019F0100F40D0E87855F804ABB6F812B041
:100BB00060F31F6A19F0010F18BF348A0ED00021AC
:100BC000484602F08FFF022802D0012806D06AE0D2
:100BD000641E68D339780029F1D064E0348A01A911
:100BE000484602F07FFF022802D0012806D010E01C
:100BF000641E0ED339780029F1D00AE07269019998
:100C00001140514505D0BBF1010B02D339780029C1
:100C1000E4D07169019A1140514518BF40F01000AD
:100C2000012840D138E050E0348A19F0010F13D088
:100C3000079989BB0021484602F054FF022805D0DD
:100C4000012804BF0121079126D02CE0641E2AD37D
:100C500039780029EED026E001A9484602F042FF8B
:100C6000022802D0012806D01DE0641E1BD339786B
:100C70000029F1D017E0DDE900120A70019A00990D
:100C8000120A01F8012F019A120C01F8012F019AA2
:100C9000120E4A70891C009100210A910B99491C7F
:100CA0000B913978F1B3B8F1000F0BD015F8011B97
:100CB00011F0020F02D011F0100F00D02D1DB8F16D
:100CC0000108F3D101284BD080E00798002818BF15
:100CD000348A1AD001A90E2002F004FF02282ED077
:100CE0000128E0D1DDE90001017001990098090AAD
:100CF00000F8011F0199090C00F8011F0199090E64
:100D00004170801C009000200790E97855F8040B92
:100D100019F0200F61F31F6001901ABF706101206C
:100D2000348A00E017E0B9D101A9484602F0DAFEA2
:100D300002280AD0012808BF0121AED0B3E7641E03
:100D4000B1D339780029C5D0ADE7641EABD339786B
:100D50000029E9D0A7E7B8F101087FF4E5AEB1E7D3
:100D60000799002918BF348A20D001A90E2002F06B
:100D7000B9FE022802D0012806D027E0641E25D340
:100D800039780029F1D021E0DDE900120A70019ADA
:100D90000099120A01F8012F019A120C01F8012F93
:100DA000019A120E4A70891C00910FE00A990029DD
:100DB00018BF348A0AD000210E2002F093FE0228C8
:100DC00004D1641E02D339780029F4D0059A0B9916
:100DD00011700599487005990098411A0498281ACD
:100DE0008CE600200491891C06950C9000913B70C4
:100DF00003900A9015F8011BF176B27E914280F0C3
:100E0000628115F8018BB8F1000F00F05C8100BF22
:100E100015F8019B19F0010F14BF0B240A2419F0D7
:100E2000020F74D00A9981B30398B6F810A0A042BB
:100E300008BF19F0100F0FD003980A2803D00A201A
:100E4000039000F0EBFD02A90E2001F031FA022818
:100E500012D000210A9105E002A9484601F028FAC3
:100E6000022802D0012841D110E0BAF1010A3DD395
:100E700039780029F0D0D9E0BAF1010A02D33978E3
:100E80000029E0D000210A91D0E010E0009A0299F8
:100E90001170029A0099120A01F8012F029A120C9D
:100EA00001F8012F029A120E4A70891C009119F064
:100EB000100F48D0E87855F804AB03E00801002093
:100EC0002000002060F31F6A0398B6F812B0A04219
:100ED00003D02046039400F0A1FD348A0021484647
:100EE00001F0E6F9022802D0012806D09EE0641E37
:100EF00044D339780029F1D098E0348A02A94846D1
:100F000001F0D6F9022803D0012807D011E036E01D
:100F1000641E0ED339780029F0D00AE07269029974
:100F20001140514505D0BBF1010B02D3397800299E
:100F3000E3D07169029A1140514518BF40F010008A
:100F4000012873D16DE00A99A1BB0398A04203D098
:100F50002046039400F062FD348A0021484601F0E7
:100F6000A7F9022805D0012804BF01210A9158D011
:100F70005CE0641E5AD339780029EED056E00A9816
:100F800060B303980A2803D00A20039000F046FDBE
:100F9000B6F810A002A90E2001F08AF9022802D0AA
:100FA000012808D042E0BAF1010A3FD3397800297C
:100FB000F0D03BE035E00099029808700299009863
:100FC000090A00F8011F0299090C00F8011F029993
:100FD000090E4170801C009000200A90E97855F8B5
:100FE000040B19F0200F61F31F6002901CBF7061A9
:100FF000012016D10398A04203D02046039400F0AC
:101000000DFD348A02A9484601F052F9022802D0A7
:10101000012806D00AE0641E08D339780029F1D0EF
:1010200004E00C99491C0C91397891B1B8F1000F8A
:101030000CD000BF15F8011B11F0020F02D011F007
:10104000100F00D02D1DB8F10108F3D1012805D0F3
:1010500039E0B8F101087FF4DBAEF7E703980A281E
:101060001CBF0A2000F0DAFC348A0A9800B302A9F7
:101070000E2001F01DF9022802D0012806D022E03E
:10108000641E20D339780029F1D01CE0009A02991F
:101090001170029A0099120A01F8012F029A120C9B
:1010A00001F8012F029A120E4A70891C00910AE081
:1010B00000210E2001F0FCF8022804D1641E02D3A6
:1010C00039780029F4D0049A0C9911700499487069
:1010D00004990098411A06980FB0281A41EA004076
:1010E000BDE8F08F70470000044910B5086800F0B3
:1010F0000F004860FFF7F6FF10BD0000000002403F
:1011000070470000044910B50868C0F303100201DD
:101110004A60FFF7F5FF10BD000002407047000075
:10112000044910B50868C0F3032002024A60FFF7C3
:10113000F5FF10BD000002401148816A09684A6845
:101140000146002A496B49681CBF00297047426B61
:101150005161426B4FF0000182F82110416889898A
:10116000426841F040019181016BC968022908BFC2
:101170007047006B0168002908BF704701200847CD
:10118000B8800008044910B50868C0F303300203B2
:101190004A60FFF7D1FF10BD00000240014804F093
:1011A00075BF0000B8800008044910B50868C0F396
:1011B000034002044A60FFF7F1FF10BD0000024047
:1011C000014804F063BF0000F0800008044910B536
:1011D0000868C0F3035002054A60FFF7F1FF10BD35
:1011E000000002401148816A09684A680146002AE5
:1011F000496B49681CBF00297047426B5161426BC3
:101200004FF0000182F8211041688989426841F05D
:1012100040019181016BC968022908BF7047006BCA
:101220000168002908BF704701200847F0800008C6
:10123000044910B50868C0F3036002064A60FFF76E
:10124000D1FF10BD00000240012818BF704730B424
:101250003248426942F001024261002330480F24C3
:101260004FF0E0224FF0010C08294FD2DFE801F0E7
:101270004E040D17222D3843836044604FF4006004
:10128000C2F88002C2F8000140E0C361F02343606D
:101290004FF48050C2F88002C2F8000136E00363C8
:1012A0004FF4706343604FF40050C2F88002C2F8FC
:1012B00000012BE043644FF4704343604FF48040DF
:1012C000C2F88002C2F8000120E083654FF4702369
:1012D00043604FF40040C2F88002C2F8000115E0FC
:1012E000C3664FF4700343604FF48030C2F880024D
:1012F000C2F800010AE0C0F880304FF0706343602C
:101300004FF40030C2F88002C2F8000105480CFA20
:1013100001F102781143017030BC704700100240A7
:101320000000024038000020012818BF704730B488
:10133000DFF8D8C09CF80000002804BF30BC70471C
:10134000002001244FF0E022314B08294BD2DFE886
:1013500001F04A040E18222C36404FF40065C2F802
:101360008051BFF34F8FBFF36F8F98603BE04FF416
:101370008055C2F88051BFF34F8FBFF36F8FD86194
:1013800031E04FF40055C2F88051BFF34F8FBFF3E7
:101390006F8F186327E04FF48045C2F88051BFF388
:1013A0004F8FBFF36F8F58641DE04FF40045C2F8B4
:1013B0008051BFF34F8FBFF36F8F986513E04FF4E9
:1013C0008035C2F88051BFF34F8FBFF36F8FD8665F
:1013D00009E04FF40035C2F88051BFF34F8FBFF3DF
:1013E0006F8FC3F8800004FA01F09CF8001031EA16
:1013F00000008CF800001CBF30BC704705484169F4
:1014000021F00101416130BC70470000380000202C
:10141000000002400010024045F6C051484381B030
:10142000012804BF01B0704740080090B0F1004FA0
:1014300004D2401E0028FCDC01B07047401E009022
:10144000FCD101B07047000030B505464FF43020A4
:1014500000F04AF8042818BF30BD0A4C206940F05B
:10146000020020616561206940F0400020614FF476
:10147000302000F039F8216941F6FD7211402161F8
:1014800030BD0000002002400248016941F08001A7
:10149000016170470020024070B506460D464FF4CA
:1014A000005000F021F8042818BF70BD074C2069D7
:1014B00040F00100206135804FF4005000F014F836
:1014C000216941F6FE721140216170BD0020024089
:1014D0000348024941600349416070472301674561
:1014E00000200240AB89EFCD174902460420CB68AB
:1014F00013F0010F25D1CB6813F0040F18BF0220A1
:101500001AD1C96811F0100F18BF032014E0CB687E
:10151000042013F0010F18BF01200AD1CB6813F08B
:10152000040F18BF022004D1CB6813F0100F18BFAE
:101530000320521E012804D0002A18BF704705203E
:101540007047002AE3D1FAE70020024081B000286A
:1015500004BF01B0704714498A6912F0010F03D12A
:101560008A6942F001028A6110F4805FC0F342127E
:1015700000F01F030D49C0F3032002FA03F200FA42
:1015800003F007D0CB6923EA020210430090C86140
:1015900001B070474B6823EA0202104320F0E0607C
:1015A0000090486001B07047001002400000014008
:1015B0002DE9F001CB78002203F00F0C13F0100F8F
:1015C0001CBF8B7843EA0C0C0B784FF00F0613F01E
:1015D000FF0F4FF0010518BF046819D00F8805FAF6
:1015E00002F31F409F420FD1970006FA07F824EA42
:1015F00008040CFA07F73C43CF78282F08BF436153
:1016000002D0482F08BF0361521C082AE6D30460A9
:101610000A88FF2A87BF44680022BDE8F0017047AE
:1016200002F108030F8805FA03F31F409F420FD110
:10163000970006FA07F824EA08040CFA07F73C4377
:10164000CF78282F08BF4361CF78482F08BF0361A8
:10165000521C082AE4D34460BDE8F0017047000042
:101660000F2984BF00207047F0B504460D4634486A
:10167000A4F180411F461646B1F5843104BF80694C
:10168000C0F3800035D0A4F18042B2F5863204BFA9
:101690008069C0F3C0002CD0A4F18042B2F588323A
:1016A00004BF8069C0F3001023D0A4F18042B2F5DA
:1016B0008A3204BF8069C0F340101AD0A4F180427E
:1016C000B2F58C3204BF8069C0F3801011D0A4F150
:1016D0008042B2F58E3204BF8069C0F3C01008D0DA
:1016E000A4F18042B2F5903204BF8069C0F30020BB
:1016F00000D118B90121204600F024F86FB901206B
:10170000A840022E04BFE16821EA000004D0032EA5
:1017100003D1E16802260843E060082D24BF241DA0
:10172000083D2168A8000F2282409143216047EACA
:10173000860101FA00F02168084320600120F0BD15
:10174000001002402DE9F001344A354BDFF8D4C0D7
:10175000354C364D364E374FDFF8DC8000292FD020
:10176000404504BF906940F0040025D0984204BF72
:10177000906940F008001FD0604504BF906940F0B8
:10178000100019D0A04204BF906940F0200013D08F
:10179000A84204BF906940F040000DD0B04204BFA1
:1017A000906940F0800007D0B84207BF906940F4CC
:1017B0008070BDE8F00170479061BDE8F0017047AE
:1017C000404504BF906920F00400F5D0984204BF62
:1017D000906920F00800EFD0604504BF906920F0C8
:1017E0001000E9D0A04204BF906920F02000E3D0AF
:1017F000A84204BF906920F04000DDD0B04204BF91
:10180000906920F08000D7D0B84204BF906920F4DE
:101810008070D1D0BDE8F001704700000010024098
:10182000000C01400010014000140140001801406C
:10183000001C014000200140000801402DE9F0415A
:101840000278FF27A2F1D003072B7AD801F8012BE9
:101850000C4610F8011BD03908296ED2DFE801F0E0
:10186000041215181C2A4A5E4048006804F8010B4F
:10187000010A04F8011B010C04F8011B000E04F816
:10188000010B5BE0FFF724FE58E0FFF7FDFD55E09C
:101890000068FFF7D9FD51E082880168501E80B2D0
:1018A0004CD300BF11F8012BFF2A1BD1401E80B280
:1018B000F8D243E08188D0F8008038293ED8851DD1
:1018C000481E86B23AD300BF15F8011B2EB115F899
:1018D000010B41EA0021701E86B24046FFF7DCFD95
:1018E000042801D0FF2729E0711E8EB208F10208FA
:1018F000EAD223E0828801683E2A1FD8002004F83B
:10190000010B501E80B219D330B111F8012B401ECB
:1019100004F8012B80B2F7E70F780FE0BFF34F8F89
:1019200013480168134A01F4E06111430160BFF3F9
:101930004F8F00BFFDE704E0FFE7641E2770BDE89E
:10194000F0810D480268002A02BFFF200870BDE840
:10195000F0810A490A48C368806801EB8311094B8A
:101960005268BDE8F04103EB80101047002004E00E
:101970000CED00E00400FA0504000020FE22002027
:101980004C000020FE12002072B61D48006880F353
:1019900008881C4EB06940F01000B0611A4C4FF43A
:1019A0000055656119492046FFF702FEB06940F015
:1019B0001000B061656116492046FFF7F9FD256109
:1019C000002665616420FFF727FD256165616420BD
:1019D000FFF722FD25614FF47A70FFF71DFD761C9D
:1019E000052EEEDBBFF34F8F0A4801680A4A01F467
:1019F000E06111430160BFF34F8F00BFFDE70000BE
:101A0000000000080010024000100140588000084B
:101A10005C8000080CED00E00400FA05F0B4344BE3
:101A20005978002960D0334A4FF40075156002F1EF
:101A3000040C9115CCF800101160CCF80010116066
:101A4000CCF80050CCF800101160CCF800101160F8
:101A500020241460DF7E03EB4706B38C2BB100BF5C
:101A6000CCF8001011605B1EFAD1234BFB5C5B1EAF
:101A70000CD000BF10F0010F14BF1460CCF8004070
:101A8000CCF80010116040085B1EF3D1B38E03B395
:101A900010F0010F0CBFCCF800401460CCF800101F
:101AA00011601460581E04D0CCF800101160401E64
:101AB000FAD11560CCF80010C2F80010CCF8001074
:101AC0001160CCF80050CCF8001011601460F0BC2C
:101AD0007047156010F0010F14BF1460CCF800407F
:101AE000CCF800101160E9E7F0BC00F007B8000086
:101AF00008010020100C0140240100202DE9F80706
:101B0000F74D4FF40078C5F80080AC152E1D3460F9
:101B1000DFF8D0C3DCF804104A0801290BD01346C3
:101B20000092B2F1004F38BF531E80F06E81002B3F
:101B3000C8BF5B1EFBDC2C6001290BD01346009252
:101B4000B2F1004F38BF531E80F06481002BC8BF34
:101B50005B1EFBDC346001290BD013460092B2F10E
:101B6000004F38BF531E80F05981002BC8BF5B1E49
:101B7000FBDC2C6001290BD013460092B2F1004F20
:101B800038BF531E80F04E81002BC8BF5B1EFBDCAC
:101B9000C6F80080346001290BD013460092B2F1E0
:101BA000004F38BF531E80F04181002BC8BF5B1E21
:101BB000FBDC2C6001290BD013460092B2F1004FE0
:101BC00038BF531E80F03681002BC8BF5B1EFBDC84
:101BD000346001290BD013460092B2F1004F38BF98
:101BE000531E80F02C81002BC8BF5B1EFBDC2C60D9
:101BF00001290BD013460092B2F1004F38BF531E9B
:101C000080F02181002BC8BF5B1EFBDC20272F60EA
:101C10009CF81B900CEB490ABAF824C0BCF1000FE9
:101C200012D03460012904D00092B2F1004F80F04C
:101C30000E812C60012904D00092B2F1004F80F097
:101C40000F81BCF1010CECD1A74B19F80330B3F1B3
:101C5000010C18D010F0010F14BF2F6037603460F2
:101C6000012904D00092B2F1004F80F001812C6074
:101C7000012904D00092B2F1004F80F002814008A7
:101C8000BCF1010CE6D1BAF83430EBB310F0010F1F
:101C90000CBF37602F60346001290AD010460092D3
:101CA000B2F1004F38BF501E7ED20028C8BF401E80
:101CB000FBDC2C6001290AD010460092B2F1004FE3
:101CC00038BF501E71D20028C8BF401EFBDC2F60F9
:101CD0005B1E11D03460012904D010460092B2F18D
:101CE000004F7DD22C60012904D010460092B2F141
:101CF000004F76D25B1EEDD1C5F80080346001291B
:101D00000CD01046009200E017E0B2F1004F38BF4F
:101D1000501E67D20028C8BF401EFBDC2C60012982
:101D20002ED010460092B2F1004F38BF501E70D234
:101D30000028C8BF401EFBDC22E0C5F8008010F080
:101D4000010F14BF2F603760346001290AD010469C
:101D50000092B2F1004F38BF501E6FD20028C8BFAA
:101D6000401EFBDC2C6001290AD010460092B2F123
:101D7000004F38BF501E72D20028C8BF401EFBDC87
:101D8000346001290AD010460092B2F1004F38BFEA
:101D9000501E75D20028C8BF401EFBDC2C600129F4
:101DA0000DD01046009201E073E077E0B2F1004FF1
:101DB00038BF501E71D20028C8BF401EFBDCC6F8D9
:101DC0000080346001290AD010460092B2F1004F21
:101DD00038BF501E72D20028C8BF401EFBDC02E094
:101DE00060E063E066E02C6001290AD010460092B2
:101DF000B2F1004F38BF501E71D20028C8BF401E3C
:101E0000FBDC2F60BDE8F80770475B1E0093FCD138
:101E100091E654E05B1E0093FCD19BE65B1E0093B1
:101E2000FCD1A6E65B1E0093FCD1B1E65B1E0093DD
:101E3000FCD1BEE65B1E0093FCD1C9E643E05B1E0D
:101E40000093FCD1D3E65B1E0093FCD1DEE6531E6B
:101E500000933FF4EEAE5B1E0093FCD1E9E636E062
:101E6000531E00933FF4EDAE5B1E0093FCD1E8E6F9
:101E7000531E00933FF4FBAE5B1E0093FCD1F6E6CD
:101E800029E0531E00933FF4FAAE5B1E0093FCD191
:101E9000F5E6401E0090FCD10BE727E0401E0090C5
:101EA000FCD114E7401E0090FCD11BE7401E0090BF
:101EB000FCD11FE7401E0090FCD12FE71AE0401E26
:101EC0000090FCD15CE7401E0090FCD14AE7401E28
:101ED0000090FCD154E7401E0090FCD15EE70DE07D
:101EE000100C01400801002024010020401E009039
:101EF000FCD164E7401E0090FCD170E7401E0090CA
:101F0000FCD17EE72DE9F803AF4D4FF400762E604B
:101F10002C1D4FF4807CC4F800C0AC4B59684A08B3
:101F200001290BD010460092B2F1004F38BF501E6D
:101F300080F0F5800028C8BF401EFBDCC5F800C05B
:101F400001290BD010460092B2F1004F38BF501E4D
:101F500080F0E9800028C8BF401EFBDC2660C4F882
:101F600000C001290BD010460092B2F1004F38BFDB
:101F7000501E80F0DC800028C8BF401EFBDCC5F886
:101F800000C001290AD010460092B2F1004F38BFBC
:101F9000501E7DD20028C8BF401EFBDCC4F800C024
:101FA00001290AD010460092B2F1004F38BF501EEE
:101FB0006FD20028C8BF401EFBDCC5F800C0012955
:101FC0000AD010460092B2F1004F38BF501E7CD2AA
:101FD0000028C8BF401EFBDCDB7E8BB1C4F800C00C
:101FE000012903D00092B2F1004F6FD2C5F800C0B2
:101FF000012903D00092B2F1004F68D25B1EEDD1EF
:102000000027DFF8CC811F23C4F800C0012903D0CA
:102010000092B2F1004F7DD2D8F80000C5F800C0A0
:10202000C0F3C019012903D00092B2F1004F72D25F
:1020300047EAC97047085B1EE6D12E60C4F800C0AD
:1020400001290AD010460092B2F1004F38BF501E4D
:1020500071D20028C8BF401EFBDCD8F80000C5F8CC
:1020600000C0C0F3C01301290AD010460092B2F19B
:10207000004F38BF501E73D20028C8BF401EFBDC83
:1020800047EAC370C4F800C001290DD0134601E02F
:1020900052E055E00092B2F1004F38BF531E70D2AB
:1020A000002BC8BF5B1EFBDCC5F800C001290AD0AD
:1020B00013460092B2F1004F38BF531E77D2002B67
:1020C000C8BF5B1EFBDC266002E03DE040E048E06C
:1020D000C4F800C001290AD013460092B2F1004FA3
:1020E00038BF531E67D2002BC8BF5B1EFBDCC5F890
:1020F00000C0012904BFBDE8F803704711460092F3
:10210000B2F1004F38BF511E59D20029C8BF491E35
:10211000FBDC01E02DE035E0BDE8F8037047401E30
:102120000090FCD10AE7401E0090FCD116E7401E4B
:102130000090FCD123E72DE0401E0090FCD12DE75C
:10214000401E0090FCD138E7401E0090FCD143E7D0
:10215000501E00903FF44AAF401E0090FCD145E76E
:102160001CE0501E00903FF449AF401E0090FCD18F
:1021700044E7501E00903FF44FAF401E0090FCD14A
:102180004AE710E0501E00903FF452AF401E00900E
:10219000FCD14DE7401E0090FCD15EE7401E009050
:1021A000FCD16DE703E05B1E0093FCD17CE75B1E76
:1021B0000093FCD187E75B1E0093FCD197E7491E93
:1021C0000091FCD1A5E70000100C0140080100209F
:1021D000080C01402DE9F74F81B0019810F03F0243
:1021E00008BF402210F0400F2E4E4FF40070A6F1B1
:1021F000040714BF38603060002A04BF04B0BDE893
:10220000F08F4FF0200ADFF8A0B04FF4807900BFC4
:102210002648082511F801CB43684FF000085C08F8
:1022200026E000BF1CF0010F14BFC7F800A0C6F8DD
:1022300000A0C6F80090012B04D020460094B4F111
:10224000004F27D2DBF80000C7F80090C0F3C01E93
:10225000012B04D020460094B4F1004F1ED24FEA67
:102260005800521E4FEA5C0C40EACE186D1E01D099
:10227000002AD7D1019B28FA05F013F0800F04D073
:10228000039B18700398401C0390002AC0D104B02F
:10229000BDE8F08F401E0090FCD1D3E7401E0090B7
:1022A000FCD1DCE7140C0140080C014008010020BF
:1022B0002DE9F05FDFF8C0E19EF80120002A00F070
:1022C000D780DFF8B8C14FF40079CCF800900CF15A
:1022D00004074FF480733B60CCF80030C7F80090DF
:1022E0003B60CCF800303B60CCF800309EF81B20FF
:1022F00022B13B60CCF80030521EFAD1420812F0F5
:10230000010F4FF0200414BFCCF800403C603B604C
:102310005B4D2A68CCF80030C2F3C0125200860828
:1023200016F0010F14BFCCF800403C603B602E68F3
:10233000CCF80030C6F3C0163243C60816F0010FC1
:1023400014BFCCF800403C603B602E68CCF80030F5
:10235000C6F3C01642EA860ABAF1010F59D1464EB9
:1023600010F0020FB27EF67EA2EB060B14BF002621
:1023700009684FF01F022DD03B60D5F80080CCF8E3
:1023800000304FEAD81846EAC8767608521EF3D1D4
:10239000BBF1010210D03B602D68CCF80030C5F3D2
:1023A000C015521E04D03B60CCF80030521EFAD14A
:1023B000CCF800903B6005E0CCF800903B602A68C8
:1023C000C2F3C015CCF8003046EAC572002918BF28
:1023D0000A6023E011F0010F14BFCCF800403C600C
:1023E0003B60CCF800304908521EF3D1BBF101022A
:1023F00032D011F0010F0CBF3C60CCF800403B60C4
:10240000CCF80030511E04D03B60CCF80030491E9F
:10241000FAD1CCF800903B60CCF800303B60CCF8AF
:102420000030C7F800903B60CCF80030CCF800409A
:1024300010F0800F03D013484068CEF808009EF8D3
:102440000C00002805DD3B60CCF80030401E002861
:10245000F9DC5046BDE8F09FCCF8009011F0010F78
:1024600014BFCCF800403C603B60CCF80030D5E7AE
:10247000BDE8F05F00F008B808010020100C014032
:10248000080C0140001000E02DE9F04FFF4E88B02D
:102490004FF40079C6F8009006F1040AB515CAF8A1
:1024A0000050DFF8EC83D8F804205308012A0FD03D
:1024B0009C460193B3F1004F38BFA3F1010C80F0AB
:1024C000318300BFBCF1000FC8BFACF1010CF9DCD7
:1024D0003560012A0ED09C460193B3F1004F38BFFE
:1024E000A3F1010C80F02683BCF1000FC8BFACF152
:1024F000010CF9DCCAF80090CAF80050012A0FD08C
:102500009C460193B3F1004F38BFA3F1010C80F05A
:10251000178300BFBCF1000FC8BFACF1010CF9DCA0
:102520003560012A0ED09C460193B3F1004F38BFAD
:10253000A3F1010C80F00A83BCF1000FC8BFACF11D
:10254000010CF9DCCAF80050012A0FD09C46019317
:10255000B3F1004F38BFA3F1010C80F0FF8200BF40
:10256000BCF1000FC8BFACF1010CF9DC3560012AE9
:102570000ED09C460193B3F1004F38BFA3F1010C7C
:1025800080F0F282BCF1000FC8BFACF1010CF9DCA5
:1025900098F81B409CB100BFCAF80050012A04D033
:1025A0000193B3F1004F80F0E7823560012A04D037
:1025B0000193B3F1004F80F0ED82641EECD14FEA3D
:1025C000500C1CF0010F4FF0200714BF3760CAF801
:1025D0000070CAF80050012A0ED09C460193B3F156
:1025E000004F38BFA3F1010C80F0E082BCF1000F76
:1025F000C8BFACF1010CF9DCA64CD4F800C03560C2
:10260000CCF3C01C012A0FD09B460293B3F1004FBC
:1026100038BFA3F1010B80F0D18200BFBBF1000FE6
:10262000C8BFABF1010BF9DC4FEA900B4FEA4C0C41
:102630001BF0010F14BF3760CAF80070CAF80050D1
:10264000012A0FD09B460193B3F1004F38BFA3F18D
:10265000010B80F0B98200BFBBF1000FC8BFABF126
:10266000010BF9DCD4F800B03560CBF3C01B012AB4
:102670000ED09E460293B3F1004F38BFA3F1010E76
:1026800080F0A882BEF1000FC8BFAEF1010EF9DCE8
:102690004CEA0B0C4FEAD00B1BF0010F14BF376054
:1026A000CAF80070CAF80050012A0FD09B46019367
:1026B000B3F1004F38BFA3F1010B80F0918200BF4E
:1026C000BBF1000FC8BFABF1010BF9DCD4F800B0CF
:1026D0006E4E4FF48075CBF3C01B3560012A0BD0D2
:1026E0001D460293B3F1004F38BF5D1E80F080821B
:1026F000002DC8BF6D1EFBDC4CEA8B0CCDF80CC066
:10270000BCF1010F28D0DFF884C1CCF800904FF461
:102710008074CAF80040012A0BD019460193B3F126
:10272000004F38BF591E80F067820029C8BF491E7C
:10273000FBDCCCF80040012A00F08D8119460093A3
:10274000B3F1004F38BF591E80F05A820029C8BF2C
:10275000491EFBDC00F07FB94D4D10F0020F95F8DB
:102760001AC0ED7EACEB050CCDF818C07BD0DFF8BD
:102770001C8100254FF01F0B4FF48076CAF80060D3
:10278000012A04D00193B3F1004F80F03D82D4F8C8
:1027900000C0C8F80060CCF3C01C012A04D0079325
:1027A000B3F1004F80F03C8245EACC7C4FEA5C05F7
:1027B000BBF1010BE2D1DDF818C0BCF1010C70D007
:1027C000CAF80060012A0FD09B460193B3F1004F75
:1027D00038BFA3F1010B80F02F8200BFBBF1000FC7
:1027E000C8BFABF1010BF9DC2468C8F80060C4F382
:1027F000C01B012A0BD01C460693B3F1004F38BF13
:102800005C1E80F01F82002CC8BF641EFBDCBCF184
:10281000010415D0CAF80060012A05D09C46069331
:10282000B3F1004F80F01282C8F80060012A05D091
:102830009C460693B3F1004F80F00E82641EE9D1EE
:10284000C8F80090CAF80060012A11D09C46059390
:10285000B3F1004F38BFA3F1010C80F0038200BF39
:10286000BCF1000F00E04BE0C8BFACF1010CF7DC9D
:10287000C8F80060012A3DD01A460093B3F1004F1A
:1028800038BF5A1E80F0F481002A06E0100C014087
:1028900008010020080C014003E0C8BF521EF3DC11
:1028A00028E0C8F80090CAF80060012A0ED09C46C3
:1028B0000193B3F1004F38BFA3F1010C80F0DC812C
:1028C000BCF1000FC8BFACF1010CF9DCD4F800C0BA
:1028D000C8F80060CCF3C01B012A0BD01A46009345
:1028E000B3F1004F38BF5A1E80F0CC81002AC8BF18
:1028F000521EFBDC45EACB72002918BF0A60AAE031
:10290000F84D1F26D1F800C0AC1500BF1CF0010F18
:1029100014BF2F60CAF80070CAF80040012A04D022
:102920000193B3F1004F80F0B1812C60012A04D0F3
:102930000193B3F1004F80F0B1814FEA5C0C761E39
:10294000E4D10699491E61D01CF0010F0CBFCAF8F2
:1029500000702F60CAF80040012A0DD09C460193F8
:10296000B3F1004F38BFA3F1010C7DD2BCF1000FD1
:10297000C8BFACF1010CF9DC2C60012A0ED09C46DA
:102980000193B3F1004F38BFA3F1010C6DD200BF2A
:10299000BCF1000FC8BFACF1010CF9DCB1F1010CC6
:1029A00014D000BFCAF80040012A04D01946019390
:1029B000B3F1004F7CD22C60012A04D01946019358
:1029C000B3F1004F75D2BCF1010CEBD1C5F800900A
:1029D000CAF80040012A0AD019460193B3F1004F0A
:1029E00038BF591E66D20029C8BF491EFBDC2C60C7
:1029F000012A30D019460093B3F1004F38BF591E59
:102A00007ED20029C8BF491EFBDC24E0C5F8009037
:102A10001CF0010F14BF2F60CAF80070CAF8004004
:102A2000012A0AD019460193B3F1004F38BF591E4D
:102A300067D20029C8BF491EFBDC2C60012A0AD0DE
:102A400019460093B3F1004F38BF591E70D20029C8
:102A5000C8BF491EFBDC4FF48073CAF80030A24C9B
:102A6000616801290AD001E020E125E14A080192CC
:102A7000B2F1004F70D2521E002AFCDCDFF864C2B3
:102A8000CCF80030012907D04A080192B2F1004F7A
:102A900070D2521E002AFCDCCAF80090CAF800303E
:102AA00001290BD04A080192B2F1004F70D202E026
:102AB00008E10BE10EE1521E002AF8DCCCF80030F0
:102AC000012907D04A080192B2F1004F74D2521E78
:102AD000002AFCDCCCF8007010F0800F02D0834894
:102AE0004068A060227B002AC8BF4C0816DD00BFEA
:102AF000CAF80030012906D00494B4F1004F01E077
:102B0000ECE0F5E072D2CCF80030012903D0049457
:102B1000B4F1004F6BD2521E002AE9DC039808B0D2
:102B2000BDE8F08FBCF1010CCDF804C0FAD1CFE4C0
:102B3000E2E000BFBCF1010CCDF804C0FAD1D9E449
:102B4000BCF1010CCDF804C0FAD1E9E4BCF1010CF0
:102B5000CDF804C0FAD1F5E4D2E000BFBCF1010C1D
:102B6000CDF804C0FAD101E5BCF1010CCDF804C0E8
:102B7000FAD10DE5C8E000BFB3F1010CCDF804C0F7
:102B80003FF413ADBCF1010CCDF804C0FAD10CE553
:102B9000BEE000BFB3F1010CCDF804C03FF40DADB1
:102BA000BCF1010CCDF804C0FAD106E5BCF1010C72
:102BB000CDF804C0FAD11FE5AEE000BFBBF1010BB8
:102BC000CDF808B0FAD12FE5BBF1010BCDF804B078
:102BD000FAD147E5BEF1010ECDF808E0FAD157E58C
:102BE000BBF1010BCDF804B0FAD16FE598E09FE09E
:102BF0006D1E0295FCD17FE5491E0191FCD198E53F
:102C0000491E0091FCD126E7B3F1010CCDF804C0B8
:102C10003FF4BDADBCF1010CCDF804C0FAD1B6E56E
:102C2000B3F1010ECDF81CE03FF4BEADBEF1010ED4
:102C3000CDF81CE0FAD1B7E5BBF1010BCDF804B03B
:102C4000FAD1D1E5641E0694FCD1E0E5BCF1010C9B
:102C5000CDF818C0FAD1E7E5BCF1010CCDF818C0E9
:102C6000FAD1EBE5BCF1010CCDF814C0FAD1FFE5C7
:102C7000521E0092FCD13DE6BCF1010CCDF804C01F
:102C8000FAD123E6521E0092FCD133E6591E01917F
:102C90003FF44BAE491E0191FCD146E6591E01910D
:102CA0003FF44BAE491E0191FCD146E6BCF1010C4C
:102CB000CDF804C0FAD15FE6BCF1010CCDF804C038
:102CC000FAD16BE6491E0191FCD174E6491E0191CF
:102CD000FCD178E6491E0191FCD188E6491E00919D
:102CE000FCD1B8E6100C014008010020001000E003
:102CF000491E0191FCD1A0E6491E0091FCD1AAE633
:102D0000521E0192FCD1B9E6521E0192FCD1C3E6DB
:102D1000521E0192FCD1D1E6521E0192FCD1D9E69D
:102D2000601E04903FF4EFAE401E0490FCD1EAE632
:102D3000601E04903FF4EFAE401E0490FCD1EAE622
:102D40002DE9F807F84D4FF40078C5F800802C1DE8
:102D50004FF4807CC4F800C0DFF8D093D9F8041099
:102D60004A0801290BD013460092B2F1004F38BF38
:102D7000531E80F0B781002BC8BF5B1EFBDCC5F87B
:102D800000C001290BD013460092B2F1004F38BFAA
:102D9000531E80F0AB81002BC8BF5B1EFBDCC4F868
:102DA0000080C4F800C001290BD013460092B2F194
:102DB000004F38BF531E80F09D81002BC8BF5B1EA3
:102DC000FBDCC5F800C001290BD013460092B2F11C
:102DD000004F38BF531E80F09181002BC8BF5B1E8F
:102DE000FBDCC4F800C001290BD013460092B2F1FD
:102DF000004F38BF531E80F08581002BC8BF5B1E7B
:102E0000FBDCC5F800C001290BD013460092B2F1DB
:102E1000004F38BF531E80F07A81002BC8BF5B1E65
:102E2000FBDC99F81B703E0014D000BFC4F800C052
:102E3000012904D00092B2F1004F80F06C81C5F8F6
:102E400000C0012904D00092B2F1004F80F07081DF
:102E50007F1EEBD120272760C4F800C001290BD0CA
:102E600013460092B2F1004F38BF531E80F06881C4
:102E7000002BC8BF5B1EFBDCC5F800C001290BD0CE
:102E800013460092B2F1004F38BF531E80F05D81AF
:102E9000002BC8BF5B1EFBDCC4F800C001290BD0AF
:102EA00013460092B2F1004F38BF531E80F051819B
:102EB000002BC8BF5B1EFBDCC5F800C001290BD08E
:102EC00013460092B2F1004F38BF531E80F0458187
:102ED000002BC8BF5B1EFBDCC4F800C001290BD06F
:102EE00013460092B2F1004F38BF531E80F0398173
:102EF000002BC8BF5B1EFBDCC5F800C001290BD04E
:102F000013460092B2F1004F38BF531E80F02E815D
:102F1000002BC8BF5B1EFBDC5FF01F0310F0010F2E
:102F200014BF2F602760C4F800C0012904D00092AC
:102F3000B2F1004F80F01E81C5F800C0012904D015
:102F40000092B2F1004F80F0238140085B1EE5D172
:102F500099F81A309B1B5B1E55D010F0010F0CBF67
:102F600027602F606646C4F800C001290AD01046C9
:102F70000092B2F1004F38BF501E7DD20028C8BF6A
:102F8000401EFBDC2E6001290AD010460092B2F1EF
:102F9000004F38BF501E70D20028C8BF401EFBDC57
:102FA0005B1E11D02660012904D010460092B2F1B8
:102FB000004F7DD22E60012904D010460092B2F15C
:102FC000004F76D25B1EEDD1C5F800802660012946
:102FD0000AD010460092B2F1004F38BF501E69D29D
:102FE0000028C8BF401EFBDC2E60012930D01046EF
:102FF0000092B2F1004F38BF501E72D20028C8BFF5
:10300000401EFBDC24E0C5F8008010F0010F14BF67
:103010002F602760C4F800C001290AD01046009232
:10302000B2F1004F38BF501E70D20028C8BF401EFA
:10303000FBDCC5F800C001290AD010460092B2F1AD
:10304000004F38BF501E6ED20028C8BF401EFBDCA8
:10305000C4F800C001290AD010460092B2F1004F16
:1030600038BF501E70D20028C8BF401EFBDCC5F818
:1030700000C001290DD001E096E099E010460092D1
:10308000B2F1004F38BF501E6FD20028C8BF401E9B
:10309000FBDCC4F80080C4F800C001290ED0104643
:1030A0000092B2F1004F38BF501E6FD2002802E0EC
:1030B00083E086E089E0C8BF401EF7DCC5F800C0A9
:1030C00001290AD010460092B2F1004F38BF501EBD
:1030D00072D20028C8BF401EFBDC2F60BDE8F80795
:1030E000704776E05B1E0093FCD148E65B1E0093C0
:1030F000FCD154E65B1E0093FCD162E65B1E00939C
:10310000FCD16EE65B1E0093FCD17AE665E05B1EA7
:103110000093FCD185E6531E00933FF490AE5B1EF6
:103120000093FCD18BE65CE0100C0140080100200C
:10313000531E00933FF48CAE5B1E0093FCD187E6D8
:103140005B1E0093FCD197E64FE05B1E0093FCD121
:10315000A2E65B1E0093FCD1AEE65B1E0093FCD1A1
:10316000BAE65B1E0093FCD1C6E642E05B1E00930C
:10317000FCD1D1E6B2F1010ACDF800A03FF4DCAEFB
:10318000BAF1010ACDF800A0FAD1D5E635E000BFCA
:10319000B2F1010ACDF800A03FF4D7AEBAF1010AAE
:1031A000CDF800A0FAD1D0E6401E0090FCD1E9E6AF
:1031B000401E0090FCD1F3E623E0401E0090FCD1BD
:1031C000F8E6401E0090FCD1FCE6401E0090FCD1C9
:1031D0000AE7401E0090FCD13AE7401E0090FCD167
:1031E00027E7401E0090FCD132E7401E0090FCD142
:1031F0003DE7401E0090FCD14BE7401E0090FCD103
:103200005CE7401E0090FCD167E7000007494FF4DF
:10321000005008610648417821F0010141704FF0EB
:10322000E020016941F00101016170470010014097
:10323000000000200D4A4FF4005151610C4B10F07A
:10324000010F4FF0E02093F801C04CF0010C83F81F
:1032500001C0036904D023F0010303615161704789
:1032600043F0010303611161704700000010014049
:10327000000000200F4810B54FF44071016020217C
:1032800001600E4C0C492046FEF792F90C4920468D
:10329000FEF78EF90B492046FEF78AF9002004F06C
:1032A00095FE6420FEF7B8F8BDE81040012004F058
:1032B0008DBE0000100C014070800008000C014021
:1032C000788000087480000810B50A4C0849204630
:1032D000FEF76EF908492046FEF76AF907492046CD
:1032E000FEF766F92046BDE810400549FEF760B9D3
:1032F00080800008000C01407C8000088480000869
:10330000888000080E4910B54FF4407008600E4CDC
:103310000C492046FEF74CF90C492046FEF748F9C7
:103320000B492046FEF744F9002004F04FFE6420CC
:10333000FEF772F8BDE81040012004F047BE00001F
:10334000100C014064800008000C014068800008F7
:103350006C8000080548816941F0040181610449DD
:103360008015086003490448FEF722B900100240A6
:103370001408014060800008000801402DE9F80FA2
:10338000FE4D4FF400772F60AC152E1D3460DFF832
:10339000F0C3DCF804205308012A0FD098460093AC
:1033A000B3F1004F38BFA3F1010880F0438200BFA2
:1033B000B8F1000FC8BFA8F10108F9DC2C60012AA0
:1033C0000ED098460093B3F1004F38BFA3F1010827
:1033D00080F03682B8F1000FC8BFA8F10108F9DC0F
:1033E00010F0010F14BF2F6037603460012A0FD036
:1033F00098460093B3F1004F38BFA3F1010880F065
:10340000278200BFB8F1000FC8BFA8F10108F9DC9E
:103410002C60012A0ED098460093B3F1004F38BFBC
:10342000A3F1010880F01A82B8F1000FC8BFA8F11B
:103430000108F9DC4FEA500A81461AF0010F14BF67
:103440002F6037603460012A0ED098460093B3F1A4
:10345000004F38BFA3F1010880F00682B8F1000FD9
:10346000C8BFA8F10108F9DC2C60012A0ED09846EB
:103470000093B3F1004F38BFA3F1010880F0FA8147
:10348000B8F1000FC8BFA8F10108F9DC4FEA9009B4
:10349000824419F0010F14BF2F6037603460012A95
:1034A0000ED098460093B3F1004F38BFA3F1010846
:1034B00080F0E681B8F1000FC8BFA8F10108F9DC7F
:1034C0002C60012A0ED098460093B3F1004F38BF0C
:1034D000A3F1010880F0DA81B8F1000FC8BFA8F1AC
:1034E0000108F9DC0AEB09084FEAD00919F0010FCD
:1034F00014BF2F6037603460012A0BD01846009348
:10350000B3F1004F38BF581E80F0C8810028C8BFF3
:10351000401EFBDC2C60012A0BD018460093B3F14F
:10352000004F38BF581E80F0BD810028C8BF401E24
:10353000FBDC08EB090010F0010F14BF2F603760AF
:103540003460012A0BD018460093B3F1004F38BF06
:10355000581E80F0AB810028C8BF401EFBDC2C60E9
:10356000012A0BD018460093B3F1004F38BF581E04
:1035700080F0A0810028C8BF401EFBDC37603460AB
:10358000012A0BD018460093B3F1004F38BF581EE4
:1035900080F094810028C8BF401EFBDC2C60012A0B
:1035A0000BD018460093B3F1004F38BF581E80F07F
:1035B00089810028C8BF401EFBDC2F603460012ACF
:1035C0000BD018460093B3F1004F38BF581E80F05F
:1035D0007D810028C8BF401EFBDC2C60012A0BD077
:1035E00018460093B3F1004F38BF581E80F0738126
:1035F0000028C8BF401EFBDCDFF88881D8F8000037
:1036000020F0F00040F08000C8F800002F609CF827
:1036100018C0BCF1000912D03460012A04D0009314
:10362000B3F1004F80F05B812C60012A04D000933D
:10363000B3F1004F80F05C81BCF1010CECD134603F
:10364000012A0BD018460093B3F1004F38BF581E23
:1036500080F056810028C8BF401EFBDCDFF828C17F
:10366000DCF8000010F4007018BF01202C60012A63
:103670000ED09A460093B3F1004F38BFA3F1010A70
:103680007BD200BFBAF1000FC8BFAAF1010AF9DC72
:103690003460012A0ED09A460093B3F1004F38BF30
:1036A000A3F1010A72D200BFBAF1000FC8BFAAF19C
:1036B000010AF9DCDCF800A01AF4007A18BF4FF018
:1036C000010A2C60012A0DD09B460093B3F1004FF4
:1036D00038BFA3F1010B7CD2BBF1000FC8BFABF127
:1036E000010BF9DC40EA4A003460012A0ED09A4608
:1036F0000093B3F1004F38BFA3F1010A6AD200BFB3
:10370000BAF1000FC8BFAAF1010AF9DCDCF800C069
:103710001CF4007F14BF4FF0010A4FF0000A2C6028
:10372000012A0DD09C460093B3F1004F38BFA3F19E
:10373000010C7CD2BCF1000FC8BFACF1010CF9DC6C
:1037400040EA8A00B9F1000F10D03460012A03D09A
:103750000093B3F1004F6BD22C60012A03D0009389
:10376000B3F1004F72D2B9F10109EED1D8F800C01F
:103770002CF0F00C4CF0300C09E0C5E0100C0140CE
:1037800008010020040C0140080C0140C2E0C8F808
:1037900000C037604FF000094FF0200A11F0010F10
:1037A00014BF2F6037603460012A03D00093B3F157
:1037B000004F71D22C60012A03D00093B3F1004F67
:1037C0006BD289444908BAF1010AE7D119F0010F17
:1037D00001E0A5E0AAE014BF2F6037603460012A41
:1037E0000AD019460093B3F1004F38BF591E71D269
:1037F0000029C8BF491EFBDC2C60012A0AD01946EB
:103800000093B3F1004F38BF591E70D20029C8BFD2
:10381000491EFBDCD8F8001021F0F00141F0300126
:10382000C8F8001037602F60BDE8F80F704783E0DC
:1038300088E000BFB8F10108CDF80080FAD1BDE5FD
:10384000B8F10108CDF80080FAD1C9E586E000BFE3
:10385000B8F10108CDF80080FAD1D9E5B8F1010836
:10386000CDF80080FAD1E5E5B8F10108CDF8008087
:10387000FAD1F9E5B8F10108CDF80080FAD105E6F2
:10388000B8F10108CDF80080FAD119E6B8F10108C5
:10389000CDF80080FAD125E66CE077E0401E00907C
:1038A000FCD137E6401E0090FCD142E6401E00905D
:1038B000FCD154E6401E0090FCD15FE6401E009013
:1038C000FCD16BE6401E0090FCD176E6401E0090D5
:1038D000FCD182E666E0401E0090FCD18CE6581ECA
:1038E00000903FF4A1AE401E0090FCD19CE65DE04C
:1038F000581E00903FF4A0AE401E0090FCD19BE605
:10390000401E0090FCD1A9E6BAF1010ACDF800A052
:10391000FAD1BDE6BAF1010ACDF800A0FAD1C9E6A4
:10392000BBF1010BCDF800B0FAD1DBE6BAF1010A28
:10393000CDF800A0FAD1E9E6BCF1010CCDF800C049
:10394000FAD1FDE6B3F1010CCDF800C03FF404AFAD
:10395000BCF1010CCDF800C0FAD1FDE6B3F1010CC9
:10396000CDF800C03FF4FFAEBCF1010CCDF800C0B3
:10397000FAD1F8E6B3F1010CCDF800C03FF41AAF6C
:10398000BCF1010CCDF800C0FAD113E7B3F1010C82
:10399000CDF800C03FF415AFBCF1010CCDF800C06C
:1039A000FAD10EE7491E0091FCD125E7491E00918E
:1039B000FCD12FE72DE9F80F10F03F0308BF40239B
:1039C00010F0800FDFF81091DFF810A14FF480772E
:1039D000A9F1040839D0002B12BF414EBDE8F80F01
:1039E00070470025DAF8041008244FEA510C21E052
:1039F000C9F80070012905D06046CDF800C0BCF1BF
:103A0000004F59D2306810F4007F14BF4FF0010B03
:103A10004FF0000BC8F80070012905D06046CDF8C2
:103A200000C0BCF1004F4BD268085B1E40EACB15CA
:103A3000641E01D0002BDBD125FA04F002F8010B43
:103A4000002BCED1BDE8F80F7047002B04BFBDE8B6
:103A5000F80F70474FF40076DAF804205FEA52045A
:103A600011F801CB08251DE01CF0010F14BFC8F8A8
:103A70000060C9F80060C9F80070012A04D020462F
:103A80000094B4F1004F1FD2C8F80070012A04D08E
:103A900020460094B4F1004F1AD25B1E4FEA5C0C32
:103AA0006D1E04D0002BDFD1BDE8F80F7047002B4E
:103AB000D6D1BDE8F80F7047401E0090FCD1A1E7B9
:103AC000401E0090FCD1AFE7401E0090FCD1DBE728
:103AD000401E0090FCD1E0E7140C014008010020DA
:103AE000080C0140034A52780AB100F005B800F012
:103AF0007BB90000080100202DE9F04FDFF8D4C2A7
:103B00004FF4007ACCF800A00CF104074FF4807851
:103B1000C7F80080CCF8008010F0010F14BFCCF87B
:103B200000A0C7F800A0C7F80080CCF800804208C9
:103B300012F0010F14BFCCF800A0C7F800A0C7F81E
:103B40000080CCF800808318820812F0010F14BFA7
:103B5000CCF800A0C7F800A0C7F80080CCF800801F
:103B60001344C20812F0010F14BFCCF800A0C7F82C
:103B700000A0C7F80080CCF800801A4412F0010FB2
:103B800014BFCCF800A0C7F800A0C7F80080CCF89C
:103B90000080C7F800A0C7F80080CCF80080CCF8FF
:103BA00000A0C7F80080CCF80080DFF82CB2DBF86A
:103BB000002022F0F00242F08002CBF80020CCF886
:103BC00000A0DFF818E29EF81820131E06D000BFF0
:103BD000C7F80080CCF80080521EF9D1C7F80080E9
:103BE000DFF8FC91D9F8002012F4007218BF01220E
:103BF000CCF80080C7F80080D9F8004014F40074B5
:103C000018BF0124CCF8008042EA4402C7F80080C3
:103C1000D9F8004014F4007418BF0124CCF80080D7
:103C200042EA8402012A1CD0022A18BF042A7DD04D
:103C300013F1210006D000BFC7F80080CCF8008047
:103C4000401EF9D1DBF8000020F0F00040F0300019
:103C5000CBF80000C7F800A0CCF800A01046BDE8E3
:103C6000F08F10F0020F4ED000252C465FF020039D
:103C7000C7F80080D9F8006016F4007618BF012656
:103C8000CCF800806D08344445EAC6755B1EEFD160
:103C90004346C7F80080D9F8006016F4007618BFD4
:103CA0000126CCF80030744014F0010F18BF082230
:103CB000002918BF0D609EF8181021B13B60CCF8A8
:103CC0000030491EFAD1DBF8001021F0F00141F07C
:103CD0003001CBF80010C7F800A000BF10F0800F33
:103CE00003D040484068CEF808009EF80C00002839
:103CF00018BFC7F800A067D0C7F80080CCF80080D4
:103D0000401EF9D160E02BB1C7F80080CCF80080EC
:103D10005B1EF9D1DBF8003023F0F00343F03003F1
:103D2000CBF80030C7F800A0096800E01DE00023D0
:103D30005FF0200411F0010F14BFCCF800A0C7F809
:103D400000A0C7F80080CCF800800B444908641E2E
:103D5000F0D113F0010F14BFCCF800A0C7F800A0F9
:103D6000C7F80080CCF80080B8E79EF81940002C16
:103D70001CBF10F0020F212106D000BFC7F8008041
:103D8000CCF80080491EF9D133B100BFC7F80080DC
:103D9000CCF800805B1EF9D1DBF8001021F0F001B7
:103DA00041F03001CBF80010C7F800A064B110F06A
:103DB000020F04BFC7F800A0212005D1C7F800807A
:103DC000CCF80080401EF9D1CCF800A01046BDE828
:103DD000F08F0000100C0140040C0140080100208D
:103DE000080C0140001000E02DE9F84FFB4E4FF4A5
:103DF000007CC6F800C0B515341D2560DFF8E093DF
:103E0000D9F804205308012A0BD01F460093B3F1C0
:103E1000004F38BF5F1E80F06283002FC8BF7F1E37
:103E2000FBDC3560012A0BD01F460093B3F1004F35
:103E300038BF5F1E80F05783002FC8BF7F1EFBDC9A
:103E400010F0010F14BFC6F800C0C4F800C0256010
:103E5000012A0BD01F460093B3F1004F38BF5F1EFD
:103E600080F04583002FC8BF7F1EFBDC3560012A30
:103E70000BD01F460093B3F1004F38BF5F1E80F098
:103E80003A83002FC8BF7F1EFBDC4FEA500A8046F2
:103E90001AF0010F14BFC6F800C0C4F800C02560B6
:103EA000012A0BD01F460093B3F1004F38BF5F1EAD
:103EB00080F02583002FC8BF7F1EFBDC3560012A00
:103EC0000BD01F460093B3F1004F38BF5F1E80F048
:103ED0001A83002FC8BF7F1EFBDC4FEA9008824484
:103EE00018F0010F14BFC6F800C0C4F800C0256068
:103EF000012A0BD01F460093B3F1004F38BF5F1E5D
:103F000080F00583002FC8BF7F1EFBDC3560012ACF
:103F10000BD01F460093B3F1004F38BF5F1E80F0F7
:103F2000FA82002FC8BF7F1EFBDCC2444FEAD008D4
:103F300018F0010F14BFC6F800C0C4F800C0256017
:103F4000012A0BD01F460093B3F1004F38BF5F1E0C
:103F500080F0E582002FC8BF7F1EFBDC3560012AA0
:103F60000BD01F460093B3F1004F38BF5F1E80F0A7
:103F7000DC82002FC8BF7F1EFBDC0AEB080717F0AE
:103F8000010F14BFC6F800C0C4F800C02560012AA4
:103F90000BD01F460093B3F1004F38BF5F1E80F077
:103FA000C882002FC8BF7F1EFBDC3560012A0BD002
:103FB0001F460093B3F1004F38BF5F1E80F0BD82F3
:103FC000002FC8BF7F1EFBDCC4F800C02560012A9B
:103FD0000BD01F460093B3F1004F38BF5F1E80F037
:103FE000B082002FC8BF7F1EFBDC3560012A0BD0DA
:103FF0001F460093B3F1004F38BF5F1E80F0A582CB
:10400000002FC8BF7F1EFBDCC6F800C02560012A58
:104010000BD01F460093B3F1004F38BF5F1E80F0F6
:104020009A82002FC8BF7F1EFBDC3560012A0BD0AF
:104030001F460093B3F1004F38BF5F1E80F08F82A0
:10404000002FC8BF7F1EFBDC664FD7F8008028F02A
:10405000F00848F08008C7F800804FF4007CC6F8EC
:1040600000C099F81870B7F1000811D02560012A36
:1040700004D00093B3F1004F80F076823560012ABE
:1040800004D00093B3F1004F80F07A827F1EEDD10F
:104090002560012A0ED09C460093B3F1004F38BF33
:1040A000A3F1010C80F07882BCF1000FC8BFACF125
:1040B000010CF9DCDFF830B1DBF800C01CF4007C47
:1040C00018BF4FF0010C3560012A0BD01F4600933A
:1040D000B3F1004F38BF5F1E80F06682002FC8BF6B
:1040E0007F1EFBDC2560012A0BD01F460093B3F135
:1040F000004F38BF5F1E80F05B82002FC8BF7F1E5D
:10410000FBDCDBF8007017F4007718BF012735607F
:10411000012A0FD09A460093B3F1004F38BFA3F1A4
:10412000010A80F0498200BFBAF1000FC8BFAAF1AE
:10413000010AF9DC4CEA470C2560012A0BD01F4626
:104140000093B3F1004F38BF5F1E80F03B82002F19
:10415000C8BF7F1EFBDCDBF8007017F4007718BFC8
:1041600001273560012A0FD099460093B3F1004F23
:1041700038BFA3F1010980F0298200BFB9F1000F17
:10418000C8BFA9F10109F9DC4CEA8707012F2DD03E
:10419000022F18BF042F7DD018F1210111D0256006
:1041A000012A04D00093B3F1004F80F0BD82356046
:1041B000012A04D00093B3F1004F80F0BD82491E64
:1041C000EDD10848016821F0F00141F030010160B3
:1041D0004015206030603846BDE8F88F100C014073
:1041E00008010020040C0140080C014010F0020FEF
:1041F0007ED04FF0000AD1464FF020082560012AFA
:1042000004D00093B3F1004F80F0E681DBF800C0EA
:104210001CF4007C18BF4FF0010C3560012A04D05B
:104220000093B3F1004F80F0E3814FEA5A0AE14472
:104230004AEACC7AB8F10108E0D1A8462560DFF857
:104240007CE4012A0ED09C460093B3F1004F38BFA6
:10425000A3F1010C80F0D881BCF1000FC8BFACF114
:10426000010CF9DCDBF800C01CF4007C18BF4FF037
:10427000010CC6F80080012A0BD01A460093B3F156
:10428000004F38BF5A1E80F0C581002AC8BF521E99
:10429000FBDC00E0C3E089EA0C0212F0010F18BF5A
:1042A0000827002918BFC1F800A09EF818C0BCF16B
:1042B000000F1CBFDEF80420530812D0C4F80080A1
:1042C000012A03D00093B3F1004F7DD2C6F80080DD
:1042D000012A03D00093B3F1004F76D2BCF1010C58
:1042E000ECD1F7490A6822F0F00242F0300200E017
:1042F00003E00A604915216065E0B8F1000F10D0B5
:104300002560012A03D00093B3F1004F7ED23560BF
:10431000012A03D00093B3F1004F78D2B8F101081D
:10432000EED1DFF89CC3DCF8008028F0F00848F0FC
:104330003008CCF800804FF4007AC4F800A0096877
:104340004FF000084FF0200911F0010F14BFC6F81C
:1043500000A0C4F800A02560012A03D00093B3F1A7
:10436000004F7DD23560012A03D00093B3F1004F96
:1043700077D288444908B9F10109E5D118F0010F55
:1043800014BFC6F800A0C4F800A0AC462560012AFE
:104390000AD019460093B3F1004F38BF591E7DD2A1
:1043A0000029C8BF491EFBDCC6F800C0012A0AD09C
:1043B00019460093B3F1004F38BF591E6FD2002940
:1043C000C8BF491EFBDC01E028E12FE110F0800F9F
:1043D00003D0BC484068B9498860B848017BC9B17E
:1043E0004FF400722260426853082560012A04D00D
:1043F00018460093B3F1004F6FD23560012A04D004
:1044000018460093B3F1004F68D201E016E121E1B4
:10441000491EEAD14FF4007030603846DCE6A74907
:1044200091F81990B9F1000F1CBF10F0020F4FF076
:10443000210C10D02560012A03D00093B3F1004F66
:1044400071D23560012A03D00093B3F1004F6BD2D3
:10445000BCF1010CEED1B8F1000F13D0256001E0E2
:1044600004E10FE1012A03D00093B3F1004F70D2B1
:104470003560012A03D00093B3F1004F6AD2B8F13E
:104480000108EBD18E49D1F800C02CF0F00C4CF0B3
:10449000300CC1F800C04915216001E0FEE001E1E7
:1044A000B9F1000F17D010F0020F04BF21604FF0D8
:1044B000210C10D12560012A03D00093B3F1004FE5
:1044C00070D23560012A03D00093B3F1004F6AD255
:1044D000BCF1010CEED131607DE6E7E0EAE07F1E41
:1044E0000097FCD19DE47F1E0097FCD1A8E47F1EBD
:1044F0000097FCD1BAE47F1E0097FCD1C5E47F1E73
:104500000097FCD1DAE47F1E0097FCD1E5E47F1E22
:104510000097FCD1FAE47F1E0097FCD105E57F1ED1
:104520000097FCD11AE5CFE0D6E07F1E0097FCD1C2
:1045300023E57F1E0097FCD137E57F1E0097FCD155
:1045400042E57F1E0097FCD14FE57F1E0097FCD10E
:104550005AE5C9E0D0E07F1E0097FCD165E57F1EDB
:104560000097FCD170E500BFB3F1010CCDF800C09D
:104570003FF484ADBCF1010CCDF800C0FAD17DE56B
:10458000B3F1010CCDF800C03FF480ADBCF1010CDB
:10459000CDF800C0FAD179E5BCF1010CCDF800C02E
:1045A000FAD187E5B0E0B7E07F1E0097FCD199E52E
:1045B0007F1E0097FCD1A4E5BAF1010ACDF800A056
:1045C000FAD1B7E57F1E0097FCD1C4E5B9F1010926
:1045D000CDF80090FAD1D7E5B3F1010CCDF800C0C9
:1045E0003FF414AEBCF1010CCDF800C0FAD10DE6D9
:1045F000B3F1010ECDF800E03FF417AEBEF1010EAD
:10460000CDF800E0FAD110E6BCF1010CCDF800C005
:10461000FAD127E6521E0092FCD13AE6591E0091CB
:104620003FF454AE491E0091FCD14FE6591E009153
:104630003FF454AE491E0091FCD14FE6B3F1010C9A
:10464000CDF800C03FF463AEBCF1010CCDF800C062
:10465000FAD15CE6B3F1010CCDF800C03FF45EAED8
:10466000BCF1010CCDF800C0FAD157E6B3F1010C52
:10467000CDF800C03FF476AEBCF1010CCDF800C01F
:10468000FAD16FE6B3F1010CCDF800C03FF471AE82
:10469000BCF1010CCDF800C0FAD16AE6491E0091C8
:1046A000FCD181E6491E0091FCD18CE6401E0090B1
:1046B000FCD1A2E6401E0090FCD1A6E60801002035
:1046C000040C0140001000E0591E00913FF4B9AE07
:1046D000491E0091FCD1B4E6591E00913FF4B8AEDA
:1046E000491E0091FCD1B3E6591E00913FF4C0AEC3
:1046F000491E0091FCD1BBE6591E00913FF4BFAEAC
:10470000491E0091FCD1BAE6581E00903FF4D9AE84
:10471000401E0090FCD1D4E6581E00903FF4D8AE65
:10472000401E0090FCD1D3E6581E00903FF43FADF0
:10473000401E0090FCD13AE5581E00903FF43FAD7A
:10474000401E0090FCD13AE52DE9F8030028DCBFBB
:10475000BDE8F80370474FF400784FF48079204AA1
:104760001E4E5368371F4FEA530C00BF11F8014B20
:104770005FF0080514F0010F14BFC7F80080C6F8F9
:104780000080C6F80090012B04D0CDF800C0BCF129
:10479000004F13D2C7F80090012B04D0CDF800C011
:1047A000BCF1004F12D26408401E6D1E0028DCBF11
:1047B000BDE8F8037047002DDCD1D7E7BCF101025A
:1047C0000092E7D0521E0092FCD1E3E7BCF1010257
:1047D0000092E8D0521E0092FCD1E4E7140C014094
:1047E0000801002070B50C46C17800680C4D61F3DB
:1047F0001F60A978012918BF00200BD00021E970A3
:104800002070010A6170010CA170000EE0704FF081
:10481000041070BD00F060FA0028F1D1EEE700004E
:10482000240000202DE9F0410078114C00F0010631
:104830000025E0780F4600F00100B04210D02EB104
:10484000A01D057045702571A560E560A078012860
:1048500008D1304600F094FA002818BFE67001D065
:104860003D7001E0FF2038704FF00110BDE8F0818D
:10487000240000202DE9F047324C80460E46227974
:10488000A11D82F001002071E0788B5C4FF00009DF
:1048900043EA000701F80290012811D0A068E168FE
:1048A000451A6178012918BF002518D006F8017B48
:1048B000280A06F8015B012906F8010B16D038E03A
:1048C00084F80590A068E168451AA078012802D113
:1048D00000F086FA054460790028F1D1E1E7B8F8E4
:1048E00000003C282AD88542E0D929E0E368DFF8B7
:1048F00058C01846290008D0C0F30B021CF802006B
:1049000006F8010B501C491EF6D15819E060E078FA
:1049100003280ED1A068E168411AB1F5805F08D282
:10492000A178C0F30B00012903D1E170604400F0CD
:104930001DFAE81C40F40030BDE8F0873C20D2E7C7
:104940000546B3E7240000204C0100202DE9F0418A
:104950001C4D002790F800C0EB780C461CF0010FAE
:10496000B8460BD02879AA1D80F001012971115C8D
:1049700002F80080194304F8011B01271CF0020F04
:104980000CD0012B0ED0A868E968461A2670300AB0
:104990006070300CA070300EE0703F1D47F4803026
:1049A000BDE8F08185F80580A868E968461AA8780E
:1049B000012802D100F014FA064468790028F1D1E8
:1049C000E4E70000240000202DE9F041114C0778B5
:1049D0000E46A078012804BF002000F00FFA002541
:1049E000002F08BF012005D0012F0AD1012000F0BF
:1049F00005FA30B1A770E570002818BF357004D1F2
:104A000001E0A570E570FF2030704FF00110BDE8A7
:104A1000F0810000240000202DE9F041154D0746EB
:104A20000026287980F001012971A91DEA780B5C24
:104A30000E5443EA0208012A0ED0A868E968441A15
:104A400087F800807C70200AB870200CF870200E67
:104A500038710520BDE8F0816E71A868E968441AD4
:104A6000A878012802D100F0BBF904446879002835
:104A7000F2D1E5E724000020084AD37813F0010FB3
:104A800004D0FF2008704FF0011070470078002814
:104A900012BF012850700020F3D1F3E7240000205A
:104AA0004FF0E021042808690CBF40F0040020F01A
:104AB0000400086170470000144A10B410781449CB
:104AC000401EC3B2137092F801C04FF400501CF0A6
:104AD000020F07D02CF0020C82F801C013F0010F76
:104AE00003D010E013F0070F0DD00861527812F0D8
:104AF000010F04BF10BC704713F0030F0CBF4861D7
:104B0000086110BC70474861F0E700000000002019
:104B10000010014016494868164A10F00C03164868
:104B200018BF042B01D0082B01D0026015E04A68A1
:104B30004B6802F470124FF0020C13F4803F0CEB40
:104B4000924203D04B6813F4003F03D00B4B5A43FF
:104B5000026002E0074B5A4302604968084AC1F309
:104B60000311515C026822FA01F1016070470000F4
:104B70000010024000127A000C00002000093D00E5
:104B800010000020384881B0016841F00101016047
:104B90004168364A11404160016821F4102121F03A
:104BA00080710160016821F480210160416821F475
:104BB000FE0141604FF41F018160002200920168F4
:104BC00041F480310160016811F4003F03D1009984
:104BD000B1F5A06FF7D1016811F4003F18BF009242
:104BE0003BD023490A6842F010020A600A6822F0AA
:104BF00003020A600A6842F002020A6041684160EA
:104C000041684160416841F480614160416821F43C
:104C10007C11416000990029416814BF41F4D00122
:104C200041F4E8114160016841F080710160016860
:104C300011F0007FFBD0416821F003014160416821
:104C400041F002014160416801F00C010829FAD1EC
:104C500008060849086001B07047016821F48031F6
:104C6000016001210091BCE7001002400000FFF844
:104C70000020024008ED00E070B504461148124DD6
:104C800014F0020F017841F00201017009D00F48C1
:104C9000016801F580610160AA694FF480610C48E8
:104CA000904714F0010F08BF70BD4FF480610948B0
:104CB00001F032FB011ED8BF70BD06486A69BDE82D
:104CC000704010470100002098810008600000201B
:104CD000FE320020FE36002070B506461F48864290
:104CE00088BF06461E4C1F4DE07810F0010F11D012
:104CF0000021AA6A16209047E86A804710F0020F48
:104D000008D0686A8047A1680844A0600021AA6AA8
:104D100019209047AA6A31460120904710B100201F
:104D2000207070BD01202070E07810F0010F12D0CB
:104D300010F0020F0BD1A0680B4AC0F30B0000F07B
:104D40003F01C1F1400110442161AA69904701214E
:104D5000AA6A16209047304670BD000040420F00FE
:104D600024000020608100084C010020024A1161EB
:104D7000024A926910470000240000206081000868
:104D800070B5144D144C88B12878002808BF70BD48
:104D9000012028610146A2691048904720B90121ED
:104DA000A26A1620904798B1002070BD0021A26A27
:104DB00016209047E06A804710F0020F08D0606A22
:104DC0008047A9680844A8600021A26A192090477A
:104DD000012070BD24000020608100084C010020EB
:104DE00010B5054CE06A804710F0020008BF10BD06
:104DF000606ABDE8104000476081000810B5114AA4
:104E00000021114C117070B1A1681048884700282A
:104E10001CBF002010BD02202169884780B1E068D6
:104E20008047002010BD0021A26A16209047002173
:104E3000A26A19209047216900208847E0688047CE
:104E4000012010BD240000206081000839540008B2
:104E5000014A00F02DBB0000B8800008014800683E
:104E600070470000B880000881B0009820F0010071
:104E700000901E48016B0969002918BFB1F5803FF9
:104E80000ED1C16961B10968C0698968007921FAE8
:104E900000F010F0010F03D1009840F001000090E5
:104EA000009820F002000090009820F00800009088
:104EB000009820F004000090009961F30000009930
:104EC0004FEA510161F3410000994FEA910161F30A
:104ED000820000994FEAD10161F3C300009901B04B
:104EE0004FEA111161F31F1070470000B8800008ED
:104EF0000648C16A002902BF406B00697047096813
:104F00004968406B0068401A70470000B88000088C
:104F10002C4881B0416B91F8211000291CBF0099E9
:104F200041F0010107D141680988012222EA91126A
:104F3000009962F300010091016B4A79009962F3D4
:104F400041010091016B8A79009962F3820100911D
:104F5000016BCA79009962F3C3010091016B0A7A6F
:104F6000009962F304110091016B4A7A009962F38F
:104F700045110091006B817A009861F386100090D2
:104F8000009961F300000099490861F3410000991C
:104F9000890861F382000099C90861F3C300009990
:104FA000090961F304100099490961F3451000995A
:104FB000890961F38610009901B0C90961F3DF1016
:104FC00070470000B88000080648816A002902BFC7
:104FD000406B4069704709684968406B4068401AF7
:104FE00070470000B8800008014800F091BD000043
:104FF000B8800008014900F0D0BE0000B880000869
:10500000014900F019BF0000B8800008014A01F012
:1050100077B80000B8800008014A01F00AB9000022
:10502000B88000081649012228B1012813D000BF1A
:105030004FF0FF307047086B0069002818BFB0F5CB
:10504000003FF5D18869B8B189690068097902FA29
:1050500001F1016110E0086B0069002818BFB0F58C
:10506000003FE5D1886938B189690068097901F1A3
:10507000100102FA01F101614FF0000070470000D9
:10508000B880000870B5144E05000B46144619BFD1
:10509000002B002C6FF0040070BD316BC87A10F04B
:1050A000040F4FF0FF3008BF70BDC968022918BF58
:1050B00070BD0320716B3246C8612146184601F06D
:1050C0001FF8002818BF70BD324621462846BDE8AB
:1050D000704001F0AEB80000B880000810B5184C60
:1050E000E06828B18188002300681A46FCF7B8FA06
:1050F000206928B18188002300681A46FCF7B0FABD
:10510000606928B18188002300681A46FCF7A8FA74
:10511000A06928B18188002300681A46FCF7A0FA2C
:10512000E06928B18188002300681A46FCF798FAE4
:10513000208CFCF70BFA216B0020C87210BD000018
:10514000B8800008014A00F0B3B90000F080000800
:105150000148006870470000F080000881B00098A6
:1051600020F0010000901E48016B0969002918BF5A
:10517000B1F5803F0ED1C16961B10968C069896824
:10518000007921FA00F010F0010F03D1009840F0EF
:1051900001000090009820F002000090009820F09C
:1051A00008000090009820F004000090009961F33E
:1051B000000000994FEA510161F3410000994FEA64
:1051C000910161F3820000994FEAD10161F3C300BC
:1051D000009901B04FEA111161F31F1070470000F0
:1051E000F08000080648C16A002902BF406B0069D0
:1051F000704709684968406B0068401A70470000B2
:10520000F08000082C4881B0416B91F821100029F2
:105210001CBF009941F0010107D1416809880122B2
:1052200022EA9112009962F300010091016B4A7920
:10523000009962F341010091016B8A79009962F350
:1052400082010091016BCA79009962F3C301009158
:10525000016B0A7A009962F304110091016B4A7A9A
:10526000009962F345110091006B817A009861F317
:1052700086100090009961F300000099490861F3DD
:1052800041000099890861F382000099C90861F31F
:10529000C3000099090961F304100099490961F3F9
:1052A00045100099890961F38610009901B0C90978
:1052B00061F3DF1070470000F08000080648816A43
:1052C000002902BF406B4069704709684968406B1C
:1052D0004068401A70470000F0800008014800F064
:1052E00017BC0000F0800008014900F056BD000026
:1052F000F0800008014900F09FBD0000F080000828
:10530000014A00F0FDBE0000F0800008014A00F0F4
:1053100090BF0000F08000081649012228B1012842
:1053200013D000BF4FF0FF307047086B00690028B2
:1053300018BFB0F5003FF5D18869B8B18969006838
:10534000097902FA01F1016110E0086B0069002897
:1053500018BFB0F5003FE5D1886938B189690068A8
:10536000097901F1100102FA01F101614FF0000029
:1053700070470000F080000870B5144E05000B4621
:10538000144619BF002B002C6FF0040070BD316B68
:10539000C87A10F0040F4FF0FF3008BF70BDC96825
:1053A000022918BF70BD0320716B3246C8612146C7
:1053B000184600F0A5FE002818BF70BD32462146F1
:1053C0002846BDE8704000F034BF0000F0800008BF
:1053D00010B5184CE06828B18188002300681A468F
:1053E000FCF73EF9206928B18188002300681A463D
:1053F000FCF736F9606928B18188002300681A46F5
:10540000FCF72EF9A06928B18188002300681A46AC
:10541000FCF726F9E06928B18188002300681A4664
:10542000FCF71EF9208CFCF791F8216B0020C87264
:1054300010BD0000F080000870B5194C054610F052
:10544000020F1AD0E068A16822690A44A26002F043
:105450003F01C1F14001101AC1F58053984284BF49
:105460000320E07007D8C2F30B000E4A21611044FC
:105470000D4A92699047012060710C4815F0200F89
:1054800004D02179425C42F08002425415F4607FDE
:1054900008BF70BD2179425C42F04002425470BDA9
:1054A000240000204C010020608100082A00002018
:1054B0002DE9F05F136B1446DA7A12F0020F00F058
:1054C000BB814FF0000800F0FF0CACF1150745461A
:1054D00046464246062F80F00981DFE807F08ABC85
:1054E0000325445C606B79B190F82110002940F0ED
:1054F0001C81012180F82110606B80F82010606809
:10550000818941F081018BE090F8200000286DD066
:105510006068818921F080018181606B80F82020A2
:10552000606B80F8212061E06068818921F0C00112
:105530008181A06A70B1606B90F8210050B1606801
:10554000818A21F080018182A06A0068016821F0CF
:1055500001010160606B80F82020606B80F82120E1
:105560000020BDE8F09F6068818921F020018181E1
:10557000E06A68B1206B407950B16068818A21F09F
:1055800040018182E06A0068016821F00101016048
:10559000206B42712AE06068818921F0E0018181FD
:1055A000A06A70B1606B90F8210050B16068818A88
:1055B00021F080018182A06A0068016821F0010168
:1055C0000160E06A68B1206B407950B16068818AFF
:1055D00021F040018182E06A0068016821F0010148
:1055E0000160206B4271606B80F821200020BDE8D3
:1055F000F09FE068002800F01F8199B1D968062962
:1056000005D08188006803230222FCF729F8206B6B
:10561000C17A41F00801C1726068818941F00801D6
:105620008181E3E76068818921F008018181206B35
:10563000C17A21F00801C172206BC06806281CBF26
:10564000E0680028D2D081884FF0000300681A4635
:10565000FCF706F8CAE72069002875D091B3D9682D
:10566000062918BF042907D0818800684FF000037D
:105670004FF00102FBF7F4FF206BC17A41F01001FB
:10568000C1726068818A41F0010181826068018A8B
:1056900041F0400101826068818941F010018181FF
:1056A000206B407900281CBFE06A002804D16068A4
:1056B000818941F0200181816068818941F0040184
:1056C000818193E7FFE76068818921F0040181818E
:1056D000206BC17A21F01001C172206BC0680628CE
:1056E0001EBF042820690028ADD17FE75A79E2B9AE
:1056F000626B92F82120C2B96268978917F0080F8F
:1057000003D0178817F0400F0FD0BCF1150F7DD2D2
:10571000DFE80CF0A10F11351B202EA1A1A1A1A142
:10572000A1A1A1A1393C5E688F006FF00100BDE826
:10573000F09F012312E0237813F0020F1CBF4FF4F7
:10574000106502230AD11AE076E04FF008064FF008
:10575000040303E04FF002064FF0050310F4E06C81
:1057600076D0BCF5807F74D0BCF5E06F77D0BDE01B
:10577000237813F0200F1CBF20260623EED16FF0F4
:105780000600BDE8F09F606B41832FE7D8680528CD
:1057900052D000293FF42AAF908A40F00400908252
:1057A000D94AA068B2FBF0F25FF0010002FB00F3FF
:1057B0008B429CBF401CB0F5807FF7D3B0F5807F53
:1057C0003AD061680A8B22F0FF02104308830DE78C
:1057D000D868062830D1FF292ED8108B20F47F40BE
:1057E000084324E0D868062826D1A068C64B01EB00
:1057F0000114B3FBF0FC01EB0113012003EB4303A5
:1058000004EB41140CFB00F5C82100E023E06943E0
:10581000B1EB430F02D2B1EB440F02D8401C402839
:10582000F0D3402808D0118B21F0FF0108431083EA
:10583000DCE6D868062803D04FF0FF30BDE8F09FC3
:1058400000293FF4D3AE908A40F010009082CDE65C
:1058500009E048E003E06FF00300BDE8F09F10F4BA
:10586000405F07D142E010F4405F03D045F02005CF
:105870004FF4805810F4405C0ED0BCF5805F08BF38
:1058800048F4806808D0BCF5005F16BF6FF00900CF
:1058900048F4C068BDE8F09F10F4404C14D0BCF54B
:1058A000804F08BF45F400550ED0BCF5004F08BF2F
:1058B00045F4405508D0BCF5404F16BF6FF00A00C4
:1058C00045F48055BDE8F09F10F4403C08BF002728
:1058D0001AD0BCF5803F0DD0BCF5003F17D0BCF509
:1058E000403F1FD02AE010F4405FBFD06FF00800A7
:1058F000BDE8F09F94F800C01CF0800F1CBF4FF46F
:10590000803746F4807619D0022B1BD032E0B4F8F1
:1059100000C01CF4807F1CBF4FF4003746F4C06603
:10592000F2D10BE0D4F800C01CF0800F1EBF1CF4B5
:10593000807F4FF4403746F4E066E5D16FF00B000E
:10594000BDE8F09F10F4802C08D0BCF5802F0EBF6E
:1059500045F480656FF00C00BDE8F09F10F4002066
:1059600008D0B0F5002F0EBF45F400756FF00D00A4
:10597000BDE8F09FD4F808A0DFF890910AEBCA00C8
:1059800000EB0A1C8800BCFBF0FBA9FB0BEBBCFB8B
:10599000F0FEBCFBF0F0A9FB00C040096FF0180C52
:1059A00000FB0CF00EEB80004FF0320C0CEB001003
:1059B000A9FB00C04FEA5B1B40096BF31F104FEAC5
:1059C0000A191FFA80FCB9FBFCF000094FF06409CA
:1059D00000FB09F001EB011909EB4909B0EB490F94
:1059E00006D201EB011909EB4111B0EB410F03D8CD
:1059F0006FF00700BDE8F09F908920F4005090817F
:105A00006068A0F808C0206BC360206B0761206B42
:105A1000C16806290AD0C07A10F0080FE0680ED0DD
:105A2000A0B181880323006802220DE0E06868B11C
:105A30008188006803230222FBF712FE06E028B1EA
:105A40008188002300681A46FBF70AFE206BC168B4
:105A5000042918BF06290CD0C07A10F0100F206955
:105A600011D0B8B1818800684FF000034FF00102F7
:105A70000EE0206970B181884FF0000300681A467B
:105A8000FBF7EEFD06E028B18188002300681A4686
:105A9000FBF7E6FD606968B1216BC968022918BF90
:105AA00006298188006807BF0323022200231A46C3
:105AB000FBF7D6FDA06968B1B7F5803F18BFB7F511
:105AC000403F8188006807BF0323022200231A4653
:105AD000FBF7C6FDE06928B1818800680023012238
